{
  "transactions": [
    {
      "hash": "0x26e4182d23428c71b91f7c49ee1ae0cae071f7e1066a06d2040c0cbcb9f22541",
      "transactionType": "CALL",
      "contractName": null,
      "contractAddress": "0x0AEA8ce800c5609e61E799648195620d1B62B3fd",
      "function": "ext_setup(address,address,address,address,uint256,bytes32)",
      "arguments": [
        "0x000000006551c19487814612e58FE06813775758",
        "0x9320Fc9A6DE47A326fBd12795Ba731859360cdaD",
        "0xb185d82B82257994c4f252Cc094385657370083b",
        "0x41C8f39463A868d3A88af00cd0fe7102F30E44eC",
        "84532",
        "0x0000000000000000000000000000000000000000000000000000000000000000"
      ],
      "transaction": {
        "type": "0x02",
        "from": "0xfc29edce481c4d7d2cda4c0ad6bf6c5fcf128704",
        "to": "0x0aea8ce800c5609e61e799648195620d1b62b3fd",
        "gas": "0x32350",
        "value": "0x0",
        "data": "0x522cd59f000000000000000000000000000000006551c19487814612e58fe068137757580000000000000000000000009320fc9a6de47a326fbd12795ba731859360cdad000000000000000000000000b185d82b82257994c4f252cc094385657370083b00000000000000000000000041c8f39463a868d3a88af00cd0fe7102f30e44ec0000000000000000000000000000000000000000000000000000000000014a340000000000000000000000000000000000000000000000000000000000000000",
        "nonce": "0x25",
        "accessList": []
      },
      "additionalContracts": [],
      "isFixedGasLimit": false
    },
    {
      "hash": "0xeb2a38cfc8875e435c6c4cf0e904a04218d5a9a145dbd7ec5f5f4c45281639e9",
      "transactionType": "CALL",
      "contractName": null,
      "contractAddress": "0xb185d82B82257994c4f252Cc094385657370083b",
      "function": "ext_setup(address)",
      "arguments": [
        "0x9320Fc9A6DE47A326fBd12795Ba731859360cdaD"
      ],
      "transaction": {
        "type": "0x02",
        "from": "0xfc29edce481c4d7d2cda4c0ad6bf6c5fcf128704",
        "to": "0xb185d82b82257994c4f252cc094385657370083b",
        "gas": "0x13bd1",
        "value": "0x0",
        "data": "0xe0c95a840000000000000000000000009320fc9a6de47a326fbd12795ba731859360cdad",
        "nonce": "0x26",
        "accessList": []
      },
      "additionalContracts": [],
      "isFixedGasLimit": false
    },
    {
      "hash": "0x8b70515bd3d4ce52245f426d2920b8a9d3ebf7738335b555220a303048de06cb",
      "transactionType": "CALL",
      "contractName": null,
      "contractAddress": "0xb185d82B82257994c4f252Cc094385657370083b",
      "function": "setGuard(bytes8,address)",
      "arguments": [
        "0x5cc15eb80ba37777000000000000000000000000000000000000000000000000",
        "0x0512105FC31bd1a35C48289908de89D9412B3d94"
      ],
      "transaction": {
        "type": "0x02",
        "from": "0xfc29edce481c4d7d2cda4c0ad6bf6c5fcf128704",
        "to": "0xb185d82b82257994c4f252cc094385657370083b",
        "gas": "0x23e41",
        "value": "0x0",
        "data": "0x2bcc01bf5cc15eb80ba377770000000000000000000000000000000000000000000000000000000000000000000000000512105fc31bd1a35c48289908de89d9412b3d94",
        "nonce": "0x27",
        "accessList": []
      },
      "additionalContracts": [],
      "isFixedGasLimit": false
    }
  ],
  "receipts": [
    {
      "transactionHash": "0x26e4182d23428c71b91f7c49ee1ae0cae071f7e1066a06d2040c0cbcb9f22541",
      "transactionIndex": "0x1",
      "blockHash": "0x7a38c970bfaba28671ee073307e4b4915467ae84ec10490e957ac7c5fd8edc0a",
      "blockNumber": "0xd20324",
      "from": "0xfC29eDCe481c4D7D2CDa4c0Ad6bF6C5Fcf128704",
      "to": "0x0AEA8ce800c5609e61E799648195620d1B62B3fd",
      "cumulativeGasUsed": "0x2f105",
      "gasUsed": "0x24596",
      "contractAddress": null,
      "logs": [],
      "status": "0x1",
      "logsBloom": "0x00000000000000000000000000000000000000000000000000000000000000000000000000000000000000000000000000000000000000000000000000000000000000000000000000000000000000000000000000000000000000000000000000000000000000000000000000000000000000000000000000000000000000000000000000000000000000000000000000000000000000000000000000000000000000000000000000000000000000000000000000000000000000000000000000000000000000000000000000000000000000000000000000000000000000000000000000000000000000000000000000000000000000000000000000000000",
      "type": "0x2",
      "effectiveGasPrice": "0xb35e9f22"
    },
    {
      "transactionHash": "0xeb2a38cfc8875e435c6c4cf0e904a04218d5a9a145dbd7ec5f5f4c45281639e9",
      "transactionIndex": "0x2",
      "blockHash": "0x7a38c970bfaba28671ee073307e4b4915467ae84ec10490e957ac7c5fd8edc0a",
      "blockNumber": "0xd20324",
      "from": "0xfC29eDCe481c4D7D2CDa4c0Ad6bF6C5Fcf128704",
      "to": "0xb185d82B82257994c4f252Cc094385657370083b",
      "cumulativeGasUsed": "0x3c8f7",
      "gasUsed": "0xd7f2",
      "contractAddress": null,
      "logs": [],
      "status": "0x1",
      "logsBloom": "0x00000000000000000000000000000000000000000000000000000000000000000000000000000000000000000000000000000000000000000000000000000000000000000000000000000000000000000000000000000000000000000000000000000000000000000000000000000000000000000000000000000000000000000000000000000000000000000000000000000000000000000000000000000000000000000000000000000000000000000000000000000000000000000000000000000000000000000000000000000000000000000000000000000000000000000000000000000000000000000000000000000000000000000000000000000000",
      "type": "0x2",
      "effectiveGasPrice": "0xb35e9f22"
    },
    {
      "transactionHash": "0x8b70515bd3d4ce52245f426d2920b8a9d3ebf7738335b555220a303048de06cb",
      "transactionIndex": "0x3",
      "blockHash": "0x7a38c970bfaba28671ee073307e4b4915467ae84ec10490e957ac7c5fd8edc0a",
      "blockNumber": "0xd20324",
      "from": "0xfC29eDCe481c4D7D2CDa4c0Ad6bF6C5Fcf128704",
      "to": "0xb185d82B82257994c4f252Cc094385657370083b",
      "cumulativeGasUsed": "0x568b7",
      "gasUsed": "0x19fc0",
      "contractAddress": null,
      "logs": [
        {
          "address": "0xb185d82B82257994c4f252Cc094385657370083b",
          "topics": [
            "0xa1a0cb6753f295c95d69a9605ae41bc39aae539a2ee3a1e53cecd5cc93ee5f01",
            "0x5cc15eb80ba37777000000000000000000000000000000000000000000000000",
            "0x0000000000000000000000000000000000000000000000000000000000000000",
            "0x0000000000000000000000000512105fc31bd1a35c48289908de89d9412b3d94"
          ],
          "data": "0x",
          "blockHash": "0x7a38c970bfaba28671ee073307e4b4915467ae84ec10490e957ac7c5fd8edc0a",
          "blockNumber": "0xd20324",
          "transactionHash": "0x8b70515bd3d4ce52245f426d2920b8a9d3ebf7738335b555220a303048de06cb",
          "transactionIndex": "0x3",
          "logIndex": "0x0",
          "removed": false
        }
      ],
      "status": "0x1",
      "logsBloom": "0x00000000000000000000000000000000000000000000400000000000000000000000000000000000000000000000000000000000000000000000000000000000000020000000002000000002000400000000000000000000000000000000000000000000020000000000000000000800000000000000000000000000000000000080000000000000000000020000000200000000000000000000000000000000000000000000000000000000000000000000000000000000000000000000000000000000000000000002000000000000000000000000000000000010000020000000000000000800000000000000000000000000000000002000000000000000",
      "type": "0x2",
      "effectiveGasPrice": "0xb35e9f22"
    }
  ],
  "libraries": [],
  "pending": [],
  "returns": {},
  "timestamp": 1723295021,
  "chain": 84532,
  "commit": "3bb51a9"
}