{
  "transactions": [
    {
      "hash": null,
      "transactionType": "CALL",
      "contractName": null,
      "contractAddress": "0x8F071320A60E4Aac7dA5FBA5F201F9bcc66f86e9",
      "function": "ext_registerTrait(bytes,string)",
      "arguments": [
        "0x0015171f090e020e020e020e02020201000b02020201000b02020201000b02020201000b02020201000b02020201000b02020201000b02",
        "\"body-bege-bsod\""
      ],
      "transaction": {
        "type": "0x02",
        "from": "0xfc29edce481c4d7d2cda4c0ad6bf6c5fcf128704",
        "to": "0x8f071320a60e4aac7da5fba5f201f9bcc66f86e9",
        "gas": "0x2d467",
        "value": "0x0",
        "data": "0x87c7a30f000000000000000000000000000000000000000000000000000000000000004000000000000000000000000000000000000000000000000000000000000000a000000000000000000000000000000000000000000000000000000000000000370015171f090e020e020e020e02020201000b02020201000b02020201000b02020201000b02020201000b02020201000b02020201000b02000000000000000000000000000000000000000000000000000000000000000000000000000000000e626f64792d626567652d62736f64000000000000000000000000000000000000",
        "nonce": "0x7c",
        "accessList": []
      },
      "additionalContracts": [],
      "isFixedGasLimit": false
    },
    {
      "hash": null,
      "transactionType": "CALL",
      "contractName": null,
      "contractAddress": "0x8F071320A60E4Aac7dA5FBA5F201F9bcc66f86e9",
      "function": "ext_registerTrait(bytes,string)",
      "arguments": [
        "0x0015171f090e030e030e030e03020301000b03020301000b03020301000b03020301000b03020301000b03020301000b03020301000b03",
        "\"body-bege-crt\""
      ],
      "transaction": {
        "type": "0x02",
        "from": "0xfc29edce481c4d7d2cda4c0ad6bf6c5fcf128704",
        "to": "0x8f071320a60e4aac7da5fba5f201f9bcc66f86e9",
        "gas": "0x2fef3",
        "value": "0x0",
        "data": "0x87c7a30f000000000000000000000000000000000000000000000000000000000000004000000000000000000000000000000000000000000000000000000000000000a000000000000000000000000000000000000000000000000000000000000000370015171f090e030e030e030e03020301000b03020301000b03020301000b03020301000b03020301000b03020301000b03020301000b03000000000000000000000000000000000000000000000000000000000000000000000000000000000d626f64792d626567652d63727400000000000000000000000000000000000000",
        "nonce": "0x7d",
        "accessList": []
      },
      "additionalContracts": [],
      "isFixedGasLimit": false
    },
    {
      "hash": null,
      "transactionType": "CALL",
      "contractName": null,
      "contractAddress": "0x8F071320A60E4Aac7dA5FBA5F201F9bcc66f86e9",
      "function": "ext_registerTrait(bytes,string)",
      "arguments": [
        "0x0015171f090e040e040e040e04020401000b04020401000b04020401000b04020401000b04020401000b04020401000b04020401000b04",
        "\"body-blue-sky\""
      ],
      "transaction": {
        "type": "0x02",
        "from": "0xfc29edce481c4d7d2cda4c0ad6bf6c5fcf128704",
        "to": "0x8f071320a60e4aac7da5fba5f201f9bcc66f86e9",
        "gas": "0x2fef3",
        "value": "0x0",
        "data": "0x87c7a30f000000000000000000000000000000000000000000000000000000000000004000000000000000000000000000000000000000000000000000000000000000a000000000000000000000000000000000000000000000000000000000000000370015171f090e040e040e040e04020401000b04020401000b04020401000b04020401000b04020401000b04020401000b04020401000b04000000000000000000000000000000000000000000000000000000000000000000000000000000000d626f64792d626c75652d736b7900000000000000000000000000000000000000",
        "nonce": "0x7e",
        "accessList": []
      },
      "additionalContracts": [],
      "isFixedGasLimit": false
    },
    {
      "hash": null,
      "transactionType": "CALL",
      "contractName": null,
      "contractAddress": "0x8F071320A60E4Aac7dA5FBA5F201F9bcc66f86e9",
      "function": "ext_registerTrait(bytes,string)",
      "arguments": [
        "0x0015171f090e050e050e050e05020501000b05020501000b05020501000b05020501000b05020501000b05020501000b05020501000b05",
        "\"body-bluegrey\""
      ],
      "transaction": {
        "type": "0x02",
        "from": "0xfc29edce481c4d7d2cda4c0ad6bf6c5fcf128704",
        "to": "0x8f071320a60e4aac7da5fba5f201f9bcc66f86e9",
        "gas": "0x2fef3",
        "value": "0x0",
        "data": "0x87c7a30f000000000000000000000000000000000000000000000000000000000000004000000000000000000000000000000000000000000000000000000000000000a000000000000000000000000000000000000000000000000000000000000000370015171f090e050e050e050e05020501000b05020501000b05020501000b05020501000b05020501000b05020501000b05020501000b05000000000000000000000000000000000000000000000000000000000000000000000000000000000d626f64792d626c75656772657900000000000000000000000000000000000000",
        "nonce": "0x7f",
        "accessList": []
      },
      "additionalContracts": [],
      "isFixedGasLimit": false
    },
    {
      "hash": null,
      "transactionType": "CALL",
      "contractName": null,
      "contractAddress": "0x8F071320A60E4Aac7dA5FBA5F201F9bcc66f86e9",
      "function": "ext_registerTrait(bytes,string)",
      "arguments": [
        "0x0015171f090e060e060e060e06020601000b06020601000b06020601000b06020601000b06020601000b06020601000b06020601000b06",
        "\"body-cold\""
      ],
      "transaction": {
        "type": "0x02",
        "from": "0xfc29edce481c4d7d2cda4c0ad6bf6c5fcf128704",
        "to": "0x8f071320a60e4aac7da5fba5f201f9bcc66f86e9",
        "gas": "0x2feac",
        "value": "0x0",
        "data": "0x87c7a30f000000000000000000000000000000000000000000000000000000000000004000000000000000000000000000000000000000000000000000000000000000a000000000000000000000000000000000000000000000000000000000000000370015171f090e060e060e060e06020601000b06020601000b06020601000b06020601000b06020601000b06020601000b06020601000b060000000000000000000000000000000000000000000000000000000000000000000000000000000009626f64792d636f6c640000000000000000000000000000000000000000000000",
        "nonce": "0x80",
        "accessList": []
      },
      "additionalContracts": [],
      "isFixedGasLimit": false
    },
    {
      "hash": null,
      "transactionType": "CALL",
      "contractName": null,
      "contractAddress": "0x8F071320A60E4Aac7dA5FBA5F201F9bcc66f86e9",
      "function": "ext_registerTrait(bytes,string)",
      "arguments": [
        "0x0015171f090e070e070e070e07020701000b07020701000b07020701000b07020701000b07020701000b07020701000b07020701000b07",
        "\"body-computerblue\""
      ],
      "transaction": {
        "type": "0x02",
        "from": "0xfc29edce481c4d7d2cda4c0ad6bf6c5fcf128704",
        "to": "0x8f071320a60e4aac7da5fba5f201f9bcc66f86e9",
        "gas": "0x2ff39",
        "value": "0x0",
        "data": "0x87c7a30f000000000000000000000000000000000000000000000000000000000000004000000000000000000000000000000000000000000000000000000000000000a000000000000000000000000000000000000000000000000000000000000000370015171f090e070e070e070e07020701000b07020701000b07020701000b07020701000b07020701000b07020701000b07020701000b070000000000000000000000000000000000000000000000000000000000000000000000000000000011626f64792d636f6d7075746572626c7565000000000000000000000000000000",
        "nonce": "0x81",
        "accessList": []
      },
      "additionalContracts": [],
      "isFixedGasLimit": false
    },
    {
      "hash": null,
      "transactionType": "CALL",
      "contractName": null,
      "contractAddress": "0x8F071320A60E4Aac7dA5FBA5F201F9bcc66f86e9",
      "function": "ext_registerTrait(bytes,string)",
      "arguments": [
        "0x0015171f090e080e080e080e08020801000b08020801000b08020801000b08020801000b08020801000b08020801000b08020801000b08",
        "\"body-darkbrown\""
      ],
      "transaction": {
        "type": "0x02",
        "from": "0xfc29edce481c4d7d2cda4c0ad6bf6c5fcf128704",
        "to": "0x8f071320a60e4aac7da5fba5f201f9bcc66f86e9",
        "gas": "0x2d467",
        "value": "0x0",
        "data": "0x87c7a30f000000000000000000000000000000000000000000000000000000000000004000000000000000000000000000000000000000000000000000000000000000a000000000000000000000000000000000000000000000000000000000000000370015171f090e080e080e080e08020801000b08020801000b08020801000b08020801000b08020801000b08020801000b08020801000b08000000000000000000000000000000000000000000000000000000000000000000000000000000000e626f64792d6461726b62726f776e000000000000000000000000000000000000",
        "nonce": "0x82",
        "accessList": []
      },
      "additionalContracts": [],
      "isFixedGasLimit": false
    },
    {
      "hash": null,
      "transactionType": "CALL",
      "contractName": null,
      "contractAddress": "0x8F071320A60E4Aac7dA5FBA5F201F9bcc66f86e9",
      "function": "ext_registerTrait(bytes,string)",
      "arguments": [
        "0x0015171f090e090e090e090e09020901000b09020901000b09020901000b09020901000b09020901000b09020901000b09020901000b09",
        "\"body-darkpink\""
      ],
      "transaction": {
        "type": "0x02",
        "from": "0xfc29edce481c4d7d2cda4c0ad6bf6c5fcf128704",
        "to": "0x8f071320a60e4aac7da5fba5f201f9bcc66f86e9",
        "gas": "0x2fef3",
        "value": "0x0",
        "data": "0x87c7a30f000000000000000000000000000000000000000000000000000000000000004000000000000000000000000000000000000000000000000000000000000000a000000000000000000000000000000000000000000000000000000000000000370015171f090e090e090e090e09020901000b09020901000b09020901000b09020901000b09020901000b09020901000b09020901000b09000000000000000000000000000000000000000000000000000000000000000000000000000000000d626f64792d6461726b70696e6b00000000000000000000000000000000000000",
        "nonce": "0x83",
        "accessList": []
      },
      "additionalContracts": [],
      "isFixedGasLimit": false
    },
    {
      "hash": null,
      "transactionType": "CALL",
      "contractName": null,
      "contractAddress": "0x8F071320A60E4Aac7dA5FBA5F201F9bcc66f86e9",
      "function": "ext_registerTrait(bytes,string)",
      "arguments": [
        "0x0015171f090e030e030e030e03020301000b03020301000b03020301000b03020301000b03020301000b03020301000b03020301000b03",
        "\"body-foggrey\""
      ],
      "transaction": {
        "type": "0x02",
        "from": "0xfc29edce481c4d7d2cda4c0ad6bf6c5fcf128704",
        "to": "0x8f071320a60e4aac7da5fba5f201f9bcc66f86e9",
        "gas": "0x2d445",
        "value": "0x0",
        "data": "0x87c7a30f000000000000000000000000000000000000000000000000000000000000004000000000000000000000000000000000000000000000000000000000000000a000000000000000000000000000000000000000000000000000000000000000370015171f090e030e030e030e03020301000b03020301000b03020301000b03020301000b03020301000b03020301000b03020301000b03000000000000000000000000000000000000000000000000000000000000000000000000000000000c626f64792d666f67677265790000000000000000000000000000000000000000",
        "nonce": "0x84",
        "accessList": []
      },
      "additionalContracts": [],
      "isFixedGasLimit": false
    },
    {
      "hash": null,
      "transactionType": "CALL",
      "contractName": null,
      "contractAddress": "0x8F071320A60E4Aac7dA5FBA5F201F9bcc66f86e9",
      "function": "ext_registerTrait(bytes,string)",
      "arguments": [
        "0x0015171f090e0a0e0a0e0a0e0a020a01000b0a020a01000b0a020a01000b0a020a01000b0a020a01000b0a020a01000b0a020a01000b0a",
        "\"body-gold\""
      ],
      "transaction": {
        "type": "0x02",
        "from": "0xfc29edce481c4d7d2cda4c0ad6bf6c5fcf128704",
        "to": "0x8f071320a60e4aac7da5fba5f201f9bcc66f86e9",
        "gas": "0x2feac",
        "value": "0x0",
        "data": "0x87c7a30f000000000000000000000000000000000000000000000000000000000000004000000000000000000000000000000000000000000000000000000000000000a000000000000000000000000000000000000000000000000000000000000000370015171f090e0a0e0a0e0a0e0a020a01000b0a020a01000b0a020a01000b0a020a01000b0a020a01000b0a020a01000b0a020a01000b0a0000000000000000000000000000000000000000000000000000000000000000000000000000000009626f64792d676f6c640000000000000000000000000000000000000000000000",
        "nonce": "0x85",
        "accessList": []
      },
      "additionalContracts": [],
      "isFixedGasLimit": false
    }
  ],
  "receipts": [],
  "libraries": [],
  "pending": [],
  "returns": {},
  "timestamp": 1709770213,
  "chain": 11155111,
  "multi": false,
  "commit": "e390df5"
}