{
  "transactions": [
    {
      "hash": "0x75ba117f0bc2b766c1c288e5a95f25bfee5487144b3e2fdbe828fcc23167240b",
      "transactionType": "CALL",
      "contractName": null,
      "contractAddress": "0xfe78Eb05fADA4607560E2485F39316a4d16983d3",
      "function": "ext_registerTrait(bytes,string)",
      "arguments": [
        "0x0015171f090e020e020e020e02020201000b02020201000b02020201000b02020201000b02020201000b02020201000b02020201000b02",
        "\"body-bege-bsod\""
      ],
      "transaction": {
        "type": "0x02",
        "from": "0xfc29edce481c4d7d2cda4c0ad6bf6c5fcf128704",
        "to": "0xfe78eb05fada4607560e2485f39316a4d16983d3",
        "gas": "0x360b5",
        "value": "0x0",
        "data": "0x87c7a30f000000000000000000000000000000000000000000000000000000000000004000000000000000000000000000000000000000000000000000000000000000a000000000000000000000000000000000000000000000000000000000000000370015171f090e020e020e020e02020201000b02020201000b02020201000b02020201000b02020201000b02020201000b02020201000b02000000000000000000000000000000000000000000000000000000000000000000000000000000000e626f64792d626567652d62736f64000000000000000000000000000000000000",
        "nonce": "0x8",
        "accessList": []
      },
      "additionalContracts": [],
      "isFixedGasLimit": false
    },
    {
      "hash": "0x823e89df0e9f5f25449813131627ead0588ebba0d1326b24458f0f526a882b70",
      "transactionType": "CALL",
      "contractName": null,
      "contractAddress": "0xfe78Eb05fADA4607560E2485F39316a4d16983d3",
      "function": "ext_registerTrait(bytes,string)",
      "arguments": [
        "0x0015171f090e030e030e030e03020301000b03020301000b03020301000b03020301000b03020301000b03020301000b03020301000b03",
        "\"body-bege-crt\""
      ],
      "transaction": {
        "type": "0x02",
        "from": "0xfc29edce481c4d7d2cda4c0ad6bf6c5fcf128704",
        "to": "0xfe78eb05fada4607560e2485f39316a4d16983d3",
        "gas": "0x2fef3",
        "value": "0x0",
        "data": "0x87c7a30f000000000000000000000000000000000000000000000000000000000000004000000000000000000000000000000000000000000000000000000000000000a000000000000000000000000000000000000000000000000000000000000000370015171f090e030e030e030e03020301000b03020301000b03020301000b03020301000b03020301000b03020301000b03020301000b03000000000000000000000000000000000000000000000000000000000000000000000000000000000d626f64792d626567652d63727400000000000000000000000000000000000000",
        "nonce": "0x9",
        "accessList": []
      },
      "additionalContracts": [],
      "isFixedGasLimit": false
    },
    {
      "hash": "0x5d9eec8f0381a6f58d75387030a9e18c76a9890cbed51b5160825cda408135a0",
      "transactionType": "CALL",
      "contractName": null,
      "contractAddress": "0xfe78Eb05fADA4607560E2485F39316a4d16983d3",
      "function": "ext_registerTrait(bytes,string)",
      "arguments": [
        "0x0015171f090e040e040e040e04020401000b04020401000b04020401000b04020401000b04020401000b04020401000b04020401000b04",
        "\"body-blue-sky\""
      ],
      "transaction": {
        "type": "0x02",
        "from": "0xfc29edce481c4d7d2cda4c0ad6bf6c5fcf128704",
        "to": "0xfe78eb05fada4607560e2485f39316a4d16983d3",
        "gas": "0x2fef3",
        "value": "0x0",
        "data": "0x87c7a30f000000000000000000000000000000000000000000000000000000000000004000000000000000000000000000000000000000000000000000000000000000a000000000000000000000000000000000000000000000000000000000000000370015171f090e040e040e040e04020401000b04020401000b04020401000b04020401000b04020401000b04020401000b04020401000b04000000000000000000000000000000000000000000000000000000000000000000000000000000000d626f64792d626c75652d736b7900000000000000000000000000000000000000",
        "nonce": "0xa",
        "accessList": []
      },
      "additionalContracts": [],
      "isFixedGasLimit": false
    },
    {
      "hash": "0xfcd75e2d27a4a4a363bbf8cb1e8cdbf96261faeb7ba81ed1a010404be3322f61",
      "transactionType": "CALL",
      "contractName": null,
      "contractAddress": "0xfe78Eb05fADA4607560E2485F39316a4d16983d3",
      "function": "ext_registerTrait(bytes,string)",
      "arguments": [
        "0x0015171f090e050e050e050e05020501000b05020501000b05020501000b05020501000b05020501000b05020501000b05020501000b05",
        "\"body-bluegrey\""
      ],
      "transaction": {
        "type": "0x02",
        "from": "0xfc29edce481c4d7d2cda4c0ad6bf6c5fcf128704",
        "to": "0xfe78eb05fada4607560e2485f39316a4d16983d3",
        "gas": "0x2fef3",
        "value": "0x0",
        "data": "0x87c7a30f000000000000000000000000000000000000000000000000000000000000004000000000000000000000000000000000000000000000000000000000000000a000000000000000000000000000000000000000000000000000000000000000370015171f090e050e050e050e05020501000b05020501000b05020501000b05020501000b05020501000b05020501000b05020501000b05000000000000000000000000000000000000000000000000000000000000000000000000000000000d626f64792d626c75656772657900000000000000000000000000000000000000",
        "nonce": "0xb",
        "accessList": []
      },
      "additionalContracts": [],
      "isFixedGasLimit": false
    },
    {
      "hash": "0xb026d4e24d3dffd4de5f83a640a9ddd45bd886c646d1bcde03bd041800b8b7ed",
      "transactionType": "CALL",
      "contractName": null,
      "contractAddress": "0xfe78Eb05fADA4607560E2485F39316a4d16983d3",
      "function": "ext_registerTrait(bytes,string)",
      "arguments": [
        "0x0015171f090e060e060e060e06020601000b06020601000b06020601000b06020601000b06020601000b06020601000b06020601000b06",
        "\"body-cold\""
      ],
      "transaction": {
        "type": "0x02",
        "from": "0xfc29edce481c4d7d2cda4c0ad6bf6c5fcf128704",
        "to": "0xfe78eb05fada4607560e2485f39316a4d16983d3",
        "gas": "0x2feac",
        "value": "0x0",
        "data": "0x87c7a30f000000000000000000000000000000000000000000000000000000000000004000000000000000000000000000000000000000000000000000000000000000a000000000000000000000000000000000000000000000000000000000000000370015171f090e060e060e060e06020601000b06020601000b06020601000b06020601000b06020601000b06020601000b06020601000b060000000000000000000000000000000000000000000000000000000000000000000000000000000009626f64792d636f6c640000000000000000000000000000000000000000000000",
        "nonce": "0xc",
        "accessList": []
      },
      "additionalContracts": [],
      "isFixedGasLimit": false
    },
    {
      "hash": "0xf34c895dfa2eabf7f308039a7d8f3214e1c242a349a0ac1bcc33fc0be8b3dfba",
      "transactionType": "CALL",
      "contractName": null,
      "contractAddress": "0xfe78Eb05fADA4607560E2485F39316a4d16983d3",
      "function": "ext_registerTrait(bytes,string)",
      "arguments": [
        "0x0015171f090e070e070e070e07020701000b07020701000b07020701000b07020701000b07020701000b07020701000b07020701000b07",
        "\"body-computerblue\""
      ],
      "transaction": {
        "type": "0x02",
        "from": "0xfc29edce481c4d7d2cda4c0ad6bf6c5fcf128704",
        "to": "0xfe78eb05fada4607560e2485f39316a4d16983d3",
        "gas": "0x2ff39",
        "value": "0x0",
        "data": "0x87c7a30f000000000000000000000000000000000000000000000000000000000000004000000000000000000000000000000000000000000000000000000000000000a000000000000000000000000000000000000000000000000000000000000000370015171f090e070e070e070e07020701000b07020701000b07020701000b07020701000b07020701000b07020701000b07020701000b070000000000000000000000000000000000000000000000000000000000000000000000000000000011626f64792d636f6d7075746572626c7565000000000000000000000000000000",
        "nonce": "0xd",
        "accessList": []
      },
      "additionalContracts": [],
      "isFixedGasLimit": false
    },
    {
      "hash": "0x7ade347b7da245c93a04fecbc7cb8a54d4a991d1c253583ba997287742895ead",
      "transactionType": "CALL",
      "contractName": null,
      "contractAddress": "0xfe78Eb05fADA4607560E2485F39316a4d16983d3",
      "function": "ext_registerTrait(bytes,string)",
      "arguments": [
        "0x0015171f090e080e080e080e08020801000b08020801000b08020801000b08020801000b08020801000b08020801000b08020801000b08",
        "\"body-darkbrown\""
      ],
      "transaction": {
        "type": "0x02",
        "from": "0xfc29edce481c4d7d2cda4c0ad6bf6c5fcf128704",
        "to": "0xfe78eb05fada4607560e2485f39316a4d16983d3",
        "gas": "0x2d467",
        "value": "0x0",
        "data": "0x87c7a30f000000000000000000000000000000000000000000000000000000000000004000000000000000000000000000000000000000000000000000000000000000a000000000000000000000000000000000000000000000000000000000000000370015171f090e080e080e080e08020801000b08020801000b08020801000b08020801000b08020801000b08020801000b08020801000b08000000000000000000000000000000000000000000000000000000000000000000000000000000000e626f64792d6461726b62726f776e000000000000000000000000000000000000",
        "nonce": "0xe",
        "accessList": []
      },
      "additionalContracts": [],
      "isFixedGasLimit": false
    },
    {
      "hash": "0x911eeb07eda76423568dcdf06463b8f282be3d7fde63d4f4de0ae00c303ce788",
      "transactionType": "CALL",
      "contractName": null,
      "contractAddress": "0xfe78Eb05fADA4607560E2485F39316a4d16983d3",
      "function": "ext_registerTrait(bytes,string)",
      "arguments": [
        "0x0015171f090e090e090e090e09020901000b09020901000b09020901000b09020901000b09020901000b09020901000b09020901000b09",
        "\"body-darkpink\""
      ],
      "transaction": {
        "type": "0x02",
        "from": "0xfc29edce481c4d7d2cda4c0ad6bf6c5fcf128704",
        "to": "0xfe78eb05fada4607560e2485f39316a4d16983d3",
        "gas": "0x2fef3",
        "value": "0x0",
        "data": "0x87c7a30f000000000000000000000000000000000000000000000000000000000000004000000000000000000000000000000000000000000000000000000000000000a000000000000000000000000000000000000000000000000000000000000000370015171f090e090e090e090e09020901000b09020901000b09020901000b09020901000b09020901000b09020901000b09020901000b09000000000000000000000000000000000000000000000000000000000000000000000000000000000d626f64792d6461726b70696e6b00000000000000000000000000000000000000",
        "nonce": "0xf",
        "accessList": []
      },
      "additionalContracts": [],
      "isFixedGasLimit": false
    },
    {
      "hash": "0x487874ca75be5e9698d371f005b1f18a5d86ca3d5b0de8101c69aa2a154f8790",
      "transactionType": "CALL",
      "contractName": null,
      "contractAddress": "0xfe78Eb05fADA4607560E2485F39316a4d16983d3",
      "function": "ext_registerTrait(bytes,string)",
      "arguments": [
        "0x0015171f090e030e030e030e03020301000b03020301000b03020301000b03020301000b03020301000b03020301000b03020301000b03",
        "\"body-foggrey\""
      ],
      "transaction": {
        "type": "0x02",
        "from": "0xfc29edce481c4d7d2cda4c0ad6bf6c5fcf128704",
        "to": "0xfe78eb05fada4607560e2485f39316a4d16983d3",
        "gas": "0x2d445",
        "value": "0x0",
        "data": "0x87c7a30f000000000000000000000000000000000000000000000000000000000000004000000000000000000000000000000000000000000000000000000000000000a000000000000000000000000000000000000000000000000000000000000000370015171f090e030e030e030e03020301000b03020301000b03020301000b03020301000b03020301000b03020301000b03020301000b03000000000000000000000000000000000000000000000000000000000000000000000000000000000c626f64792d666f67677265790000000000000000000000000000000000000000",
        "nonce": "0x10",
        "accessList": []
      },
      "additionalContracts": [],
      "isFixedGasLimit": false
    },
    {
      "hash": "0x5457d411483fd742fa5ddd809b13d971ffcc7e71d9e536e525440e641ba6750c",
      "transactionType": "CALL",
      "contractName": null,
      "contractAddress": "0xfe78Eb05fADA4607560E2485F39316a4d16983d3",
      "function": "ext_registerTrait(bytes,string)",
      "arguments": [
        "0x0015171f090e0a0e0a0e0a0e0a020a01000b0a020a01000b0a020a01000b0a020a01000b0a020a01000b0a020a01000b0a020a01000b0a",
        "\"body-gold\""
      ],
      "transaction": {
        "type": "0x02",
        "from": "0xfc29edce481c4d7d2cda4c0ad6bf6c5fcf128704",
        "to": "0xfe78eb05fada4607560e2485f39316a4d16983d3",
        "gas": "0x2feac",
        "value": "0x0",
        "data": "0x87c7a30f000000000000000000000000000000000000000000000000000000000000004000000000000000000000000000000000000000000000000000000000000000a000000000000000000000000000000000000000000000000000000000000000370015171f090e0a0e0a0e0a0e0a020a01000b0a020a01000b0a020a01000b0a020a01000b0a020a01000b0a020a01000b0a020a01000b0a0000000000000000000000000000000000000000000000000000000000000000000000000000000009626f64792d676f6c640000000000000000000000000000000000000000000000",
        "nonce": "0x11",
        "accessList": []
      },
      "additionalContracts": [],
      "isFixedGasLimit": false
    },
    {
      "hash": "0xb1025f46282c108da2a42c358def76ad74fdfcc78c00b3d748da944be35e53c8",
      "transactionType": "CALL",
      "contractName": null,
      "contractAddress": "0xfe78Eb05fADA4607560E2485F39316a4d16983d3",
      "function": "ext_registerTrait(bytes,string)",
      "arguments": [
        "0x0015171f090e0b0e0b0e0b0e0b020b01000b0b020b01000b0b020b01000b0b020b01000b0b020b01000b0b020b01000b0b020b01000b0b",
        "\"body-grayscale-1\""
      ],
      "transaction": {
        "type": "0x02",
        "from": "0xfc29edce481c4d7d2cda4c0ad6bf6c5fcf128704",
        "to": "0xfe78eb05fada4607560e2485f39316a4d16983d3",
        "gas": "0x2d488",
        "value": "0x0",
        "data": "0x87c7a30f000000000000000000000000000000000000000000000000000000000000004000000000000000000000000000000000000000000000000000000000000000a000000000000000000000000000000000000000000000000000000000000000370015171f090e0b0e0b0e0b0e0b020b01000b0b020b01000b0b020b01000b0b020b01000b0b020b01000b0b020b01000b0b020b01000b0b0000000000000000000000000000000000000000000000000000000000000000000000000000000010626f64792d677261797363616c652d3100000000000000000000000000000000",
        "nonce": "0x12",
        "accessList": []
      },
      "additionalContracts": [],
      "isFixedGasLimit": false
    },
    {
      "hash": "0x13a8ef8a4712b0cec06f65c1adc4c6177b14ff7a51c74c69d4264c79a718bd32",
      "transactionType": "CALL",
      "contractName": null,
      "contractAddress": "0xfe78Eb05fADA4607560E2485F39316a4d16983d3",
      "function": "ext_registerTrait(bytes,string)",
      "arguments": [
        "0x0015171f090e0c0e0c0e0c0e0c020c01000b0c020c01000b0c020c01000b0c020c01000b0c020c01000b0c020c01000b0c020c01000b0c",
        "\"body-grayscale-7\""
      ],
      "transaction": {
        "type": "0x02",
        "from": "0xfc29edce481c4d7d2cda4c0ad6bf6c5fcf128704",
        "to": "0xfe78eb05fada4607560e2485f39316a4d16983d3",
        "gas": "0x2d488",
        "value": "0x0",
        "data": "0x87c7a30f000000000000000000000000000000000000000000000000000000000000004000000000000000000000000000000000000000000000000000000000000000a000000000000000000000000000000000000000000000000000000000000000370015171f090e0c0e0c0e0c0e0c020c01000b0c020c01000b0c020c01000b0c020c01000b0c020c01000b0c020c01000b0c020c01000b0c0000000000000000000000000000000000000000000000000000000000000000000000000000000010626f64792d677261797363616c652d3700000000000000000000000000000000",
        "nonce": "0x13",
        "accessList": []
      },
      "additionalContracts": [],
      "isFixedGasLimit": false
    },
    {
      "hash": "0xc26716ce45c5a1ef3a4db5ea9d84c73241869a93ea459dbf8ec38c0e2558b226",
      "transactionType": "CALL",
      "contractName": null,
      "contractAddress": "0xfe78Eb05fADA4607560E2485F39316a4d16983d3",
      "function": "ext_registerTrait(bytes,string)",
      "arguments": [
        "0x0015171f090e0d0e0d0e0d0e0d020d01000b0d020d01000b0d020d01000b0d020d01000b0d020d01000b0d020d01000b0d020d01000b0d",
        "\"body-grayscale-8\""
      ],
      "transaction": {
        "type": "0x02",
        "from": "0xfc29edce481c4d7d2cda4c0ad6bf6c5fcf128704",
        "to": "0xfe78eb05fada4607560e2485f39316a4d16983d3",
        "gas": "0x2d488",
        "value": "0x0",
        "data": "0x87c7a30f000000000000000000000000000000000000000000000000000000000000004000000000000000000000000000000000000000000000000000000000000000a000000000000000000000000000000000000000000000000000000000000000370015171f090e0d0e0d0e0d0e0d020d01000b0d020d01000b0d020d01000b0d020d01000b0d020d01000b0d020d01000b0d020d01000b0d0000000000000000000000000000000000000000000000000000000000000000000000000000000010626f64792d677261797363616c652d3800000000000000000000000000000000",
        "nonce": "0x14",
        "accessList": []
      },
      "additionalContracts": [],
      "isFixedGasLimit": false
    },
    {
      "hash": "0x14bf8d03cde69ace642023167d6861bd778b420d35ed7e1e56b4419dd29eaa4f",
      "transactionType": "CALL",
      "contractName": null,
      "contractAddress": "0xfe78Eb05fADA4607560E2485F39316a4d16983d3",
      "function": "ext_registerTrait(bytes,string)",
      "arguments": [
        "0x0015171f090e0e0e0e0e0e0e0e020e01000b0e020e01000b0e020e01000b0e020e01000b0e020e01000b0e020e01000b0e020e01000b0e",
        "\"body-grayscale-9\""
      ],
      "transaction": {
        "type": "0x02",
        "from": "0xfc29edce481c4d7d2cda4c0ad6bf6c5fcf128704",
        "to": "0xfe78eb05fada4607560e2485f39316a4d16983d3",
        "gas": "0x2d488",
        "value": "0x0",
        "data": "0x87c7a30f000000000000000000000000000000000000000000000000000000000000004000000000000000000000000000000000000000000000000000000000000000a000000000000000000000000000000000000000000000000000000000000000370015171f090e0e0e0e0e0e0e0e020e01000b0e020e01000b0e020e01000b0e020e01000b0e020e01000b0e020e01000b0e020e01000b0e0000000000000000000000000000000000000000000000000000000000000000000000000000000010626f64792d677261797363616c652d3900000000000000000000000000000000",
        "nonce": "0x15",
        "accessList": []
      },
      "additionalContracts": [],
      "isFixedGasLimit": false
    },
    {
      "hash": "0xdca579a1fa972a758ac084dd32c4dda82a1ba380c6930ec577ee85246666bde6",
      "transactionType": "CALL",
      "contractName": null,
      "contractAddress": "0xfe78Eb05fADA4607560E2485F39316a4d16983d3",
      "function": "ext_registerTrait(bytes,string)",
      "arguments": [
        "0x0015171f090e0f0e0f0e0f0e0f020f01000b0f020f01000b0f020f01000b0f020f01000b0f020f01000b0f020f01000b0f020f01000b0f",
        "\"body-green\""
      ],
      "transaction": {
        "type": "0x02",
        "from": "0xfc29edce481c4d7d2cda4c0ad6bf6c5fcf128704",
        "to": "0xfe78eb05fada4607560e2485f39316a4d16983d3",
        "gas": "0x2d425",
        "value": "0x0",
        "data": "0x87c7a30f000000000000000000000000000000000000000000000000000000000000004000000000000000000000000000000000000000000000000000000000000000a000000000000000000000000000000000000000000000000000000000000000370015171f090e0f0e0f0e0f0e0f020f01000b0f020f01000b0f020f01000b0f020f01000b0f020f01000b0f020f01000b0f020f01000b0f000000000000000000000000000000000000000000000000000000000000000000000000000000000a626f64792d677265656e00000000000000000000000000000000000000000000",
        "nonce": "0x16",
        "accessList": []
      },
      "additionalContracts": [],
      "isFixedGasLimit": false
    },
    {
      "hash": "0x09d98f0f54df47eacae997ad33c1747ebc77740d2c58bad009061026a50fa291",
      "transactionType": "CALL",
      "contractName": null,
      "contractAddress": "0xfe78Eb05fADA4607560E2485F39316a4d16983d3",
      "function": "ext_registerTrait(bytes,string)",
      "arguments": [
        "0x0015171f090e100e100e100e10021001000b10021001000b10021001000b10021001000b10021001000b10021001000b10021001000b10",
        "\"body-gunk\""
      ],
      "transaction": {
        "type": "0x02",
        "from": "0xfc29edce481c4d7d2cda4c0ad6bf6c5fcf128704",
        "to": "0xfe78eb05fada4607560e2485f39316a4d16983d3",
        "gas": "0x2feac",
        "value": "0x0",
        "data": "0x87c7a30f000000000000000000000000000000000000000000000000000000000000004000000000000000000000000000000000000000000000000000000000000000a000000000000000000000000000000000000000000000000000000000000000370015171f090e100e100e100e10021001000b10021001000b10021001000b10021001000b10021001000b10021001000b10021001000b100000000000000000000000000000000000000000000000000000000000000000000000000000000009626f64792d67756e6b0000000000000000000000000000000000000000000000",
        "nonce": "0x17",
        "accessList": []
      },
      "additionalContracts": [],
      "isFixedGasLimit": false
    },
    {
      "hash": "0xae19839f7bfdae625cac582ba4c8c4f59451641e0eb51d5b0bdd68137e5ab0d1",
      "transactionType": "CALL",
      "contractName": null,
      "contractAddress": "0xfe78Eb05fADA4607560E2485F39316a4d16983d3",
      "function": "ext_registerTrait(bytes,string)",
      "arguments": [
        "0x0015171f090e110e110e110e11021101000b11021101000b11021101000b11021101000b11021101000b11021101000b11021101000b11",
        "\"body-hotbrown\""
      ],
      "transaction": {
        "type": "0x02",
        "from": "0xfc29edce481c4d7d2cda4c0ad6bf6c5fcf128704",
        "to": "0xfe78eb05fada4607560e2485f39316a4d16983d3",
        "gas": "0x2fef3",
        "value": "0x0",
        "data": "0x87c7a30f000000000000000000000000000000000000000000000000000000000000004000000000000000000000000000000000000000000000000000000000000000a000000000000000000000000000000000000000000000000000000000000000370015171f090e110e110e110e11021101000b11021101000b11021101000b11021101000b11021101000b11021101000b11021101000b11000000000000000000000000000000000000000000000000000000000000000000000000000000000d626f64792d686f7462726f776e00000000000000000000000000000000000000",
        "nonce": "0x18",
        "accessList": []
      },
      "additionalContracts": [],
      "isFixedGasLimit": false
    },
    {
      "hash": "0xaa89103211012f5e61b854121b27919e319a1c4a031ed8a5bf35156b7fa3d14f",
      "transactionType": "CALL",
      "contractName": null,
      "contractAddress": "0xfe78Eb05fADA4607560E2485F39316a4d16983d3",
      "function": "ext_registerTrait(bytes,string)",
      "arguments": [
        "0x0015171f090e120e120e120e12021201000b12021201000b12021201000b12021201000b12021201000b12021201000b12021201000b12",
        "\"body-magenta\""
      ],
      "transaction": {
        "type": "0x02",
        "from": "0xfc29edce481c4d7d2cda4c0ad6bf6c5fcf128704",
        "to": "0xfe78eb05fada4607560e2485f39316a4d16983d3",
        "gas": "0x2d445",
        "value": "0x0",
        "data": "0x87c7a30f000000000000000000000000000000000000000000000000000000000000004000000000000000000000000000000000000000000000000000000000000000a000000000000000000000000000000000000000000000000000000000000000370015171f090e120e120e120e12021201000b12021201000b12021201000b12021201000b12021201000b12021201000b12021201000b12000000000000000000000000000000000000000000000000000000000000000000000000000000000c626f64792d6d6167656e74610000000000000000000000000000000000000000",
        "nonce": "0x19",
        "accessList": []
      },
      "additionalContracts": [],
      "isFixedGasLimit": false
    },
    {
      "hash": "0x8bed68bc75d4ad4bd5e36f05da2732aec91e26b2eafeb5d7dbd089cfe272ee75",
      "transactionType": "CALL",
      "contractName": null,
      "contractAddress": "0xfe78Eb05fADA4607560E2485F39316a4d16983d3",
      "function": "ext_registerTrait(bytes,string)",
      "arguments": [
        "0x0015171f090e130e130e130e13021301000b13021301000b13021301000b13021301000b13021301000b13021301000b13021301000b13",
        "\"body-orange-yellow\""
      ],
      "transaction": {
        "type": "0x02",
        "from": "0xfc29edce481c4d7d2cda4c0ad6bf6c5fcf128704",
        "to": "0xfe78eb05fada4607560e2485f39316a4d16983d3",
        "gas": "0x2d4a9",
        "value": "0x0",
        "data": "0x87c7a30f000000000000000000000000000000000000000000000000000000000000004000000000000000000000000000000000000000000000000000000000000000a000000000000000000000000000000000000000000000000000000000000000370015171f090e130e130e130e13021301000b13021301000b13021301000b13021301000b13021301000b13021301000b13021301000b130000000000000000000000000000000000000000000000000000000000000000000000000000000012626f64792d6f72616e67652d79656c6c6f770000000000000000000000000000",
        "nonce": "0x1a",
        "accessList": []
      },
      "additionalContracts": [],
      "isFixedGasLimit": false
    },
    {
      "hash": "0x831231480520226f4c01ea821f8651fc9c170aba4b6fdc14031e38ff49072fbd",
      "transactionType": "CALL",
      "contractName": null,
      "contractAddress": "0xfe78Eb05fADA4607560E2485F39316a4d16983d3",
      "function": "ext_registerTrait(bytes,string)",
      "arguments": [
        "0x0015171f090e140e140e140e14021401000b14021401000b14021401000b14021401000b14021401000b14021401000b14021401000b14",
        "\"body-orange\""
      ],
      "transaction": {
        "type": "0x02",
        "from": "0xfc29edce481c4d7d2cda4c0ad6bf6c5fcf128704",
        "to": "0xfe78eb05fada4607560e2485f39316a4d16983d3",
        "gas": "0x2fecf",
        "value": "0x0",
        "data": "0x87c7a30f000000000000000000000000000000000000000000000000000000000000004000000000000000000000000000000000000000000000000000000000000000a000000000000000000000000000000000000000000000000000000000000000370015171f090e140e140e140e14021401000b14021401000b14021401000b14021401000b14021401000b14021401000b14021401000b14000000000000000000000000000000000000000000000000000000000000000000000000000000000b626f64792d6f72616e6765000000000000000000000000000000000000000000",
        "nonce": "0x1b",
        "accessList": []
      },
      "additionalContracts": [],
      "isFixedGasLimit": false
    },
    {
      "hash": "0x02fcc92493ff8d66511ca032b61caaa7aa2b70cbaca12436a8a23016668a7f82",
      "transactionType": "CALL",
      "contractName": null,
      "contractAddress": "0xfe78Eb05fADA4607560E2485F39316a4d16983d3",
      "function": "ext_registerTrait(bytes,string)",
      "arguments": [
        "0x0015171f090e150e150e150e15021501000b15021501000b15021501000b15021501000b15021501000b15021501000b15021501000b15",
        "\"body-peachy-B\""
      ],
      "transaction": {
        "type": "0x02",
        "from": "0xfc29edce481c4d7d2cda4c0ad6bf6c5fcf128704",
        "to": "0xfe78eb05fada4607560e2485f39316a4d16983d3",
        "gas": "0x2fef3",
        "value": "0x0",
        "data": "0x87c7a30f000000000000000000000000000000000000000000000000000000000000004000000000000000000000000000000000000000000000000000000000000000a000000000000000000000000000000000000000000000000000000000000000370015171f090e150e150e150e15021501000b15021501000b15021501000b15021501000b15021501000b15021501000b15021501000b15000000000000000000000000000000000000000000000000000000000000000000000000000000000d626f64792d7065616368792d4200000000000000000000000000000000000000",
        "nonce": "0x1c",
        "accessList": []
      },
      "additionalContracts": [],
      "isFixedGasLimit": false
    },
    {
      "hash": "0xbc9f8cd50089276024ae41576261bc02f56817e25c78bf1e4f7aa6f77c4d2b64",
      "transactionType": "CALL",
      "contractName": null,
      "contractAddress": "0xfe78Eb05fADA4607560E2485F39316a4d16983d3",
      "function": "ext_registerTrait(bytes,string)",
      "arguments": [
        "0x0015171f090e160e160e160e16021601000b16021601000b16021601000b16021601000b16021601000b16021601000b16021601000b16",
        "\"body-peachy-a\""
      ],
      "transaction": {
        "type": "0x02",
        "from": "0xfc29edce481c4d7d2cda4c0ad6bf6c5fcf128704",
        "to": "0xfe78eb05fada4607560e2485f39316a4d16983d3",
        "gas": "0x2fef3",
        "value": "0x0",
        "data": "0x87c7a30f000000000000000000000000000000000000000000000000000000000000004000000000000000000000000000000000000000000000000000000000000000a000000000000000000000000000000000000000000000000000000000000000370015171f090e160e160e160e16021601000b16021601000b16021601000b16021601000b16021601000b16021601000b16021601000b16000000000000000000000000000000000000000000000000000000000000000000000000000000000d626f64792d7065616368792d6100000000000000000000000000000000000000",
        "nonce": "0x1d",
        "accessList": []
      },
      "additionalContracts": [],
      "isFixedGasLimit": false
    },
    {
      "hash": "0x7120cdff72183b3934a738d0f6db02dd527fbbaceb49b910c47cadcf7a7365b5",
      "transactionType": "CALL",
      "contractName": null,
      "contractAddress": "0xfe78Eb05fADA4607560E2485F39316a4d16983d3",
      "function": "ext_registerTrait(bytes,string)",
      "arguments": [
        "0x0015171f090e170e170e170e17021701000b17021701000b17021701000b17021701000b17021701000b17021701000b17021701000b17",
        "\"body-purple\""
      ],
      "transaction": {
        "type": "0x02",
        "from": "0xfc29edce481c4d7d2cda4c0ad6bf6c5fcf128704",
        "to": "0xfe78eb05fada4607560e2485f39316a4d16983d3",
        "gas": "0x2fecf",
        "value": "0x0",
        "data": "0x87c7a30f000000000000000000000000000000000000000000000000000000000000004000000000000000000000000000000000000000000000000000000000000000a000000000000000000000000000000000000000000000000000000000000000370015171f090e170e170e170e17021701000b17021701000b17021701000b17021701000b17021701000b17021701000b17021701000b17000000000000000000000000000000000000000000000000000000000000000000000000000000000b626f64792d707572706c65000000000000000000000000000000000000000000",
        "nonce": "0x1e",
        "accessList": []
      },
      "additionalContracts": [],
      "isFixedGasLimit": false
    },
    {
      "hash": "0x13c0ffe2142a4c014e165e8c274d4c2e3bfbc814b2275705cbb12ec589d092af",
      "transactionType": "CALL",
      "contractName": null,
      "contractAddress": "0xfe78Eb05fADA4607560E2485F39316a4d16983d3",
      "function": "ext_registerTrait(bytes,string)",
      "arguments": [
        "0x0015171f090e180e180e180e18021801000b18021801000b18021801000b18021801000b18021801000b18021801000b18021801000b18",
        "\"body-red\""
      ],
      "transaction": {
        "type": "0x02",
        "from": "0xfc29edce481c4d7d2cda4c0ad6bf6c5fcf128704",
        "to": "0xfe78eb05fada4607560e2485f39316a4d16983d3",
        "gas": "0x2d403",
        "value": "0x0",
        "data": "0x87c7a30f000000000000000000000000000000000000000000000000000000000000004000000000000000000000000000000000000000000000000000000000000000a000000000000000000000000000000000000000000000000000000000000000370015171f090e180e180e180e18021801000b18021801000b18021801000b18021801000b18021801000b18021801000b18021801000b180000000000000000000000000000000000000000000000000000000000000000000000000000000008626f64792d726564000000000000000000000000000000000000000000000000",
        "nonce": "0x1f",
        "accessList": []
      },
      "additionalContracts": [],
      "isFixedGasLimit": false
    },
    {
      "hash": "0x8d5bc0e228a7973ffadec3630291f2c83148ef20e64407d72876a7bd2994f65d",
      "transactionType": "CALL",
      "contractName": null,
      "contractAddress": "0xfe78Eb05fADA4607560E2485F39316a4d16983d3",
      "function": "ext_registerTrait(bytes,string)",
      "arguments": [
        "0x0015171f090e190e190e190e19021901000b19021901000b19021901000b19021901000b19021901000b19021901000b19021901000b19",
        "\"body-redpinkish\""
      ],
      "transaction": {
        "type": "0x02",
        "from": "0xfc29edce481c4d7d2cda4c0ad6bf6c5fcf128704",
        "to": "0xfe78eb05fada4607560e2485f39316a4d16983d3",
        "gas": "0x2ff16",
        "value": "0x0",
        "data": "0x87c7a30f000000000000000000000000000000000000000000000000000000000000004000000000000000000000000000000000000000000000000000000000000000a000000000000000000000000000000000000000000000000000000000000000370015171f090e190e190e190e19021901000b19021901000b19021901000b19021901000b19021901000b19021901000b19021901000b19000000000000000000000000000000000000000000000000000000000000000000000000000000000f626f64792d72656470696e6b6973680000000000000000000000000000000000",
        "nonce": "0x20",
        "accessList": []
      },
      "additionalContracts": [],
      "isFixedGasLimit": false
    },
    {
      "hash": "0x01f954c83140b91c9b5c31bd01decee07f1fdad311e764111619db6b35ae31d4",
      "transactionType": "CALL",
      "contractName": null,
      "contractAddress": "0xfe78Eb05fADA4607560E2485F39316a4d16983d3",
      "function": "ext_registerTrait(bytes,string)",
      "arguments": [
        "0x0015171f090e1a0e1a0e1a0e1a021a01000b1a021a01000b1a021a01000b1a021a01000b1a021a01000b1a021a01000b1a021a01000b1a",
        "\"body-rust\""
      ],
      "transaction": {
        "type": "0x02",
        "from": "0xfc29edce481c4d7d2cda4c0ad6bf6c5fcf128704",
        "to": "0xfe78eb05fada4607560e2485f39316a4d16983d3",
        "gas": "0x2feac",
        "value": "0x0",
        "data": "0x87c7a30f000000000000000000000000000000000000000000000000000000000000004000000000000000000000000000000000000000000000000000000000000000a000000000000000000000000000000000000000000000000000000000000000370015171f090e1a0e1a0e1a0e1a021a01000b1a021a01000b1a021a01000b1a021a01000b1a021a01000b1a021a01000b1a021a01000b1a0000000000000000000000000000000000000000000000000000000000000000000000000000000009626f64792d727573740000000000000000000000000000000000000000000000",
        "nonce": "0x21",
        "accessList": []
      },
      "additionalContracts": [],
      "isFixedGasLimit": false
    },
    {
      "hash": "0xc0e20b617c97895bc14e75bfe18f216f5be072283154211b20f616fc712880f7",
      "transactionType": "CALL",
      "contractName": null,
      "contractAddress": "0xfe78Eb05fADA4607560E2485F39316a4d16983d3",
      "function": "ext_registerTrait(bytes,string)",
      "arguments": [
        "0x0015171f090e1b0e1b0e1b0e1b021b01000b1b021b01000b1b021b01000b1b021b01000b1b021b01000b1b021b01000b1b021b01000b1b",
        "\"body-slimegreen\""
      ],
      "transaction": {
        "type": "0x02",
        "from": "0xfc29edce481c4d7d2cda4c0ad6bf6c5fcf128704",
        "to": "0xfe78eb05fada4607560e2485f39316a4d16983d3",
        "gas": "0x2ff16",
        "value": "0x0",
        "data": "0x87c7a30f000000000000000000000000000000000000000000000000000000000000004000000000000000000000000000000000000000000000000000000000000000a000000000000000000000000000000000000000000000000000000000000000370015171f090e1b0e1b0e1b0e1b021b01000b1b021b01000b1b021b01000b1b021b01000b1b021b01000b1b021b01000b1b021b01000b1b000000000000000000000000000000000000000000000000000000000000000000000000000000000f626f64792d736c696d65677265656e0000000000000000000000000000000000",
        "nonce": "0x22",
        "accessList": []
      },
      "additionalContracts": [],
      "isFixedGasLimit": false
    },
    {
      "hash": "0x6664561f59ebeb20fae0a465b069cd98ec61dd0588f3327b9d1b6b38e532a5c1",
      "transactionType": "CALL",
      "contractName": null,
      "contractAddress": "0xfe78Eb05fADA4607560E2485F39316a4d16983d3",
      "function": "ext_registerTrait(bytes,string)",
      "arguments": [
        "0x0015171f090e1c0e1c0e1c0e1c021c01000b1c021c01000b1c021c01000b1c021c01000b1c021c01000b1c021c01000b1c021c01000b1c",
        "\"body-teal-light\""
      ],
      "transaction": {
        "type": "0x02",
        "from": "0xfc29edce481c4d7d2cda4c0ad6bf6c5fcf128704",
        "to": "0xfe78eb05fada4607560e2485f39316a4d16983d3",
        "gas": "0x2ff16",
        "value": "0x0",
        "data": "0x87c7a30f000000000000000000000000000000000000000000000000000000000000004000000000000000000000000000000000000000000000000000000000000000a000000000000000000000000000000000000000000000000000000000000000370015171f090e1c0e1c0e1c0e1c021c01000b1c021c01000b1c021c01000b1c021c01000b1c021c01000b1c021c01000b1c021c01000b1c000000000000000000000000000000000000000000000000000000000000000000000000000000000f626f64792d7465616c2d6c696768740000000000000000000000000000000000",
        "nonce": "0x23",
        "accessList": []
      },
      "additionalContracts": [],
      "isFixedGasLimit": false
    },
    {
      "hash": "0xc6b4edba65792fff4ffaa19182fd7d65fb65e7e1875b8a48cd5535f1110f2d26",
      "transactionType": "CALL",
      "contractName": null,
      "contractAddress": "0xfe78Eb05fADA4607560E2485F39316a4d16983d3",
      "function": "ext_registerTrait(bytes,string)",
      "arguments": [
        "0x0015171f090e1d0e1d0e1d0e1d021d01000b1d021d01000b1d021d01000b1d021d01000b1d021d01000b1d021d01000b1d021d01000b1d",
        "\"body-teal\""
      ],
      "transaction": {
        "type": "0x02",
        "from": "0xfc29edce481c4d7d2cda4c0ad6bf6c5fcf128704",
        "to": "0xfe78eb05fada4607560e2485f39316a4d16983d3",
        "gas": "0x2feac",
        "value": "0x0",
        "data": "0x87c7a30f000000000000000000000000000000000000000000000000000000000000004000000000000000000000000000000000000000000000000000000000000000a000000000000000000000000000000000000000000000000000000000000000370015171f090e1d0e1d0e1d0e1d021d01000b1d021d01000b1d021d01000b1d021d01000b1d021d01000b1d021d01000b1d021d01000b1d0000000000000000000000000000000000000000000000000000000000000000000000000000000009626f64792d7465616c0000000000000000000000000000000000000000000000",
        "nonce": "0x24",
        "accessList": []
      },
      "additionalContracts": [],
      "isFixedGasLimit": false
    },
    {
      "hash": "0xe7e8130eb50590379f23aac5ee72737f7489d4680e3e94c3d08a356010933f2d",
      "transactionType": "CALL",
      "contractName": null,
      "contractAddress": "0xfe78Eb05fADA4607560E2485F39316a4d16983d3",
      "function": "ext_registerTrait(bytes,string)",
      "arguments": [
        "0x0015171f090e1e0e1e0e1e0e1e021e01000b1e021e01000b1e021e01000b1e021e01000b1e021e01000b1e021e01000b1e021e01000b1e",
        "\"body-yellow\""
      ],
      "transaction": {
        "type": "0x02",
        "from": "0xfc29edce481c4d7d2cda4c0ad6bf6c5fcf128704",
        "to": "0xfe78eb05fada4607560e2485f39316a4d16983d3",
        "gas": "0x2fecf",
        "value": "0x0",
        "data": "0x87c7a30f000000000000000000000000000000000000000000000000000000000000004000000000000000000000000000000000000000000000000000000000000000a000000000000000000000000000000000000000000000000000000000000000370015171f090e1e0e1e0e1e0e1e021e01000b1e021e01000b1e021e01000b1e021e01000b1e021e01000b1e021e01000b1e021e01000b1e000000000000000000000000000000000000000000000000000000000000000000000000000000000b626f64792d79656c6c6f77000000000000000000000000000000000000000000",
        "nonce": "0x25",
        "accessList": []
      },
      "additionalContracts": [],
      "isFixedGasLimit": false
    }
  ],
  "receipts": [],
  "libraries": [],
  "pending": [
    "0x75ba117f0bc2b766c1c288e5a95f25bfee5487144b3e2fdbe828fcc23167240b",
    "0x823e89df0e9f5f25449813131627ead0588ebba0d1326b24458f0f526a882b70",
    "0x5d9eec8f0381a6f58d75387030a9e18c76a9890cbed51b5160825cda408135a0",
    "0xfcd75e2d27a4a4a363bbf8cb1e8cdbf96261faeb7ba81ed1a010404be3322f61",
    "0xb026d4e24d3dffd4de5f83a640a9ddd45bd886c646d1bcde03bd041800b8b7ed",
    "0xf34c895dfa2eabf7f308039a7d8f3214e1c242a349a0ac1bcc33fc0be8b3dfba",
    "0x7ade347b7da245c93a04fecbc7cb8a54d4a991d1c253583ba997287742895ead",
    "0x911eeb07eda76423568dcdf06463b8f282be3d7fde63d4f4de0ae00c303ce788",
    "0x487874ca75be5e9698d371f005b1f18a5d86ca3d5b0de8101c69aa2a154f8790",
    "0x5457d411483fd742fa5ddd809b13d971ffcc7e71d9e536e525440e641ba6750c",
    "0xb1025f46282c108da2a42c358def76ad74fdfcc78c00b3d748da944be35e53c8",
    "0x13a8ef8a4712b0cec06f65c1adc4c6177b14ff7a51c74c69d4264c79a718bd32",
    "0xc26716ce45c5a1ef3a4db5ea9d84c73241869a93ea459dbf8ec38c0e2558b226",
    "0x14bf8d03cde69ace642023167d6861bd778b420d35ed7e1e56b4419dd29eaa4f",
    "0xdca579a1fa972a758ac084dd32c4dda82a1ba380c6930ec577ee85246666bde6",
    "0x09d98f0f54df47eacae997ad33c1747ebc77740d2c58bad009061026a50fa291",
    "0xae19839f7bfdae625cac582ba4c8c4f59451641e0eb51d5b0bdd68137e5ab0d1",
    "0xaa89103211012f5e61b854121b27919e319a1c4a031ed8a5bf35156b7fa3d14f",
    "0x8bed68bc75d4ad4bd5e36f05da2732aec91e26b2eafeb5d7dbd089cfe272ee75",
    "0x831231480520226f4c01ea821f8651fc9c170aba4b6fdc14031e38ff49072fbd",
    "0x02fcc92493ff8d66511ca032b61caaa7aa2b70cbaca12436a8a23016668a7f82",
    "0xbc9f8cd50089276024ae41576261bc02f56817e25c78bf1e4f7aa6f77c4d2b64",
    "0x7120cdff72183b3934a738d0f6db02dd527fbbaceb49b910c47cadcf7a7365b5",
    "0x13c0ffe2142a4c014e165e8c274d4c2e3bfbc814b2275705cbb12ec589d092af",
    "0x8d5bc0e228a7973ffadec3630291f2c83148ef20e64407d72876a7bd2994f65d",
    "0x01f954c83140b91c9b5c31bd01decee07f1fdad311e764111619db6b35ae31d4",
    "0xc0e20b617c97895bc14e75bfe18f216f5be072283154211b20f616fc712880f7",
    "0x6664561f59ebeb20fae0a465b069cd98ec61dd0588f3327b9d1b6b38e532a5c1",
    "0xc6b4edba65792fff4ffaa19182fd7d65fb65e7e1875b8a48cd5535f1110f2d26",
    "0xe7e8130eb50590379f23aac5ee72737f7489d4680e3e94c3d08a356010933f2d"
  ],
  "returns": {},
  "timestamp": 1708406937,
  "chain": 11155111,
  "multi": false,
  "commit": "b4034c2"
}