{
  "transactions": [
    {
      "hash": "0x2356d3a7e9213df5b060f1bc49f2786094af970208f051b2d356a8d940602f53",
      "transactionType": "CALL",
      "contractName": null,
      "contractAddress": "0x8F071320A60E4Aac7dA5FBA5F201F9bcc66f86e9",
      "function": "ext_registerTrait(bytes,string)",
      "arguments": [
        "0x0017141e0d0100011f0500021f05000100011f0300011f01000100011f0200011f02000300011f03000200011f0200021f0100011f0200011f0100011f0400011f0100011f",
        "\"accessory-1n\""
      ],
      "transaction": {
        "type": "0x02",
        "from": "0xfc29edce481c4d7d2cda4c0ad6bf6c5fcf128704",
        "to": "0x8f071320a60e4aac7da5fba5f201f9bcc66f86e9",
        "gas": "0x34f17",
        "value": "0x0",
        "data": "0x87c7a30f000000000000000000000000000000000000000000000000000000000000004000000000000000000000000000000000000000000000000000000000000000c000000000000000000000000000000000000000000000000000000000000000450017141e0d0100011f0500021f05000100011f0300011f01000100011f0200011f02000300011f03000200011f0200021f0100011f0200011f0100011f0400011f0100011f000000000000000000000000000000000000000000000000000000000000000000000000000000000000000000000000000000000000000000000c6163636573736f72792d316e0000000000000000000000000000000000000000",
        "nonce": "0x52",
        "accessList": []
      },
      "additionalContracts": [],
      "isFixedGasLimit": false
    },
    {
      "hash": "0x0d36cdb00d272145aeca1e5f2c0148c1f19ce07d051eb1659ce66ced41cf7967",
      "transactionType": "CALL",
      "contractName": null,
      "contractAddress": "0x8F071320A60E4Aac7dA5FBA5F201F9bcc66f86e9",
      "function": "ext_registerTrait(bytes,string)",
      "arguments": [
        "0x0018151a0d020003200100012001000100052002000120010001200100012001000220",
        "\"accessory-aardvark\""
      ],
      "transaction": {
        "type": "0x02",
        "from": "0xfc29edce481c4d7d2cda4c0ad6bf6c5fcf128704",
        "to": "0x8f071320a60e4aac7da5fba5f201f9bcc66f86e9",
        "gas": "0x2fdda",
        "value": "0x0",
        "data": "0x87c7a30f000000000000000000000000000000000000000000000000000000000000004000000000000000000000000000000000000000000000000000000000000000a000000000000000000000000000000000000000000000000000000000000000230018151a0d020003200100012001000100052002000120010001200100012001000220000000000000000000000000000000000000000000000000000000000000000000000000000000000000000000000000000000000000000000000000126163636573736f72792d616172647661726b0000000000000000000000000000",
        "nonce": "0x53",
        "accessList": []
      },
      "additionalContracts": [],
      "isFixedGasLimit": false
    },
    {
      "hash": "0x3a1f3fce623affe8f6bf498ad0d0a375e7c0ad24c5dd699c7732b01fdbd2eb38",
      "transactionType": "CALL",
      "contractName": null,
      "contractAddress": "0x8F071320A60E4Aac7dA5FBA5F201F9bcc66f86e9",
      "function": "ext_registerTrait(bytes,string)",
      "arguments": [
        "0x0017141d0e01010521010104210100010103210200010101210100012102000101020001210200030001210200030001210200",
        "\"accessory-axe\""
      ],
      "transaction": {
        "type": "0x02",
        "from": "0xfc29edce481c4d7d2cda4c0ad6bf6c5fcf128704",
        "to": "0x8f071320a60e4aac7da5fba5f201f9bcc66f86e9",
        "gas": "0x2d3e3",
        "value": "0x0",
        "data": "0x87c7a30f000000000000000000000000000000000000000000000000000000000000004000000000000000000000000000000000000000000000000000000000000000a000000000000000000000000000000000000000000000000000000000000000330017141d0e0101052101010421010001010321020001010121010001210200010102000121020003000121020003000121020000000000000000000000000000000000000000000000000000000000000000000000000000000000000000000d6163636573736f72792d61786500000000000000000000000000000000000000",
        "nonce": "0x54",
        "accessList": []
      },
      "additionalContracts": [],
      "isFixedGasLimit": false
    },
    {
      "hash": "0x29a6a43eabbe8050fdc4e74b611456925e332089e2ec6f4ee2ae2b5bd6e80a53",
      "transactionType": "CALL",
      "contractName": null,
      "contractAddress": "0x8F071320A60E4Aac7dA5FBA5F201F9bcc66f86e9",
      "function": "ext_registerTrait(bytes,string)",
      "arguments": [
        "0x0017121e0d010001220100012201000500022201000222050002220100022205000222010001220100010001220300",
        "\"accessory-belly-chameleon\""
      ],
      "transaction": {
        "type": "0x02",
        "from": "0xfc29edce481c4d7d2cda4c0ad6bf6c5fcf128704",
        "to": "0x8f071320a60e4aac7da5fba5f201f9bcc66f86e9",
        "gas": "0x2d445",
        "value": "0x0",
        "data": "0x87c7a30f000000000000000000000000000000000000000000000000000000000000004000000000000000000000000000000000000000000000000000000000000000a0000000000000000000000000000000000000000000000000000000000000002f0017121e0d010001220100012201000500022201000222050002220100022205000222010001220100010001220300000000000000000000000000000000000000000000000000000000000000000000000000000000000000000000000000196163636573736f72792d62656c6c792d6368616d656c656f6e00000000000000",
        "nonce": "0x55",
        "accessList": []
      },
      "additionalContracts": [],
      "isFixedGasLimit": false
    },
    {
      "hash": "0x3599d912e353ec9ef7ff35a18212131400242167e164027d4a964f504b06971f",
      "transactionType": "CALL",
      "contractName": null,
      "contractAddress": "0x8F071320A60E4Aac7dA5FBA5F201F9bcc66f86e9",
      "function": "ext_registerTrait(bytes,string)",
      "arguments": [
        "0x0018151a0d0100022302000223010001230200022302000123030002230300",
        "\"accessory-bird-flying\""
      ],
      "transaction": {
        "type": "0x02",
        "from": "0xfc29edce481c4d7d2cda4c0ad6bf6c5fcf128704",
        "to": "0x8f071320a60e4aac7da5fba5f201f9bcc66f86e9",
        "gas": "0x1e0eb",
        "value": "0x0",
        "data": "0x87c7a30f00000000000000000000000000000000000000000000000000000000000000400000000000000000000000000000000000000000000000000000000000000080000000000000000000000000000000000000000000000000000000000000001f0018151a0d01000223020002230100012302000223020001230300022303000000000000000000000000000000000000000000000000000000000000000000156163636573736f72792d626972642d666c79696e670000000000000000000000",
        "nonce": "0x56",
        "accessList": []
      },
      "additionalContracts": [],
      "isFixedGasLimit": false
    },
    {
      "hash": "0x014899b34c2f079e3de854a8963058dd24e3a09139afe6bb7018a8571332d7a5",
      "transactionType": "CALL",
      "contractName": null,
      "contractAddress": "0x8F071320A60E4Aac7dA5FBA5F201F9bcc66f86e9",
      "function": "ext_registerTrait(bytes,string)",
      "arguments": [
        "0x0017131c0d040001240100030002240100042401230125010004240100020003240100010001240400",
        "\"accessory-bird-side\""
      ],
      "transaction": {
        "type": "0x02",
        "from": "0xfc29edce481c4d7d2cda4c0ad6bf6c5fcf128704",
        "to": "0x8f071320a60e4aac7da5fba5f201f9bcc66f86e9",
        "gas": "0x2d3a0",
        "value": "0x0",
        "data": "0x87c7a30f000000000000000000000000000000000000000000000000000000000000004000000000000000000000000000000000000000000000000000000000000000a000000000000000000000000000000000000000000000000000000000000000290017131c0d040001240100030002240100042401230125010004240100020003240100010001240400000000000000000000000000000000000000000000000000000000000000000000000000000000000000000000000000000000000000136163636573736f72792d626972642d7369646500000000000000000000000000",
        "nonce": "0x57",
        "accessList": []
      },
      "additionalContracts": [],
      "isFixedGasLimit": false
    },
    {
      "hash": "0x9082ece9864f9f38b379e6a67a5033a14e34fb42aa5840ca0b96db22a85d4a42",
      "transactionType": "CALL",
      "contractName": null,
      "contractAddress": "0x8F071320A60E4Aac7dA5FBA5F201F9bcc66f86e9",
      "function": "ext_registerTrait(bytes,string)",
      "arguments": [
        "0x0015141d0d01260500012601000126030001260100020001260100012602000300012603000300012603000200032602000300012603000100012601000126010001260100020003260200",
        "\"accessory-bling-anchor\""
      ],
      "transaction": {
        "type": "0x02",
        "from": "0xfc29edce481c4d7d2cda4c0ad6bf6c5fcf128704",
        "to": "0x8f071320a60e4aac7da5fba5f201f9bcc66f86e9",
        "gas": "0x34fef",
        "value": "0x0",
        "data": "0x87c7a30f000000000000000000000000000000000000000000000000000000000000004000000000000000000000000000000000000000000000000000000000000000c0000000000000000000000000000000000000000000000000000000000000004b0015141d0d0126050001260100012603000126010002000126010001260200030001260300030001260300020003260200030001260300010001260100012601000126010002000326020000000000000000000000000000000000000000000000000000000000000000000000000000000000000000000000000000000000166163636573736f72792d626c696e672d616e63686f7200000000000000000000",
        "nonce": "0x58",
        "accessList": []
      },
      "additionalContracts": [],
      "isFixedGasLimit": false
    },
    {
      "hash": "0x3d4b80f085cca444d1642fcf7517acc75a442a41edbd3b5721c3ab15b06b249b",
      "transactionType": "CALL",
      "contractName": null,
      "contractAddress": "0x8F071320A60E4Aac7dA5FBA5F201F9bcc66f86e9",
      "function": "ext_registerTrait(bytes,string)",
      "arguments": [
        "0x0015161e0b0127090001270100012707000127010002000127050001270200030001270300012703000400032704000500010d05000200020d052702000300020d032703000400030d04000300020d03270300",
        "\"accessory-bling-anvil\""
      ],
      "transaction": {
        "type": "0x02",
        "from": "0xfc29edce481c4d7d2cda4c0ad6bf6c5fcf128704",
        "to": "0x8f071320a60e4aac7da5fba5f201f9bcc66f86e9",
        "gas": "0x35052",
        "value": "0x0",
        "data": "0x87c7a30f000000000000000000000000000000000000000000000000000000000000004000000000000000000000000000000000000000000000000000000000000000c000000000000000000000000000000000000000000000000000000000000000530015161e0b0127090001270100012707000127010002000127050001270200030001270300012703000400032704000500010d05000200020d052702000300020d032703000400030d04000300020d032703000000000000000000000000000000000000000000000000000000000000000000000000000000000000000000156163636573736f72792d626c696e672d616e76696c0000000000000000000000",
        "nonce": "0x59",
        "accessList": []
      },
      "additionalContracts": [],
      "isFixedGasLimit": false
    },
    {
      "hash": "0xcaf18ce32499be6464fb9622937043356691d6612dbb43f4c8eb005ac4d4022a",
      "transactionType": "CALL",
      "contractName": null,
      "contractAddress": "0x8F071320A60E4Aac7dA5FBA5F201F9bcc66f86e9",
      "function": "ext_registerTrait(bytes,string)",
      "arguments": [
        "0x0018141e0d0400032605000226040001260100012603000126030001000226040003260400010001260500",
        "\"accessory-bling-arrow\""
      ],
      "transaction": {
        "type": "0x02",
        "from": "0xfc29edce481c4d7d2cda4c0ad6bf6c5fcf128704",
        "to": "0x8f071320a60e4aac7da5fba5f201f9bcc66f86e9",
        "gas": "0x2fe66",
        "value": "0x0",
        "data": "0x87c7a30f000000000000000000000000000000000000000000000000000000000000004000000000000000000000000000000000000000000000000000000000000000a0000000000000000000000000000000000000000000000000000000000000002b0018141e0d040003260500022604000126010001260300012603000100022604000326040001000126050000000000000000000000000000000000000000000000000000000000000000000000000000000000000000000000000000000000156163636573736f72792d626c696e672d6172726f770000000000000000000000",
        "nonce": "0x5a",
        "accessList": []
      },
      "additionalContracts": [],
      "isFixedGasLimit": false
    },
    {
      "hash": "0x920362fa8c3562cc859acbcc77c54662efcd506667c692918441a068db02ec8f",
      "transactionType": "CALL",
      "contractName": null,
      "contractAddress": "0x8F071320A60E4Aac7dA5FBA5F201F9bcc66f86e9",
      "function": "ext_registerTrait(bytes,string)",
      "arguments": [
        "0x0015141e0c012606000126010001260400012601000200012602000126020003000226030002000126020001260200010006260100020001260128012601280126010003000426010004000126012801260100050002260100",
        "\"accessory-bling-cheese\""
      ],
      "transaction": {
        "type": "0x02",
        "from": "0xfc29edce481c4d7d2cda4c0ad6bf6c5fcf128704",
        "to": "0x8f071320a60e4aac7da5fba5f201f9bcc66f86e9",
        "gas": "0x350c7",
        "value": "0x0",
        "data": "0x87c7a30f000000000000000000000000000000000000000000000000000000000000004000000000000000000000000000000000000000000000000000000000000000c000000000000000000000000000000000000000000000000000000000000000590015141e0c0126060001260100012604000126010002000126020001260200030002260300020001260200012602000100062601000200012601280126012801260100030004260100040001260128012601000500022601000000000000000000000000000000000000000000000000000000000000000000000000000000166163636573736f72792d626c696e672d63686565736500000000000000000000",
        "nonce": "0x5b",
        "accessList": []
      },
      "additionalContracts": [],
      "isFixedGasLimit": false
    }
  ],
  "receipts": [
    {
      "transactionHash": "0x2356d3a7e9213df5b060f1bc49f2786094af970208f051b2d356a8d940602f53",
      "transactionIndex": "0x3e",
      "blockHash": "0x7eafac987252461bd2ec788412be2c1c3dea321339ec059cb3875bc2dc2f79c8",
      "blockNumber": "0x519c98",
      "from": "0xfC29eDCe481c4D7D2CDa4c0Ad6bF6C5Fcf128704",
      "to": "0x8F071320A60E4Aac7dA5FBA5F201F9bcc66f86e9",
      "cumulativeGasUsed": "0x1ebd00",
      "gasUsed": "0x26548",
      "contractAddress": null,
      "logs": [
        {
          "address": "0x8F071320A60E4Aac7dA5FBA5F201F9bcc66f86e9",
          "topics": [
            "0x6d801405d0a92b94907b5fe1fe4295031541b6f549f7afecc30b600f579b68b0"
          ],
          "data": "0x0000000000000000000000000000000000000000000000000000000000000021000000000000000000000000000000000000000000000000000000000000006000000000000000000000000000000000000000000000000000000000000000e000000000000000000000000000000000000000000000000000000000000000450017141e0d0100011f0500021f05000100011f0300011f01000100011f0200011f02000300011f03000200011f0200021f0100011f0200011f0100011f0400011f0100011f000000000000000000000000000000000000000000000000000000000000000000000000000000000000000000000000000000000000000000000c6163636573736f72792d316e0000000000000000000000000000000000000000",
          "blockHash": "0x7eafac987252461bd2ec788412be2c1c3dea321339ec059cb3875bc2dc2f79c8",
          "blockNumber": "0x519c98",
          "transactionHash": "0x2356d3a7e9213df5b060f1bc49f2786094af970208f051b2d356a8d940602f53",
          "transactionIndex": "0x3e",
          "logIndex": "0x14",
          "removed": false
        }
      ],
      "status": "0x1",
      "logsBloom": "0x00000000000000000000000000000000000000000000000000000000000000000000000000000000000000000000000000000000000000000000000000000000000000000000000000000000000000000000000000000000000000000000000000000000000000000000008000001000000000000000000000000000000000000000000000000000000000000000000000000000000000000000000100000000000020000000000000000000000000000000000000000000000000000000000000000000000000000000000000000000000000000000000000000000000000000000000000000000000000000000000001000000000000000000000000010000",
      "type": "0x2",
      "effectiveGasPrice": "0xc4408b50"
    },
    {
      "transactionHash": "0x0d36cdb00d272145aeca1e5f2c0148c1f19ce07d051eb1659ce66ced41cf7967",
      "transactionIndex": "0x3f",
      "blockHash": "0x7eafac987252461bd2ec788412be2c1c3dea321339ec059cb3875bc2dc2f79c8",
      "blockNumber": "0x519c98",
      "from": "0xfC29eDCe481c4D7D2CDa4c0Ad6bF6C5Fcf128704",
      "to": "0x8F071320A60E4Aac7dA5FBA5F201F9bcc66f86e9",
      "cumulativeGasUsed": "0x20c8a9",
      "gasUsed": "0x20ba9",
      "contractAddress": null,
      "logs": [
        {
          "address": "0x8F071320A60E4Aac7dA5FBA5F201F9bcc66f86e9",
          "topics": [
            "0x6d801405d0a92b94907b5fe1fe4295031541b6f549f7afecc30b600f579b68b0"
          ],
          "data": "0x0000000000000000000000000000000000000000000000000000000000000022000000000000000000000000000000000000000000000000000000000000006000000000000000000000000000000000000000000000000000000000000000c000000000000000000000000000000000000000000000000000000000000000230018151a0d020003200100012001000100052002000120010001200100012001000220000000000000000000000000000000000000000000000000000000000000000000000000000000000000000000000000000000000000000000000000126163636573736f72792d616172647661726b0000000000000000000000000000",
          "blockHash": "0x7eafac987252461bd2ec788412be2c1c3dea321339ec059cb3875bc2dc2f79c8",
          "blockNumber": "0x519c98",
          "transactionHash": "0x0d36cdb00d272145aeca1e5f2c0148c1f19ce07d051eb1659ce66ced41cf7967",
          "transactionIndex": "0x3f",
          "logIndex": "0x15",
          "removed": false
        }
      ],
      "status": "0x1",
      "logsBloom": "0x00000000000000000000000000000000000000000000000000000000000000000000000000000000000000000000000000000000000000000000000000000000000000000000000000000000000000000000000000000000000000000000000000000000000000000000008000001000000000000000000000000000000000000000000000000000000000000000000000000000000000000000000100000000000020000000000000000000000000000000000000000000000000000000000000000000000000000000000000000000000000000000000000000000000000000000000000000000000000000000000001000000000000000000000000010000",
      "type": "0x2",
      "effectiveGasPrice": "0xc4408b50"
    },
    {
      "transactionHash": "0x3a1f3fce623affe8f6bf498ad0d0a375e7c0ad24c5dd699c7732b01fdbd2eb38",
      "transactionIndex": "0x40",
      "blockHash": "0x7eafac987252461bd2ec788412be2c1c3dea321339ec059cb3875bc2dc2f79c8",
      "blockNumber": "0x519c98",
      "from": "0xfC29eDCe481c4D7D2CDa4c0Ad6bF6C5Fcf128704",
      "to": "0x8F071320A60E4Aac7dA5FBA5F201F9bcc66f86e9",
      "cumulativeGasUsed": "0x22d4be",
      "gasUsed": "0x20c15",
      "contractAddress": null,
      "logs": [
        {
          "address": "0x8F071320A60E4Aac7dA5FBA5F201F9bcc66f86e9",
          "topics": [
            "0x6d801405d0a92b94907b5fe1fe4295031541b6f549f7afecc30b600f579b68b0"
          ],
          "data": "0x0000000000000000000000000000000000000000000000000000000000000023000000000000000000000000000000000000000000000000000000000000006000000000000000000000000000000000000000000000000000000000000000c000000000000000000000000000000000000000000000000000000000000000330017141d0e0101052101010421010001010321020001010121010001210200010102000121020003000121020003000121020000000000000000000000000000000000000000000000000000000000000000000000000000000000000000000d6163636573736f72792d61786500000000000000000000000000000000000000",
          "blockHash": "0x7eafac987252461bd2ec788412be2c1c3dea321339ec059cb3875bc2dc2f79c8",
          "blockNumber": "0x519c98",
          "transactionHash": "0x3a1f3fce623affe8f6bf498ad0d0a375e7c0ad24c5dd699c7732b01fdbd2eb38",
          "transactionIndex": "0x40",
          "logIndex": "0x16",
          "removed": false
        }
      ],
      "status": "0x1",
      "logsBloom": "0x00000000000000000000000000000000000000000000000000000000000000000000000000000000000000000000000000000000000000000000000000000000000000000000000000000000000000000000000000000000000000000000000000000000000000000000008000001000000000000000000000000000000000000000000000000000000000000000000000000000000000000000000100000000000020000000000000000000000000000000000000000000000000000000000000000000000000000000000000000000000000000000000000000000000000000000000000000000000000000000000001000000000000000000000000010000",
      "type": "0x2",
      "effectiveGasPrice": "0xc4408b50"
    },
    {
      "transactionHash": "0x29a6a43eabbe8050fdc4e74b611456925e332089e2ec6f4ee2ae2b5bd6e80a53",
      "transactionIndex": "0x41",
      "blockHash": "0x7eafac987252461bd2ec788412be2c1c3dea321339ec059cb3875bc2dc2f79c8",
      "blockNumber": "0x519c98",
      "from": "0xfC29eDCe481c4D7D2CDa4c0Ad6bF6C5Fcf128704",
      "to": "0x8F071320A60E4Aac7dA5FBA5F201F9bcc66f86e9",
      "cumulativeGasUsed": "0x24e11b",
      "gasUsed": "0x20c5d",
      "contractAddress": null,
      "logs": [
        {
          "address": "0x8F071320A60E4Aac7dA5FBA5F201F9bcc66f86e9",
          "topics": [
            "0x6d801405d0a92b94907b5fe1fe4295031541b6f549f7afecc30b600f579b68b0"
          ],
          "data": "0x0000000000000000000000000000000000000000000000000000000000000024000000000000000000000000000000000000000000000000000000000000006000000000000000000000000000000000000000000000000000000000000000c0000000000000000000000000000000000000000000000000000000000000002f0017121e0d010001220100012201000500022201000222050002220100022205000222010001220100010001220300000000000000000000000000000000000000000000000000000000000000000000000000000000000000000000000000196163636573736f72792d62656c6c792d6368616d656c656f6e00000000000000",
          "blockHash": "0x7eafac987252461bd2ec788412be2c1c3dea321339ec059cb3875bc2dc2f79c8",
          "blockNumber": "0x519c98",
          "transactionHash": "0x29a6a43eabbe8050fdc4e74b611456925e332089e2ec6f4ee2ae2b5bd6e80a53",
          "transactionIndex": "0x41",
          "logIndex": "0x17",
          "removed": false
        }
      ],
      "status": "0x1",
      "logsBloom": "0x00000000000000000000000000000000000000000000000000000000000000000000000000000000000000000000000000000000000000000000000000000000000000000000000000000000000000000000000000000000000000000000000000000000000000000000008000001000000000000000000000000000000000000000000000000000000000000000000000000000000000000000000100000000000020000000000000000000000000000000000000000000000000000000000000000000000000000000000000000000000000000000000000000000000000000000000000000000000000000000000001000000000000000000000000010000",
      "type": "0x2",
      "effectiveGasPrice": "0xc4408b50"
    },
    {
      "transactionHash": "0x3599d912e353ec9ef7ff35a18212131400242167e164027d4a964f504b06971f",
      "transactionIndex": "0x42",
      "blockHash": "0x7eafac987252461bd2ec788412be2c1c3dea321339ec059cb3875bc2dc2f79c8",
      "blockNumber": "0x519c98",
      "from": "0xfC29eDCe481c4D7D2CDa4c0Ad6bF6C5Fcf128704",
      "to": "0x8F071320A60E4Aac7dA5FBA5F201F9bcc66f86e9",
      "cumulativeGasUsed": "0x263d49",
      "gasUsed": "0x15c2e",
      "contractAddress": null,
      "logs": [
        {
          "address": "0x8F071320A60E4Aac7dA5FBA5F201F9bcc66f86e9",
          "topics": [
            "0x6d801405d0a92b94907b5fe1fe4295031541b6f549f7afecc30b600f579b68b0"
          ],
          "data": "0x0000000000000000000000000000000000000000000000000000000000000025000000000000000000000000000000000000000000000000000000000000006000000000000000000000000000000000000000000000000000000000000000a0000000000000000000000000000000000000000000000000000000000000001f0018151a0d01000223020002230100012302000223020001230300022303000000000000000000000000000000000000000000000000000000000000000000156163636573736f72792d626972642d666c79696e670000000000000000000000",
          "blockHash": "0x7eafac987252461bd2ec788412be2c1c3dea321339ec059cb3875bc2dc2f79c8",
          "blockNumber": "0x519c98",
          "transactionHash": "0x3599d912e353ec9ef7ff35a18212131400242167e164027d4a964f504b06971f",
          "transactionIndex": "0x42",
          "logIndex": "0x18",
          "removed": false
        }
      ],
      "status": "0x1",
      "logsBloom": "0x00000000000000000000000000000000000000000000000000000000000000000000000000000000000000000000000000000000000000000000000000000000000000000000000000000000000000000000000000000000000000000000000000000000000000000000008000001000000000000000000000000000000000000000000000000000000000000000000000000000000000000000000100000000000020000000000000000000000000000000000000000000000000000000000000000000000000000000000000000000000000000000000000000000000000000000000000000000000000000000000001000000000000000000000000010000",
      "type": "0x2",
      "effectiveGasPrice": "0xc4408b50"
    },
    {
      "transactionHash": "0x014899b34c2f079e3de854a8963058dd24e3a09139afe6bb7018a8571332d7a5",
      "transactionIndex": "0x43",
      "blockHash": "0x7eafac987252461bd2ec788412be2c1c3dea321339ec059cb3875bc2dc2f79c8",
      "blockNumber": "0x519c98",
      "from": "0xfC29eDCe481c4D7D2CDa4c0Ad6bF6C5Fcf128704",
      "to": "0x8F071320A60E4Aac7dA5FBA5F201F9bcc66f86e9",
      "cumulativeGasUsed": "0x28492e",
      "gasUsed": "0x20be5",
      "contractAddress": null,
      "logs": [
        {
          "address": "0x8F071320A60E4Aac7dA5FBA5F201F9bcc66f86e9",
          "topics": [
            "0x6d801405d0a92b94907b5fe1fe4295031541b6f549f7afecc30b600f579b68b0"
          ],
          "data": "0x0000000000000000000000000000000000000000000000000000000000000026000000000000000000000000000000000000000000000000000000000000006000000000000000000000000000000000000000000000000000000000000000c000000000000000000000000000000000000000000000000000000000000000290017131c0d040001240100030002240100042401230125010004240100020003240100010001240400000000000000000000000000000000000000000000000000000000000000000000000000000000000000000000000000000000000000136163636573736f72792d626972642d7369646500000000000000000000000000",
          "blockHash": "0x7eafac987252461bd2ec788412be2c1c3dea321339ec059cb3875bc2dc2f79c8",
          "blockNumber": "0x519c98",
          "transactionHash": "0x014899b34c2f079e3de854a8963058dd24e3a09139afe6bb7018a8571332d7a5",
          "transactionIndex": "0x43",
          "logIndex": "0x19",
          "removed": false
        }
      ],
      "status": "0x1",
      "logsBloom": "0x00000000000000000000000000000000000000000000000000000000000000000000000000000000000000000000000000000000000000000000000000000000000000000000000000000000000000000000000000000000000000000000000000000000000000000000008000001000000000000000000000000000000000000000000000000000000000000000000000000000000000000000000100000000000020000000000000000000000000000000000000000000000000000000000000000000000000000000000000000000000000000000000000000000000000000000000000000000000000000000000001000000000000000000000000010000",
      "type": "0x2",
      "effectiveGasPrice": "0xc4408b50"
    },
    {
      "transactionHash": "0x9082ece9864f9f38b379e6a67a5033a14e34fb42aa5840ca0b96db22a85d4a42",
      "transactionIndex": "0x44",
      "blockHash": "0x7eafac987252461bd2ec788412be2c1c3dea321339ec059cb3875bc2dc2f79c8",
      "blockNumber": "0x519c98",
      "from": "0xfC29eDCe481c4D7D2CDa4c0Ad6bF6C5Fcf128704",
      "to": "0x8F071320A60E4Aac7dA5FBA5F201F9bcc66f86e9",
      "cumulativeGasUsed": "0x2aaf12",
      "gasUsed": "0x265e4",
      "contractAddress": null,
      "logs": [
        {
          "address": "0x8F071320A60E4Aac7dA5FBA5F201F9bcc66f86e9",
          "topics": [
            "0x6d801405d0a92b94907b5fe1fe4295031541b6f549f7afecc30b600f579b68b0"
          ],
          "data": "0x0000000000000000000000000000000000000000000000000000000000000027000000000000000000000000000000000000000000000000000000000000006000000000000000000000000000000000000000000000000000000000000000e0000000000000000000000000000000000000000000000000000000000000004b0015141d0d0126050001260100012603000126010002000126010001260200030001260300030001260300020003260200030001260300010001260100012601000126010002000326020000000000000000000000000000000000000000000000000000000000000000000000000000000000000000000000000000000000166163636573736f72792d626c696e672d616e63686f7200000000000000000000",
          "blockHash": "0x7eafac987252461bd2ec788412be2c1c3dea321339ec059cb3875bc2dc2f79c8",
          "blockNumber": "0x519c98",
          "transactionHash": "0x9082ece9864f9f38b379e6a67a5033a14e34fb42aa5840ca0b96db22a85d4a42",
          "transactionIndex": "0x44",
          "logIndex": "0x1a",
          "removed": false
        }
      ],
      "status": "0x1",
      "logsBloom": "0x00000000000000000000000000000000000000000000000000000000000000000000000000000000000000000000000000000000000000000000000000000000000000000000000000000000000000000000000000000000000000000000000000000000000000000000008000001000000000000000000000000000000000000000000000000000000000000000000000000000000000000000000100000000000020000000000000000000000000000000000000000000000000000000000000000000000000000000000000000000000000000000000000000000000000000000000000000000000000000000000001000000000000000000000000010000",
      "type": "0x2",
      "effectiveGasPrice": "0xc4408b50"
    },
    {
      "transactionHash": "0x3d4b80f085cca444d1642fcf7517acc75a442a41edbd3b5721c3ab15b06b249b",
      "transactionIndex": "0x45",
      "blockHash": "0x7eafac987252461bd2ec788412be2c1c3dea321339ec059cb3875bc2dc2f79c8",
      "blockNumber": "0x519c98",
      "from": "0xfC29eDCe481c4D7D2CDa4c0Ad6bF6C5Fcf128704",
      "to": "0x8F071320A60E4Aac7dA5FBA5F201F9bcc66f86e9",
      "cumulativeGasUsed": "0x2d153e",
      "gasUsed": "0x2662c",
      "contractAddress": null,
      "logs": [
        {
          "address": "0x8F071320A60E4Aac7dA5FBA5F201F9bcc66f86e9",
          "topics": [
            "0x6d801405d0a92b94907b5fe1fe4295031541b6f549f7afecc30b600f579b68b0"
          ],
          "data": "0x0000000000000000000000000000000000000000000000000000000000000028000000000000000000000000000000000000000000000000000000000000006000000000000000000000000000000000000000000000000000000000000000e000000000000000000000000000000000000000000000000000000000000000530015161e0b0127090001270100012707000127010002000127050001270200030001270300012703000400032704000500010d05000200020d052702000300020d032703000400030d04000300020d032703000000000000000000000000000000000000000000000000000000000000000000000000000000000000000000156163636573736f72792d626c696e672d616e76696c0000000000000000000000",
          "blockHash": "0x7eafac987252461bd2ec788412be2c1c3dea321339ec059cb3875bc2dc2f79c8",
          "blockNumber": "0x519c98",
          "transactionHash": "0x3d4b80f085cca444d1642fcf7517acc75a442a41edbd3b5721c3ab15b06b249b",
          "transactionIndex": "0x45",
          "logIndex": "0x1b",
          "removed": false
        }
      ],
      "status": "0x1",
      "logsBloom": "0x00000000000000000000000000000000000000000000000000000000000000000000000000000000000000000000000000000000000000000000000000000000000000000000000000000000000000000000000000000000000000000000000000000000000000000000008000001000000000000000000000000000000000000000000000000000000000000000000000000000000000000000000100000000000020000000000000000000000000000000000000000000000000000000000000000000000000000000000000000000000000000000000000000000000000000000000000000000000000000000000001000000000000000000000000010000",
      "type": "0x2",
      "effectiveGasPrice": "0xc4408b50"
    },
    {
      "transactionHash": "0xcaf18ce32499be6464fb9622937043356691d6612dbb43f4c8eb005ac4d4022a",
      "transactionIndex": "0x47",
      "blockHash": "0x7eafac987252461bd2ec788412be2c1c3dea321339ec059cb3875bc2dc2f79c8",
      "blockNumber": "0x519c98",
      "from": "0xfC29eDCe481c4D7D2CDa4c0Ad6bF6C5Fcf128704",
      "to": "0x8F071320A60E4Aac7dA5FBA5F201F9bcc66f86e9",
      "cumulativeGasUsed": "0x303463",
      "gasUsed": "0x20c09",
      "contractAddress": null,
      "logs": [
        {
          "address": "0x8F071320A60E4Aac7dA5FBA5F201F9bcc66f86e9",
          "topics": [
            "0x6d801405d0a92b94907b5fe1fe4295031541b6f549f7afecc30b600f579b68b0"
          ],
          "data": "0x0000000000000000000000000000000000000000000000000000000000000029000000000000000000000000000000000000000000000000000000000000006000000000000000000000000000000000000000000000000000000000000000c0000000000000000000000000000000000000000000000000000000000000002b0018141e0d040003260500022604000126010001260300012603000100022604000326040001000126050000000000000000000000000000000000000000000000000000000000000000000000000000000000000000000000000000000000156163636573736f72792d626c696e672d6172726f770000000000000000000000",
          "blockHash": "0x7eafac987252461bd2ec788412be2c1c3dea321339ec059cb3875bc2dc2f79c8",
          "blockNumber": "0x519c98",
          "transactionHash": "0xcaf18ce32499be6464fb9622937043356691d6612dbb43f4c8eb005ac4d4022a",
          "transactionIndex": "0x47",
          "logIndex": "0x1d",
          "removed": false
        }
      ],
      "status": "0x1",
      "logsBloom": "0x00000000000000000000000000000000000000000000000000000000000000000000000000000000000000000000000000000000000000000000000000000000000000000000000000000000000000000000000000000000000000000000000000000000000000000000008000001000000000000000000000000000000000000000000000000000000000000000000000000000000000000000000100000000000020000000000000000000000000000000000000000000000000000000000000000000000000000000000000000000000000000000000000000000000000000000000000000000000000000000000001000000000000000000000000010000",
      "type": "0x2",
      "effectiveGasPrice": "0xc4408b50"
    },
    {
      "transactionHash": "0x920362fa8c3562cc859acbcc77c54662efcd506667c692918441a068db02ec8f",
      "transactionIndex": "0x48",
      "blockHash": "0x7eafac987252461bd2ec788412be2c1c3dea321339ec059cb3875bc2dc2f79c8",
      "blockNumber": "0x519c98",
      "from": "0xfC29eDCe481c4D7D2CDa4c0Ad6bF6C5Fcf128704",
      "to": "0x8F071320A60E4Aac7dA5FBA5F201F9bcc66f86e9",
      "cumulativeGasUsed": "0x329ae3",
      "gasUsed": "0x26680",
      "contractAddress": null,
      "logs": [
        {
          "address": "0x8F071320A60E4Aac7dA5FBA5F201F9bcc66f86e9",
          "topics": [
            "0x6d801405d0a92b94907b5fe1fe4295031541b6f549f7afecc30b600f579b68b0"
          ],
          "data": "0x000000000000000000000000000000000000000000000000000000000000002a000000000000000000000000000000000000000000000000000000000000006000000000000000000000000000000000000000000000000000000000000000e000000000000000000000000000000000000000000000000000000000000000590015141e0c0126060001260100012604000126010002000126020001260200030002260300020001260200012602000100062601000200012601280126012801260100030004260100040001260128012601000500022601000000000000000000000000000000000000000000000000000000000000000000000000000000166163636573736f72792d626c696e672d63686565736500000000000000000000",
          "blockHash": "0x7eafac987252461bd2ec788412be2c1c3dea321339ec059cb3875bc2dc2f79c8",
          "blockNumber": "0x519c98",
          "transactionHash": "0x920362fa8c3562cc859acbcc77c54662efcd506667c692918441a068db02ec8f",
          "transactionIndex": "0x48",
          "logIndex": "0x1e",
          "removed": false
        }
      ],
      "status": "0x1",
      "logsBloom": "0x00000000000000000000000000000000000000000000000000000000000000000000000000000000000000000000000000000000000000000000000000000000000000000000000000000000000000000000000000000000000000000000000000000000000000000000008000001000000000000000000000000000000000000000000000000000000000000000000000000000000000000000000100000000000020000000000000000000000000000000000000000000000000000000000000000000000000000000000000000000000000000000000000000000000000000000000000000000000000000000000001000000000000000000000000010000",
      "type": "0x2",
      "effectiveGasPrice": "0xc4408b50"
    }
  ],
  "libraries": [],
  "pending": [],
  "returns": {},
  "timestamp": 1708707963,
  "chain": 11155111,
  "multi": false,
  "commit": "6a94c07"
}