{
  "transactions": [
    {
      "hash": "0x69167ec7ba54e3fbc8aa07ec1c4d88ec077b160afeb99c997d9d834a45d97c25",
      "transactionType": "CALL",
      "contractName": null,
      "contractAddress": "0x8F071320A60E4Aac7dA5FBA5F201F9bcc66f86e9",
      "function": "ext_registerTrait(bytes,string)",
      "arguments": [
        "0x00021e140605000137020001370f0004000237020002370e0003000337020003370d0002000437020004370c0003000337020003370d0004000237020002370e0005000137020001370f000d370b000d370b000d370b000d370b000d370b000d370b000d370600057d0d370600017d017e017d017e017d0b37097d017e017d017e017d0b370d7d0a370523097d0b370d7d",
        "\"head-aardvark\""
      ],
      "transaction": {
        "type": "0x02",
        "from": "0xfc29edce481c4d7d2cda4c0ad6bf6c5fcf128704",
        "to": "0x8f071320a60e4aac7da5fba5f201f9bcc66f86e9",
        "gas": "0x4489d",
        "value": "0x0",
        "data": "0x87c7a30f00000000000000000000000000000000000000000000000000000000000000400000000000000000000000000000000000000000000000000000000000000100000000000000000000000000000000000000000000000000000000000000009100021e140605000137020001370f0004000237020002370e0003000337020003370d0002000437020004370c0003000337020003370d0004000237020002370e0005000137020001370f000d370b000d370b000d370b000d370b000d370b000d370b000d370600057d0d370600017d017e017d017e017d0b37097d017e017d017e017d0b370d7d0a370523097d0b370d7d000000000000000000000000000000000000000000000000000000000000000000000000000000000000000000000d686561642d616172647661726b00000000000000000000000000000000000000",
        "nonce": "0x5c",
        "accessList": []
      },
      "additionalContracts": [],
      "isFixedGasLimit": false
    },
    {
      "hash": "0xfba58d77552598a8c21934e7b1e3cfe792299e00e9f7399a3f9a25b4fa0427cf",
      "transactionType": "CALL",
      "contractName": null,
      "contractAddress": "0x8F071320A60E4Aac7dA5FBA5F201F9bcc66f86e9",
      "function": "ext_registerTrait(bytes,string)",
      "arguments": [
        "0x00041a1405045c01000447010004470100017f01000114010001140100045c01230447012304470123017f01230114012301140123045c01230447012304470123017f01230114012301140123045c01230447012304470123017f01230114012301140123045c01230447012304470123017f012301140123011401230100142301230158012301580123017f012304460123047f0123044601230158012301580123017f012304460123047f0123044601230158012301580123017f012304460123047f0123044601230158012301580123017f012304460123047f0123044601230158012301580123017f012304460123047f012304460100132301000123015401230154012301540123040701230455012304550123015401230154012301540123040701230455012304550123015401230154012301540123010703540123045501230455012301540123015401230154012304070123045501230455012301540123015401230154012304070123045501230455",
        "\"head-abstract\""
      ],
      "transaction": {
        "type": "0x02",
        "from": "0xfc29edce481c4d7d2cda4c0ad6bf6c5fcf128704",
        "to": "0x8f071320a60e4aac7da5fba5f201f9bcc66f86e9",
        "gas": "0x7b373",
        "value": "0x0",
        "data": "0x87c7a30f000000000000000000000000000000000000000000000000000000000000004000000000000000000000000000000000000000000000000000000000000001e0000000000000000000000000000000000000000000000000000000000000017900041a1405045c01000447010004470100017f01000114010001140100045c01230447012304470123017f01230114012301140123045c01230447012304470123017f01230114012301140123045c01230447012304470123017f01230114012301140123045c01230447012304470123017f012301140123011401230100142301230158012301580123017f012304460123047f0123044601230158012301580123017f012304460123047f0123044601230158012301580123017f012304460123047f0123044601230158012301580123017f012304460123047f0123044601230158012301580123017f012304460123047f01230446010013230100012301540123015401230154012304070123045501230455012301540123015401230154012304070123045501230455012301540123015401230154012301070354012304550123045501230154012301540123015401230407012304550123045501230154012301540123015401230407012304550123045500000000000000000000000000000000000000000000000000000000000000000000000000000d686561642d616273747261637400000000000000000000000000000000000000",
        "nonce": "0x5d",
        "accessList": []
      },
      "additionalContracts": [],
      "isFixedGasLimit": false
    },
    {
      "hash": "0xc8c972938685964f4d6b2725422b59eb0f9eabfc726580bdc07627a4011e9f00",
      "transactionType": "CALL",
      "contractName": null,
      "contractAddress": "0x8F071320A60E4Aac7dA5FBA5F201F9bcc66f86e9",
      "function": "ext_registerTrait(bytes,string)",
      "arguments": [
        "0x0005191406030004800c0002000980080001000e80040002000f80020001001080020002000f80020002000f800200020001800e810200020001800e810200020001800e810200020001800e81020003800e8102000180018101800f8101000180018103800d82018005800d81018002001180",
        "\"head-ape\""
      ],
      "transaction": {
        "type": "0x02",
        "from": "0xfc29edce481c4d7d2cda4c0ad6bf6c5fcf128704",
        "to": "0x8f071320a60e4aac7da5fba5f201f9bcc66f86e9",
        "gas": "0x40528",
        "value": "0x0",
        "data": "0x87c7a30f000000000000000000000000000000000000000000000000000000000000004000000000000000000000000000000000000000000000000000000000000000e000000000000000000000000000000000000000000000000000000000000000730005191406030004800c0002000980080001000e80040002000f80020001001080020002000f80020002000f800200020001800e810200020001800e810200020001800e810200020001800e81020003800e8102000180018101800f8101000180018103800d82018005800d81018002001180000000000000000000000000000000000000000000000000000000000000000000000000000000000000000008686561642d617065000000000000000000000000000000000000000000000000",
        "nonce": "0x5e",
        "accessList": []
      },
      "additionalContracts": [],
      "isFixedGasLimit": false
    },
    {
      "hash": "0x5e57dd1db22cec5ae7125a6cb000cf9414e11aad77e54992961395da5575df94",
      "transactionType": "CALL",
      "contractName": null,
      "contractAddress": "0x8F071320A60E4Aac7dA5FBA5F201F9bcc66f86e9",
      "function": "ext_registerTrait(bytes,string)",
      "arguments": [
        "0x00031c140306000e3a050006000e3a05000400023a0e00023a03000400023a0e00023a03000400023a0e00023a030002000207023a0e07023a02070100020001070126023a040706260407023a01260107010001000126010702260607042606070226010701000100012608070626080701000100013a16070100013a0100013a15070100013a0100013a15070100013a0107013a1607013a0107013a1607010018070100070703760e0701001807020016070100",
        "\"head-bag\""
      ],
      "transaction": {
        "type": "0x02",
        "from": "0xfc29edce481c4d7d2cda4c0ad6bf6c5fcf128704",
        "to": "0x8f071320a60e4aac7da5fba5f201f9bcc66f86e9",
        "gas": "0x50cf4",
        "value": "0x0",
        "data": "0x87c7a30f0000000000000000000000000000000000000000000000000000000000000040000000000000000000000000000000000000000000000000000000000000012000000000000000000000000000000000000000000000000000000000000000b500031c140306000e3a050006000e3a05000400023a0e00023a03000400023a0e00023a03000400023a0e00023a030002000207023a0e07023a02070100020001070126023a040706260407023a01260107010001000126010702260607042606070226010701000100012608070626080701000100013a16070100013a0100013a15070100013a0100013a15070100013a0107013a1607013a0107013a1607010018070100070703760e070100180702001607010000000000000000000000000000000000000000000000000000000000000000000000000000000000000008686561642d626167000000000000000000000000000000000000000000000000",
        "nonce": "0x5f",
        "accessList": []
      },
      "additionalContracts": [],
      "isFixedGasLimit": false
    },
    {
      "hash": "0x5fd946f19be6f7a44aaf32d89618ced6e8dd42227bcebfa0185479f229bb122d",
      "transactionType": "CALL",
      "contractName": null,
      "contractAddress": "0x8F071320A60E4Aac7dA5FBA5F201F9bcc66f86e9",
      "function": "ext_registerTrait(bytes,string)",
      "arguments": [
        "0x00011d19050a0001830d000a00030f0b000a0001830200010f0100018308000a00020f0300010f017a07000a000108010f017a020f0108017a010f06000a00020f017a020f0183017a020f050001000183080001830100017a010f010001080100020f018304000200010807000108040001080200010f017a010f030003000108060001080300010803000183017a010f0300040001080500010803000108020001080100017a010f0200010f0200017a030f017a030f010803000108020001080200020f017a01000100010f017a030f017a030f017a03000108010001080400010f017a010f0100010f017a030f017a030f017a010f01000108020001080400010f02000100010f017a030f017a030f017a020f01080100010808000100010f017a030f017a030f017a030f017a020f07000100010f017a030f017a030f017a030f017a030f017a050001000108017a030f017a030f017a030f017a030f017a010f0400010001080200020f017a030f0211020f017a030f017a010f0400010001080400017a030f017a030f017a030f017a010f0400010001080400017a030f017a030f017a030f017a0500010001080500030f017a030f017a030f017a0500010001080700010f017a030f017a020f070001000108160001000183160003831500",
        "\"head-bagpipe\""
      ],
      "transaction": {
        "type": "0x02",
        "from": "0xfc29edce481c4d7d2cda4c0ad6bf6c5fcf128704",
        "to": "0x8f071320a60e4aac7da5fba5f201f9bcc66f86e9",
        "gas": "0xa311d",
        "value": "0x0",
        "data": "0x87c7a30f0000000000000000000000000000000000000000000000000000000000000040000000000000000000000000000000000000000000000000000000000000026000000000000000000000000000000000000000000000000000000000000001e300011d19050a0001830d000a00030f0b000a0001830200010f0100018308000a00020f0300010f017a07000a000108010f017a020f0108017a010f06000a00020f017a020f0183017a020f050001000183080001830100017a010f010001080100020f018304000200010807000108040001080200010f017a010f030003000108060001080300010803000183017a010f0300040001080500010803000108020001080100017a010f0200010f0200017a030f017a030f010803000108020001080200020f017a01000100010f017a030f017a030f017a03000108010001080400010f017a010f0100010f017a030f017a030f017a010f01000108020001080400010f02000100010f017a030f017a030f017a020f01080100010808000100010f017a030f017a030f017a030f017a020f07000100010f017a030f017a030f017a030f017a030f017a050001000108017a030f017a030f017a030f017a030f017a010f0400010001080200020f017a030f0211020f017a030f017a010f0400010001080400017a030f017a030f017a030f017a010f0400010001080400017a030f017a030f017a030f017a0500010001080500030f017a030f017a030f017a0500010001080700010f017a030f017a020f0700010001081600010001831600038315000000000000000000000000000000000000000000000000000000000000000000000000000000000000000000000000000000000000000000000000000c686561642d626167706970650000000000000000000000000000000000000000",
        "nonce": "0x60",
        "accessList": []
      },
      "additionalContracts": [],
      "isFixedGasLimit": false
    },
    {
      "hash": "0x76e9f0815e4d655307832546829d5cbf910b9624c47be51cfc1b9c5f4f43364f",
      "transactionType": "CALL",
      "contractName": null,
      "contractAddress": "0x8F071320A60E4Aac7dA5FBA5F201F9bcc66f86e9",
      "function": "ext_registerTrait(bytes,string)",
      "arguments": [
        "0x00041d140304000523047903260a0005000323047905260900060001230479072608000700037909260700070002790226012b07260700070001790326012b0326022b0226070007000226012b0526022b02260700012606000826022b022606000126022605000826022b022605000226032604000c26040003260126012b022602000e26020004260226012b022601000e26010005260326012b1226012b032601001426012b0326010002000a26032b0926020003000626015706260157062603000400042603570526025704260400",
        "\"head-banana\""
      ],
      "transaction": {
        "type": "0x02",
        "from": "0xfc29edce481c4d7d2cda4c0ad6bf6c5fcf128704",
        "to": "0x8f071320a60e4aac7da5fba5f201f9bcc66f86e9",
        "gas": "0x541c1",
        "value": "0x0",
        "data": "0x87c7a30f0000000000000000000000000000000000000000000000000000000000000040000000000000000000000000000000000000000000000000000000000000014000000000000000000000000000000000000000000000000000000000000000d100041d140304000523047903260a0005000323047905260900060001230479072608000700037909260700070002790226012b07260700070001790326012b0326022b0226070007000226012b0526022b02260700012606000826022b022606000126022605000826022b022605000226032604000c26040003260126012b022602000e26020004260226012b022601000e26010005260326012b1226012b032601001426012b0326010002000a26032b0926020003000626015706260157062603000400042603570526025704260400000000000000000000000000000000000000000000000000000000000000000000000000000000000000000000000b686561642d62616e616e61000000000000000000000000000000000000000000",
        "nonce": "0x61",
        "accessList": []
      },
      "additionalContracts": [],
      "isFixedGasLimit": false
    },
    {
      "hash": "0xbfa9cd8f0b0f0f2b4c5b79faaf1892ba0ca39dcdb49a0dc8360ec06972f92f3e",
      "transactionType": "CALL",
      "contractName": null,
      "contractAddress": "0x8F071320A60E4Aac7dA5FBA5F201F9bcc66f86e9",
      "function": "ext_registerTrait(bytes,string)",
      "arguments": [
        "0x00031c15040b00021f0b000900061f09000700031f0472031f07000500021f020c011f0472011f020c021f05000300021f020c031f0472031f020c021f03000100161f01000100167201000200031f0272041f0272041f0272031f02000200011f010c011f0272041f0272041f0272011f010c011f02000200031f0272041f0272041f0272031f02000200031f0272041f0272041f0272031f02000200031f0272041f0272041f0272031f02000200031f0272041f0272041f0272031f02000200031f0272041f0272041f0272031f02000200031f0272041f0272041f0272031f02000200031f0272041f0272041f0272031f02000200011f1272011f02000100161f0100021f1472021f",
        "\"head-bank\""
      ],
      "transaction": {
        "type": "0x02",
        "from": "0xfc29edce481c4d7d2cda4c0ad6bf6c5fcf128704",
        "to": "0x8f071320a60e4aac7da5fba5f201f9bcc66f86e9",
        "gas": "0x6983b",
        "value": "0x0",
        "data": "0x87c7a30f00000000000000000000000000000000000000000000000000000000000000400000000000000000000000000000000000000000000000000000000000000180000000000000000000000000000000000000000000000000000000000000010b00031c15040b00021f0b000900061f09000700031f0472031f07000500021f020c011f0472011f020c021f05000300021f020c031f0472031f020c021f03000100161f01000100167201000200031f0272041f0272041f0272031f02000200011f010c011f0272041f0272041f0272011f010c011f02000200031f0272041f0272041f0272031f02000200031f0272041f0272041f0272031f02000200031f0272041f0272041f0272031f02000200031f0272041f0272041f0272031f02000200031f0272041f0272041f0272031f02000200031f0272041f0272041f0272031f02000200031f0272041f0272041f0272031f02000200011f1272011f02000100161f0100021f1472021f0000000000000000000000000000000000000000000000000000000000000000000000000000000000000000000000000000000009686561642d62616e6b0000000000000000000000000000000000000000000000",
        "nonce": "0x62",
        "accessList": []
      },
      "additionalContracts": [],
      "isFixedGasLimit": false
    },
    {
      "hash": "0x7fa5f483197b21eb5a97ced8140ffb86b74201907ea017bc65eeee8f1a5022da",
      "transactionType": "CALL",
      "contractName": null,
      "contractAddress": "0x8F071320A60E4Aac7dA5FBA5F201F9bcc66f86e9",
      "function": "ext_registerTrait(bytes,string)",
      "arguments": [
        "0x00041a17060800040b08000600080b0600040001240b0b04000300020b01240a0b0124010b02000200030b01240a0b0124010b02000200030b01240a0b0124010b02000100040b01240a0b0124020b01000100030b01240c0b0124010b0100040b01240c0b0124020b030b01240e0b0124010b030b01240e0b0124010b030b01240e0b0124010b0100030b01240c0b0124010b01000100030b01240c0b0124010b01000200030b01240a0b0124010b02000200040b0224060b0224020b02000300050b0624030b030004000c0b04000600080b06000800040b0800",
        "\"head-baseball-gameball\""
      ],
      "transaction": {
        "type": "0x02",
        "from": "0xfc29edce481c4d7d2cda4c0ad6bf6c5fcf128704",
        "to": "0x8f071320a60e4aac7da5fba5f201f9bcc66f86e9",
        "gas": "0x5925b",
        "value": "0x0",
        "data": "0x87c7a30f0000000000000000000000000000000000000000000000000000000000000040000000000000000000000000000000000000000000000000000000000000014000000000000000000000000000000000000000000000000000000000000000db00041a17060800040b08000600080b0600040001240b0b04000300020b01240a0b0124010b02000200030b01240a0b0124010b02000200030b01240a0b0124010b02000100040b01240a0b0124020b01000100030b01240c0b0124010b0100040b01240c0b0124020b030b01240e0b0124010b030b01240e0b0124010b030b01240e0b0124010b0100030b01240c0b0124010b01000100030b01240c0b0124010b01000200030b01240a0b0124010b02000200040b0224060b0224020b02000300050b0624030b030004000c0b04000600080b06000800040b080000000000000000000000000000000000000000000000000000000000000000000000000016686561642d6261736562616c6c2d67616d6562616c6c00000000000000000000",
        "nonce": "0x63",
        "accessList": []
      },
      "additionalContracts": [],
      "isFixedGasLimit": false
    },
    {
      "hash": "0x8ced8c744316f1d78ca46460c80ef8053f9eec7a8fd75b58a59783515ca74bb7",
      "transactionType": "CALL",
      "contractName": null,
      "contractAddress": "0x8F071320A60E4Aac7dA5FBA5F201F9bcc66f86e9",
      "function": "ext_registerTrait(bytes,string)",
      "arguments": [
        "0x00031a160607000542011a070005000442011a0242011a0242050003000242021a0542011a0442030002000542011a0442011a0442011a020002000142011a0442011a0342011a0342011a0142020001000842011a0242011a0242011a0342010001000142011a0742051a044201000c42011a07420c42011a07420c42011a0742141a0c42011a07420c42011a074201000b42011a0642010001000942051a04420100020004420166010e0166010e0166010e011a0242011a0242020002000642011a0342011a0342011a0142020003000442011a0442011a044203000500021a0542011a0242050007000542011a0700",
        "\"head-basketball\""
      ],
      "transaction": {
        "type": "0x02",
        "from": "0xfc29edce481c4d7d2cda4c0ad6bf6c5fcf128704",
        "to": "0x8f071320a60e4aac7da5fba5f201f9bcc66f86e9",
        "gas": "0x5bef8",
        "value": "0x0",
        "data": "0x87c7a30f0000000000000000000000000000000000000000000000000000000000000040000000000000000000000000000000000000000000000000000000000000016000000000000000000000000000000000000000000000000000000000000000f100031a160607000542011a070005000442011a0242011a0242050003000242021a0542011a0442030002000542011a0442011a0442011a020002000142011a0442011a0342011a0342011a0142020001000842011a0242011a0242011a0342010001000142011a0742051a044201000c42011a07420c42011a07420c42011a0742141a0c42011a07420c42011a074201000b42011a0642010001000942051a04420100020004420166010e0166010e0166010e011a0242011a0242020002000642011a0342011a0342011a0142020003000442011a0442011a044203000500021a0542011a0242050007000542011a0700000000000000000000000000000000000000000000000000000000000000000000000000000000000000000000000f686561642d6261736b657462616c6c0000000000000000000000000000000000",
        "nonce": "0x64",
        "accessList": []
      },
      "additionalContracts": [],
      "isFixedGasLimit": false
    },
    {
      "hash": "0x61084e47c533362383b5cf0e9322a11a3fd1f9bb261128b6112fa77c085d4c6a",
      "transactionType": "CALL",
      "contractName": null,
      "contractAddress": "0x8F071320A60E4Aac7dA5FBA5F201F9bcc66f86e9",
      "function": "ext_registerTrait(bytes,string)",
      "arguments": [
        "0x00031e14020900018408000184090009000184080001840900080003840600038408000400018402000284018501840600018401850284020001840400040005840185028404000284018505840400030001840185038401850a84018503840185018403000300058401850a8401850584030002000184018514840185018402000200018401851484018501840200010001840185168401850184010001000184018516840185018401000100018401851684018501840100010001840185168401850184010001840185188401850184018401851884018501840784018504840223016201230162022301840185078402840300028401850384032301010123010101230284018502840300028401840500108405000184",
        "\"head-bat\""
      ],
      "transaction": {
        "type": "0x02",
        "from": "0xfc29edce481c4d7d2cda4c0ad6bf6c5fcf128704",
        "to": "0x8f071320a60e4aac7da5fba5f201f9bcc66f86e9",
        "gas": "0x6990e",
        "value": "0x0",
        "data": "0x87c7a30f00000000000000000000000000000000000000000000000000000000000000400000000000000000000000000000000000000000000000000000000000000180000000000000000000000000000000000000000000000000000000000000011900031e14020900018408000184090009000184080001840900080003840600038408000400018402000284018501840600018401850284020001840400040005840185028404000284018505840400030001840185038401850a84018503840185018403000300058401850a8401850584030002000184018514840185018402000200018401851484018501840200010001840185168401850184010001000184018516840185018401000100018401851684018501840100010001840185168401850184010001840185188401850184018401851884018501840784018504840223016201230162022301840185078402840300028401850384032301010123010101230284018502840300028401840500108405000184000000000000000000000000000000000000000000000000000000000000000000000000000008686561642d626174000000000000000000000000000000000000000000000000",
        "nonce": "0x65",
        "accessList": []
      },
      "additionalContracts": [],
      "isFixedGasLimit": false
    }
  ],
  "receipts": [],
  "libraries": [],
  "pending": [
    "0x69167ec7ba54e3fbc8aa07ec1c4d88ec077b160afeb99c997d9d834a45d97c25",
    "0xfba58d77552598a8c21934e7b1e3cfe792299e00e9f7399a3f9a25b4fa0427cf",
    "0xc8c972938685964f4d6b2725422b59eb0f9eabfc726580bdc07627a4011e9f00",
    "0x5e57dd1db22cec5ae7125a6cb000cf9414e11aad77e54992961395da5575df94",
    "0x5fd946f19be6f7a44aaf32d89618ced6e8dd42227bcebfa0185479f229bb122d",
    "0x76e9f0815e4d655307832546829d5cbf910b9624c47be51cfc1b9c5f4f43364f",
    "0xbfa9cd8f0b0f0f2b4c5b79faaf1892ba0ca39dcdb49a0dc8360ec06972f92f3e",
    "0x7fa5f483197b21eb5a97ced8140ffb86b74201907ea017bc65eeee8f1a5022da",
    "0x8ced8c744316f1d78ca46460c80ef8053f9eec7a8fd75b58a59783515ca74bb7",
    "0x61084e47c533362383b5cf0e9322a11a3fd1f9bb261128b6112fa77c085d4c6a"
  ],
  "returns": {},
  "timestamp": 1708707989,
  "chain": 11155111,
  "multi": false,
  "commit": "6a94c07"
}