{
  "transactions": [
    {
      "hash": null,
      "transactionType": "CALL",
      "contractName": null,
      "contractAddress": "0x8F071320A60E4Aac7dA5FBA5F201F9bcc66f86e9",
      "function": "ext_registerTrait(bytes,string)",
      "arguments": [
        "0x0015171f090e020e020e020e02020201000b02020201000b02020201000b02020201000b02020201000b02020201000b02020201000b02",
        "\"body-bege-bsod\""
      ],
      "transaction": {
        "type": "0x02",
        "from": "0xfc29edce481c4d7d2cda4c0ad6bf6c5fcf128704",
        "to": "0x8f071320a60e4aac7da5fba5f201f9bcc66f86e9",
        "gas": "0x2d467",
        "value": "0x0",
        "data": "0x87c7a30f000000000000000000000000000000000000000000000000000000000000004000000000000000000000000000000000000000000000000000000000000000a000000000000000000000000000000000000000000000000000000000000000370015171f090e020e020e020e02020201000b02020201000b02020201000b02020201000b02020201000b02020201000b02020201000b02000000000000000000000000000000000000000000000000000000000000000000000000000000000e626f64792d626567652d62736f64000000000000000000000000000000000000",
        "nonce": "0x2d",
        "accessList": []
      },
      "additionalContracts": [],
      "isFixedGasLimit": false
    },
    {
      "hash": null,
      "transactionType": "CALL",
      "contractName": null,
      "contractAddress": "0x8F071320A60E4Aac7dA5FBA5F201F9bcc66f86e9",
      "function": "ext_registerTrait(bytes,string)",
      "arguments": [
        "0x0015171f090e030e030e030e03020301000b03020301000b03020301000b03020301000b03020301000b03020301000b03020301000b03",
        "\"body-bege-crt\""
      ],
      "transaction": {
        "type": "0x02",
        "from": "0xfc29edce481c4d7d2cda4c0ad6bf6c5fcf128704",
        "to": "0x8f071320a60e4aac7da5fba5f201f9bcc66f86e9",
        "gas": "0x2fef3",
        "value": "0x0",
        "data": "0x87c7a30f000000000000000000000000000000000000000000000000000000000000004000000000000000000000000000000000000000000000000000000000000000a000000000000000000000000000000000000000000000000000000000000000370015171f090e030e030e030e03020301000b03020301000b03020301000b03020301000b03020301000b03020301000b03020301000b03000000000000000000000000000000000000000000000000000000000000000000000000000000000d626f64792d626567652d63727400000000000000000000000000000000000000",
        "nonce": "0x2e",
        "accessList": []
      },
      "additionalContracts": [],
      "isFixedGasLimit": false
    },
    {
      "hash": null,
      "transactionType": "CALL",
      "contractName": null,
      "contractAddress": "0x8F071320A60E4Aac7dA5FBA5F201F9bcc66f86e9",
      "function": "ext_registerTrait(bytes,string)",
      "arguments": [
        "0x0015171f090e040e040e040e04020401000b04020401000b04020401000b04020401000b04020401000b04020401000b04020401000b04",
        "\"body-blue-sky\""
      ],
      "transaction": {
        "type": "0x02",
        "from": "0xfc29edce481c4d7d2cda4c0ad6bf6c5fcf128704",
        "to": "0x8f071320a60e4aac7da5fba5f201f9bcc66f86e9",
        "gas": "0x2fef3",
        "value": "0x0",
        "data": "0x87c7a30f000000000000000000000000000000000000000000000000000000000000004000000000000000000000000000000000000000000000000000000000000000a000000000000000000000000000000000000000000000000000000000000000370015171f090e040e040e040e04020401000b04020401000b04020401000b04020401000b04020401000b04020401000b04020401000b04000000000000000000000000000000000000000000000000000000000000000000000000000000000d626f64792d626c75652d736b7900000000000000000000000000000000000000",
        "nonce": "0x2f",
        "accessList": []
      },
      "additionalContracts": [],
      "isFixedGasLimit": false
    },
    {
      "hash": null,
      "transactionType": "CALL",
      "contractName": null,
      "contractAddress": "0x8F071320A60E4Aac7dA5FBA5F201F9bcc66f86e9",
      "function": "ext_registerTrait(bytes,string)",
      "arguments": [
        "0x0015171f090e050e050e050e05020501000b05020501000b05020501000b05020501000b05020501000b05020501000b05020501000b05",
        "\"body-bluegrey\""
      ],
      "transaction": {
        "type": "0x02",
        "from": "0xfc29edce481c4d7d2cda4c0ad6bf6c5fcf128704",
        "to": "0x8f071320a60e4aac7da5fba5f201f9bcc66f86e9",
        "gas": "0x2fef3",
        "value": "0x0",
        "data": "0x87c7a30f000000000000000000000000000000000000000000000000000000000000004000000000000000000000000000000000000000000000000000000000000000a000000000000000000000000000000000000000000000000000000000000000370015171f090e050e050e050e05020501000b05020501000b05020501000b05020501000b05020501000b05020501000b05020501000b05000000000000000000000000000000000000000000000000000000000000000000000000000000000d626f64792d626c75656772657900000000000000000000000000000000000000",
        "nonce": "0x30",
        "accessList": []
      },
      "additionalContracts": [],
      "isFixedGasLimit": false
    },
    {
      "hash": null,
      "transactionType": "CALL",
      "contractName": null,
      "contractAddress": "0x8F071320A60E4Aac7dA5FBA5F201F9bcc66f86e9",
      "function": "ext_registerTrait(bytes,string)",
      "arguments": [
        "0x0015171f090e060e060e060e06020601000b06020601000b06020601000b06020601000b06020601000b06020601000b06020601000b06",
        "\"body-cold\""
      ],
      "transaction": {
        "type": "0x02",
        "from": "0xfc29edce481c4d7d2cda4c0ad6bf6c5fcf128704",
        "to": "0x8f071320a60e4aac7da5fba5f201f9bcc66f86e9",
        "gas": "0x2feac",
        "value": "0x0",
        "data": "0x87c7a30f000000000000000000000000000000000000000000000000000000000000004000000000000000000000000000000000000000000000000000000000000000a000000000000000000000000000000000000000000000000000000000000000370015171f090e060e060e060e06020601000b06020601000b06020601000b06020601000b06020601000b06020601000b06020601000b060000000000000000000000000000000000000000000000000000000000000000000000000000000009626f64792d636f6c640000000000000000000000000000000000000000000000",
        "nonce": "0x31",
        "accessList": []
      },
      "additionalContracts": [],
      "isFixedGasLimit": false
    },
    {
      "hash": null,
      "transactionType": "CALL",
      "contractName": null,
      "contractAddress": "0x8F071320A60E4Aac7dA5FBA5F201F9bcc66f86e9",
      "function": "ext_registerTrait(bytes,string)",
      "arguments": [
        "0x0015171f090e070e070e070e07020701000b07020701000b07020701000b07020701000b07020701000b07020701000b07020701000b07",
        "\"body-computerblue\""
      ],
      "transaction": {
        "type": "0x02",
        "from": "0xfc29edce481c4d7d2cda4c0ad6bf6c5fcf128704",
        "to": "0x8f071320a60e4aac7da5fba5f201f9bcc66f86e9",
        "gas": "0x2ff39",
        "value": "0x0",
        "data": "0x87c7a30f000000000000000000000000000000000000000000000000000000000000004000000000000000000000000000000000000000000000000000000000000000a000000000000000000000000000000000000000000000000000000000000000370015171f090e070e070e070e07020701000b07020701000b07020701000b07020701000b07020701000b07020701000b07020701000b070000000000000000000000000000000000000000000000000000000000000000000000000000000011626f64792d636f6d7075746572626c7565000000000000000000000000000000",
        "nonce": "0x32",
        "accessList": []
      },
      "additionalContracts": [],
      "isFixedGasLimit": false
    },
    {
      "hash": null,
      "transactionType": "CALL",
      "contractName": null,
      "contractAddress": "0x8F071320A60E4Aac7dA5FBA5F201F9bcc66f86e9",
      "function": "ext_registerTrait(bytes,string)",
      "arguments": [
        "0x0015171f090e080e080e080e08020801000b08020801000b08020801000b08020801000b08020801000b08020801000b08020801000b08",
        "\"body-darkbrown\""
      ],
      "transaction": {
        "type": "0x02",
        "from": "0xfc29edce481c4d7d2cda4c0ad6bf6c5fcf128704",
        "to": "0x8f071320a60e4aac7da5fba5f201f9bcc66f86e9",
        "gas": "0x2d467",
        "value": "0x0",
        "data": "0x87c7a30f000000000000000000000000000000000000000000000000000000000000004000000000000000000000000000000000000000000000000000000000000000a000000000000000000000000000000000000000000000000000000000000000370015171f090e080e080e080e08020801000b08020801000b08020801000b08020801000b08020801000b08020801000b08020801000b08000000000000000000000000000000000000000000000000000000000000000000000000000000000e626f64792d6461726b62726f776e000000000000000000000000000000000000",
        "nonce": "0x33",
        "accessList": []
      },
      "additionalContracts": [],
      "isFixedGasLimit": false
    },
    {
      "hash": null,
      "transactionType": "CALL",
      "contractName": null,
      "contractAddress": "0x8F071320A60E4Aac7dA5FBA5F201F9bcc66f86e9",
      "function": "ext_registerTrait(bytes,string)",
      "arguments": [
        "0x0015171f090e090e090e090e09020901000b09020901000b09020901000b09020901000b09020901000b09020901000b09020901000b09",
        "\"body-darkpink\""
      ],
      "transaction": {
        "type": "0x02",
        "from": "0xfc29edce481c4d7d2cda4c0ad6bf6c5fcf128704",
        "to": "0x8f071320a60e4aac7da5fba5f201f9bcc66f86e9",
        "gas": "0x2fef3",
        "value": "0x0",
        "data": "0x87c7a30f000000000000000000000000000000000000000000000000000000000000004000000000000000000000000000000000000000000000000000000000000000a000000000000000000000000000000000000000000000000000000000000000370015171f090e090e090e090e09020901000b09020901000b09020901000b09020901000b09020901000b09020901000b09020901000b09000000000000000000000000000000000000000000000000000000000000000000000000000000000d626f64792d6461726b70696e6b00000000000000000000000000000000000000",
        "nonce": "0x34",
        "accessList": []
      },
      "additionalContracts": [],
      "isFixedGasLimit": false
    },
    {
      "hash": null,
      "transactionType": "CALL",
      "contractName": null,
      "contractAddress": "0x8F071320A60E4Aac7dA5FBA5F201F9bcc66f86e9",
      "function": "ext_registerTrait(bytes,string)",
      "arguments": [
        "0x0015171f090e030e030e030e03020301000b03020301000b03020301000b03020301000b03020301000b03020301000b03020301000b03",
        "\"body-foggrey\""
      ],
      "transaction": {
        "type": "0x02",
        "from": "0xfc29edce481c4d7d2cda4c0ad6bf6c5fcf128704",
        "to": "0x8f071320a60e4aac7da5fba5f201f9bcc66f86e9",
        "gas": "0x2d445",
        "value": "0x0",
        "data": "0x87c7a30f000000000000000000000000000000000000000000000000000000000000004000000000000000000000000000000000000000000000000000000000000000a000000000000000000000000000000000000000000000000000000000000000370015171f090e030e030e030e03020301000b03020301000b03020301000b03020301000b03020301000b03020301000b03020301000b03000000000000000000000000000000000000000000000000000000000000000000000000000000000c626f64792d666f67677265790000000000000000000000000000000000000000",
        "nonce": "0x35",
        "accessList": []
      },
      "additionalContracts": [],
      "isFixedGasLimit": false
    },
    {
      "hash": null,
      "transactionType": "CALL",
      "contractName": null,
      "contractAddress": "0x8F071320A60E4Aac7dA5FBA5F201F9bcc66f86e9",
      "function": "ext_registerTrait(bytes,string)",
      "arguments": [
        "0x0015171f090e0a0e0a0e0a0e0a020a01000b0a020a01000b0a020a01000b0a020a01000b0a020a01000b0a020a01000b0a020a01000b0a",
        "\"body-gold\""
      ],
      "transaction": {
        "type": "0x02",
        "from": "0xfc29edce481c4d7d2cda4c0ad6bf6c5fcf128704",
        "to": "0x8f071320a60e4aac7da5fba5f201f9bcc66f86e9",
        "gas": "0x2feac",
        "value": "0x0",
        "data": "0x87c7a30f000000000000000000000000000000000000000000000000000000000000004000000000000000000000000000000000000000000000000000000000000000a000000000000000000000000000000000000000000000000000000000000000370015171f090e0a0e0a0e0a0e0a020a01000b0a020a01000b0a020a01000b0a020a01000b0a020a01000b0a020a01000b0a020a01000b0a0000000000000000000000000000000000000000000000000000000000000000000000000000000009626f64792d676f6c640000000000000000000000000000000000000000000000",
        "nonce": "0x36",
        "accessList": []
      },
      "additionalContracts": [],
      "isFixedGasLimit": false
    },
    {
      "hash": null,
      "transactionType": "CALL",
      "contractName": null,
      "contractAddress": "0x8F071320A60E4Aac7dA5FBA5F201F9bcc66f86e9",
      "function": "ext_registerTrait(bytes,string)",
      "arguments": [
        "0x0015171f090e0b0e0b0e0b0e0b020b01000b0b020b01000b0b020b01000b0b020b01000b0b020b01000b0b020b01000b0b020b01000b0b",
        "\"body-grayscale-1\""
      ],
      "transaction": {
        "type": "0x02",
        "from": "0xfc29edce481c4d7d2cda4c0ad6bf6c5fcf128704",
        "to": "0x8f071320a60e4aac7da5fba5f201f9bcc66f86e9",
        "gas": "0x2d488",
        "value": "0x0",
        "data": "0x87c7a30f000000000000000000000000000000000000000000000000000000000000004000000000000000000000000000000000000000000000000000000000000000a000000000000000000000000000000000000000000000000000000000000000370015171f090e0b0e0b0e0b0e0b020b01000b0b020b01000b0b020b01000b0b020b01000b0b020b01000b0b020b01000b0b020b01000b0b0000000000000000000000000000000000000000000000000000000000000000000000000000000010626f64792d677261797363616c652d3100000000000000000000000000000000",
        "nonce": "0x37",
        "accessList": []
      },
      "additionalContracts": [],
      "isFixedGasLimit": false
    },
    {
      "hash": null,
      "transactionType": "CALL",
      "contractName": null,
      "contractAddress": "0x8F071320A60E4Aac7dA5FBA5F201F9bcc66f86e9",
      "function": "ext_registerTrait(bytes,string)",
      "arguments": [
        "0x0015171f090e0c0e0c0e0c0e0c020c01000b0c020c01000b0c020c01000b0c020c01000b0c020c01000b0c020c01000b0c020c01000b0c",
        "\"body-grayscale-7\""
      ],
      "transaction": {
        "type": "0x02",
        "from": "0xfc29edce481c4d7d2cda4c0ad6bf6c5fcf128704",
        "to": "0x8f071320a60e4aac7da5fba5f201f9bcc66f86e9",
        "gas": "0x2d488",
        "value": "0x0",
        "data": "0x87c7a30f000000000000000000000000000000000000000000000000000000000000004000000000000000000000000000000000000000000000000000000000000000a000000000000000000000000000000000000000000000000000000000000000370015171f090e0c0e0c0e0c0e0c020c01000b0c020c01000b0c020c01000b0c020c01000b0c020c01000b0c020c01000b0c020c01000b0c0000000000000000000000000000000000000000000000000000000000000000000000000000000010626f64792d677261797363616c652d3700000000000000000000000000000000",
        "nonce": "0x38",
        "accessList": []
      },
      "additionalContracts": [],
      "isFixedGasLimit": false
    },
    {
      "hash": null,
      "transactionType": "CALL",
      "contractName": null,
      "contractAddress": "0x8F071320A60E4Aac7dA5FBA5F201F9bcc66f86e9",
      "function": "ext_registerTrait(bytes,string)",
      "arguments": [
        "0x0015171f090e0d0e0d0e0d0e0d020d01000b0d020d01000b0d020d01000b0d020d01000b0d020d01000b0d020d01000b0d020d01000b0d",
        "\"body-grayscale-8\""
      ],
      "transaction": {
        "type": "0x02",
        "from": "0xfc29edce481c4d7d2cda4c0ad6bf6c5fcf128704",
        "to": "0x8f071320a60e4aac7da5fba5f201f9bcc66f86e9",
        "gas": "0x2d488",
        "value": "0x0",
        "data": "0x87c7a30f000000000000000000000000000000000000000000000000000000000000004000000000000000000000000000000000000000000000000000000000000000a000000000000000000000000000000000000000000000000000000000000000370015171f090e0d0e0d0e0d0e0d020d01000b0d020d01000b0d020d01000b0d020d01000b0d020d01000b0d020d01000b0d020d01000b0d0000000000000000000000000000000000000000000000000000000000000000000000000000000010626f64792d677261797363616c652d3800000000000000000000000000000000",
        "nonce": "0x39",
        "accessList": []
      },
      "additionalContracts": [],
      "isFixedGasLimit": false
    },
    {
      "hash": null,
      "transactionType": "CALL",
      "contractName": null,
      "contractAddress": "0x8F071320A60E4Aac7dA5FBA5F201F9bcc66f86e9",
      "function": "ext_registerTrait(bytes,string)",
      "arguments": [
        "0x0015171f090e0e0e0e0e0e0e0e020e01000b0e020e01000b0e020e01000b0e020e01000b0e020e01000b0e020e01000b0e020e01000b0e",
        "\"body-grayscale-9\""
      ],
      "transaction": {
        "type": "0x02",
        "from": "0xfc29edce481c4d7d2cda4c0ad6bf6c5fcf128704",
        "to": "0x8f071320a60e4aac7da5fba5f201f9bcc66f86e9",
        "gas": "0x2d488",
        "value": "0x0",
        "data": "0x87c7a30f000000000000000000000000000000000000000000000000000000000000004000000000000000000000000000000000000000000000000000000000000000a000000000000000000000000000000000000000000000000000000000000000370015171f090e0e0e0e0e0e0e0e020e01000b0e020e01000b0e020e01000b0e020e01000b0e020e01000b0e020e01000b0e020e01000b0e0000000000000000000000000000000000000000000000000000000000000000000000000000000010626f64792d677261797363616c652d3900000000000000000000000000000000",
        "nonce": "0x3a",
        "accessList": []
      },
      "additionalContracts": [],
      "isFixedGasLimit": false
    },
    {
      "hash": null,
      "transactionType": "CALL",
      "contractName": null,
      "contractAddress": "0x8F071320A60E4Aac7dA5FBA5F201F9bcc66f86e9",
      "function": "ext_registerTrait(bytes,string)",
      "arguments": [
        "0x0015171f090e0f0e0f0e0f0e0f020f01000b0f020f01000b0f020f01000b0f020f01000b0f020f01000b0f020f01000b0f020f01000b0f",
        "\"body-green\""
      ],
      "transaction": {
        "type": "0x02",
        "from": "0xfc29edce481c4d7d2cda4c0ad6bf6c5fcf128704",
        "to": "0x8f071320a60e4aac7da5fba5f201f9bcc66f86e9",
        "gas": "0x2d425",
        "value": "0x0",
        "data": "0x87c7a30f000000000000000000000000000000000000000000000000000000000000004000000000000000000000000000000000000000000000000000000000000000a000000000000000000000000000000000000000000000000000000000000000370015171f090e0f0e0f0e0f0e0f020f01000b0f020f01000b0f020f01000b0f020f01000b0f020f01000b0f020f01000b0f020f01000b0f000000000000000000000000000000000000000000000000000000000000000000000000000000000a626f64792d677265656e00000000000000000000000000000000000000000000",
        "nonce": "0x3b",
        "accessList": []
      },
      "additionalContracts": [],
      "isFixedGasLimit": false
    },
    {
      "hash": null,
      "transactionType": "CALL",
      "contractName": null,
      "contractAddress": "0x8F071320A60E4Aac7dA5FBA5F201F9bcc66f86e9",
      "function": "ext_registerTrait(bytes,string)",
      "arguments": [
        "0x0015171f090e100e100e100e10021001000b10021001000b10021001000b10021001000b10021001000b10021001000b10021001000b10",
        "\"body-gunk\""
      ],
      "transaction": {
        "type": "0x02",
        "from": "0xfc29edce481c4d7d2cda4c0ad6bf6c5fcf128704",
        "to": "0x8f071320a60e4aac7da5fba5f201f9bcc66f86e9",
        "gas": "0x2feac",
        "value": "0x0",
        "data": "0x87c7a30f000000000000000000000000000000000000000000000000000000000000004000000000000000000000000000000000000000000000000000000000000000a000000000000000000000000000000000000000000000000000000000000000370015171f090e100e100e100e10021001000b10021001000b10021001000b10021001000b10021001000b10021001000b10021001000b100000000000000000000000000000000000000000000000000000000000000000000000000000000009626f64792d67756e6b0000000000000000000000000000000000000000000000",
        "nonce": "0x3c",
        "accessList": []
      },
      "additionalContracts": [],
      "isFixedGasLimit": false
    },
    {
      "hash": null,
      "transactionType": "CALL",
      "contractName": null,
      "contractAddress": "0x8F071320A60E4Aac7dA5FBA5F201F9bcc66f86e9",
      "function": "ext_registerTrait(bytes,string)",
      "arguments": [
        "0x0015171f090e110e110e110e11021101000b11021101000b11021101000b11021101000b11021101000b11021101000b11021101000b11",
        "\"body-hotbrown\""
      ],
      "transaction": {
        "type": "0x02",
        "from": "0xfc29edce481c4d7d2cda4c0ad6bf6c5fcf128704",
        "to": "0x8f071320a60e4aac7da5fba5f201f9bcc66f86e9",
        "gas": "0x2fef3",
        "value": "0x0",
        "data": "0x87c7a30f000000000000000000000000000000000000000000000000000000000000004000000000000000000000000000000000000000000000000000000000000000a000000000000000000000000000000000000000000000000000000000000000370015171f090e110e110e110e11021101000b11021101000b11021101000b11021101000b11021101000b11021101000b11021101000b11000000000000000000000000000000000000000000000000000000000000000000000000000000000d626f64792d686f7462726f776e00000000000000000000000000000000000000",
        "nonce": "0x3d",
        "accessList": []
      },
      "additionalContracts": [],
      "isFixedGasLimit": false
    },
    {
      "hash": null,
      "transactionType": "CALL",
      "contractName": null,
      "contractAddress": "0x8F071320A60E4Aac7dA5FBA5F201F9bcc66f86e9",
      "function": "ext_registerTrait(bytes,string)",
      "arguments": [
        "0x0015171f090e120e120e120e12021201000b12021201000b12021201000b12021201000b12021201000b12021201000b12021201000b12",
        "\"body-magenta\""
      ],
      "transaction": {
        "type": "0x02",
        "from": "0xfc29edce481c4d7d2cda4c0ad6bf6c5fcf128704",
        "to": "0x8f071320a60e4aac7da5fba5f201f9bcc66f86e9",
        "gas": "0x2d445",
        "value": "0x0",
        "data": "0x87c7a30f000000000000000000000000000000000000000000000000000000000000004000000000000000000000000000000000000000000000000000000000000000a000000000000000000000000000000000000000000000000000000000000000370015171f090e120e120e120e12021201000b12021201000b12021201000b12021201000b12021201000b12021201000b12021201000b12000000000000000000000000000000000000000000000000000000000000000000000000000000000c626f64792d6d6167656e74610000000000000000000000000000000000000000",
        "nonce": "0x3e",
        "accessList": []
      },
      "additionalContracts": [],
      "isFixedGasLimit": false
    },
    {
      "hash": null,
      "transactionType": "CALL",
      "contractName": null,
      "contractAddress": "0x8F071320A60E4Aac7dA5FBA5F201F9bcc66f86e9",
      "function": "ext_registerTrait(bytes,string)",
      "arguments": [
        "0x0015171f090e130e130e130e13021301000b13021301000b13021301000b13021301000b13021301000b13021301000b13021301000b13",
        "\"body-orange-yellow\""
      ],
      "transaction": {
        "type": "0x02",
        "from": "0xfc29edce481c4d7d2cda4c0ad6bf6c5fcf128704",
        "to": "0x8f071320a60e4aac7da5fba5f201f9bcc66f86e9",
        "gas": "0x2d4a9",
        "value": "0x0",
        "data": "0x87c7a30f000000000000000000000000000000000000000000000000000000000000004000000000000000000000000000000000000000000000000000000000000000a000000000000000000000000000000000000000000000000000000000000000370015171f090e130e130e130e13021301000b13021301000b13021301000b13021301000b13021301000b13021301000b13021301000b130000000000000000000000000000000000000000000000000000000000000000000000000000000012626f64792d6f72616e67652d79656c6c6f770000000000000000000000000000",
        "nonce": "0x3f",
        "accessList": []
      },
      "additionalContracts": [],
      "isFixedGasLimit": false
    },
    {
      "hash": null,
      "transactionType": "CALL",
      "contractName": null,
      "contractAddress": "0x8F071320A60E4Aac7dA5FBA5F201F9bcc66f86e9",
      "function": "ext_registerTrait(bytes,string)",
      "arguments": [
        "0x0015171f090e140e140e140e14021401000b14021401000b14021401000b14021401000b14021401000b14021401000b14021401000b14",
        "\"body-orange\""
      ],
      "transaction": {
        "type": "0x02",
        "from": "0xfc29edce481c4d7d2cda4c0ad6bf6c5fcf128704",
        "to": "0x8f071320a60e4aac7da5fba5f201f9bcc66f86e9",
        "gas": "0x2fecf",
        "value": "0x0",
        "data": "0x87c7a30f000000000000000000000000000000000000000000000000000000000000004000000000000000000000000000000000000000000000000000000000000000a000000000000000000000000000000000000000000000000000000000000000370015171f090e140e140e140e14021401000b14021401000b14021401000b14021401000b14021401000b14021401000b14021401000b14000000000000000000000000000000000000000000000000000000000000000000000000000000000b626f64792d6f72616e6765000000000000000000000000000000000000000000",
        "nonce": "0x40",
        "accessList": []
      },
      "additionalContracts": [],
      "isFixedGasLimit": false
    },
    {
      "hash": null,
      "transactionType": "CALL",
      "contractName": null,
      "contractAddress": "0x8F071320A60E4Aac7dA5FBA5F201F9bcc66f86e9",
      "function": "ext_registerTrait(bytes,string)",
      "arguments": [
        "0x0015171f090e150e150e150e15021501000b15021501000b15021501000b15021501000b15021501000b15021501000b15021501000b15",
        "\"body-peachy-B\""
      ],
      "transaction": {
        "type": "0x02",
        "from": "0xfc29edce481c4d7d2cda4c0ad6bf6c5fcf128704",
        "to": "0x8f071320a60e4aac7da5fba5f201f9bcc66f86e9",
        "gas": "0x2fef3",
        "value": "0x0",
        "data": "0x87c7a30f000000000000000000000000000000000000000000000000000000000000004000000000000000000000000000000000000000000000000000000000000000a000000000000000000000000000000000000000000000000000000000000000370015171f090e150e150e150e15021501000b15021501000b15021501000b15021501000b15021501000b15021501000b15021501000b15000000000000000000000000000000000000000000000000000000000000000000000000000000000d626f64792d7065616368792d4200000000000000000000000000000000000000",
        "nonce": "0x41",
        "accessList": []
      },
      "additionalContracts": [],
      "isFixedGasLimit": false
    },
    {
      "hash": null,
      "transactionType": "CALL",
      "contractName": null,
      "contractAddress": "0x8F071320A60E4Aac7dA5FBA5F201F9bcc66f86e9",
      "function": "ext_registerTrait(bytes,string)",
      "arguments": [
        "0x0015171f090e160e160e160e16021601000b16021601000b16021601000b16021601000b16021601000b16021601000b16021601000b16",
        "\"body-peachy-a\""
      ],
      "transaction": {
        "type": "0x02",
        "from": "0xfc29edce481c4d7d2cda4c0ad6bf6c5fcf128704",
        "to": "0x8f071320a60e4aac7da5fba5f201f9bcc66f86e9",
        "gas": "0x2fef3",
        "value": "0x0",
        "data": "0x87c7a30f000000000000000000000000000000000000000000000000000000000000004000000000000000000000000000000000000000000000000000000000000000a000000000000000000000000000000000000000000000000000000000000000370015171f090e160e160e160e16021601000b16021601000b16021601000b16021601000b16021601000b16021601000b16021601000b16000000000000000000000000000000000000000000000000000000000000000000000000000000000d626f64792d7065616368792d6100000000000000000000000000000000000000",
        "nonce": "0x42",
        "accessList": []
      },
      "additionalContracts": [],
      "isFixedGasLimit": false
    },
    {
      "hash": null,
      "transactionType": "CALL",
      "contractName": null,
      "contractAddress": "0x8F071320A60E4Aac7dA5FBA5F201F9bcc66f86e9",
      "function": "ext_registerTrait(bytes,string)",
      "arguments": [
        "0x0015171f090e170e170e170e17021701000b17021701000b17021701000b17021701000b17021701000b17021701000b17021701000b17",
        "\"body-purple\""
      ],
      "transaction": {
        "type": "0x02",
        "from": "0xfc29edce481c4d7d2cda4c0ad6bf6c5fcf128704",
        "to": "0x8f071320a60e4aac7da5fba5f201f9bcc66f86e9",
        "gas": "0x2fecf",
        "value": "0x0",
        "data": "0x87c7a30f000000000000000000000000000000000000000000000000000000000000004000000000000000000000000000000000000000000000000000000000000000a000000000000000000000000000000000000000000000000000000000000000370015171f090e170e170e170e17021701000b17021701000b17021701000b17021701000b17021701000b17021701000b17021701000b17000000000000000000000000000000000000000000000000000000000000000000000000000000000b626f64792d707572706c65000000000000000000000000000000000000000000",
        "nonce": "0x43",
        "accessList": []
      },
      "additionalContracts": [],
      "isFixedGasLimit": false
    },
    {
      "hash": null,
      "transactionType": "CALL",
      "contractName": null,
      "contractAddress": "0x8F071320A60E4Aac7dA5FBA5F201F9bcc66f86e9",
      "function": "ext_registerTrait(bytes,string)",
      "arguments": [
        "0x0015171f090e180e180e180e18021801000b18021801000b18021801000b18021801000b18021801000b18021801000b18021801000b18",
        "\"body-red\""
      ],
      "transaction": {
        "type": "0x02",
        "from": "0xfc29edce481c4d7d2cda4c0ad6bf6c5fcf128704",
        "to": "0x8f071320a60e4aac7da5fba5f201f9bcc66f86e9",
        "gas": "0x2d403",
        "value": "0x0",
        "data": "0x87c7a30f000000000000000000000000000000000000000000000000000000000000004000000000000000000000000000000000000000000000000000000000000000a000000000000000000000000000000000000000000000000000000000000000370015171f090e180e180e180e18021801000b18021801000b18021801000b18021801000b18021801000b18021801000b18021801000b180000000000000000000000000000000000000000000000000000000000000000000000000000000008626f64792d726564000000000000000000000000000000000000000000000000",
        "nonce": "0x44",
        "accessList": []
      },
      "additionalContracts": [],
      "isFixedGasLimit": false
    },
    {
      "hash": null,
      "transactionType": "CALL",
      "contractName": null,
      "contractAddress": "0x8F071320A60E4Aac7dA5FBA5F201F9bcc66f86e9",
      "function": "ext_registerTrait(bytes,string)",
      "arguments": [
        "0x0015171f090e190e190e190e19021901000b19021901000b19021901000b19021901000b19021901000b19021901000b19021901000b19",
        "\"body-redpinkish\""
      ],
      "transaction": {
        "type": "0x02",
        "from": "0xfc29edce481c4d7d2cda4c0ad6bf6c5fcf128704",
        "to": "0x8f071320a60e4aac7da5fba5f201f9bcc66f86e9",
        "gas": "0x2ff16",
        "value": "0x0",
        "data": "0x87c7a30f000000000000000000000000000000000000000000000000000000000000004000000000000000000000000000000000000000000000000000000000000000a000000000000000000000000000000000000000000000000000000000000000370015171f090e190e190e190e19021901000b19021901000b19021901000b19021901000b19021901000b19021901000b19021901000b19000000000000000000000000000000000000000000000000000000000000000000000000000000000f626f64792d72656470696e6b6973680000000000000000000000000000000000",
        "nonce": "0x45",
        "accessList": []
      },
      "additionalContracts": [],
      "isFixedGasLimit": false
    },
    {
      "hash": null,
      "transactionType": "CALL",
      "contractName": null,
      "contractAddress": "0x8F071320A60E4Aac7dA5FBA5F201F9bcc66f86e9",
      "function": "ext_registerTrait(bytes,string)",
      "arguments": [
        "0x0015171f090e1a0e1a0e1a0e1a021a01000b1a021a01000b1a021a01000b1a021a01000b1a021a01000b1a021a01000b1a021a01000b1a",
        "\"body-rust\""
      ],
      "transaction": {
        "type": "0x02",
        "from": "0xfc29edce481c4d7d2cda4c0ad6bf6c5fcf128704",
        "to": "0x8f071320a60e4aac7da5fba5f201f9bcc66f86e9",
        "gas": "0x2feac",
        "value": "0x0",
        "data": "0x87c7a30f000000000000000000000000000000000000000000000000000000000000004000000000000000000000000000000000000000000000000000000000000000a000000000000000000000000000000000000000000000000000000000000000370015171f090e1a0e1a0e1a0e1a021a01000b1a021a01000b1a021a01000b1a021a01000b1a021a01000b1a021a01000b1a021a01000b1a0000000000000000000000000000000000000000000000000000000000000000000000000000000009626f64792d727573740000000000000000000000000000000000000000000000",
        "nonce": "0x46",
        "accessList": []
      },
      "additionalContracts": [],
      "isFixedGasLimit": false
    },
    {
      "hash": null,
      "transactionType": "CALL",
      "contractName": null,
      "contractAddress": "0x8F071320A60E4Aac7dA5FBA5F201F9bcc66f86e9",
      "function": "ext_registerTrait(bytes,string)",
      "arguments": [
        "0x0015171f090e1b0e1b0e1b0e1b021b01000b1b021b01000b1b021b01000b1b021b01000b1b021b01000b1b021b01000b1b021b01000b1b",
        "\"body-slimegreen\""
      ],
      "transaction": {
        "type": "0x02",
        "from": "0xfc29edce481c4d7d2cda4c0ad6bf6c5fcf128704",
        "to": "0x8f071320a60e4aac7da5fba5f201f9bcc66f86e9",
        "gas": "0x2ff16",
        "value": "0x0",
        "data": "0x87c7a30f000000000000000000000000000000000000000000000000000000000000004000000000000000000000000000000000000000000000000000000000000000a000000000000000000000000000000000000000000000000000000000000000370015171f090e1b0e1b0e1b0e1b021b01000b1b021b01000b1b021b01000b1b021b01000b1b021b01000b1b021b01000b1b021b01000b1b000000000000000000000000000000000000000000000000000000000000000000000000000000000f626f64792d736c696d65677265656e0000000000000000000000000000000000",
        "nonce": "0x47",
        "accessList": []
      },
      "additionalContracts": [],
      "isFixedGasLimit": false
    },
    {
      "hash": null,
      "transactionType": "CALL",
      "contractName": null,
      "contractAddress": "0x8F071320A60E4Aac7dA5FBA5F201F9bcc66f86e9",
      "function": "ext_registerTrait(bytes,string)",
      "arguments": [
        "0x0015171f090e1c0e1c0e1c0e1c021c01000b1c021c01000b1c021c01000b1c021c01000b1c021c01000b1c021c01000b1c021c01000b1c",
        "\"body-teal-light\""
      ],
      "transaction": {
        "type": "0x02",
        "from": "0xfc29edce481c4d7d2cda4c0ad6bf6c5fcf128704",
        "to": "0x8f071320a60e4aac7da5fba5f201f9bcc66f86e9",
        "gas": "0x2ff16",
        "value": "0x0",
        "data": "0x87c7a30f000000000000000000000000000000000000000000000000000000000000004000000000000000000000000000000000000000000000000000000000000000a000000000000000000000000000000000000000000000000000000000000000370015171f090e1c0e1c0e1c0e1c021c01000b1c021c01000b1c021c01000b1c021c01000b1c021c01000b1c021c01000b1c021c01000b1c000000000000000000000000000000000000000000000000000000000000000000000000000000000f626f64792d7465616c2d6c696768740000000000000000000000000000000000",
        "nonce": "0x48",
        "accessList": []
      },
      "additionalContracts": [],
      "isFixedGasLimit": false
    },
    {
      "hash": null,
      "transactionType": "CALL",
      "contractName": null,
      "contractAddress": "0x8F071320A60E4Aac7dA5FBA5F201F9bcc66f86e9",
      "function": "ext_registerTrait(bytes,string)",
      "arguments": [
        "0x0015171f090e1d0e1d0e1d0e1d021d01000b1d021d01000b1d021d01000b1d021d01000b1d021d01000b1d021d01000b1d021d01000b1d",
        "\"body-teal\""
      ],
      "transaction": {
        "type": "0x02",
        "from": "0xfc29edce481c4d7d2cda4c0ad6bf6c5fcf128704",
        "to": "0x8f071320a60e4aac7da5fba5f201f9bcc66f86e9",
        "gas": "0x2feac",
        "value": "0x0",
        "data": "0x87c7a30f000000000000000000000000000000000000000000000000000000000000004000000000000000000000000000000000000000000000000000000000000000a000000000000000000000000000000000000000000000000000000000000000370015171f090e1d0e1d0e1d0e1d021d01000b1d021d01000b1d021d01000b1d021d01000b1d021d01000b1d021d01000b1d021d01000b1d0000000000000000000000000000000000000000000000000000000000000000000000000000000009626f64792d7465616c0000000000000000000000000000000000000000000000",
        "nonce": "0x49",
        "accessList": []
      },
      "additionalContracts": [],
      "isFixedGasLimit": false
    },
    {
      "hash": null,
      "transactionType": "CALL",
      "contractName": null,
      "contractAddress": "0x8F071320A60E4Aac7dA5FBA5F201F9bcc66f86e9",
      "function": "ext_registerTrait(bytes,string)",
      "arguments": [
        "0x0015171f090e1e0e1e0e1e0e1e021e01000b1e021e01000b1e021e01000b1e021e01000b1e021e01000b1e021e01000b1e021e01000b1e",
        "\"body-yellow\""
      ],
      "transaction": {
        "type": "0x02",
        "from": "0xfc29edce481c4d7d2cda4c0ad6bf6c5fcf128704",
        "to": "0x8f071320a60e4aac7da5fba5f201f9bcc66f86e9",
        "gas": "0x2fecf",
        "value": "0x0",
        "data": "0x87c7a30f000000000000000000000000000000000000000000000000000000000000004000000000000000000000000000000000000000000000000000000000000000a000000000000000000000000000000000000000000000000000000000000000370015171f090e1e0e1e0e1e0e1e021e01000b1e021e01000b1e021e01000b1e021e01000b1e021e01000b1e021e01000b1e021e01000b1e000000000000000000000000000000000000000000000000000000000000000000000000000000000b626f64792d79656c6c6f77000000000000000000000000000000000000000000",
        "nonce": "0x4a",
        "accessList": []
      },
      "additionalContracts": [],
      "isFixedGasLimit": false
    }
  ],
  "receipts": [],
  "libraries": [],
  "pending": [],
  "returns": {},
  "timestamp": 1708440041,
  "chain": 11155111,
  "multi": false,
  "commit": "b4034c2"
}