{
  "transactions": [
    {
      "hash": "0x69d4add67d2c0fbd2208a88073990f0ed20035e7af6dec029a91fe3693296d1b",
      "transactionType": "CALL",
      "contractName": null,
      "contractAddress": "0x8F071320A60E4Aac7dA5FBA5F201F9bcc66f86e9",
      "function": "ext_registerTrait(bytes,string)",
      "arguments": [
        "0x000b1710070300062001000620030001200201022301200100012002010223012004200201022303200201022301200420020102230320020102230120012002000120020102230120010001200201022301200300062001000620",
        "\"glasses-hip-rose\""
      ],
      "transaction": {
        "type": "0x02",
        "from": "0xfc29edce481c4d7d2cda4c0ad6bf6c5fcf128704",
        "to": "0x8f071320a60e4aac7da5fba5f201f9bcc66f86e9",
        "gas": "0x3516c",
        "value": "0x0",
        "data": "0x87c7a30f000000000000000000000000000000000000000000000000000000000000004000000000000000000000000000000000000000000000000000000000000000c0000000000000000000000000000000000000000000000000000000000000005b000b171007030006200100062003000120020102230120010001200201022301200420020102230320020102230120042002010223032002010223012001200200012002010223012001000120020102230120030006200100062000000000000000000000000000000000000000000000000000000000000000000000000010676c61737365732d6869702d726f736500000000000000000000000000000000",
        "nonce": "0x66",
        "accessList": []
      },
      "additionalContracts": [],
      "isFixedGasLimit": false
    },
    {
      "hash": "0xfe6dcb55f3142570dbc39d184c5ad053fc184f4a1b55165f64f9bc0ff6c82ffc",
      "transactionType": "CALL",
      "contractName": null,
      "contractAddress": "0x8F071320A60E4Aac7dA5FBA5F201F9bcc66f86e9",
      "function": "ext_registerTrait(bytes,string)",
      "arguments": [
        "0x000b17100703000623010006230300012302010264012301000123020102640123042302010264032302010264012301230200012302010264012301000123020102640123012302000123020102640123010001230201026401230300062301000623",
        "\"glasses-square-black-eyes-red\""
      ],
      "transaction": {
        "type": "0x02",
        "from": "0xfc29edce481c4d7d2cda4c0ad6bf6c5fcf128704",
        "to": "0x8f071320a60e4aac7da5fba5f201f9bcc66f86e9",
        "gas": "0x40687",
        "value": "0x0",
        "data": "0x87c7a30f000000000000000000000000000000000000000000000000000000000000004000000000000000000000000000000000000000000000000000000000000000e00000000000000000000000000000000000000000000000000000000000000063000b171007030006230100062303000123020102640123010001230201026401230423020102640323020102640123012302000123020102640123010001230201026401230123020001230201026401230100012302010264012303000623010006230000000000000000000000000000000000000000000000000000000000000000000000000000000000000000000000000000000000000000000000001d676c61737365732d7371756172652d626c61636b2d657965732d726564000000",
        "nonce": "0x67",
        "accessList": []
      },
      "additionalContracts": [],
      "isFixedGasLimit": false
    },
    {
      "hash": "0x3ceed8a761072bbee42fe28af8b803ef27aef80346469c8dcfb0112ae2cd95e7",
      "transactionType": "CALL",
      "contractName": null,
      "contractAddress": "0x8F071320A60E4Aac7dA5FBA5F201F9bcc66f86e9",
      "function": "ext_registerTrait(bytes,string)",
      "arguments": [
        "0x000b171007030006230100062303000323016402230100032301640223102301230200012301650223015a01230100012301650223015a0123012302000623010006230300062301000623",
        "\"glasses-square-black-rgb\""
      ],
      "transaction": {
        "type": "0x02",
        "from": "0xfc29edce481c4d7d2cda4c0ad6bf6c5fcf128704",
        "to": "0x8f071320a60e4aac7da5fba5f201f9bcc66f86e9",
        "gas": "0x350c7",
        "value": "0x0",
        "data": "0x87c7a30f000000000000000000000000000000000000000000000000000000000000004000000000000000000000000000000000000000000000000000000000000000c0000000000000000000000000000000000000000000000000000000000000004b000b171007030006230100062303000323016402230100032301640223102301230200012301650223015a01230100012301650223015a01230123020006230100062303000623010006230000000000000000000000000000000000000000000000000000000000000000000000000000000000000000000000000000000018676c61737365732d7371756172652d626c61636b2d7267620000000000000000",
        "nonce": "0x68",
        "accessList": []
      },
      "additionalContracts": [],
      "isFixedGasLimit": false
    },
    {
      "hash": "0x36e9d25dd4443d6c1682146247c499c434a2c12b24c99800222853287051e6b5",
      "transactionType": "CALL",
      "contractName": null,
      "contractAddress": "0x8F071320A60E4Aac7dA5FBA5F201F9bcc66f86e9",
      "function": "ext_registerTrait(bytes,string)",
      "arguments": [
        "0x000b171007030006230100062303000123020103230100012302010323042302010523020103230123020001230201032301000123020103230123020001230201032301000123020103230300062301000623",
        "\"glasses-square-black\""
      ],
      "transaction": {
        "type": "0x02",
        "from": "0xfc29edce481c4d7d2cda4c0ad6bf6c5fcf128704",
        "to": "0x8f071320a60e4aac7da5fba5f201f9bcc66f86e9",
        "gas": "0x35109",
        "value": "0x0",
        "data": "0x87c7a30f000000000000000000000000000000000000000000000000000000000000004000000000000000000000000000000000000000000000000000000000000000c00000000000000000000000000000000000000000000000000000000000000053000b171007030006230100062303000123020103230100012302010323042302010523020103230123020001230201032301000123020103230123020001230201032301000123020103230300062301000623000000000000000000000000000000000000000000000000000000000000000000000000000000000000000014676c61737365732d7371756172652d626c61636b000000000000000000000000",
        "nonce": "0x69",
        "accessList": []
      },
      "additionalContracts": [],
      "isFixedGasLimit": false
    },
    {
      "hash": "0x19433d83a11ff91eca1f280ac094604a45278bef20c6cb6af343fc926809afa0",
      "transactionType": "CALL",
      "contractName": null,
      "contractAddress": "0x8F071320A60E4Aac7dA5FBA5F201F9bcc66f86e9",
      "function": "ext_registerTrait(bytes,string)",
      "arguments": [
        "0x000b17100703000643010006430300014302010223014301000143020102230143044302010223034302010223014301430200014302010223014301000143020102230143014302000143020102230143010001430201022301430300064301000643",
        "\"glasses-square-blue-med-saturated\""
      ],
      "transaction": {
        "type": "0x02",
        "from": "0xfc29edce481c4d7d2cda4c0ad6bf6c5fcf128704",
        "to": "0x8f071320a60e4aac7da5fba5f201f9bcc66f86e9",
        "gas": "0x4bfeb",
        "value": "0x0",
        "data": "0x87c7a30f000000000000000000000000000000000000000000000000000000000000004000000000000000000000000000000000000000000000000000000000000000e00000000000000000000000000000000000000000000000000000000000000063000b1710070300064301000643030001430201022301430100014302010223014304430201022303430201022301430143020001430201022301430100014302010223014301430200014302010223014301000143020102230143030006430100064300000000000000000000000000000000000000000000000000000000000000000000000000000000000000000000000000000000000000000000000021676c61737365732d7371756172652d626c75652d6d65642d73617475726174656400000000000000000000000000000000000000000000000000000000000000",
        "nonce": "0x6a",
        "accessList": []
      },
      "additionalContracts": [],
      "isFixedGasLimit": false
    },
    {
      "hash": "0x145de33cb25391d553d032cc9e3df557aa5a766e74e7235f9526b8a80afe1d41",
      "transactionType": "CALL",
      "contractName": null,
      "contractAddress": "0x8F071320A60E4Aac7dA5FBA5F201F9bcc66f86e9",
      "function": "ext_registerTrait(bytes,string)",
      "arguments": [
        "0x000b17100703000607010006070300010702010223010701000107020102230107040702010223030702010223010701070200010702010223010701000107020102230107010702000107020102230107010001070201022301070300060701000607",
        "\"glasses-square-blue\""
      ],
      "transaction": {
        "type": "0x02",
        "from": "0xfc29edce481c4d7d2cda4c0ad6bf6c5fcf128704",
        "to": "0x8f071320a60e4aac7da5fba5f201f9bcc66f86e9",
        "gas": "0x405d8",
        "value": "0x0",
        "data": "0x87c7a30f000000000000000000000000000000000000000000000000000000000000004000000000000000000000000000000000000000000000000000000000000000e00000000000000000000000000000000000000000000000000000000000000063000b1710070300060701000607030001070201022301070100010702010223010704070201022303070201022301070107020001070201022301070100010702010223010701070200010702010223010701000107020102230107030006070100060700000000000000000000000000000000000000000000000000000000000000000000000000000000000000000000000000000000000000000000000013676c61737365732d7371756172652d626c756500000000000000000000000000",
        "nonce": "0x6b",
        "accessList": []
      },
      "additionalContracts": [],
      "isFixedGasLimit": false
    },
    {
      "hash": "0x9ee482ba6045ed7380903744df00b59b4e90d3b77748f472edec4d8024854e69",
      "transactionType": "CALL",
      "contractName": null,
      "contractAddress": "0x8F071320A60E4Aac7dA5FBA5F201F9bcc66f86e9",
      "function": "ext_registerTrait(bytes,string)",
      "arguments": [
        "0x000b171007030006c0010006c0030001c00201022301c0010001c00201022301c004c00201022303c00201022301c001c0020001c00201022301c0010001c00201022301c001c0020001c00201022301c0010001c00201022301c0030006c0010006c0",
        "\"glasses-square-frog-green\""
      ],
      "transaction": {
        "type": "0x02",
        "from": "0xfc29edce481c4d7d2cda4c0ad6bf6c5fcf128704",
        "to": "0x8f071320a60e4aac7da5fba5f201f9bcc66f86e9",
        "gas": "0x40641",
        "value": "0x0",
        "data": "0x87c7a30f000000000000000000000000000000000000000000000000000000000000004000000000000000000000000000000000000000000000000000000000000000e00000000000000000000000000000000000000000000000000000000000000063000b171007030006c0010006c0030001c00201022301c0010001c00201022301c004c00201022303c00201022301c001c0020001c00201022301c0010001c00201022301c001c0020001c00201022301c0010001c00201022301c0030006c0010006c000000000000000000000000000000000000000000000000000000000000000000000000000000000000000000000000000000000000000000000000019676c61737365732d7371756172652d66726f672d677265656e00000000000000",
        "nonce": "0x6c",
        "accessList": []
      },
      "additionalContracts": [],
      "isFixedGasLimit": false
    },
    {
      "hash": "0xe2c756a3532ac114ebf4558e55e093aad9a2325fd74c51573177b335f73d55b0",
      "transactionType": "CALL",
      "contractName": null,
      "contractAddress": "0x8F071320A60E4Aac7dA5FBA5F201F9bcc66f86e9",
      "function": "ext_registerTrait(bytes,string)",
      "arguments": [
        "0x000b1710070300062301000623030004230101012301000423010101230723010106230101012301230200062301000623012302000623010006230300062301000623",
        "\"glasses-square-fullblack\""
      ],
      "transaction": {
        "type": "0x02",
        "from": "0xfc29edce481c4d7d2cda4c0ad6bf6c5fcf128704",
        "to": "0x8f071320a60e4aac7da5fba5f201f9bcc66f86e9",
        "gas": "0x35042",
        "value": "0x0",
        "data": "0x87c7a30f000000000000000000000000000000000000000000000000000000000000004000000000000000000000000000000000000000000000000000000000000000c00000000000000000000000000000000000000000000000000000000000000043000b171007030006230100062303000423010101230100042301010123072301010623010101230123020006230100062301230200062301000623030006230100062300000000000000000000000000000000000000000000000000000000000000000000000000000000000000000000000000000000000000000000000018676c61737365732d7371756172652d66756c6c626c61636b0000000000000000",
        "nonce": "0x6d",
        "accessList": []
      },
      "additionalContracts": [],
      "isFixedGasLimit": false
    },
    {
      "hash": "0x0144a25be1e0d7e40f5b2d20b1f253eeeeb577a389f268d88a4303fc4dff9b68",
      "transactionType": "CALL",
      "contractName": null,
      "contractAddress": "0x8F071320A60E4Aac7dA5FBA5F201F9bcc66f86e9",
      "function": "ext_registerTrait(bytes,string)",
      "arguments": [
        "0x000b1710070300060f0100068b0300010f02010223010f0100018b02010223018b034a010f02010223010f014a018b02010223018b018b0200010f02010223010f0100018b02010223018b018b0200010f02010223010f0100018b02010223018b0300060f0100068b",
        "\"glasses-square-green-blue-multi\""
      ],
      "transaction": {
        "type": "0x02",
        "from": "0xfc29edce481c4d7d2cda4c0ad6bf6c5fcf128704",
        "to": "0x8f071320a60e4aac7da5fba5f201f9bcc66f86e9",
        "gas": "0x40713",
        "value": "0x0",
        "data": "0x87c7a30f000000000000000000000000000000000000000000000000000000000000004000000000000000000000000000000000000000000000000000000000000000e00000000000000000000000000000000000000000000000000000000000000069000b1710070300060f0100068b0300010f02010223010f0100018b02010223018b034a010f02010223010f014a018b02010223018b018b0200010f02010223010f0100018b02010223018b018b0200010f02010223010f0100018b02010223018b0300060f0100068b0000000000000000000000000000000000000000000000000000000000000000000000000000000000000000000000000000000000001f676c61737365732d7371756172652d677265656e2d626c75652d6d756c746900",
        "nonce": "0x6e",
        "accessList": []
      },
      "additionalContracts": [],
      "isFixedGasLimit": false
    },
    {
      "hash": "0xf713b9f3c7cfa99833fd1eb01dd9beef736b03a14714218ff12431ce6627aa87",
      "transactionType": "CALL",
      "contractName": null,
      "contractAddress": "0x8F071320A60E4Aac7dA5FBA5F201F9bcc66f86e9",
      "function": "ext_registerTrait(bytes,string)",
      "arguments": [
        "0x000b171007030006c8010006c8030001c80201022301c8010001c80201022301c804c80201022303c80201022301c801c8020001c80201022301c8010001c80201022301c801c8020001c80201022301c8010001c80201022301c8030006c8010006c8",
        "\"glasses-square-grey-light\""
      ],
      "transaction": {
        "type": "0x02",
        "from": "0xfc29edce481c4d7d2cda4c0ad6bf6c5fcf128704",
        "to": "0x8f071320a60e4aac7da5fba5f201f9bcc66f86e9",
        "gas": "0x40641",
        "value": "0x0",
        "data": "0x87c7a30f000000000000000000000000000000000000000000000000000000000000004000000000000000000000000000000000000000000000000000000000000000e00000000000000000000000000000000000000000000000000000000000000063000b171007030006c8010006c8030001c80201022301c8010001c80201022301c804c80201022303c80201022301c801c8020001c80201022301c8010001c80201022301c801c8020001c80201022301c8010001c80201022301c8030006c8010006c800000000000000000000000000000000000000000000000000000000000000000000000000000000000000000000000000000000000000000000000019676c61737365732d7371756172652d677265792d6c6967687400000000000000",
        "nonce": "0x6f",
        "accessList": []
      },
      "additionalContracts": [],
      "isFixedGasLimit": false
    }
  ],
  "receipts": [
    {
      "transactionHash": "0x69d4add67d2c0fbd2208a88073990f0ed20035e7af6dec029a91fe3693296d1b",
      "transactionIndex": "0x15",
      "blockHash": "0x1315235aa9a78a5d58ea5e2a692aaedcc67146578c2e3c310050ae00f85c6fb5",
      "blockNumber": "0x519ca4",
      "from": "0xfC29eDCe481c4D7D2CDa4c0Ad6bF6C5Fcf128704",
      "to": "0x8F071320A60E4Aac7dA5FBA5F201F9bcc66f86e9",
      "cumulativeGasUsed": "0x1f827e",
      "gasUsed": "0x266f8",
      "contractAddress": null,
      "logs": [
        {
          "address": "0x8F071320A60E4Aac7dA5FBA5F201F9bcc66f86e9",
          "topics": [
            "0x6d801405d0a92b94907b5fe1fe4295031541b6f549f7afecc30b600f579b68b0"
          ],
          "data": "0x0000000000000000000000000000000000000000000000000000000000000035000000000000000000000000000000000000000000000000000000000000006000000000000000000000000000000000000000000000000000000000000000e0000000000000000000000000000000000000000000000000000000000000005b000b171007030006200100062003000120020102230120010001200201022301200420020102230320020102230120042002010223032002010223012001200200012002010223012001000120020102230120030006200100062000000000000000000000000000000000000000000000000000000000000000000000000010676c61737365732d6869702d726f736500000000000000000000000000000000",
          "blockHash": "0x1315235aa9a78a5d58ea5e2a692aaedcc67146578c2e3c310050ae00f85c6fb5",
          "blockNumber": "0x519ca4",
          "transactionHash": "0x69d4add67d2c0fbd2208a88073990f0ed20035e7af6dec029a91fe3693296d1b",
          "transactionIndex": "0x15",
          "logIndex": "0x14",
          "removed": false
        }
      ],
      "status": "0x1",
      "logsBloom": "0x00000000000000000000000000000000000000000000000000000000000000000000000000000000000000000000000000000000000000000000000000000000000000000000000000000000000000000000000000000000000000000000000000000000000000000000008000001000000000000000000000000000000000000000000000000000000000000000000000000000000000000000000100000000000020000000000000000000000000000000000000000000000000000000000000000000000000000000000000000000000000000000000000000000000000000000000000000000000000000000000001000000000000000000000000010000",
      "type": "0x2",
      "effectiveGasPrice": "0xc619fe99"
    },
    {
      "transactionHash": "0xfe6dcb55f3142570dbc39d184c5ad053fc184f4a1b55165f64f9bc0ff6c82ffc",
      "transactionIndex": "0x19",
      "blockHash": "0x1315235aa9a78a5d58ea5e2a692aaedcc67146578c2e3c310050ae00f85c6fb5",
      "blockNumber": "0x519ca4",
      "from": "0xfC29eDCe481c4D7D2CDa4c0Ad6bF6C5Fcf128704",
      "to": "0x8F071320A60E4Aac7dA5FBA5F201F9bcc66f86e9",
      "cumulativeGasUsed": "0x23d3e3",
      "gasUsed": "0x2c0a3",
      "contractAddress": null,
      "logs": [
        {
          "address": "0x8F071320A60E4Aac7dA5FBA5F201F9bcc66f86e9",
          "topics": [
            "0x6d801405d0a92b94907b5fe1fe4295031541b6f549f7afecc30b600f579b68b0"
          ],
          "data": "0x0000000000000000000000000000000000000000000000000000000000000036000000000000000000000000000000000000000000000000000000000000006000000000000000000000000000000000000000000000000000000000000001000000000000000000000000000000000000000000000000000000000000000063000b171007030006230100062303000123020102640123010001230201026401230423020102640323020102640123012302000123020102640123010001230201026401230123020001230201026401230100012302010264012303000623010006230000000000000000000000000000000000000000000000000000000000000000000000000000000000000000000000000000000000000000000000001d676c61737365732d7371756172652d626c61636b2d657965732d726564000000",
          "blockHash": "0x1315235aa9a78a5d58ea5e2a692aaedcc67146578c2e3c310050ae00f85c6fb5",
          "blockNumber": "0x519ca4",
          "transactionHash": "0xfe6dcb55f3142570dbc39d184c5ad053fc184f4a1b55165f64f9bc0ff6c82ffc",
          "transactionIndex": "0x19",
          "logIndex": "0x18",
          "removed": false
        }
      ],
      "status": "0x1",
      "logsBloom": "0x00000000000000000000000000000000000000000000000000000000000000000000000000000000000000000000000000000000000000000000000000000000000000000000000000000000000000000000000000000000000000000000000000000000000000000000008000001000000000000000000000000000000000000000000000000000000000000000000000000000000000000000000100000000000020000000000000000000000000000000000000000000000000000000000000000000000000000000000000000000000000000000000000000000000000000000000000000000000000000000000001000000000000000000000000010000",
      "type": "0x2",
      "effectiveGasPrice": "0xc619fe99"
    },
    {
      "transactionHash": "0x3ceed8a761072bbee42fe28af8b803ef27aef80346469c8dcfb0112ae2cd95e7",
      "transactionIndex": "0x1a",
      "blockHash": "0x1315235aa9a78a5d58ea5e2a692aaedcc67146578c2e3c310050ae00f85c6fb5",
      "blockNumber": "0x519ca4",
      "from": "0xfC29eDCe481c4D7D2CDa4c0Ad6bF6C5Fcf128704",
      "to": "0x8F071320A60E4Aac7dA5FBA5F201F9bcc66f86e9",
      "cumulativeGasUsed": "0x263a63",
      "gasUsed": "0x26680",
      "contractAddress": null,
      "logs": [
        {
          "address": "0x8F071320A60E4Aac7dA5FBA5F201F9bcc66f86e9",
          "topics": [
            "0x6d801405d0a92b94907b5fe1fe4295031541b6f549f7afecc30b600f579b68b0"
          ],
          "data": "0x0000000000000000000000000000000000000000000000000000000000000037000000000000000000000000000000000000000000000000000000000000006000000000000000000000000000000000000000000000000000000000000000e0000000000000000000000000000000000000000000000000000000000000004b000b171007030006230100062303000323016402230100032301640223102301230200012301650223015a01230100012301650223015a01230123020006230100062303000623010006230000000000000000000000000000000000000000000000000000000000000000000000000000000000000000000000000000000018676c61737365732d7371756172652d626c61636b2d7267620000000000000000",
          "blockHash": "0x1315235aa9a78a5d58ea5e2a692aaedcc67146578c2e3c310050ae00f85c6fb5",
          "blockNumber": "0x519ca4",
          "transactionHash": "0x3ceed8a761072bbee42fe28af8b803ef27aef80346469c8dcfb0112ae2cd95e7",
          "transactionIndex": "0x1a",
          "logIndex": "0x19",
          "removed": false
        }
      ],
      "status": "0x1",
      "logsBloom": "0x00000000000000000000000000000000000000000000000000000000000000000000000000000000000000000000000000000000000000000000000000000000000000000000000000000000000000000000000000000000000000000000000000000000000000000000008000001000000000000000000000000000000000000000000000000000000000000000000000000000000000000000000100000000000020000000000000000000000000000000000000000000000000000000000000000000000000000000000000000000000000000000000000000000000000000000000000000000000000000000000001000000000000000000000000010000",
      "type": "0x2",
      "effectiveGasPrice": "0xc619fe99"
    },
    {
      "transactionHash": "0x36e9d25dd4443d6c1682146247c499c434a2c12b24c99800222853287051e6b5",
      "transactionIndex": "0x1b",
      "blockHash": "0x1315235aa9a78a5d58ea5e2a692aaedcc67146578c2e3c310050ae00f85c6fb5",
      "blockNumber": "0x519ca4",
      "from": "0xfC29eDCe481c4D7D2CDa4c0Ad6bF6C5Fcf128704",
      "to": "0x8F071320A60E4Aac7dA5FBA5F201F9bcc66f86e9",
      "cumulativeGasUsed": "0x28a113",
      "gasUsed": "0x266b0",
      "contractAddress": null,
      "logs": [
        {
          "address": "0x8F071320A60E4Aac7dA5FBA5F201F9bcc66f86e9",
          "topics": [
            "0x6d801405d0a92b94907b5fe1fe4295031541b6f549f7afecc30b600f579b68b0"
          ],
          "data": "0x0000000000000000000000000000000000000000000000000000000000000038000000000000000000000000000000000000000000000000000000000000006000000000000000000000000000000000000000000000000000000000000000e00000000000000000000000000000000000000000000000000000000000000053000b171007030006230100062303000123020103230100012302010323042302010523020103230123020001230201032301000123020103230123020001230201032301000123020103230300062301000623000000000000000000000000000000000000000000000000000000000000000000000000000000000000000014676c61737365732d7371756172652d626c61636b000000000000000000000000",
          "blockHash": "0x1315235aa9a78a5d58ea5e2a692aaedcc67146578c2e3c310050ae00f85c6fb5",
          "blockNumber": "0x519ca4",
          "transactionHash": "0x36e9d25dd4443d6c1682146247c499c434a2c12b24c99800222853287051e6b5",
          "transactionIndex": "0x1b",
          "logIndex": "0x1a",
          "removed": false
        }
      ],
      "status": "0x1",
      "logsBloom": "0x00000000000000000000000000000000000000000000000000000000000000000000000000000000000000000000000000000000000000000000000000000000000000000000000000000000000000000000000000000000000000000000000000000000000000000000008000001000000000000000000000000000000000000000000000000000000000000000000000000000000000000000000100000000000020000000000000000000000000000000000000000000000000000000000000000000000000000000000000000000000000000000000000000000000000000000000000000000000000000000000001000000000000000000000000010000",
      "type": "0x2",
      "effectiveGasPrice": "0xc619fe99"
    },
    {
      "transactionHash": "0x19433d83a11ff91eca1f280ac094604a45278bef20c6cb6af343fc926809afa0",
      "transactionIndex": "0x1c",
      "blockHash": "0x1315235aa9a78a5d58ea5e2a692aaedcc67146578c2e3c310050ae00f85c6fb5",
      "blockNumber": "0x519ca4",
      "from": "0xfC29eDCe481c4D7D2CDa4c0Ad6bF6C5Fcf128704",
      "to": "0x8F071320A60E4Aac7dA5FBA5F201F9bcc66f86e9",
      "cumulativeGasUsed": "0x2c1162",
      "gasUsed": "0x3704f",
      "contractAddress": null,
      "logs": [
        {
          "address": "0x8F071320A60E4Aac7dA5FBA5F201F9bcc66f86e9",
          "topics": [
            "0x6d801405d0a92b94907b5fe1fe4295031541b6f549f7afecc30b600f579b68b0"
          ],
          "data": "0x0000000000000000000000000000000000000000000000000000000000000039000000000000000000000000000000000000000000000000000000000000006000000000000000000000000000000000000000000000000000000000000001000000000000000000000000000000000000000000000000000000000000000063000b1710070300064301000643030001430201022301430100014302010223014304430201022303430201022301430143020001430201022301430100014302010223014301430200014302010223014301000143020102230143030006430100064300000000000000000000000000000000000000000000000000000000000000000000000000000000000000000000000000000000000000000000000021676c61737365732d7371756172652d626c75652d6d65642d73617475726174656400000000000000000000000000000000000000000000000000000000000000",
          "blockHash": "0x1315235aa9a78a5d58ea5e2a692aaedcc67146578c2e3c310050ae00f85c6fb5",
          "blockNumber": "0x519ca4",
          "transactionHash": "0x19433d83a11ff91eca1f280ac094604a45278bef20c6cb6af343fc926809afa0",
          "transactionIndex": "0x1c",
          "logIndex": "0x1b",
          "removed": false
        }
      ],
      "status": "0x1",
      "logsBloom": "0x00000000000000000000000000000000000000000000000000000000000000000000000000000000000000000000000000000000000000000000000000000000000000000000000000000000000000000000000000000000000000000000000000000000000000000000008000001000000000000000000000000000000000000000000000000000000000000000000000000000000000000000000100000000000020000000000000000000000000000000000000000000000000000000000000000000000000000000000000000000000000000000000000000000000000000000000000000000000000000000000001000000000000000000000000010000",
      "type": "0x2",
      "effectiveGasPrice": "0xc619fe99"
    },
    {
      "transactionHash": "0x145de33cb25391d553d032cc9e3df557aa5a766e74e7235f9526b8a80afe1d41",
      "transactionIndex": "0x1d",
      "blockHash": "0x1315235aa9a78a5d58ea5e2a692aaedcc67146578c2e3c310050ae00f85c6fb5",
      "blockNumber": "0x519ca4",
      "from": "0xfC29eDCe481c4D7D2CDa4c0Ad6bF6C5Fcf128704",
      "to": "0x8F071320A60E4Aac7dA5FBA5F201F9bcc66f86e9",
      "cumulativeGasUsed": "0x2ed18d",
      "gasUsed": "0x2c02b",
      "contractAddress": null,
      "logs": [
        {
          "address": "0x8F071320A60E4Aac7dA5FBA5F201F9bcc66f86e9",
          "topics": [
            "0x6d801405d0a92b94907b5fe1fe4295031541b6f549f7afecc30b600f579b68b0"
          ],
          "data": "0x000000000000000000000000000000000000000000000000000000000000003a000000000000000000000000000000000000000000000000000000000000006000000000000000000000000000000000000000000000000000000000000001000000000000000000000000000000000000000000000000000000000000000063000b1710070300060701000607030001070201022301070100010702010223010704070201022303070201022301070107020001070201022301070100010702010223010701070200010702010223010701000107020102230107030006070100060700000000000000000000000000000000000000000000000000000000000000000000000000000000000000000000000000000000000000000000000013676c61737365732d7371756172652d626c756500000000000000000000000000",
          "blockHash": "0x1315235aa9a78a5d58ea5e2a692aaedcc67146578c2e3c310050ae00f85c6fb5",
          "blockNumber": "0x519ca4",
          "transactionHash": "0x145de33cb25391d553d032cc9e3df557aa5a766e74e7235f9526b8a80afe1d41",
          "transactionIndex": "0x1d",
          "logIndex": "0x1c",
          "removed": false
        }
      ],
      "status": "0x1",
      "logsBloom": "0x00000000000000000000000000000000000000000000000000000000000000000000000000000000000000000000000000000000000000000000000000000000000000000000000000000000000000000000000000000000000000000000000000000000000000000000008000001000000000000000000000000000000000000000000000000000000000000000000000000000000000000000000100000000000020000000000000000000000000000000000000000000000000000000000000000000000000000000000000000000000000000000000000000000000000000000000000000000000000000000000001000000000000000000000000010000",
      "type": "0x2",
      "effectiveGasPrice": "0xc619fe99"
    },
    {
      "transactionHash": "0x9ee482ba6045ed7380903744df00b59b4e90d3b77748f472edec4d8024854e69",
      "transactionIndex": "0x1e",
      "blockHash": "0x1315235aa9a78a5d58ea5e2a692aaedcc67146578c2e3c310050ae00f85c6fb5",
      "blockNumber": "0x519ca4",
      "from": "0xfC29eDCe481c4D7D2CDa4c0Ad6bF6C5Fcf128704",
      "to": "0x8F071320A60E4Aac7dA5FBA5F201F9bcc66f86e9",
      "cumulativeGasUsed": "0x319200",
      "gasUsed": "0x2c073",
      "contractAddress": null,
      "logs": [
        {
          "address": "0x8F071320A60E4Aac7dA5FBA5F201F9bcc66f86e9",
          "topics": [
            "0x6d801405d0a92b94907b5fe1fe4295031541b6f549f7afecc30b600f579b68b0"
          ],
          "data": "0x000000000000000000000000000000000000000000000000000000000000003b000000000000000000000000000000000000000000000000000000000000006000000000000000000000000000000000000000000000000000000000000001000000000000000000000000000000000000000000000000000000000000000063000b171007030006c0010006c0030001c00201022301c0010001c00201022301c004c00201022303c00201022301c001c0020001c00201022301c0010001c00201022301c001c0020001c00201022301c0010001c00201022301c0030006c0010006c000000000000000000000000000000000000000000000000000000000000000000000000000000000000000000000000000000000000000000000000019676c61737365732d7371756172652d66726f672d677265656e00000000000000",
          "blockHash": "0x1315235aa9a78a5d58ea5e2a692aaedcc67146578c2e3c310050ae00f85c6fb5",
          "blockNumber": "0x519ca4",
          "transactionHash": "0x9ee482ba6045ed7380903744df00b59b4e90d3b77748f472edec4d8024854e69",
          "transactionIndex": "0x1e",
          "logIndex": "0x1d",
          "removed": false
        }
      ],
      "status": "0x1",
      "logsBloom": "0x00000000000000000000000000000000000000000000000000000000000000000000000000000000000000000000000000000000000000000000000000000000000000000000000000000000000000000000000000000000000000000000000000000000000000000000008000001000000000000000000000000000000000000000000000000000000000000000000000000000000000000000000100000000000020000000000000000000000000000000000000000000000000000000000000000000000000000000000000000000000000000000000000000000000000000000000000000000000000000000000001000000000000000000000000010000",
      "type": "0x2",
      "effectiveGasPrice": "0xc619fe99"
    },
    {
      "transactionHash": "0xe2c756a3532ac114ebf4558e55e093aad9a2325fd74c51573177b335f73d55b0",
      "transactionIndex": "0x1f",
      "blockHash": "0x1315235aa9a78a5d58ea5e2a692aaedcc67146578c2e3c310050ae00f85c6fb5",
      "blockNumber": "0x519ca4",
      "from": "0xfC29eDCe481c4D7D2CDa4c0Ad6bF6C5Fcf128704",
      "to": "0x8F071320A60E4Aac7dA5FBA5F201F9bcc66f86e9",
      "cumulativeGasUsed": "0x33f820",
      "gasUsed": "0x26620",
      "contractAddress": null,
      "logs": [
        {
          "address": "0x8F071320A60E4Aac7dA5FBA5F201F9bcc66f86e9",
          "topics": [
            "0x6d801405d0a92b94907b5fe1fe4295031541b6f549f7afecc30b600f579b68b0"
          ],
          "data": "0x000000000000000000000000000000000000000000000000000000000000003c000000000000000000000000000000000000000000000000000000000000006000000000000000000000000000000000000000000000000000000000000000e00000000000000000000000000000000000000000000000000000000000000043000b171007030006230100062303000423010101230100042301010123072301010623010101230123020006230100062301230200062301000623030006230100062300000000000000000000000000000000000000000000000000000000000000000000000000000000000000000000000000000000000000000000000018676c61737365732d7371756172652d66756c6c626c61636b0000000000000000",
          "blockHash": "0x1315235aa9a78a5d58ea5e2a692aaedcc67146578c2e3c310050ae00f85c6fb5",
          "blockNumber": "0x519ca4",
          "transactionHash": "0xe2c756a3532ac114ebf4558e55e093aad9a2325fd74c51573177b335f73d55b0",
          "transactionIndex": "0x1f",
          "logIndex": "0x1e",
          "removed": false
        }
      ],
      "status": "0x1",
      "logsBloom": "0x00000000000000000000000000000000000000000000000000000000000000000000000000000000000000000000000000000000000000000000000000000000000000000000000000000000000000000000000000000000000000000000000000000000000000000000008000001000000000000000000000000000000000000000000000000000000000000000000000000000000000000000000100000000000020000000000000000000000000000000000000000000000000000000000000000000000000000000000000000000000000000000000000000000000000000000000000000000000000000000000001000000000000000000000000010000",
      "type": "0x2",
      "effectiveGasPrice": "0xc619fe99"
    },
    {
      "transactionHash": "0x0144a25be1e0d7e40f5b2d20b1f253eeeeb577a389f268d88a4303fc4dff9b68",
      "transactionIndex": "0x20",
      "blockHash": "0x1315235aa9a78a5d58ea5e2a692aaedcc67146578c2e3c310050ae00f85c6fb5",
      "blockNumber": "0x519ca4",
      "from": "0xfC29eDCe481c4D7D2CDa4c0Ad6bF6C5Fcf128704",
      "to": "0x8F071320A60E4Aac7dA5FBA5F201F9bcc66f86e9",
      "cumulativeGasUsed": "0x36b923",
      "gasUsed": "0x2c103",
      "contractAddress": null,
      "logs": [
        {
          "address": "0x8F071320A60E4Aac7dA5FBA5F201F9bcc66f86e9",
          "topics": [
            "0x6d801405d0a92b94907b5fe1fe4295031541b6f549f7afecc30b600f579b68b0"
          ],
          "data": "0x000000000000000000000000000000000000000000000000000000000000003d000000000000000000000000000000000000000000000000000000000000006000000000000000000000000000000000000000000000000000000000000001000000000000000000000000000000000000000000000000000000000000000069000b1710070300060f0100068b0300010f02010223010f0100018b02010223018b034a010f02010223010f014a018b02010223018b018b0200010f02010223010f0100018b02010223018b018b0200010f02010223010f0100018b02010223018b0300060f0100068b0000000000000000000000000000000000000000000000000000000000000000000000000000000000000000000000000000000000001f676c61737365732d7371756172652d677265656e2d626c75652d6d756c746900",
          "blockHash": "0x1315235aa9a78a5d58ea5e2a692aaedcc67146578c2e3c310050ae00f85c6fb5",
          "blockNumber": "0x519ca4",
          "transactionHash": "0x0144a25be1e0d7e40f5b2d20b1f253eeeeb577a389f268d88a4303fc4dff9b68",
          "transactionIndex": "0x20",
          "logIndex": "0x1f",
          "removed": false
        }
      ],
      "status": "0x1",
      "logsBloom": "0x00000000000000000000000000000000000000000000000000000000000000000000000000000000000000000000000000000000000000000000000000000000000000000000000000000000000000000000000000000000000000000000000000000000000000000000008000001000000000000000000000000000000000000000000000000000000000000000000000000000000000000000000100000000000020000000000000000000000000000000000000000000000000000000000000000000000000000000000000000000000000000000000000000000000000000000000000000000000000000000000001000000000000000000000000010000",
      "type": "0x2",
      "effectiveGasPrice": "0xc619fe99"
    },
    {
      "transactionHash": "0xf713b9f3c7cfa99833fd1eb01dd9beef736b03a14714218ff12431ce6627aa87",
      "transactionIndex": "0x21",
      "blockHash": "0x1315235aa9a78a5d58ea5e2a692aaedcc67146578c2e3c310050ae00f85c6fb5",
      "blockNumber": "0x519ca4",
      "from": "0xfC29eDCe481c4D7D2CDa4c0Ad6bF6C5Fcf128704",
      "to": "0x8F071320A60E4Aac7dA5FBA5F201F9bcc66f86e9",
      "cumulativeGasUsed": "0x397996",
      "gasUsed": "0x2c073",
      "contractAddress": null,
      "logs": [
        {
          "address": "0x8F071320A60E4Aac7dA5FBA5F201F9bcc66f86e9",
          "topics": [
            "0x6d801405d0a92b94907b5fe1fe4295031541b6f549f7afecc30b600f579b68b0"
          ],
          "data": "0x000000000000000000000000000000000000000000000000000000000000003e000000000000000000000000000000000000000000000000000000000000006000000000000000000000000000000000000000000000000000000000000001000000000000000000000000000000000000000000000000000000000000000063000b171007030006c8010006c8030001c80201022301c8010001c80201022301c804c80201022303c80201022301c801c8020001c80201022301c8010001c80201022301c801c8020001c80201022301c8010001c80201022301c8030006c8010006c800000000000000000000000000000000000000000000000000000000000000000000000000000000000000000000000000000000000000000000000019676c61737365732d7371756172652d677265792d6c6967687400000000000000",
          "blockHash": "0x1315235aa9a78a5d58ea5e2a692aaedcc67146578c2e3c310050ae00f85c6fb5",
          "blockNumber": "0x519ca4",
          "transactionHash": "0xf713b9f3c7cfa99833fd1eb01dd9beef736b03a14714218ff12431ce6627aa87",
          "transactionIndex": "0x21",
          "logIndex": "0x20",
          "removed": false
        }
      ],
      "status": "0x1",
      "logsBloom": "0x00000000000000000000000000000000000000000000000000000000000000000000000000000000000000000000000000000000000000000000000000000000000000000000000000000000000000000000000000000000000000000000000000000000000000000000008000001000000000000000000000000000000000000000000000000000000000000000000000000000000000000000000100000000000020000000000000000000000000000000000000000000000000000000000000000000000000000000000000000000000000000000000000000000000000000000000000000000000000000000000001000000000000000000000000010000",
      "type": "0x2",
      "effectiveGasPrice": "0xc619fe99"
    }
  ],
  "libraries": [],
  "pending": [],
  "returns": {},
  "timestamp": 1708708120,
  "chain": 11155111,
  "multi": false,
  "commit": "6a94c07"
}