{
  "transactions": [
    {
      "hash": "0x57114b54aabf9e6b0eae5f8afd02254f58f88e773d45feb8b55913967ff402ca",
      "transactionType": "CALL",
      "contractName": null,
      "contractAddress": "0x2C333bd1316cE1aF9EBF017a595D6f8AB5f6BD1A",
      "function": "createERC721(address,bytes32,address,string,string,bytes)",
      "arguments": [
        "0xB5764bd3AD21A58f723DB04Aeb97a428c7bdDE2a",
        "0x0000000000000000000000000000000000000000000000000000000000000000",
        "0xfC29eDCe481c4D7D2CDa4c0Ad6bF6C5Fcf128704",
        "\"Noun Citizens\"",
        "\"NPC\"",
        "0xac9650d80000000000000000000000000000000000000000000000000000000000000020000000000000000000000000000000000000000000000000000000000000000500000000000000000000000000000000000000000000000000000000000000a0000000000000000000000000000000000000000000000000000000000000012000000000000000000000000000000000000000000000000000000000000001a0000000000000000000000000000000000000000000000000000000000000022000000000000000000000000000000000000000000000000000000000000002a000000000000000000000000000000000000000000000000000000000000000440439a74a522cd59f00000000000000000000000000000000000000000000000000000000000000000000000000000000717d8876a2dd3e46f88fd2128e50f952c8937f9a0000000000000000000000000000000000000000000000000000000000000000000000000000000000000000000000000000000000000000000000440439a74a073bca3400000000000000000000000000000000000000000000000000000000000000000000000000000000717d8876a2dd3e46f88fd2128e50f952c8937f9a0000000000000000000000000000000000000000000000000000000000000000000000000000000000000000000000000000000000000000000000440439a74a8638c44900000000000000000000000000000000000000000000000000000000000000000000000000000000717d8876a2dd3e46f88fd2128e50f952c8937f9a000000000000000000000000000000000000000000000000000000000000000000000000000000000000000000000000000000000000000000000044c2593dc7fd45ddde6135ec4200000000000000000000000000000000000000000000000000000000000000000000000065a3870f48b5237f27f674ec42ea1e017e111d63000000000000000000000000000000000000000000000000000000000000000000000000000000000000000000000000000000000000000000000044c2593dc7fd45ddde6135ec4200000000000000000000000000000000000000000000000000000000000000000000000055045da52be49461af91a235e4303d4a9b2312ae00000000000000000000000000000000000000000000000000000000"
      ],
      "transaction": {
        "type": "0x02",
        "from": "0xfc29edce481c4d7d2cda4c0ad6bf6c5fcf128704",
        "to": "0x2c333bd1316ce1af9ebf017a595d6f8ab5f6bd1a",
        "gas": "0xb7c7b",
        "value": "0x0",
        "data": "0xab18fd3a000000000000000000000000b5764bd3ad21a58f723db04aeb97a428c7bdde2a0000000000000000000000000000000000000000000000000000000000000000000000000000000000000000fc29edce481c4d7d2cda4c0ad6bf6c5fcf12870400000000000000000000000000000000000000000000000000000000000000c000000000000000000000000000000000000000000000000000000000000001000000000000000000000000000000000000000000000000000000000000000140000000000000000000000000000000000000000000000000000000000000000d4e6f756e20436974697a656e730000000000000000000000000000000000000000000000000000000000000000000000000000000000000000000000000000034e504300000000000000000000000000000000000000000000000000000000000000000000000000000000000000000000000000000000000000000000000364ac9650d80000000000000000000000000000000000000000000000000000000000000020000000000000000000000000000000000000000000000000000000000000000500000000000000000000000000000000000000000000000000000000000000a0000000000000000000000000000000000000000000000000000000000000012000000000000000000000000000000000000000000000000000000000000001a0000000000000000000000000000000000000000000000000000000000000022000000000000000000000000000000000000000000000000000000000000002a000000000000000000000000000000000000000000000000000000000000000440439a74a522cd59f00000000000000000000000000000000000000000000000000000000000000000000000000000000717d8876a2dd3e46f88fd2128e50f952c8937f9a0000000000000000000000000000000000000000000000000000000000000000000000000000000000000000000000000000000000000000000000440439a74a073bca3400000000000000000000000000000000000000000000000000000000000000000000000000000000717d8876a2dd3e46f88fd2128e50f952c8937f9a0000000000000000000000000000000000000000000000000000000000000000000000000000000000000000000000000000000000000000000000440439a74a8638c44900000000000000000000000000000000000000000000000000000000000000000000000000000000717d8876a2dd3e46f88fd2128e50f952c8937f9a000000000000000000000000000000000000000000000000000000000000000000000000000000000000000000000000000000000000000000000044c2593dc7fd45ddde6135ec4200000000000000000000000000000000000000000000000000000000000000000000000065a3870f48b5237f27f674ec42ea1e017e111d63000000000000000000000000000000000000000000000000000000000000000000000000000000000000000000000000000000000000000000000044c2593dc7fd45ddde6135ec4200000000000000000000000000000000000000000000000000000000000000000000000055045da52be49461af91a235e4303d4a9b2312ae0000000000000000000000000000000000000000000000000000000000000000000000000000000000000000000000000000000000000000",
        "nonce": "0x27",
        "accessList": []
      },
      "additionalContracts": [
        {
          "transactionType": "CREATE2",
          "address": "0xF1eFc9e4C5238C5bCf3d30774480325893435a2A",
          "initCode": "0x60806040526040516104e13803806104e1833981016040819052610022916102de565b61002e82826000610035565b50506103fb565b61003e83610061565b60008251118061004b5750805b1561005c5761005a83836100a1565b505b505050565b61006a816100cd565b6040516001600160a01b038216907fbc7cd75a20ee27fd9adebab32041f755214dbc6bffa90cc0225b39da2e5c2d3b90600090a250565b60606100c683836040518060600160405280602781526020016104ba60279139610180565b9392505050565b6001600160a01b0381163b61013f5760405162461bcd60e51b815260206004820152602d60248201527f455243313936373a206e657720696d706c656d656e746174696f6e206973206e60448201526c1bdd08184818dbdb9d1c9858dd609a1b60648201526084015b60405180910390fd5b7f360894a13ba1a3210667c828492db98dca3e2076cc3735a920a3ca505d382bbc80546001600160a01b0319166001600160a01b0392909216919091179055565b6060600080856001600160a01b03168560405161019d91906103ac565b600060405180830381855af49150503d80600081146101d8576040519150601f19603f3d011682016040523d82523d6000602084013e6101dd565b606091505b5090925090506101ef868383876101f9565b9695505050505050565b60608315610268578251600003610261576001600160a01b0385163b6102615760405162461bcd60e51b815260206004820152601d60248201527f416464726573733a2063616c6c20746f206e6f6e2d636f6e74726163740000006044820152606401610136565b5081610272565b610272838361027a565b949350505050565b81511561028a5781518083602001fd5b8060405162461bcd60e51b815260040161013691906103c8565b634e487b7160e01b600052604160045260246000fd5b60005b838110156102d55781810151838201526020016102bd565b50506000910152565b600080604083850312156102f157600080fd5b82516001600160a01b038116811461030857600080fd5b60208401519092506001600160401b038082111561032557600080fd5b818501915085601f83011261033957600080fd5b81518181111561034b5761034b6102a4565b604051601f8201601f19908116603f01168101908382118183101715610373576103736102a4565b8160405282815288602084870101111561038c57600080fd5b61039d8360208301602088016102ba565b80955050505050509250929050565b600082516103be8184602087016102ba565b9190910192915050565b60208152600082518060208401526103e78160408501602087016102ba565b601f01601f19169190910160400192915050565b60b1806104096000396000f3fe608060405236601057600e6013565b005b600e5b601f601b6021565b6058565b565b600060537f360894a13ba1a3210667c828492db98dca3e2076cc3735a920a3ca505d382bbc546001600160a01b031690565b905090565b3660008037600080366000845af43d6000803e8080156076573d6000f35b3d6000fdfea2646970667358221220ec84ce9443891f3a401aa6c956ca0ef59ce333eda614fa39e8d1f78f30de3ed264736f6c63430008130033416464726573733a206c6f772d6c6576656c2064656c65676174652063616c6c206661696c6564000000000000000000000000b5764bd3ad21a58f723db04aeb97a428c7bdde2a00000000000000000000000000000000000000000000000000000000000000400000000000000000000000000000000000000000000000000000000000000000"
        }
      ],
      "isFixedGasLimit": false
    },
    {
      "hash": "0x2cf9251fbb6d9bf55bc4fbecdb3fbd7c2bd6ba3cca6d73642e01797d195e4913",
      "transactionType": "CALL",
      "contractName": null,
      "contractAddress": "0x2C333bd1316cE1aF9EBF017a595D6f8AB5f6BD1A",
      "function": "createERC1155(address,bytes32,address,string,string,bytes)",
      "arguments": [
        "0x053809DFdd2443616d324c93e1DFC6a2076F976B",
        "0x0000000000000000000000000000000000000000000000000000000000000000",
        "0xfC29eDCe481c4D7D2CDa4c0Ad6bF6C5Fcf128704",
        "\"NPC Trait\"",
        "\"NPCT\"",
        "0xac9650d80000000000000000000000000000000000000000000000000000000000000020000000000000000000000000000000000000000000000000000000000000000a000000000000000000000000000000000000000000000000000000000000014000000000000000000000000000000000000000000000000000000000000001c0000000000000000000000000000000000000000000000000000000000000024000000000000000000000000000000000000000000000000000000000000002c0000000000000000000000000000000000000000000000000000000000000034000000000000000000000000000000000000000000000000000000000000003c0000000000000000000000000000000000000000000000000000000000000044000000000000000000000000000000000000000000000000000000000000004c0000000000000000000000000000000000000000000000000000000000000054000000000000000000000000000000000000000000000000000000000000005c000000000000000000000000000000000000000000000000000000000000000440439a74a6bced38a000000000000000000000000000000000000000000000000000000000000000000000000000000004e42265d34ce4b0d49014c480d0d38485154375b0000000000000000000000000000000000000000000000000000000000000000000000000000000000000000000000000000000000000000000000440439a74a251faf18000000000000000000000000000000000000000000000000000000000000000000000000000000004e42265d34ce4b0d49014c480d0d38485154375b0000000000000000000000000000000000000000000000000000000000000000000000000000000000000000000000000000000000000000000000440439a74a0d29e4c0000000000000000000000000000000000000000000000000000000000000000000000000000000004e42265d34ce4b0d49014c480d0d38485154375b0000000000000000000000000000000000000000000000000000000000000000000000000000000000000000000000000000000000000000000000440439a74a5aee048e000000000000000000000000000000000000000000000000000000000000000000000000000000004e42265d34ce4b0d49014c480d0d38485154375b0000000000000000000000000000000000000000000000000000000000000000000000000000000000000000000000000000000000000000000000440439a74a87c7a30f0000000000000000000000000000000000000000000000000000000000000000000000000000000065b6e79d72bb53969a58ac28aaa32ba2cf6a6ae20000000000000000000000000000000000000000000000000000000000000000000000000000000000000000000000000000000000000000000000440439a74a1b5bba6a0000000000000000000000000000000000000000000000000000000000000000000000000000000065b6e79d72bb53969a58ac28aaa32ba2cf6a6ae20000000000000000000000000000000000000000000000000000000000000000000000000000000000000000000000000000000000000000000000440439a74ae0c95a8400000000000000000000000000000000000000000000000000000000000000000000000000000000ceeaec9dc4055e05c7a9e7b7a72e556eb7456cb40000000000000000000000000000000000000000000000000000000000000000000000000000000000000000000000000000000000000000000000440439a74a073bca3400000000000000000000000000000000000000000000000000000000000000000000000000000000ceeaec9dc4055e05c7a9e7b7a72e556eb7456cb4000000000000000000000000000000000000000000000000000000000000000000000000000000000000000000000000000000000000000000000044c2593dc7fd45ddde6135ec4200000000000000000000000000000000000000000000000000000000000000000000000065a3870f48b5237f27f674ec42ea1e017e111d63000000000000000000000000000000000000000000000000000000000000000000000000000000000000000000000000000000000000000000000044c2593dc7fd45ddde6135ec4200000000000000000000000000000000000000000000000000000000000000000000000055045da52be49461af91a235e4303d4a9b2312ae00000000000000000000000000000000000000000000000000000000"
      ],
      "transaction": {
        "type": "0x02",
        "from": "0xfc29edce481c4d7d2cda4c0ad6bf6c5fcf128704",
        "to": "0x2c333bd1316ce1af9ebf017a595d6f8ab5f6bd1a",
        "gas": "0xe5631",
        "value": "0x0",
        "data": "0x40c06536000000000000000000000000053809dfdd2443616d324c93e1dfc6a2076f976b0000000000000000000000000000000000000000000000000000000000000000000000000000000000000000fc29edce481c4d7d2cda4c0ad6bf6c5fcf12870400000000000000000000000000000000000000000000000000000000000000c00000000000000000000000000000000000000000000000000000000000000100000000000000000000000000000000000000000000000000000000000000014000000000000000000000000000000000000000000000000000000000000000094e5043205472616974000000000000000000000000000000000000000000000000000000000000000000000000000000000000000000000000000000000000044e504354000000000000000000000000000000000000000000000000000000000000000000000000000000000000000000000000000000000000000000000684ac9650d80000000000000000000000000000000000000000000000000000000000000020000000000000000000000000000000000000000000000000000000000000000a000000000000000000000000000000000000000000000000000000000000014000000000000000000000000000000000000000000000000000000000000001c0000000000000000000000000000000000000000000000000000000000000024000000000000000000000000000000000000000000000000000000000000002c0000000000000000000000000000000000000000000000000000000000000034000000000000000000000000000000000000000000000000000000000000003c0000000000000000000000000000000000000000000000000000000000000044000000000000000000000000000000000000000000000000000000000000004c0000000000000000000000000000000000000000000000000000000000000054000000000000000000000000000000000000000000000000000000000000005c000000000000000000000000000000000000000000000000000000000000000440439a74a6bced38a000000000000000000000000000000000000000000000000000000000000000000000000000000004e42265d34ce4b0d49014c480d0d38485154375b0000000000000000000000000000000000000000000000000000000000000000000000000000000000000000000000000000000000000000000000440439a74a251faf18000000000000000000000000000000000000000000000000000000000000000000000000000000004e42265d34ce4b0d49014c480d0d38485154375b0000000000000000000000000000000000000000000000000000000000000000000000000000000000000000000000000000000000000000000000440439a74a0d29e4c0000000000000000000000000000000000000000000000000000000000000000000000000000000004e42265d34ce4b0d49014c480d0d38485154375b0000000000000000000000000000000000000000000000000000000000000000000000000000000000000000000000000000000000000000000000440439a74a5aee048e000000000000000000000000000000000000000000000000000000000000000000000000000000004e42265d34ce4b0d49014c480d0d38485154375b0000000000000000000000000000000000000000000000000000000000000000000000000000000000000000000000000000000000000000000000440439a74a87c7a30f0000000000000000000000000000000000000000000000000000000000000000000000000000000065b6e79d72bb53969a58ac28aaa32ba2cf6a6ae20000000000000000000000000000000000000000000000000000000000000000000000000000000000000000000000000000000000000000000000440439a74a1b5bba6a0000000000000000000000000000000000000000000000000000000000000000000000000000000065b6e79d72bb53969a58ac28aaa32ba2cf6a6ae20000000000000000000000000000000000000000000000000000000000000000000000000000000000000000000000000000000000000000000000440439a74ae0c95a8400000000000000000000000000000000000000000000000000000000000000000000000000000000ceeaec9dc4055e05c7a9e7b7a72e556eb7456cb40000000000000000000000000000000000000000000000000000000000000000000000000000000000000000000000000000000000000000000000440439a74a073bca3400000000000000000000000000000000000000000000000000000000000000000000000000000000ceeaec9dc4055e05c7a9e7b7a72e556eb7456cb4000000000000000000000000000000000000000000000000000000000000000000000000000000000000000000000000000000000000000000000044c2593dc7fd45ddde6135ec4200000000000000000000000000000000000000000000000000000000000000000000000065a3870f48b5237f27f674ec42ea1e017e111d63000000000000000000000000000000000000000000000000000000000000000000000000000000000000000000000000000000000000000000000044c2593dc7fd45ddde6135ec4200000000000000000000000000000000000000000000000000000000000000000000000055045da52be49461af91a235e4303d4a9b2312ae0000000000000000000000000000000000000000000000000000000000000000000000000000000000000000000000000000000000000000",
        "nonce": "0x28",
        "accessList": []
      },
      "additionalContracts": [
        {
          "transactionType": "CREATE2",
          "address": "0x8F071320A60E4Aac7dA5FBA5F201F9bcc66f86e9",
          "initCode": "0x60806040526040516104e13803806104e1833981016040819052610022916102de565b61002e82826000610035565b50506103fb565b61003e83610061565b60008251118061004b5750805b1561005c5761005a83836100a1565b505b505050565b61006a816100cd565b6040516001600160a01b038216907fbc7cd75a20ee27fd9adebab32041f755214dbc6bffa90cc0225b39da2e5c2d3b90600090a250565b60606100c683836040518060600160405280602781526020016104ba60279139610180565b9392505050565b6001600160a01b0381163b61013f5760405162461bcd60e51b815260206004820152602d60248201527f455243313936373a206e657720696d706c656d656e746174696f6e206973206e60448201526c1bdd08184818dbdb9d1c9858dd609a1b60648201526084015b60405180910390fd5b7f360894a13ba1a3210667c828492db98dca3e2076cc3735a920a3ca505d382bbc80546001600160a01b0319166001600160a01b0392909216919091179055565b6060600080856001600160a01b03168560405161019d91906103ac565b600060405180830381855af49150503d80600081146101d8576040519150601f19603f3d011682016040523d82523d6000602084013e6101dd565b606091505b5090925090506101ef868383876101f9565b9695505050505050565b60608315610268578251600003610261576001600160a01b0385163b6102615760405162461bcd60e51b815260206004820152601d60248201527f416464726573733a2063616c6c20746f206e6f6e2d636f6e74726163740000006044820152606401610136565b5081610272565b610272838361027a565b949350505050565b81511561028a5781518083602001fd5b8060405162461bcd60e51b815260040161013691906103c8565b634e487b7160e01b600052604160045260246000fd5b60005b838110156102d55781810151838201526020016102bd565b50506000910152565b600080604083850312156102f157600080fd5b82516001600160a01b038116811461030857600080fd5b60208401519092506001600160401b038082111561032557600080fd5b818501915085601f83011261033957600080fd5b81518181111561034b5761034b6102a4565b604051601f8201601f19908116603f01168101908382118183101715610373576103736102a4565b8160405282815288602084870101111561038c57600080fd5b61039d8360208301602088016102ba565b80955050505050509250929050565b600082516103be8184602087016102ba565b9190910192915050565b60208152600082518060208401526103e78160408501602087016102ba565b601f01601f19169190910160400192915050565b60b1806104096000396000f3fe608060405236601057600e6013565b005b600e5b601f601b6021565b6058565b565b600060537f360894a13ba1a3210667c828492db98dca3e2076cc3735a920a3ca505d382bbc546001600160a01b031690565b905090565b3660008037600080366000845af43d6000803e8080156076573d6000f35b3d6000fdfea2646970667358221220ec84ce9443891f3a401aa6c956ca0ef59ce333eda614fa39e8d1f78f30de3ed264736f6c63430008130033416464726573733a206c6f772d6c6576656c2064656c65676174652063616c6c206661696c6564000000000000000000000000053809dfdd2443616d324c93e1dfc6a2076f976b00000000000000000000000000000000000000000000000000000000000000400000000000000000000000000000000000000000000000000000000000000000"
        }
      ],
      "isFixedGasLimit": false
    }
  ],
  "receipts": [
    {
      "transactionHash": "0x57114b54aabf9e6b0eae5f8afd02254f58f88e773d45feb8b55913967ff402ca",
      "transactionIndex": "0x36",
      "blockHash": "0x6753ca2164c17f88dd57becafcaacc381e17baadf0433cbba0c0d4093390c947",
      "blockNumber": "0x514c1c",
      "from": "0xfC29eDCe481c4D7D2CDa4c0Ad6bF6C5Fcf128704",
      "to": "0x2C333bd1316cE1aF9EBF017a595D6f8AB5f6BD1A",
      "cumulativeGasUsed": "0x50edc6",
      "gasUsed": "0x85132",
      "contractAddress": null,
      "logs": [
        {
          "address": "0xF1eFc9e4C5238C5bCf3d30774480325893435a2A",
          "topics": [
            "0xbc7cd75a20ee27fd9adebab32041f755214dbc6bffa90cc0225b39da2e5c2d3b",
            "0x000000000000000000000000b5764bd3ad21a58f723db04aeb97a428c7bdde2a"
          ],
          "data": "0x",
          "blockHash": "0x6753ca2164c17f88dd57becafcaacc381e17baadf0433cbba0c0d4093390c947",
          "blockNumber": "0x514c1c",
          "transactionHash": "0x57114b54aabf9e6b0eae5f8afd02254f58f88e773d45feb8b55913967ff402ca",
          "transactionIndex": "0x36",
          "logIndex": "0x54",
          "removed": false
        },
        {
          "address": "0x2C333bd1316cE1aF9EBF017a595D6f8AB5f6BD1A",
          "topics": [
            "0x25b1a846e96937f571b6f2a73a73cd1925e5c62f86fa04e12d4e67022e09edec",
            "0x000000000000000000000000f1efc9e4c5238c5bcf3d30774480325893435a2a"
          ],
          "data": "0x",
          "blockHash": "0x6753ca2164c17f88dd57becafcaacc381e17baadf0433cbba0c0d4093390c947",
          "blockNumber": "0x514c1c",
          "transactionHash": "0x57114b54aabf9e6b0eae5f8afd02254f58f88e773d45feb8b55913967ff402ca",
          "transactionIndex": "0x36",
          "logIndex": "0x55",
          "removed": false
        },
        {
          "address": "0xF1eFc9e4C5238C5bCf3d30774480325893435a2A",
          "topics": [
            "0x9f7688a97f1ac51fe03bac18af18d6810f9f11f0db08c59b1938a9ac825ef744"
          ],
          "data": "0x0000000000000000000000000000000000000000000000000000000000000020000000000000000000000000000000000000000000000000000000000000000d4e6f756e20436974697a656e7300000000000000000000000000000000000000",
          "blockHash": "0x6753ca2164c17f88dd57becafcaacc381e17baadf0433cbba0c0d4093390c947",
          "blockNumber": "0x514c1c",
          "transactionHash": "0x57114b54aabf9e6b0eae5f8afd02254f58f88e773d45feb8b55913967ff402ca",
          "transactionIndex": "0x36",
          "logIndex": "0x56",
          "removed": false
        },
        {
          "address": "0xF1eFc9e4C5238C5bCf3d30774480325893435a2A",
          "topics": [
            "0xee007fd2e1891a2f6c8408b57ade5b0550dea71a5a06cc4df7ded4646a4584a5"
          ],
          "data": "0x000000000000000000000000000000000000000000000000000000000000002000000000000000000000000000000000000000000000000000000000000000034e50430000000000000000000000000000000000000000000000000000000000",
          "blockHash": "0x6753ca2164c17f88dd57becafcaacc381e17baadf0433cbba0c0d4093390c947",
          "blockNumber": "0x514c1c",
          "transactionHash": "0x57114b54aabf9e6b0eae5f8afd02254f58f88e773d45feb8b55913967ff402ca",
          "transactionIndex": "0x36",
          "logIndex": "0x57",
          "removed": false
        },
        {
          "address": "0xF1eFc9e4C5238C5bCf3d30774480325893435a2A",
          "topics": [
            "0x8be0079c531659141344cd1fd0a4f28419497f9722a3daafe3b4186f6b6457e0",
            "0x0000000000000000000000000000000000000000000000000000000000000000",
            "0x0000000000000000000000002c333bd1316ce1af9ebf017a595d6f8ab5f6bd1a"
          ],
          "data": "0x",
          "blockHash": "0x6753ca2164c17f88dd57becafcaacc381e17baadf0433cbba0c0d4093390c947",
          "blockNumber": "0x514c1c",
          "transactionHash": "0x57114b54aabf9e6b0eae5f8afd02254f58f88e773d45feb8b55913967ff402ca",
          "transactionIndex": "0x36",
          "logIndex": "0x58",
          "removed": false
        },
        {
          "address": "0xF1eFc9e4C5238C5bCf3d30774480325893435a2A",
          "topics": [
            "0xf1a5d3e66660bd9e7b8ebd2a61970410ac63e9e1a874ebb0e0396cd4b41ac125",
            "0x522cd59f00000000000000000000000000000000000000000000000000000000",
            "0x0000000000000000000000000000000000000000000000000000000000000000",
            "0x000000000000000000000000717d8876a2dd3e46f88fd2128e50f952c8937f9a"
          ],
          "data": "0x",
          "blockHash": "0x6753ca2164c17f88dd57becafcaacc381e17baadf0433cbba0c0d4093390c947",
          "blockNumber": "0x514c1c",
          "transactionHash": "0x57114b54aabf9e6b0eae5f8afd02254f58f88e773d45feb8b55913967ff402ca",
          "transactionIndex": "0x36",
          "logIndex": "0x59",
          "removed": false
        },
        {
          "address": "0xF1eFc9e4C5238C5bCf3d30774480325893435a2A",
          "topics": [
            "0xf1a5d3e66660bd9e7b8ebd2a61970410ac63e9e1a874ebb0e0396cd4b41ac125",
            "0x073bca3400000000000000000000000000000000000000000000000000000000",
            "0x0000000000000000000000000000000000000000000000000000000000000000",
            "0x000000000000000000000000717d8876a2dd3e46f88fd2128e50f952c8937f9a"
          ],
          "data": "0x",
          "blockHash": "0x6753ca2164c17f88dd57becafcaacc381e17baadf0433cbba0c0d4093390c947",
          "blockNumber": "0x514c1c",
          "transactionHash": "0x57114b54aabf9e6b0eae5f8afd02254f58f88e773d45feb8b55913967ff402ca",
          "transactionIndex": "0x36",
          "logIndex": "0x5a",
          "removed": false
        },
        {
          "address": "0xF1eFc9e4C5238C5bCf3d30774480325893435a2A",
          "topics": [
            "0xf1a5d3e66660bd9e7b8ebd2a61970410ac63e9e1a874ebb0e0396cd4b41ac125",
            "0x8638c44900000000000000000000000000000000000000000000000000000000",
            "0x0000000000000000000000000000000000000000000000000000000000000000",
            "0x000000000000000000000000717d8876a2dd3e46f88fd2128e50f952c8937f9a"
          ],
          "data": "0x",
          "blockHash": "0x6753ca2164c17f88dd57becafcaacc381e17baadf0433cbba0c0d4093390c947",
          "blockNumber": "0x514c1c",
          "transactionHash": "0x57114b54aabf9e6b0eae5f8afd02254f58f88e773d45feb8b55913967ff402ca",
          "transactionIndex": "0x36",
          "logIndex": "0x5b",
          "removed": false
        },
        {
          "address": "0xF1eFc9e4C5238C5bCf3d30774480325893435a2A",
          "topics": [
            "0x70c1bbcf050e5b1587aabe97f0ba5633e67e187e67be1143cab0479dc75b81e7",
            "0xfd45ddde6135ec42000000000000000000000000000000000000000000000000",
            "0x00000000000000000000000065a3870f48b5237f27f674ec42ea1e017e111d63"
          ],
          "data": "0x",
          "blockHash": "0x6753ca2164c17f88dd57becafcaacc381e17baadf0433cbba0c0d4093390c947",
          "blockNumber": "0x514c1c",
          "transactionHash": "0x57114b54aabf9e6b0eae5f8afd02254f58f88e773d45feb8b55913967ff402ca",
          "transactionIndex": "0x36",
          "logIndex": "0x5c",
          "removed": false
        },
        {
          "address": "0xF1eFc9e4C5238C5bCf3d30774480325893435a2A",
          "topics": [
            "0x70c1bbcf050e5b1587aabe97f0ba5633e67e187e67be1143cab0479dc75b81e7",
            "0xfd45ddde6135ec42000000000000000000000000000000000000000000000000",
            "0x00000000000000000000000055045da52be49461af91a235e4303d4a9b2312ae"
          ],
          "data": "0x",
          "blockHash": "0x6753ca2164c17f88dd57becafcaacc381e17baadf0433cbba0c0d4093390c947",
          "blockNumber": "0x514c1c",
          "transactionHash": "0x57114b54aabf9e6b0eae5f8afd02254f58f88e773d45feb8b55913967ff402ca",
          "transactionIndex": "0x36",
          "logIndex": "0x5d",
          "removed": false
        },
        {
          "address": "0xF1eFc9e4C5238C5bCf3d30774480325893435a2A",
          "topics": [
            "0x8be0079c531659141344cd1fd0a4f28419497f9722a3daafe3b4186f6b6457e0",
            "0x0000000000000000000000002c333bd1316ce1af9ebf017a595d6f8ab5f6bd1a",
            "0x000000000000000000000000fc29edce481c4d7d2cda4c0ad6bf6c5fcf128704"
          ],
          "data": "0x",
          "blockHash": "0x6753ca2164c17f88dd57becafcaacc381e17baadf0433cbba0c0d4093390c947",
          "blockNumber": "0x514c1c",
          "transactionHash": "0x57114b54aabf9e6b0eae5f8afd02254f58f88e773d45feb8b55913967ff402ca",
          "transactionIndex": "0x36",
          "logIndex": "0x5e",
          "removed": false
        },
        {
          "address": "0xF1eFc9e4C5238C5bCf3d30774480325893435a2A",
          "topics": [
            "0x5daa87a0e9463431830481fd4b6e3403442dfb9a12b9c07597e9f61d50b633c8"
          ],
          "data": "0x",
          "blockHash": "0x6753ca2164c17f88dd57becafcaacc381e17baadf0433cbba0c0d4093390c947",
          "blockNumber": "0x514c1c",
          "transactionHash": "0x57114b54aabf9e6b0eae5f8afd02254f58f88e773d45feb8b55913967ff402ca",
          "transactionIndex": "0x36",
          "logIndex": "0x5f",
          "removed": false
        }
      ],
      "status": "0x1",
      "logsBloom": "0x0080000028000000800000000008000040000000008080000180000000000000000000000080000040102000000000000100040000004000000000200000010000001000000000000000000000000200000100000000000400000c00000000000004008002000040000000000000080000400000000000008000000000000040000000800000000808000000000000000000000000000010000000000000000800000000800800000400204000010000000000c000000000000000000004000080009020000000000000000000040008010004000000000000000000001021000000000000008000000040000000000001080040000004000000000000002001",
      "type": "0x2",
      "effectiveGasPrice": "0x38770617e"
    },
    {
      "transactionHash": "0x2cf9251fbb6d9bf55bc4fbecdb3fbd7c2bd6ba3cca6d73642e01797d195e4913",
      "transactionIndex": "0x37",
      "blockHash": "0x6753ca2164c17f88dd57becafcaacc381e17baadf0433cbba0c0d4093390c947",
      "blockNumber": "0x514c1c",
      "from": "0xfC29eDCe481c4D7D2CDa4c0Ad6bF6C5Fcf128704",
      "to": "0x2C333bd1316cE1aF9EBF017a595D6f8AB5f6BD1A",
      "cumulativeGasUsed": "0x5b4f44",
      "gasUsed": "0xa617e",
      "contractAddress": null,
      "logs": [
        {
          "address": "0x8F071320A60E4Aac7dA5FBA5F201F9bcc66f86e9",
          "topics": [
            "0xbc7cd75a20ee27fd9adebab32041f755214dbc6bffa90cc0225b39da2e5c2d3b",
            "0x000000000000000000000000053809dfdd2443616d324c93e1dfc6a2076f976b"
          ],
          "data": "0x",
          "blockHash": "0x6753ca2164c17f88dd57becafcaacc381e17baadf0433cbba0c0d4093390c947",
          "blockNumber": "0x514c1c",
          "transactionHash": "0x2cf9251fbb6d9bf55bc4fbecdb3fbd7c2bd6ba3cca6d73642e01797d195e4913",
          "transactionIndex": "0x37",
          "logIndex": "0x60",
          "removed": false
        },
        {
          "address": "0x2C333bd1316cE1aF9EBF017a595D6f8AB5f6BD1A",
          "topics": [
            "0x219423f6178d1126524af73954b790c814a8b0dabcd8a687e2a5bec02aed62c1",
            "0x0000000000000000000000008f071320a60e4aac7da5fba5f201f9bcc66f86e9"
          ],
          "data": "0x",
          "blockHash": "0x6753ca2164c17f88dd57becafcaacc381e17baadf0433cbba0c0d4093390c947",
          "blockNumber": "0x514c1c",
          "transactionHash": "0x2cf9251fbb6d9bf55bc4fbecdb3fbd7c2bd6ba3cca6d73642e01797d195e4913",
          "transactionIndex": "0x37",
          "logIndex": "0x61",
          "removed": false
        },
        {
          "address": "0x8F071320A60E4Aac7dA5FBA5F201F9bcc66f86e9",
          "topics": [
            "0x9f7688a97f1ac51fe03bac18af18d6810f9f11f0db08c59b1938a9ac825ef744"
          ],
          "data": "0x000000000000000000000000000000000000000000000000000000000000002000000000000000000000000000000000000000000000000000000000000000094e50432054726169740000000000000000000000000000000000000000000000",
          "blockHash": "0x6753ca2164c17f88dd57becafcaacc381e17baadf0433cbba0c0d4093390c947",
          "blockNumber": "0x514c1c",
          "transactionHash": "0x2cf9251fbb6d9bf55bc4fbecdb3fbd7c2bd6ba3cca6d73642e01797d195e4913",
          "transactionIndex": "0x37",
          "logIndex": "0x62",
          "removed": false
        },
        {
          "address": "0x8F071320A60E4Aac7dA5FBA5F201F9bcc66f86e9",
          "topics": [
            "0xee007fd2e1891a2f6c8408b57ade5b0550dea71a5a06cc4df7ded4646a4584a5"
          ],
          "data": "0x000000000000000000000000000000000000000000000000000000000000002000000000000000000000000000000000000000000000000000000000000000044e50435400000000000000000000000000000000000000000000000000000000",
          "blockHash": "0x6753ca2164c17f88dd57becafcaacc381e17baadf0433cbba0c0d4093390c947",
          "blockNumber": "0x514c1c",
          "transactionHash": "0x2cf9251fbb6d9bf55bc4fbecdb3fbd7c2bd6ba3cca6d73642e01797d195e4913",
          "transactionIndex": "0x37",
          "logIndex": "0x63",
          "removed": false
        },
        {
          "address": "0x8F071320A60E4Aac7dA5FBA5F201F9bcc66f86e9",
          "topics": [
            "0x8be0079c531659141344cd1fd0a4f28419497f9722a3daafe3b4186f6b6457e0",
            "0x0000000000000000000000000000000000000000000000000000000000000000",
            "0x0000000000000000000000002c333bd1316ce1af9ebf017a595d6f8ab5f6bd1a"
          ],
          "data": "0x",
          "blockHash": "0x6753ca2164c17f88dd57becafcaacc381e17baadf0433cbba0c0d4093390c947",
          "blockNumber": "0x514c1c",
          "transactionHash": "0x2cf9251fbb6d9bf55bc4fbecdb3fbd7c2bd6ba3cca6d73642e01797d195e4913",
          "transactionIndex": "0x37",
          "logIndex": "0x64",
          "removed": false
        },
        {
          "address": "0x8F071320A60E4Aac7dA5FBA5F201F9bcc66f86e9",
          "topics": [
            "0xf1a5d3e66660bd9e7b8ebd2a61970410ac63e9e1a874ebb0e0396cd4b41ac125",
            "0x6bced38a00000000000000000000000000000000000000000000000000000000",
            "0x0000000000000000000000000000000000000000000000000000000000000000",
            "0x0000000000000000000000004e42265d34ce4b0d49014c480d0d38485154375b"
          ],
          "data": "0x",
          "blockHash": "0x6753ca2164c17f88dd57becafcaacc381e17baadf0433cbba0c0d4093390c947",
          "blockNumber": "0x514c1c",
          "transactionHash": "0x2cf9251fbb6d9bf55bc4fbecdb3fbd7c2bd6ba3cca6d73642e01797d195e4913",
          "transactionIndex": "0x37",
          "logIndex": "0x65",
          "removed": false
        },
        {
          "address": "0x8F071320A60E4Aac7dA5FBA5F201F9bcc66f86e9",
          "topics": [
            "0xf1a5d3e66660bd9e7b8ebd2a61970410ac63e9e1a874ebb0e0396cd4b41ac125",
            "0x251faf1800000000000000000000000000000000000000000000000000000000",
            "0x0000000000000000000000000000000000000000000000000000000000000000",
            "0x0000000000000000000000004e42265d34ce4b0d49014c480d0d38485154375b"
          ],
          "data": "0x",
          "blockHash": "0x6753ca2164c17f88dd57becafcaacc381e17baadf0433cbba0c0d4093390c947",
          "blockNumber": "0x514c1c",
          "transactionHash": "0x2cf9251fbb6d9bf55bc4fbecdb3fbd7c2bd6ba3cca6d73642e01797d195e4913",
          "transactionIndex": "0x37",
          "logIndex": "0x66",
          "removed": false
        },
        {
          "address": "0x8F071320A60E4Aac7dA5FBA5F201F9bcc66f86e9",
          "topics": [
            "0xf1a5d3e66660bd9e7b8ebd2a61970410ac63e9e1a874ebb0e0396cd4b41ac125",
            "0x0d29e4c000000000000000000000000000000000000000000000000000000000",
            "0x0000000000000000000000000000000000000000000000000000000000000000",
            "0x0000000000000000000000004e42265d34ce4b0d49014c480d0d38485154375b"
          ],
          "data": "0x",
          "blockHash": "0x6753ca2164c17f88dd57becafcaacc381e17baadf0433cbba0c0d4093390c947",
          "blockNumber": "0x514c1c",
          "transactionHash": "0x2cf9251fbb6d9bf55bc4fbecdb3fbd7c2bd6ba3cca6d73642e01797d195e4913",
          "transactionIndex": "0x37",
          "logIndex": "0x67",
          "removed": false
        },
        {
          "address": "0x8F071320A60E4Aac7dA5FBA5F201F9bcc66f86e9",
          "topics": [
            "0xf1a5d3e66660bd9e7b8ebd2a61970410ac63e9e1a874ebb0e0396cd4b41ac125",
            "0x5aee048e00000000000000000000000000000000000000000000000000000000",
            "0x0000000000000000000000000000000000000000000000000000000000000000",
            "0x0000000000000000000000004e42265d34ce4b0d49014c480d0d38485154375b"
          ],
          "data": "0x",
          "blockHash": "0x6753ca2164c17f88dd57becafcaacc381e17baadf0433cbba0c0d4093390c947",
          "blockNumber": "0x514c1c",
          "transactionHash": "0x2cf9251fbb6d9bf55bc4fbecdb3fbd7c2bd6ba3cca6d73642e01797d195e4913",
          "transactionIndex": "0x37",
          "logIndex": "0x68",
          "removed": false
        },
        {
          "address": "0x8F071320A60E4Aac7dA5FBA5F201F9bcc66f86e9",
          "topics": [
            "0xf1a5d3e66660bd9e7b8ebd2a61970410ac63e9e1a874ebb0e0396cd4b41ac125",
            "0x87c7a30f00000000000000000000000000000000000000000000000000000000",
            "0x0000000000000000000000000000000000000000000000000000000000000000",
            "0x00000000000000000000000065b6e79d72bb53969a58ac28aaa32ba2cf6a6ae2"
          ],
          "data": "0x",
          "blockHash": "0x6753ca2164c17f88dd57becafcaacc381e17baadf0433cbba0c0d4093390c947",
          "blockNumber": "0x514c1c",
          "transactionHash": "0x2cf9251fbb6d9bf55bc4fbecdb3fbd7c2bd6ba3cca6d73642e01797d195e4913",
          "transactionIndex": "0x37",
          "logIndex": "0x69",
          "removed": false
        },
        {
          "address": "0x8F071320A60E4Aac7dA5FBA5F201F9bcc66f86e9",
          "topics": [
            "0xf1a5d3e66660bd9e7b8ebd2a61970410ac63e9e1a874ebb0e0396cd4b41ac125",
            "0x1b5bba6a00000000000000000000000000000000000000000000000000000000",
            "0x0000000000000000000000000000000000000000000000000000000000000000",
            "0x00000000000000000000000065b6e79d72bb53969a58ac28aaa32ba2cf6a6ae2"
          ],
          "data": "0x",
          "blockHash": "0x6753ca2164c17f88dd57becafcaacc381e17baadf0433cbba0c0d4093390c947",
          "blockNumber": "0x514c1c",
          "transactionHash": "0x2cf9251fbb6d9bf55bc4fbecdb3fbd7c2bd6ba3cca6d73642e01797d195e4913",
          "transactionIndex": "0x37",
          "logIndex": "0x6a",
          "removed": false
        },
        {
          "address": "0x8F071320A60E4Aac7dA5FBA5F201F9bcc66f86e9",
          "topics": [
            "0xf1a5d3e66660bd9e7b8ebd2a61970410ac63e9e1a874ebb0e0396cd4b41ac125",
            "0xe0c95a8400000000000000000000000000000000000000000000000000000000",
            "0x0000000000000000000000000000000000000000000000000000000000000000",
            "0x000000000000000000000000ceeaec9dc4055e05c7a9e7b7a72e556eb7456cb4"
          ],
          "data": "0x",
          "blockHash": "0x6753ca2164c17f88dd57becafcaacc381e17baadf0433cbba0c0d4093390c947",
          "blockNumber": "0x514c1c",
          "transactionHash": "0x2cf9251fbb6d9bf55bc4fbecdb3fbd7c2bd6ba3cca6d73642e01797d195e4913",
          "transactionIndex": "0x37",
          "logIndex": "0x6b",
          "removed": false
        },
        {
          "address": "0x8F071320A60E4Aac7dA5FBA5F201F9bcc66f86e9",
          "topics": [
            "0xf1a5d3e66660bd9e7b8ebd2a61970410ac63e9e1a874ebb0e0396cd4b41ac125",
            "0x073bca3400000000000000000000000000000000000000000000000000000000",
            "0x0000000000000000000000000000000000000000000000000000000000000000",
            "0x000000000000000000000000ceeaec9dc4055e05c7a9e7b7a72e556eb7456cb4"
          ],
          "data": "0x",
          "blockHash": "0x6753ca2164c17f88dd57becafcaacc381e17baadf0433cbba0c0d4093390c947",
          "blockNumber": "0x514c1c",
          "transactionHash": "0x2cf9251fbb6d9bf55bc4fbecdb3fbd7c2bd6ba3cca6d73642e01797d195e4913",
          "transactionIndex": "0x37",
          "logIndex": "0x6c",
          "removed": false
        },
        {
          "address": "0x8F071320A60E4Aac7dA5FBA5F201F9bcc66f86e9",
          "topics": [
            "0x70c1bbcf050e5b1587aabe97f0ba5633e67e187e67be1143cab0479dc75b81e7",
            "0xfd45ddde6135ec42000000000000000000000000000000000000000000000000",
            "0x00000000000000000000000065a3870f48b5237f27f674ec42ea1e017e111d63"
          ],
          "data": "0x",
          "blockHash": "0x6753ca2164c17f88dd57becafcaacc381e17baadf0433cbba0c0d4093390c947",
          "blockNumber": "0x514c1c",
          "transactionHash": "0x2cf9251fbb6d9bf55bc4fbecdb3fbd7c2bd6ba3cca6d73642e01797d195e4913",
          "transactionIndex": "0x37",
          "logIndex": "0x6d",
          "removed": false
        },
        {
          "address": "0x8F071320A60E4Aac7dA5FBA5F201F9bcc66f86e9",
          "topics": [
            "0x70c1bbcf050e5b1587aabe97f0ba5633e67e187e67be1143cab0479dc75b81e7",
            "0xfd45ddde6135ec42000000000000000000000000000000000000000000000000",
            "0x00000000000000000000000055045da52be49461af91a235e4303d4a9b2312ae"
          ],
          "data": "0x",
          "blockHash": "0x6753ca2164c17f88dd57becafcaacc381e17baadf0433cbba0c0d4093390c947",
          "blockNumber": "0x514c1c",
          "transactionHash": "0x2cf9251fbb6d9bf55bc4fbecdb3fbd7c2bd6ba3cca6d73642e01797d195e4913",
          "transactionIndex": "0x37",
          "logIndex": "0x6e",
          "removed": false
        },
        {
          "address": "0x8F071320A60E4Aac7dA5FBA5F201F9bcc66f86e9",
          "topics": [
            "0x8be0079c531659141344cd1fd0a4f28419497f9722a3daafe3b4186f6b6457e0",
            "0x0000000000000000000000002c333bd1316ce1af9ebf017a595d6f8ab5f6bd1a",
            "0x000000000000000000000000fc29edce481c4d7d2cda4c0ad6bf6c5fcf128704"
          ],
          "data": "0x",
          "blockHash": "0x6753ca2164c17f88dd57becafcaacc381e17baadf0433cbba0c0d4093390c947",
          "blockNumber": "0x514c1c",
          "transactionHash": "0x2cf9251fbb6d9bf55bc4fbecdb3fbd7c2bd6ba3cca6d73642e01797d195e4913",
          "transactionIndex": "0x37",
          "logIndex": "0x6f",
          "removed": false
        },
        {
          "address": "0x8F071320A60E4Aac7dA5FBA5F201F9bcc66f86e9",
          "topics": [
            "0x5daa87a0e9463431830481fd4b6e3403442dfb9a12b9c07597e9f61d50b633c8"
          ],
          "data": "0x",
          "blockHash": "0x6753ca2164c17f88dd57becafcaacc381e17baadf0433cbba0c0d4093390c947",
          "blockNumber": "0x514c1c",
          "transactionHash": "0x2cf9251fbb6d9bf55bc4fbecdb3fbd7c2bd6ba3cca6d73642e01797d195e4913",
          "transactionIndex": "0x37",
          "logIndex": "0x70",
          "removed": false
        }
      ],
      "status": "0x1",
      "logsBloom": "0x00a00000280000000080000008080000400000000000800001800000000000000000000000800200401000000000000001000400000001000000002000100100000010000001000000000020100002000041000000000004000804002000000000040080020000400000000000000800004000000000000000000000201000400000008000004000080000000000010000000000001000000080000000000008000020000000000004000040000000000000000000200004000000000004020400001020200000000002000000840000010006040000000000000000200021000001010100020000000040002000000001080060000002140000000000012000",
      "type": "0x2",
      "effectiveGasPrice": "0x38770617e"
    }
  ],
  "libraries": [],
  "pending": [],
  "returns": {},
  "timestamp": 1708439550,
  "chain": 11155111,
  "multi": false,
  "commit": "b4034c2"
}