{
  "transactions": [
    {
      "hash": "0x2ecaca7b4a86533099a45c3b537ca4272ab2d1238d3ca8562eadb02520dae69d",
      "transactionType": "CALL",
      "contractName": null,
      "contractAddress": "0x2C333bd1316cE1aF9EBF017a595D6f8AB5f6BD1A",
      "function": "createERC1155(address,bytes32,address,string,string,bytes)",
      "arguments": [
        "0x053809DFdd2443616d324c93e1DFC6a2076F976B",
        "0x0000000000000000000000000000000000000000000000000000000000000000",
        "0xfC29eDCe481c4D7D2CDa4c0Ad6bF6C5Fcf128704",
        "\"NPC Trait\"",
        "\"NPCT\"",
        "0xac9650d80000000000000000000000000000000000000000000000000000000000000020000000000000000000000000000000000000000000000000000000000000000a000000000000000000000000000000000000000000000000000000000000014000000000000000000000000000000000000000000000000000000000000001c0000000000000000000000000000000000000000000000000000000000000024000000000000000000000000000000000000000000000000000000000000002c0000000000000000000000000000000000000000000000000000000000000034000000000000000000000000000000000000000000000000000000000000003c0000000000000000000000000000000000000000000000000000000000000044000000000000000000000000000000000000000000000000000000000000004c0000000000000000000000000000000000000000000000000000000000000054000000000000000000000000000000000000000000000000000000000000005c000000000000000000000000000000000000000000000000000000000000000440439a74a6bced38a000000000000000000000000000000000000000000000000000000000000000000000000000000004e42265d34ce4b0d49014c480d0d38485154375b0000000000000000000000000000000000000000000000000000000000000000000000000000000000000000000000000000000000000000000000440439a74a251faf18000000000000000000000000000000000000000000000000000000000000000000000000000000004e42265d34ce4b0d49014c480d0d38485154375b0000000000000000000000000000000000000000000000000000000000000000000000000000000000000000000000000000000000000000000000440439a74a0d29e4c0000000000000000000000000000000000000000000000000000000000000000000000000000000004e42265d34ce4b0d49014c480d0d38485154375b0000000000000000000000000000000000000000000000000000000000000000000000000000000000000000000000000000000000000000000000440439a74a5aee048e000000000000000000000000000000000000000000000000000000000000000000000000000000004e42265d34ce4b0d49014c480d0d38485154375b0000000000000000000000000000000000000000000000000000000000000000000000000000000000000000000000000000000000000000000000440439a74a87c7a30f0000000000000000000000000000000000000000000000000000000000000000000000000000000065b6e79d72bb53969a58ac28aaa32ba2cf6a6ae20000000000000000000000000000000000000000000000000000000000000000000000000000000000000000000000000000000000000000000000440439a74a1b5bba6a0000000000000000000000000000000000000000000000000000000000000000000000000000000065b6e79d72bb53969a58ac28aaa32ba2cf6a6ae20000000000000000000000000000000000000000000000000000000000000000000000000000000000000000000000000000000000000000000000440439a74ae0c95a84000000000000000000000000000000000000000000000000000000000000000000000000000000007ee95388abc3b500667d7feb70d70c97280145980000000000000000000000000000000000000000000000000000000000000000000000000000000000000000000000000000000000000000000000440439a74a073bca34000000000000000000000000000000000000000000000000000000000000000000000000000000007ee95388abc3b500667d7feb70d70c9728014598000000000000000000000000000000000000000000000000000000000000000000000000000000000000000000000000000000000000000000000044c2593dc7fd45ddde6135ec4200000000000000000000000000000000000000000000000000000000000000000000000065a3870f48b5237f27f674ec42ea1e017e111d63000000000000000000000000000000000000000000000000000000000000000000000000000000000000000000000000000000000000000000000044c2593dc7fd45ddde6135ec4200000000000000000000000000000000000000000000000000000000000000000000000055045da52be49461af91a235e4303d4a9b2312ae00000000000000000000000000000000000000000000000000000000"
      ],
      "transaction": {
        "type": "0x02",
        "from": "0xfc29edce481c4d7d2cda4c0ad6bf6c5fcf128704",
        "to": "0x2c333bd1316ce1af9ebf017a595d6f8ab5f6bd1a",
        "gas": "0xe5611",
        "value": "0x0",
        "data": "0x40c06536000000000000000000000000053809dfdd2443616d324c93e1dfc6a2076f976b0000000000000000000000000000000000000000000000000000000000000000000000000000000000000000fc29edce481c4d7d2cda4c0ad6bf6c5fcf12870400000000000000000000000000000000000000000000000000000000000000c00000000000000000000000000000000000000000000000000000000000000100000000000000000000000000000000000000000000000000000000000000014000000000000000000000000000000000000000000000000000000000000000094e5043205472616974000000000000000000000000000000000000000000000000000000000000000000000000000000000000000000000000000000000000044e504354000000000000000000000000000000000000000000000000000000000000000000000000000000000000000000000000000000000000000000000684ac9650d80000000000000000000000000000000000000000000000000000000000000020000000000000000000000000000000000000000000000000000000000000000a000000000000000000000000000000000000000000000000000000000000014000000000000000000000000000000000000000000000000000000000000001c0000000000000000000000000000000000000000000000000000000000000024000000000000000000000000000000000000000000000000000000000000002c0000000000000000000000000000000000000000000000000000000000000034000000000000000000000000000000000000000000000000000000000000003c0000000000000000000000000000000000000000000000000000000000000044000000000000000000000000000000000000000000000000000000000000004c0000000000000000000000000000000000000000000000000000000000000054000000000000000000000000000000000000000000000000000000000000005c000000000000000000000000000000000000000000000000000000000000000440439a74a6bced38a000000000000000000000000000000000000000000000000000000000000000000000000000000004e42265d34ce4b0d49014c480d0d38485154375b0000000000000000000000000000000000000000000000000000000000000000000000000000000000000000000000000000000000000000000000440439a74a251faf18000000000000000000000000000000000000000000000000000000000000000000000000000000004e42265d34ce4b0d49014c480d0d38485154375b0000000000000000000000000000000000000000000000000000000000000000000000000000000000000000000000000000000000000000000000440439a74a0d29e4c0000000000000000000000000000000000000000000000000000000000000000000000000000000004e42265d34ce4b0d49014c480d0d38485154375b0000000000000000000000000000000000000000000000000000000000000000000000000000000000000000000000000000000000000000000000440439a74a5aee048e000000000000000000000000000000000000000000000000000000000000000000000000000000004e42265d34ce4b0d49014c480d0d38485154375b0000000000000000000000000000000000000000000000000000000000000000000000000000000000000000000000000000000000000000000000440439a74a87c7a30f0000000000000000000000000000000000000000000000000000000000000000000000000000000065b6e79d72bb53969a58ac28aaa32ba2cf6a6ae20000000000000000000000000000000000000000000000000000000000000000000000000000000000000000000000000000000000000000000000440439a74a1b5bba6a0000000000000000000000000000000000000000000000000000000000000000000000000000000065b6e79d72bb53969a58ac28aaa32ba2cf6a6ae20000000000000000000000000000000000000000000000000000000000000000000000000000000000000000000000000000000000000000000000440439a74ae0c95a84000000000000000000000000000000000000000000000000000000000000000000000000000000007ee95388abc3b500667d7feb70d70c97280145980000000000000000000000000000000000000000000000000000000000000000000000000000000000000000000000000000000000000000000000440439a74a073bca34000000000000000000000000000000000000000000000000000000000000000000000000000000007ee95388abc3b500667d7feb70d70c9728014598000000000000000000000000000000000000000000000000000000000000000000000000000000000000000000000000000000000000000000000044c2593dc7fd45ddde6135ec4200000000000000000000000000000000000000000000000000000000000000000000000065a3870f48b5237f27f674ec42ea1e017e111d63000000000000000000000000000000000000000000000000000000000000000000000000000000000000000000000000000000000000000000000044c2593dc7fd45ddde6135ec4200000000000000000000000000000000000000000000000000000000000000000000000055045da52be49461af91a235e4303d4a9b2312ae0000000000000000000000000000000000000000000000000000000000000000000000000000000000000000000000000000000000000000",
        "nonce": "0x7b",
        "accessList": []
      },
      "additionalContracts": [
        {
          "transactionType": "CREATE2",
          "address": "0x9A349CF5F69c12423111b729564D43022eC875F1",
          "initCode": "0x60806040526040516104e13803806104e1833981016040819052610022916102de565b61002e82826000610035565b50506103fb565b61003e83610061565b60008251118061004b5750805b1561005c5761005a83836100a1565b505b505050565b61006a816100cd565b6040516001600160a01b038216907fbc7cd75a20ee27fd9adebab32041f755214dbc6bffa90cc0225b39da2e5c2d3b90600090a250565b60606100c683836040518060600160405280602781526020016104ba60279139610180565b9392505050565b6001600160a01b0381163b61013f5760405162461bcd60e51b815260206004820152602d60248201527f455243313936373a206e657720696d706c656d656e746174696f6e206973206e60448201526c1bdd08184818dbdb9d1c9858dd609a1b60648201526084015b60405180910390fd5b7f360894a13ba1a3210667c828492db98dca3e2076cc3735a920a3ca505d382bbc80546001600160a01b0319166001600160a01b0392909216919091179055565b6060600080856001600160a01b03168560405161019d91906103ac565b600060405180830381855af49150503d80600081146101d8576040519150601f19603f3d011682016040523d82523d6000602084013e6101dd565b606091505b5090925090506101ef868383876101f9565b9695505050505050565b60608315610268578251600003610261576001600160a01b0385163b6102615760405162461bcd60e51b815260206004820152601d60248201527f416464726573733a2063616c6c20746f206e6f6e2d636f6e74726163740000006044820152606401610136565b5081610272565b610272838361027a565b949350505050565b81511561028a5781518083602001fd5b8060405162461bcd60e51b815260040161013691906103c8565b634e487b7160e01b600052604160045260246000fd5b60005b838110156102d55781810151838201526020016102bd565b50506000910152565b600080604083850312156102f157600080fd5b82516001600160a01b038116811461030857600080fd5b60208401519092506001600160401b038082111561032557600080fd5b818501915085601f83011261033957600080fd5b81518181111561034b5761034b6102a4565b604051601f8201601f19908116603f01168101908382118183101715610373576103736102a4565b8160405282815288602084870101111561038c57600080fd5b61039d8360208301602088016102ba565b80955050505050509250929050565b600082516103be8184602087016102ba565b9190910192915050565b60208152600082518060208401526103e78160408501602087016102ba565b601f01601f19169190910160400192915050565b60b1806104096000396000f3fe608060405236601057600e6013565b005b600e5b601f601b6021565b6058565b565b600060537f360894a13ba1a3210667c828492db98dca3e2076cc3735a920a3ca505d382bbc546001600160a01b031690565b905090565b3660008037600080366000845af43d6000803e8080156076573d6000f35b3d6000fdfea2646970667358221220ec84ce9443891f3a401aa6c956ca0ef59ce333eda614fa39e8d1f78f30de3ed264736f6c63430008130033416464726573733a206c6f772d6c6576656c2064656c65676174652063616c6c206661696c6564000000000000000000000000053809dfdd2443616d324c93e1dfc6a2076f976b00000000000000000000000000000000000000000000000000000000000000400000000000000000000000000000000000000000000000000000000000000000"
        }
      ],
      "isFixedGasLimit": false
    }
  ],
  "receipts": [],
  "libraries": [],
  "pending": [
    "0x2ecaca7b4a86533099a45c3b537ca4272ab2d1238d3ca8562eadb02520dae69d"
  ],
  "returns": {},
  "timestamp": 1709769995,
  "chain": 11155111,
  "multi": false,
  "commit": "e390df5"
}