{
  "transactions": [
    {
      "hash": "0x9337aeae686fe60ef8b641c617d57160773845a05899c12ad91e60cf3a9f5a6b",
      "transactionType": "CALL",
      "contractName": null,
      "contractAddress": "0x43fB252f9E2C64e532aB879B2153d6B717dE1C43",
      "function": "createERC721(address,bytes32,address,string,string,bytes)",
      "arguments": [
        "0xb43401Be3d96E22b259EFB0656d6aDaBE5Eaa6cF",
        "0x0000000000000000000000000000000000000000000000000000000000000000",
        "0xfC29eDCe481c4D7D2CDa4c0Ad6bF6C5Fcf128704",
        "\"Noun Citizens\"",
        "\"NPC\"",
        "0xac9650d80000000000000000000000000000000000000000000000000000000000000020000000000000000000000000000000000000000000000000000000000000000500000000000000000000000000000000000000000000000000000000000000a0000000000000000000000000000000000000000000000000000000000000012000000000000000000000000000000000000000000000000000000000000001a0000000000000000000000000000000000000000000000000000000000000022000000000000000000000000000000000000000000000000000000000000002a000000000000000000000000000000000000000000000000000000000000000440439a74a522cd59f00000000000000000000000000000000000000000000000000000000000000000000000000000000232f550a04e7bc128f5850a7eb8aafe60f3a3fae0000000000000000000000000000000000000000000000000000000000000000000000000000000000000000000000000000000000000000000000440439a74a073bca3400000000000000000000000000000000000000000000000000000000000000000000000000000000232f550a04e7bc128f5850a7eb8aafe60f3a3fae0000000000000000000000000000000000000000000000000000000000000000000000000000000000000000000000000000000000000000000000440439a74a8638c44900000000000000000000000000000000000000000000000000000000000000000000000000000000232f550a04e7bc128f5850a7eb8aafe60f3a3fae000000000000000000000000000000000000000000000000000000000000000000000000000000000000000000000000000000000000000000000044c2593dc7fd45ddde6135ec4200000000000000000000000000000000000000000000000000000000000000000000000065a3870f48b5237f27f674ec42ea1e017e111d63000000000000000000000000000000000000000000000000000000000000000000000000000000000000000000000000000000000000000000000044c2593dc7fd45ddde6135ec4200000000000000000000000000000000000000000000000000000000000000000000000055045da52be49461af91a235e4303d4a9b2312ae00000000000000000000000000000000000000000000000000000000"
      ],
      "transaction": {
        "type": "0x02",
        "from": "0xfc29edce481c4d7d2cda4c0ad6bf6c5fcf128704",
        "to": "0x43fb252f9e2c64e532ab879b2153d6b717de1c43",
        "gas": "0xb7297",
        "value": "0x0",
        "data": "0xab18fd3a000000000000000000000000b43401be3d96e22b259efb0656d6adabe5eaa6cf0000000000000000000000000000000000000000000000000000000000000000000000000000000000000000fc29edce481c4d7d2cda4c0ad6bf6c5fcf12870400000000000000000000000000000000000000000000000000000000000000c000000000000000000000000000000000000000000000000000000000000001000000000000000000000000000000000000000000000000000000000000000140000000000000000000000000000000000000000000000000000000000000000d4e6f756e20436974697a656e730000000000000000000000000000000000000000000000000000000000000000000000000000000000000000000000000000034e504300000000000000000000000000000000000000000000000000000000000000000000000000000000000000000000000000000000000000000000000364ac9650d80000000000000000000000000000000000000000000000000000000000000020000000000000000000000000000000000000000000000000000000000000000500000000000000000000000000000000000000000000000000000000000000a0000000000000000000000000000000000000000000000000000000000000012000000000000000000000000000000000000000000000000000000000000001a0000000000000000000000000000000000000000000000000000000000000022000000000000000000000000000000000000000000000000000000000000002a000000000000000000000000000000000000000000000000000000000000000440439a74a522cd59f00000000000000000000000000000000000000000000000000000000000000000000000000000000232f550a04e7bc128f5850a7eb8aafe60f3a3fae0000000000000000000000000000000000000000000000000000000000000000000000000000000000000000000000000000000000000000000000440439a74a073bca3400000000000000000000000000000000000000000000000000000000000000000000000000000000232f550a04e7bc128f5850a7eb8aafe60f3a3fae0000000000000000000000000000000000000000000000000000000000000000000000000000000000000000000000000000000000000000000000440439a74a8638c44900000000000000000000000000000000000000000000000000000000000000000000000000000000232f550a04e7bc128f5850a7eb8aafe60f3a3fae000000000000000000000000000000000000000000000000000000000000000000000000000000000000000000000000000000000000000000000044c2593dc7fd45ddde6135ec4200000000000000000000000000000000000000000000000000000000000000000000000065a3870f48b5237f27f674ec42ea1e017e111d63000000000000000000000000000000000000000000000000000000000000000000000000000000000000000000000000000000000000000000000044c2593dc7fd45ddde6135ec4200000000000000000000000000000000000000000000000000000000000000000000000055045da52be49461af91a235e4303d4a9b2312ae0000000000000000000000000000000000000000000000000000000000000000000000000000000000000000000000000000000000000000",
        "nonce": "0x18",
        "accessList": []
      },
      "additionalContracts": [
        {
          "transactionType": "CREATE2",
          "address": "0x0AEA8ce800c5609e61E799648195620d1B62B3fd",
          "initCode": "0x60806040526040516104e13803806104e1833981016040819052610022916102de565b61002e82826000610035565b50506103fb565b61003e83610061565b60008251118061004b5750805b1561005c5761005a83836100a1565b505b505050565b61006a816100cd565b6040516001600160a01b038216907fbc7cd75a20ee27fd9adebab32041f755214dbc6bffa90cc0225b39da2e5c2d3b90600090a250565b60606100c683836040518060600160405280602781526020016104ba60279139610180565b9392505050565b6001600160a01b0381163b61013f5760405162461bcd60e51b815260206004820152602d60248201527f455243313936373a206e657720696d706c656d656e746174696f6e206973206e60448201526c1bdd08184818dbdb9d1c9858dd609a1b60648201526084015b60405180910390fd5b7f360894a13ba1a3210667c828492db98dca3e2076cc3735a920a3ca505d382bbc80546001600160a01b0319166001600160a01b0392909216919091179055565b6060600080856001600160a01b03168560405161019d91906103ac565b600060405180830381855af49150503d80600081146101d8576040519150601f19603f3d011682016040523d82523d6000602084013e6101dd565b606091505b5090925090506101ef868383876101f9565b9695505050505050565b60608315610268578251600003610261576001600160a01b0385163b6102615760405162461bcd60e51b815260206004820152601d60248201527f416464726573733a2063616c6c20746f206e6f6e2d636f6e74726163740000006044820152606401610136565b5081610272565b610272838361027a565b949350505050565b81511561028a5781518083602001fd5b8060405162461bcd60e51b815260040161013691906103c8565b634e487b7160e01b600052604160045260246000fd5b60005b838110156102d55781810151838201526020016102bd565b50506000910152565b600080604083850312156102f157600080fd5b82516001600160a01b038116811461030857600080fd5b60208401519092506001600160401b038082111561032557600080fd5b818501915085601f83011261033957600080fd5b81518181111561034b5761034b6102a4565b604051601f8201601f19908116603f01168101908382118183101715610373576103736102a4565b8160405282815288602084870101111561038c57600080fd5b61039d8360208301602088016102ba565b80955050505050509250929050565b600082516103be8184602087016102ba565b9190910192915050565b60208152600082518060208401526103e78160408501602087016102ba565b601f01601f19169190910160400192915050565b60b1806104096000396000f3fe608060405236601057600e6013565b005b600e5b601f601b6021565b6058565b565b600060537f360894a13ba1a3210667c828492db98dca3e2076cc3735a920a3ca505d382bbc546001600160a01b031690565b905090565b3660008037600080366000845af43d6000803e8080156076573d6000f35b3d6000fdfea26469706673582212201d79509bc8e865d1c40a20739cbc70317ca4845a244cf14aaa87002755f2b09a64736f6c63430008180033416464726573733a206c6f772d6c6576656c2064656c65676174652063616c6c206661696c6564000000000000000000000000b43401be3d96e22b259efb0656d6adabe5eaa6cf00000000000000000000000000000000000000000000000000000000000000400000000000000000000000000000000000000000000000000000000000000000"
        }
      ],
      "isFixedGasLimit": false
    },
    {
      "hash": "0x9761d1966419175deabe1c42fef1c157dde98cf8722f8b80412f22177936b6b4",
      "transactionType": "CALL",
      "contractName": null,
      "contractAddress": "0x43fB252f9E2C64e532aB879B2153d6B717dE1C43",
      "function": "createERC1155(address,bytes32,address,string,string,bytes)",
      "arguments": [
        "0x558eAd6671fdE2563bBB2AE454765904879aAdC6",
        "0x0000000000000000000000000000000000000000000000000000000000000000",
        "0xfC29eDCe481c4D7D2CDa4c0Ad6bF6C5Fcf128704",
        "\"NPC Trait\"",
        "\"NPCT\"",
        "0xac9650d80000000000000000000000000000000000000000000000000000000000000020000000000000000000000000000000000000000000000000000000000000000b000000000000000000000000000000000000000000000000000000000000016000000000000000000000000000000000000000000000000000000000000001e0000000000000000000000000000000000000000000000000000000000000026000000000000000000000000000000000000000000000000000000000000002e0000000000000000000000000000000000000000000000000000000000000036000000000000000000000000000000000000000000000000000000000000003e0000000000000000000000000000000000000000000000000000000000000046000000000000000000000000000000000000000000000000000000000000004e0000000000000000000000000000000000000000000000000000000000000056000000000000000000000000000000000000000000000000000000000000005e0000000000000000000000000000000000000000000000000000000000000066000000000000000000000000000000000000000000000000000000000000000440439a74a6bced38a0000000000000000000000000000000000000000000000000000000000000000000000000000000095ad1fa839105fccc699fa0a38c644cbfd30599e0000000000000000000000000000000000000000000000000000000000000000000000000000000000000000000000000000000000000000000000440439a74a251faf180000000000000000000000000000000000000000000000000000000000000000000000000000000095ad1fa839105fccc699fa0a38c644cbfd30599e0000000000000000000000000000000000000000000000000000000000000000000000000000000000000000000000000000000000000000000000440439a74a0d29e4c00000000000000000000000000000000000000000000000000000000000000000000000000000000095ad1fa839105fccc699fa0a38c644cbfd30599e0000000000000000000000000000000000000000000000000000000000000000000000000000000000000000000000000000000000000000000000440439a74a5aee048e0000000000000000000000000000000000000000000000000000000000000000000000000000000095ad1fa839105fccc699fa0a38c644cbfd30599e0000000000000000000000000000000000000000000000000000000000000000000000000000000000000000000000000000000000000000000000440439a74a87c7a30f0000000000000000000000000000000000000000000000000000000000000000000000000000000092ee25b0f5abe7e9477d357314bf5ffd8cd52c1f0000000000000000000000000000000000000000000000000000000000000000000000000000000000000000000000000000000000000000000000440439a74a1b5bba6a0000000000000000000000000000000000000000000000000000000000000000000000000000000092ee25b0f5abe7e9477d357314bf5ffd8cd52c1f0000000000000000000000000000000000000000000000000000000000000000000000000000000000000000000000000000000000000000000000440439a74ae0c95a840000000000000000000000000000000000000000000000000000000000000000000000000000000035ae03b8a2862b2add7cd7730a51077240c46a1e0000000000000000000000000000000000000000000000000000000000000000000000000000000000000000000000000000000000000000000000440439a74a8638c4490000000000000000000000000000000000000000000000000000000000000000000000000000000035ae03b8a2862b2add7cd7730a51077240c46a1e0000000000000000000000000000000000000000000000000000000000000000000000000000000000000000000000000000000000000000000000440439a74a073bca340000000000000000000000000000000000000000000000000000000000000000000000000000000035ae03b8a2862b2add7cd7730a51077240c46a1e000000000000000000000000000000000000000000000000000000000000000000000000000000000000000000000000000000000000000000000044c2593dc7fd45ddde6135ec4200000000000000000000000000000000000000000000000000000000000000000000000065a3870f48b5237f27f674ec42ea1e017e111d63000000000000000000000000000000000000000000000000000000000000000000000000000000000000000000000000000000000000000000000044c2593dc7fd45ddde6135ec4200000000000000000000000000000000000000000000000000000000000000000000000055045da52be49461af91a235e4303d4a9b2312ae00000000000000000000000000000000000000000000000000000000"
      ],
      "transaction": {
        "type": "0x02",
        "from": "0xfc29edce481c4d7d2cda4c0ad6bf6c5fcf128704",
        "to": "0x43fb252f9e2c64e532ab879b2153d6b717de1c43",
        "gas": "0xf39fe",
        "value": "0x0",
        "data": "0x40c06536000000000000000000000000558ead6671fde2563bbb2ae454765904879aadc60000000000000000000000000000000000000000000000000000000000000000000000000000000000000000fc29edce481c4d7d2cda4c0ad6bf6c5fcf12870400000000000000000000000000000000000000000000000000000000000000c00000000000000000000000000000000000000000000000000000000000000100000000000000000000000000000000000000000000000000000000000000014000000000000000000000000000000000000000000000000000000000000000094e5043205472616974000000000000000000000000000000000000000000000000000000000000000000000000000000000000000000000000000000000000044e504354000000000000000000000000000000000000000000000000000000000000000000000000000000000000000000000000000000000000000000000724ac9650d80000000000000000000000000000000000000000000000000000000000000020000000000000000000000000000000000000000000000000000000000000000b000000000000000000000000000000000000000000000000000000000000016000000000000000000000000000000000000000000000000000000000000001e0000000000000000000000000000000000000000000000000000000000000026000000000000000000000000000000000000000000000000000000000000002e0000000000000000000000000000000000000000000000000000000000000036000000000000000000000000000000000000000000000000000000000000003e0000000000000000000000000000000000000000000000000000000000000046000000000000000000000000000000000000000000000000000000000000004e0000000000000000000000000000000000000000000000000000000000000056000000000000000000000000000000000000000000000000000000000000005e0000000000000000000000000000000000000000000000000000000000000066000000000000000000000000000000000000000000000000000000000000000440439a74a6bced38a0000000000000000000000000000000000000000000000000000000000000000000000000000000095ad1fa839105fccc699fa0a38c644cbfd30599e0000000000000000000000000000000000000000000000000000000000000000000000000000000000000000000000000000000000000000000000440439a74a251faf180000000000000000000000000000000000000000000000000000000000000000000000000000000095ad1fa839105fccc699fa0a38c644cbfd30599e0000000000000000000000000000000000000000000000000000000000000000000000000000000000000000000000000000000000000000000000440439a74a0d29e4c00000000000000000000000000000000000000000000000000000000000000000000000000000000095ad1fa839105fccc699fa0a38c644cbfd30599e0000000000000000000000000000000000000000000000000000000000000000000000000000000000000000000000000000000000000000000000440439a74a5aee048e0000000000000000000000000000000000000000000000000000000000000000000000000000000095ad1fa839105fccc699fa0a38c644cbfd30599e0000000000000000000000000000000000000000000000000000000000000000000000000000000000000000000000000000000000000000000000440439a74a87c7a30f0000000000000000000000000000000000000000000000000000000000000000000000000000000092ee25b0f5abe7e9477d357314bf5ffd8cd52c1f0000000000000000000000000000000000000000000000000000000000000000000000000000000000000000000000000000000000000000000000440439a74a1b5bba6a0000000000000000000000000000000000000000000000000000000000000000000000000000000092ee25b0f5abe7e9477d357314bf5ffd8cd52c1f0000000000000000000000000000000000000000000000000000000000000000000000000000000000000000000000000000000000000000000000440439a74ae0c95a840000000000000000000000000000000000000000000000000000000000000000000000000000000035ae03b8a2862b2add7cd7730a51077240c46a1e0000000000000000000000000000000000000000000000000000000000000000000000000000000000000000000000000000000000000000000000440439a74a8638c4490000000000000000000000000000000000000000000000000000000000000000000000000000000035ae03b8a2862b2add7cd7730a51077240c46a1e0000000000000000000000000000000000000000000000000000000000000000000000000000000000000000000000000000000000000000000000440439a74a073bca340000000000000000000000000000000000000000000000000000000000000000000000000000000035ae03b8a2862b2add7cd7730a51077240c46a1e000000000000000000000000000000000000000000000000000000000000000000000000000000000000000000000000000000000000000000000044c2593dc7fd45ddde6135ec4200000000000000000000000000000000000000000000000000000000000000000000000065a3870f48b5237f27f674ec42ea1e017e111d63000000000000000000000000000000000000000000000000000000000000000000000000000000000000000000000000000000000000000000000044c2593dc7fd45ddde6135ec4200000000000000000000000000000000000000000000000000000000000000000000000055045da52be49461af91a235e4303d4a9b2312ae0000000000000000000000000000000000000000000000000000000000000000000000000000000000000000000000000000000000000000",
        "nonce": "0x19",
        "accessList": []
      },
      "additionalContracts": [
        {
          "transactionType": "CREATE2",
          "address": "0xb185d82B82257994c4f252Cc094385657370083b",
          "initCode": "0x60806040526040516104e13803806104e1833981016040819052610022916102de565b61002e82826000610035565b50506103fb565b61003e83610061565b60008251118061004b5750805b1561005c5761005a83836100a1565b505b505050565b61006a816100cd565b6040516001600160a01b038216907fbc7cd75a20ee27fd9adebab32041f755214dbc6bffa90cc0225b39da2e5c2d3b90600090a250565b60606100c683836040518060600160405280602781526020016104ba60279139610180565b9392505050565b6001600160a01b0381163b61013f5760405162461bcd60e51b815260206004820152602d60248201527f455243313936373a206e657720696d706c656d656e746174696f6e206973206e60448201526c1bdd08184818dbdb9d1c9858dd609a1b60648201526084015b60405180910390fd5b7f360894a13ba1a3210667c828492db98dca3e2076cc3735a920a3ca505d382bbc80546001600160a01b0319166001600160a01b0392909216919091179055565b6060600080856001600160a01b03168560405161019d91906103ac565b600060405180830381855af49150503d80600081146101d8576040519150601f19603f3d011682016040523d82523d6000602084013e6101dd565b606091505b5090925090506101ef868383876101f9565b9695505050505050565b60608315610268578251600003610261576001600160a01b0385163b6102615760405162461bcd60e51b815260206004820152601d60248201527f416464726573733a2063616c6c20746f206e6f6e2d636f6e74726163740000006044820152606401610136565b5081610272565b610272838361027a565b949350505050565b81511561028a5781518083602001fd5b8060405162461bcd60e51b815260040161013691906103c8565b634e487b7160e01b600052604160045260246000fd5b60005b838110156102d55781810151838201526020016102bd565b50506000910152565b600080604083850312156102f157600080fd5b82516001600160a01b038116811461030857600080fd5b60208401519092506001600160401b038082111561032557600080fd5b818501915085601f83011261033957600080fd5b81518181111561034b5761034b6102a4565b604051601f8201601f19908116603f01168101908382118183101715610373576103736102a4565b8160405282815288602084870101111561038c57600080fd5b61039d8360208301602088016102ba565b80955050505050509250929050565b600082516103be8184602087016102ba565b9190910192915050565b60208152600082518060208401526103e78160408501602087016102ba565b601f01601f19169190910160400192915050565b60b1806104096000396000f3fe608060405236601057600e6013565b005b600e5b601f601b6021565b6058565b565b600060537f360894a13ba1a3210667c828492db98dca3e2076cc3735a920a3ca505d382bbc546001600160a01b031690565b905090565b3660008037600080366000845af43d6000803e8080156076573d6000f35b3d6000fdfea26469706673582212201d79509bc8e865d1c40a20739cbc70317ca4845a244cf14aaa87002755f2b09a64736f6c63430008180033416464726573733a206c6f772d6c6576656c2064656c65676174652063616c6c206661696c6564000000000000000000000000558ead6671fde2563bbb2ae454765904879aadc600000000000000000000000000000000000000000000000000000000000000400000000000000000000000000000000000000000000000000000000000000000"
        }
      ],
      "isFixedGasLimit": false
    }
  ],
  "receipts": [
    {
      "transactionHash": "0x9337aeae686fe60ef8b641c617d57160773845a05899c12ad91e60cf3a9f5a6b",
      "transactionIndex": "0x1",
      "blockHash": "0x86b95c0cc9373403907dad2b3b25909b9916a5070db6e1d5a68a0d32a8ef026a",
      "blockNumber": "0xd1c7b4",
      "from": "0xfC29eDCe481c4D7D2CDa4c0Ad6bF6C5Fcf128704",
      "to": "0x43fB252f9E2C64e532aB879B2153d6B717dE1C43",
      "cumulativeGasUsed": "0x87f98",
      "gasUsed": "0x7d429",
      "contractAddress": null,
      "logs": [
        {
          "address": "0x0AEA8ce800c5609e61E799648195620d1B62B3fd",
          "topics": [
            "0xbc7cd75a20ee27fd9adebab32041f755214dbc6bffa90cc0225b39da2e5c2d3b",
            "0x000000000000000000000000b43401be3d96e22b259efb0656d6adabe5eaa6cf"
          ],
          "data": "0x",
          "blockHash": "0x86b95c0cc9373403907dad2b3b25909b9916a5070db6e1d5a68a0d32a8ef026a",
          "blockNumber": "0xd1c7b4",
          "transactionHash": "0x9337aeae686fe60ef8b641c617d57160773845a05899c12ad91e60cf3a9f5a6b",
          "transactionIndex": "0x1",
          "logIndex": "0x0",
          "removed": false
        },
        {
          "address": "0x43fB252f9E2C64e532aB879B2153d6B717dE1C43",
          "topics": [
            "0x25b1a846e96937f571b6f2a73a73cd1925e5c62f86fa04e12d4e67022e09edec",
            "0x0000000000000000000000000aea8ce800c5609e61e799648195620d1b62b3fd"
          ],
          "data": "0x",
          "blockHash": "0x86b95c0cc9373403907dad2b3b25909b9916a5070db6e1d5a68a0d32a8ef026a",
          "blockNumber": "0xd1c7b4",
          "transactionHash": "0x9337aeae686fe60ef8b641c617d57160773845a05899c12ad91e60cf3a9f5a6b",
          "transactionIndex": "0x1",
          "logIndex": "0x1",
          "removed": false
        },
        {
          "address": "0x0AEA8ce800c5609e61E799648195620d1B62B3fd",
          "topics": [
            "0x9f7688a97f1ac51fe03bac18af18d6810f9f11f0db08c59b1938a9ac825ef744"
          ],
          "data": "0x0000000000000000000000000000000000000000000000000000000000000020000000000000000000000000000000000000000000000000000000000000000d4e6f756e20436974697a656e7300000000000000000000000000000000000000",
          "blockHash": "0x86b95c0cc9373403907dad2b3b25909b9916a5070db6e1d5a68a0d32a8ef026a",
          "blockNumber": "0xd1c7b4",
          "transactionHash": "0x9337aeae686fe60ef8b641c617d57160773845a05899c12ad91e60cf3a9f5a6b",
          "transactionIndex": "0x1",
          "logIndex": "0x2",
          "removed": false
        },
        {
          "address": "0x0AEA8ce800c5609e61E799648195620d1B62B3fd",
          "topics": [
            "0xee007fd2e1891a2f6c8408b57ade5b0550dea71a5a06cc4df7ded4646a4584a5"
          ],
          "data": "0x000000000000000000000000000000000000000000000000000000000000002000000000000000000000000000000000000000000000000000000000000000034e50430000000000000000000000000000000000000000000000000000000000",
          "blockHash": "0x86b95c0cc9373403907dad2b3b25909b9916a5070db6e1d5a68a0d32a8ef026a",
          "blockNumber": "0xd1c7b4",
          "transactionHash": "0x9337aeae686fe60ef8b641c617d57160773845a05899c12ad91e60cf3a9f5a6b",
          "transactionIndex": "0x1",
          "logIndex": "0x3",
          "removed": false
        },
        {
          "address": "0x0AEA8ce800c5609e61E799648195620d1B62B3fd",
          "topics": [
            "0x8be0079c531659141344cd1fd0a4f28419497f9722a3daafe3b4186f6b6457e0",
            "0x0000000000000000000000000000000000000000000000000000000000000000",
            "0x00000000000000000000000043fb252f9e2c64e532ab879b2153d6b717de1c43"
          ],
          "data": "0x",
          "blockHash": "0x86b95c0cc9373403907dad2b3b25909b9916a5070db6e1d5a68a0d32a8ef026a",
          "blockNumber": "0xd1c7b4",
          "transactionHash": "0x9337aeae686fe60ef8b641c617d57160773845a05899c12ad91e60cf3a9f5a6b",
          "transactionIndex": "0x1",
          "logIndex": "0x4",
          "removed": false
        },
        {
          "address": "0x0AEA8ce800c5609e61E799648195620d1B62B3fd",
          "topics": [
            "0xf1a5d3e66660bd9e7b8ebd2a61970410ac63e9e1a874ebb0e0396cd4b41ac125",
            "0x522cd59f00000000000000000000000000000000000000000000000000000000",
            "0x0000000000000000000000000000000000000000000000000000000000000000",
            "0x000000000000000000000000232f550a04e7bc128f5850a7eb8aafe60f3a3fae"
          ],
          "data": "0x",
          "blockHash": "0x86b95c0cc9373403907dad2b3b25909b9916a5070db6e1d5a68a0d32a8ef026a",
          "blockNumber": "0xd1c7b4",
          "transactionHash": "0x9337aeae686fe60ef8b641c617d57160773845a05899c12ad91e60cf3a9f5a6b",
          "transactionIndex": "0x1",
          "logIndex": "0x5",
          "removed": false
        },
        {
          "address": "0x0AEA8ce800c5609e61E799648195620d1B62B3fd",
          "topics": [
            "0xf1a5d3e66660bd9e7b8ebd2a61970410ac63e9e1a874ebb0e0396cd4b41ac125",
            "0x073bca3400000000000000000000000000000000000000000000000000000000",
            "0x0000000000000000000000000000000000000000000000000000000000000000",
            "0x000000000000000000000000232f550a04e7bc128f5850a7eb8aafe60f3a3fae"
          ],
          "data": "0x",
          "blockHash": "0x86b95c0cc9373403907dad2b3b25909b9916a5070db6e1d5a68a0d32a8ef026a",
          "blockNumber": "0xd1c7b4",
          "transactionHash": "0x9337aeae686fe60ef8b641c617d57160773845a05899c12ad91e60cf3a9f5a6b",
          "transactionIndex": "0x1",
          "logIndex": "0x6",
          "removed": false
        },
        {
          "address": "0x0AEA8ce800c5609e61E799648195620d1B62B3fd",
          "topics": [
            "0xf1a5d3e66660bd9e7b8ebd2a61970410ac63e9e1a874ebb0e0396cd4b41ac125",
            "0x8638c44900000000000000000000000000000000000000000000000000000000",
            "0x0000000000000000000000000000000000000000000000000000000000000000",
            "0x000000000000000000000000232f550a04e7bc128f5850a7eb8aafe60f3a3fae"
          ],
          "data": "0x",
          "blockHash": "0x86b95c0cc9373403907dad2b3b25909b9916a5070db6e1d5a68a0d32a8ef026a",
          "blockNumber": "0xd1c7b4",
          "transactionHash": "0x9337aeae686fe60ef8b641c617d57160773845a05899c12ad91e60cf3a9f5a6b",
          "transactionIndex": "0x1",
          "logIndex": "0x7",
          "removed": false
        },
        {
          "address": "0x0AEA8ce800c5609e61E799648195620d1B62B3fd",
          "topics": [
            "0x70c1bbcf050e5b1587aabe97f0ba5633e67e187e67be1143cab0479dc75b81e7",
            "0xfd45ddde6135ec42000000000000000000000000000000000000000000000000",
            "0x00000000000000000000000065a3870f48b5237f27f674ec42ea1e017e111d63"
          ],
          "data": "0x",
          "blockHash": "0x86b95c0cc9373403907dad2b3b25909b9916a5070db6e1d5a68a0d32a8ef026a",
          "blockNumber": "0xd1c7b4",
          "transactionHash": "0x9337aeae686fe60ef8b641c617d57160773845a05899c12ad91e60cf3a9f5a6b",
          "transactionIndex": "0x1",
          "logIndex": "0x8",
          "removed": false
        },
        {
          "address": "0x0AEA8ce800c5609e61E799648195620d1B62B3fd",
          "topics": [
            "0x70c1bbcf050e5b1587aabe97f0ba5633e67e187e67be1143cab0479dc75b81e7",
            "0xfd45ddde6135ec42000000000000000000000000000000000000000000000000",
            "0x00000000000000000000000055045da52be49461af91a235e4303d4a9b2312ae"
          ],
          "data": "0x",
          "blockHash": "0x86b95c0cc9373403907dad2b3b25909b9916a5070db6e1d5a68a0d32a8ef026a",
          "blockNumber": "0xd1c7b4",
          "transactionHash": "0x9337aeae686fe60ef8b641c617d57160773845a05899c12ad91e60cf3a9f5a6b",
          "transactionIndex": "0x1",
          "logIndex": "0x9",
          "removed": false
        },
        {
          "address": "0x0AEA8ce800c5609e61E799648195620d1B62B3fd",
          "topics": [
            "0x8be0079c531659141344cd1fd0a4f28419497f9722a3daafe3b4186f6b6457e0",
            "0x00000000000000000000000043fb252f9e2c64e532ab879b2153d6b717de1c43",
            "0x000000000000000000000000fc29edce481c4d7d2cda4c0ad6bf6c5fcf128704"
          ],
          "data": "0x",
          "blockHash": "0x86b95c0cc9373403907dad2b3b25909b9916a5070db6e1d5a68a0d32a8ef026a",
          "blockNumber": "0xd1c7b4",
          "transactionHash": "0x9337aeae686fe60ef8b641c617d57160773845a05899c12ad91e60cf3a9f5a6b",
          "transactionIndex": "0x1",
          "logIndex": "0xa",
          "removed": false
        },
        {
          "address": "0x0AEA8ce800c5609e61E799648195620d1B62B3fd",
          "topics": [
            "0x5daa87a0e9463431830481fd4b6e3403442dfb9a12b9c07597e9f61d50b633c8"
          ],
          "data": "0x",
          "blockHash": "0x86b95c0cc9373403907dad2b3b25909b9916a5070db6e1d5a68a0d32a8ef026a",
          "blockNumber": "0xd1c7b4",
          "transactionHash": "0x9337aeae686fe60ef8b641c617d57160773845a05899c12ad91e60cf3a9f5a6b",
          "transactionIndex": "0x1",
          "logIndex": "0xb",
          "removed": false
        }
      ],
      "status": "0x1",
      "logsBloom": "0x0088080028000000a000000000080000400010000000004001a00000000000000000000000000000401000000000000000000400000040000000000000000100000010000000000000000000000202000001000000000004000004000000000000040080020000440000000200000800004000000000800080000000000000400000008000000008180000000000000000000000000000000000000000000008000000000008001000000000000000000000004000000000000000000004000080009020000002000000000020040008010004000000800000000000080021000002000000000000008040000000000001080040000000000000000000002000",
      "type": "0x2",
      "effectiveGasPrice": "0xb2d05f44"
    },
    {
      "transactionHash": "0x9761d1966419175deabe1c42fef1c157dde98cf8722f8b80412f22177936b6b4",
      "transactionIndex": "0x2",
      "blockHash": "0x86b95c0cc9373403907dad2b3b25909b9916a5070db6e1d5a68a0d32a8ef026a",
      "blockNumber": "0xd1c7b4",
      "from": "0xfC29eDCe481c4D7D2CDa4c0Ad6bF6C5Fcf128704",
      "to": "0x43fB252f9E2C64e532aB879B2153d6B717dE1C43",
      "cumulativeGasUsed": "0x138602",
      "gasUsed": "0xb066a",
      "contractAddress": null,
      "logs": [
        {
          "address": "0xb185d82B82257994c4f252Cc094385657370083b",
          "topics": [
            "0xbc7cd75a20ee27fd9adebab32041f755214dbc6bffa90cc0225b39da2e5c2d3b",
            "0x000000000000000000000000558ead6671fde2563bbb2ae454765904879aadc6"
          ],
          "data": "0x",
          "blockHash": "0x86b95c0cc9373403907dad2b3b25909b9916a5070db6e1d5a68a0d32a8ef026a",
          "blockNumber": "0xd1c7b4",
          "transactionHash": "0x9761d1966419175deabe1c42fef1c157dde98cf8722f8b80412f22177936b6b4",
          "transactionIndex": "0x2",
          "logIndex": "0xc",
          "removed": false
        },
        {
          "address": "0x43fB252f9E2C64e532aB879B2153d6B717dE1C43",
          "topics": [
            "0x219423f6178d1126524af73954b790c814a8b0dabcd8a687e2a5bec02aed62c1",
            "0x000000000000000000000000b185d82b82257994c4f252cc094385657370083b"
          ],
          "data": "0x",
          "blockHash": "0x86b95c0cc9373403907dad2b3b25909b9916a5070db6e1d5a68a0d32a8ef026a",
          "blockNumber": "0xd1c7b4",
          "transactionHash": "0x9761d1966419175deabe1c42fef1c157dde98cf8722f8b80412f22177936b6b4",
          "transactionIndex": "0x2",
          "logIndex": "0xd",
          "removed": false
        },
        {
          "address": "0xb185d82B82257994c4f252Cc094385657370083b",
          "topics": [
            "0x9f7688a97f1ac51fe03bac18af18d6810f9f11f0db08c59b1938a9ac825ef744"
          ],
          "data": "0x000000000000000000000000000000000000000000000000000000000000002000000000000000000000000000000000000000000000000000000000000000094e50432054726169740000000000000000000000000000000000000000000000",
          "blockHash": "0x86b95c0cc9373403907dad2b3b25909b9916a5070db6e1d5a68a0d32a8ef026a",
          "blockNumber": "0xd1c7b4",
          "transactionHash": "0x9761d1966419175deabe1c42fef1c157dde98cf8722f8b80412f22177936b6b4",
          "transactionIndex": "0x2",
          "logIndex": "0xe",
          "removed": false
        },
        {
          "address": "0xb185d82B82257994c4f252Cc094385657370083b",
          "topics": [
            "0xee007fd2e1891a2f6c8408b57ade5b0550dea71a5a06cc4df7ded4646a4584a5"
          ],
          "data": "0x000000000000000000000000000000000000000000000000000000000000002000000000000000000000000000000000000000000000000000000000000000044e50435400000000000000000000000000000000000000000000000000000000",
          "blockHash": "0x86b95c0cc9373403907dad2b3b25909b9916a5070db6e1d5a68a0d32a8ef026a",
          "blockNumber": "0xd1c7b4",
          "transactionHash": "0x9761d1966419175deabe1c42fef1c157dde98cf8722f8b80412f22177936b6b4",
          "transactionIndex": "0x2",
          "logIndex": "0xf",
          "removed": false
        },
        {
          "address": "0xb185d82B82257994c4f252Cc094385657370083b",
          "topics": [
            "0x8be0079c531659141344cd1fd0a4f28419497f9722a3daafe3b4186f6b6457e0",
            "0x0000000000000000000000000000000000000000000000000000000000000000",
            "0x00000000000000000000000043fb252f9e2c64e532ab879b2153d6b717de1c43"
          ],
          "data": "0x",
          "blockHash": "0x86b95c0cc9373403907dad2b3b25909b9916a5070db6e1d5a68a0d32a8ef026a",
          "blockNumber": "0xd1c7b4",
          "transactionHash": "0x9761d1966419175deabe1c42fef1c157dde98cf8722f8b80412f22177936b6b4",
          "transactionIndex": "0x2",
          "logIndex": "0x10",
          "removed": false
        },
        {
          "address": "0xb185d82B82257994c4f252Cc094385657370083b",
          "topics": [
            "0xf1a5d3e66660bd9e7b8ebd2a61970410ac63e9e1a874ebb0e0396cd4b41ac125",
            "0x6bced38a00000000000000000000000000000000000000000000000000000000",
            "0x0000000000000000000000000000000000000000000000000000000000000000",
            "0x00000000000000000000000095ad1fa839105fccc699fa0a38c644cbfd30599e"
          ],
          "data": "0x",
          "blockHash": "0x86b95c0cc9373403907dad2b3b25909b9916a5070db6e1d5a68a0d32a8ef026a",
          "blockNumber": "0xd1c7b4",
          "transactionHash": "0x9761d1966419175deabe1c42fef1c157dde98cf8722f8b80412f22177936b6b4",
          "transactionIndex": "0x2",
          "logIndex": "0x11",
          "removed": false
        },
        {
          "address": "0xb185d82B82257994c4f252Cc094385657370083b",
          "topics": [
            "0xf1a5d3e66660bd9e7b8ebd2a61970410ac63e9e1a874ebb0e0396cd4b41ac125",
            "0x251faf1800000000000000000000000000000000000000000000000000000000",
            "0x0000000000000000000000000000000000000000000000000000000000000000",
            "0x00000000000000000000000095ad1fa839105fccc699fa0a38c644cbfd30599e"
          ],
          "data": "0x",
          "blockHash": "0x86b95c0cc9373403907dad2b3b25909b9916a5070db6e1d5a68a0d32a8ef026a",
          "blockNumber": "0xd1c7b4",
          "transactionHash": "0x9761d1966419175deabe1c42fef1c157dde98cf8722f8b80412f22177936b6b4",
          "transactionIndex": "0x2",
          "logIndex": "0x12",
          "removed": false
        },
        {
          "address": "0xb185d82B82257994c4f252Cc094385657370083b",
          "topics": [
            "0xf1a5d3e66660bd9e7b8ebd2a61970410ac63e9e1a874ebb0e0396cd4b41ac125",
            "0x0d29e4c000000000000000000000000000000000000000000000000000000000",
            "0x0000000000000000000000000000000000000000000000000000000000000000",
            "0x00000000000000000000000095ad1fa839105fccc699fa0a38c644cbfd30599e"
          ],
          "data": "0x",
          "blockHash": "0x86b95c0cc9373403907dad2b3b25909b9916a5070db6e1d5a68a0d32a8ef026a",
          "blockNumber": "0xd1c7b4",
          "transactionHash": "0x9761d1966419175deabe1c42fef1c157dde98cf8722f8b80412f22177936b6b4",
          "transactionIndex": "0x2",
          "logIndex": "0x13",
          "removed": false
        },
        {
          "address": "0xb185d82B82257994c4f252Cc094385657370083b",
          "topics": [
            "0xf1a5d3e66660bd9e7b8ebd2a61970410ac63e9e1a874ebb0e0396cd4b41ac125",
            "0x5aee048e00000000000000000000000000000000000000000000000000000000",
            "0x0000000000000000000000000000000000000000000000000000000000000000",
            "0x00000000000000000000000095ad1fa839105fccc699fa0a38c644cbfd30599e"
          ],
          "data": "0x",
          "blockHash": "0x86b95c0cc9373403907dad2b3b25909b9916a5070db6e1d5a68a0d32a8ef026a",
          "blockNumber": "0xd1c7b4",
          "transactionHash": "0x9761d1966419175deabe1c42fef1c157dde98cf8722f8b80412f22177936b6b4",
          "transactionIndex": "0x2",
          "logIndex": "0x14",
          "removed": false
        },
        {
          "address": "0xb185d82B82257994c4f252Cc094385657370083b",
          "topics": [
            "0xf1a5d3e66660bd9e7b8ebd2a61970410ac63e9e1a874ebb0e0396cd4b41ac125",
            "0x87c7a30f00000000000000000000000000000000000000000000000000000000",
            "0x0000000000000000000000000000000000000000000000000000000000000000",
            "0x00000000000000000000000092ee25b0f5abe7e9477d357314bf5ffd8cd52c1f"
          ],
          "data": "0x",
          "blockHash": "0x86b95c0cc9373403907dad2b3b25909b9916a5070db6e1d5a68a0d32a8ef026a",
          "blockNumber": "0xd1c7b4",
          "transactionHash": "0x9761d1966419175deabe1c42fef1c157dde98cf8722f8b80412f22177936b6b4",
          "transactionIndex": "0x2",
          "logIndex": "0x15",
          "removed": false
        },
        {
          "address": "0xb185d82B82257994c4f252Cc094385657370083b",
          "topics": [
            "0xf1a5d3e66660bd9e7b8ebd2a61970410ac63e9e1a874ebb0e0396cd4b41ac125",
            "0x1b5bba6a00000000000000000000000000000000000000000000000000000000",
            "0x0000000000000000000000000000000000000000000000000000000000000000",
            "0x00000000000000000000000092ee25b0f5abe7e9477d357314bf5ffd8cd52c1f"
          ],
          "data": "0x",
          "blockHash": "0x86b95c0cc9373403907dad2b3b25909b9916a5070db6e1d5a68a0d32a8ef026a",
          "blockNumber": "0xd1c7b4",
          "transactionHash": "0x9761d1966419175deabe1c42fef1c157dde98cf8722f8b80412f22177936b6b4",
          "transactionIndex": "0x2",
          "logIndex": "0x16",
          "removed": false
        },
        {
          "address": "0xb185d82B82257994c4f252Cc094385657370083b",
          "topics": [
            "0xf1a5d3e66660bd9e7b8ebd2a61970410ac63e9e1a874ebb0e0396cd4b41ac125",
            "0xe0c95a8400000000000000000000000000000000000000000000000000000000",
            "0x0000000000000000000000000000000000000000000000000000000000000000",
            "0x00000000000000000000000035ae03b8a2862b2add7cd7730a51077240c46a1e"
          ],
          "data": "0x",
          "blockHash": "0x86b95c0cc9373403907dad2b3b25909b9916a5070db6e1d5a68a0d32a8ef026a",
          "blockNumber": "0xd1c7b4",
          "transactionHash": "0x9761d1966419175deabe1c42fef1c157dde98cf8722f8b80412f22177936b6b4",
          "transactionIndex": "0x2",
          "logIndex": "0x17",
          "removed": false
        },
        {
          "address": "0xb185d82B82257994c4f252Cc094385657370083b",
          "topics": [
            "0xf1a5d3e66660bd9e7b8ebd2a61970410ac63e9e1a874ebb0e0396cd4b41ac125",
            "0x8638c44900000000000000000000000000000000000000000000000000000000",
            "0x0000000000000000000000000000000000000000000000000000000000000000",
            "0x00000000000000000000000035ae03b8a2862b2add7cd7730a51077240c46a1e"
          ],
          "data": "0x",
          "blockHash": "0x86b95c0cc9373403907dad2b3b25909b9916a5070db6e1d5a68a0d32a8ef026a",
          "blockNumber": "0xd1c7b4",
          "transactionHash": "0x9761d1966419175deabe1c42fef1c157dde98cf8722f8b80412f22177936b6b4",
          "transactionIndex": "0x2",
          "logIndex": "0x18",
          "removed": false
        },
        {
          "address": "0xb185d82B82257994c4f252Cc094385657370083b",
          "topics": [
            "0xf1a5d3e66660bd9e7b8ebd2a61970410ac63e9e1a874ebb0e0396cd4b41ac125",
            "0x073bca3400000000000000000000000000000000000000000000000000000000",
            "0x0000000000000000000000000000000000000000000000000000000000000000",
            "0x00000000000000000000000035ae03b8a2862b2add7cd7730a51077240c46a1e"
          ],
          "data": "0x",
          "blockHash": "0x86b95c0cc9373403907dad2b3b25909b9916a5070db6e1d5a68a0d32a8ef026a",
          "blockNumber": "0xd1c7b4",
          "transactionHash": "0x9761d1966419175deabe1c42fef1c157dde98cf8722f8b80412f22177936b6b4",
          "transactionIndex": "0x2",
          "logIndex": "0x19",
          "removed": false
        },
        {
          "address": "0xb185d82B82257994c4f252Cc094385657370083b",
          "topics": [
            "0x70c1bbcf050e5b1587aabe97f0ba5633e67e187e67be1143cab0479dc75b81e7",
            "0xfd45ddde6135ec42000000000000000000000000000000000000000000000000",
            "0x00000000000000000000000065a3870f48b5237f27f674ec42ea1e017e111d63"
          ],
          "data": "0x",
          "blockHash": "0x86b95c0cc9373403907dad2b3b25909b9916a5070db6e1d5a68a0d32a8ef026a",
          "blockNumber": "0xd1c7b4",
          "transactionHash": "0x9761d1966419175deabe1c42fef1c157dde98cf8722f8b80412f22177936b6b4",
          "transactionIndex": "0x2",
          "logIndex": "0x1a",
          "removed": false
        },
        {
          "address": "0xb185d82B82257994c4f252Cc094385657370083b",
          "topics": [
            "0x70c1bbcf050e5b1587aabe97f0ba5633e67e187e67be1143cab0479dc75b81e7",
            "0xfd45ddde6135ec42000000000000000000000000000000000000000000000000",
            "0x00000000000000000000000055045da52be49461af91a235e4303d4a9b2312ae"
          ],
          "data": "0x",
          "blockHash": "0x86b95c0cc9373403907dad2b3b25909b9916a5070db6e1d5a68a0d32a8ef026a",
          "blockNumber": "0xd1c7b4",
          "transactionHash": "0x9761d1966419175deabe1c42fef1c157dde98cf8722f8b80412f22177936b6b4",
          "transactionIndex": "0x2",
          "logIndex": "0x1b",
          "removed": false
        },
        {
          "address": "0xb185d82B82257994c4f252Cc094385657370083b",
          "topics": [
            "0x8be0079c531659141344cd1fd0a4f28419497f9722a3daafe3b4186f6b6457e0",
            "0x00000000000000000000000043fb252f9e2c64e532ab879b2153d6b717de1c43",
            "0x000000000000000000000000fc29edce481c4d7d2cda4c0ad6bf6c5fcf128704"
          ],
          "data": "0x",
          "blockHash": "0x86b95c0cc9373403907dad2b3b25909b9916a5070db6e1d5a68a0d32a8ef026a",
          "blockNumber": "0xd1c7b4",
          "transactionHash": "0x9761d1966419175deabe1c42fef1c157dde98cf8722f8b80412f22177936b6b4",
          "transactionIndex": "0x2",
          "logIndex": "0x1c",
          "removed": false
        },
        {
          "address": "0xb185d82B82257994c4f252Cc094385657370083b",
          "topics": [
            "0x5daa87a0e9463431830481fd4b6e3403442dfb9a12b9c07597e9f61d50b633c8"
          ],
          "data": "0x",
          "blockHash": "0x86b95c0cc9373403907dad2b3b25909b9916a5070db6e1d5a68a0d32a8ef026a",
          "blockNumber": "0xd1c7b4",
          "transactionHash": "0x9761d1966419175deabe1c42fef1c157dde98cf8722f8b80412f22177936b6b4",
          "transactionIndex": "0x2",
          "logIndex": "0x1d",
          "removed": false
        }
      ],
      "status": "0x1",
      "logsBloom": "0x00aa08002800100010000000080800004000100000002000018000000000000000002000008002004010000000000000000004000000010000000000001001040000300000000000001000200000020000010000000000040000040000000000000400800200004000000000000008000140000040000000800000002010004000000080000040081800004000000102000000000000000000800000000000080000000000000014000000000000000000000041000000040000000000040200000010202000020000020000008600000100040400000000000000002000210000000101000000000000400000000000010800c0000002140000000000002000",
      "type": "0x2",
      "effectiveGasPrice": "0xb2d05f44"
    }
  ],
  "libraries": [],
  "pending": [],
  "returns": {},
  "timestamp": 1723264589,
  "chain": 84532,
  "commit": "3bb51a9"
}