{
  "transactions": [
    {
      "hash": "0x49b1f061b069a56d4cbeaede588f8f8a8d5849061514f2c2673827480faec272",
      "transactionType": "CALL",
      "contractName": null,
      "contractAddress": "0xF1eFc9e4C5238C5bCf3d30774480325893435a2A",
      "function": "addPermission(bytes8,address)",
      "arguments": [
        "0x38381131ea27ecba000000000000000000000000000000000000000000000000",
        "0x64842EA5feE416B3f3eB2A8787eCa3462dE3C8a1"
      ],
      "transaction": {
        "type": "0x02",
        "from": "0xfc29edce481c4d7d2cda4c0ad6bf6c5fcf128704",
        "to": "0xf1efc9e4c5238c5bcf3d30774480325893435a2a",
        "gas": "0x1eb15",
        "value": "0x0",
        "data": "0xc2593dc738381131ea27ecba00000000000000000000000000000000000000000000000000000000000000000000000064842ea5fee416b3f3eb2a8787eca3462de3c8a1",
        "nonce": "0x4e",
        "accessList": []
      },
      "additionalContracts": [],
      "isFixedGasLimit": false
    }
  ],
  "receipts": [
    {
      "transactionHash": "0x49b1f061b069a56d4cbeaede588f8f8a8d5849061514f2c2673827480faec272",
      "transactionIndex": "0x29",
      "blockHash": "0x2a3d32d85b7fab441b6dc6864d5f5e81256473ebb9fa96bb0d27d9b54d31887c",
      "blockNumber": "0x51813d",
      "from": "0xfC29eDCe481c4D7D2CDa4c0Ad6bF6C5Fcf128704",
      "to": "0xF1eFc9e4C5238C5bCf3d30774480325893435a2A",
      "cumulativeGasUsed": "0x5f2409",
      "gasUsed": "0x14fc9",
      "contractAddress": null,
      "logs": [
        {
          "address": "0xF1eFc9e4C5238C5bCf3d30774480325893435a2A",
          "topics": [
            "0x70c1bbcf050e5b1587aabe97f0ba5633e67e187e67be1143cab0479dc75b81e7",
            "0x38381131ea27ecba000000000000000000000000000000000000000000000000",
            "0x00000000000000000000000064842ea5fee416b3f3eb2a8787eca3462de3c8a1"
          ],
          "data": "0x",
          "blockHash": "0x2a3d32d85b7fab441b6dc6864d5f5e81256473ebb9fa96bb0d27d9b54d31887c",
          "blockNumber": "0x51813d",
          "transactionHash": "0x49b1f061b069a56d4cbeaede588f8f8a8d5849061514f2c2673827480faec272",
          "transactionIndex": "0x29",
          "logIndex": "0x59",
          "removed": false
        }
      ],
      "status": "0x1",
      "logsBloom": "0x00000000000000000000000000000000000000000080000000000000000000000000000000000000000020000000000000000000000000000000000000000000000000000000000000000000000000000000000000000000000000200000000000000000000000000000000000000000804000000000000000000000000000000000000000000000000000000000000000000000000000000000000000000000000000000000000000000000000000000000000000000000000000000000000100001000004000000000000000000000000000000000000000000000000000000000000000000000008000000000000000080000000004000000000000004000",
      "type": "0x2",
      "effectiveGasPrice": "0xb8ad6fa4"
    }
  ],
  "libraries": [],
  "pending": [],
  "returns": {},
  "timestamp": 1708613694,
  "chain": 11155111,
  "multi": false,
  "commit": "734605d"
}