{
  "transactions": [
    {
      "hash": "0x49b1f061b069a56d4cbeaede588f8f8a8d5849061514f2c2673827480faec272",
      "transactionType": "CALL",
      "contractName": null,
      "contractAddress": "0xF1eFc9e4C5238C5bCf3d30774480325893435a2A",
      "function": "addPermission(bytes8,address)",
      "arguments": [
        "0x38381131ea27ecba000000000000000000000000000000000000000000000000",
        "0x64842EA5feE416B3f3eB2A8787eCa3462dE3C8a1"
      ],
      "transaction": {
        "type": "0x02",
        "from": "0xfc29edce481c4d7d2cda4c0ad6bf6c5fcf128704",
        "to": "0xf1efc9e4c5238c5bcf3d30774480325893435a2a",
        "gas": "0x1eb15",
        "value": "0x0",
        "data": "0xc2593dc738381131ea27ecba00000000000000000000000000000000000000000000000000000000000000000000000064842ea5fee416b3f3eb2a8787eca3462de3c8a1",
        "nonce": "0x4e",
        "accessList": []
      },
      "additionalContracts": [],
      "isFixedGasLimit": false
    }
  ],
  "receipts": [],
  "libraries": [],
  "pending": [
    "0x49b1f061b069a56d4cbeaede588f8f8a8d5849061514f2c2673827480faec272"
  ],
  "returns": {},
  "timestamp": 1708613675,
  "chain": 11155111,
  "multi": false,
  "commit": "734605d"
}