{
  "transactions": [
    {
      "hash": "0xc86843b05b6b3cf0a04ef1e923ecc60e21cb2d8c31fed4287171863e31cd6f7a",
      "transactionType": "CALL",
      "contractName": null,
      "contractAddress": "0x8F071320A60E4Aac7dA5FBA5F201F9bcc66f86e9",
      "function": "mintTo(address,uint256,uint256)",
      "arguments": [
        "0x35F8f5f92D4B51cc31e2E8b83e0C5393Ef1be274",
        "50",
        "1"
      ],
      "transaction": {
        "type": "0x02",
        "from": "0xfc29edce481c4d7d2cda4c0ad6bf6c5fcf128704",
        "to": "0x8f071320a60e4aac7da5fba5f201f9bcc66f86e9",
        "gas": "0x25f2a",
        "value": "0x0",
        "data": "0x2baf2acb00000000000000000000000035f8f5f92d4b51cc31e2e8b83e0c5393ef1be27400000000000000000000000000000000000000000000000000000000000000320000000000000000000000000000000000000000000000000000000000000001",
        "nonce": "0x74",
        "accessList": []
      },
      "additionalContracts": [],
      "isFixedGasLimit": false
    },
    {
      "hash": "0x0dfc3d098d6c924997c0d4547fd3d548446cee1f0b6af544a46975b7186a0df5",
      "transactionType": "CALL",
      "contractName": null,
      "contractAddress": "0x8F071320A60E4Aac7dA5FBA5F201F9bcc66f86e9",
      "function": "ext_addTokenId(address,uint256,uint256)",
      "arguments": [
        "0x35F8f5f92D4B51cc31e2E8b83e0C5393Ef1be274",
        "50",
        "40"
      ],
      "transaction": {
        "type": "0x02",
        "from": "0xfc29edce481c4d7d2cda4c0ad6bf6c5fcf128704",
        "to": "0x8f071320a60e4aac7da5fba5f201f9bcc66f86e9",
        "gas": "0x19207",
        "value": "0x0",
        "data": "0x6bced38a00000000000000000000000035f8f5f92d4b51cc31e2e8b83e0c5393ef1be27400000000000000000000000000000000000000000000000000000000000000320000000000000000000000000000000000000000000000000000000000000028",
        "nonce": "0x75",
        "accessList": []
      },
      "additionalContracts": [],
      "isFixedGasLimit": false
    },
    {
      "hash": "0x770e33c18be307c4c4aefeb5107b092e4b34b428e2706324b3584d20b18a455b",
      "transactionType": "CALL",
      "contractName": null,
      "contractAddress": "0x8F071320A60E4Aac7dA5FBA5F201F9bcc66f86e9",
      "function": "mintTo(address,uint256,uint256)",
      "arguments": [
        "0x35F8f5f92D4B51cc31e2E8b83e0C5393Ef1be274",
        "60",
        "1"
      ],
      "transaction": {
        "type": "0x02",
        "from": "0xfc29edce481c4d7d2cda4c0ad6bf6c5fcf128704",
        "to": "0x8f071320a60e4aac7da5fba5f201f9bcc66f86e9",
        "gas": "0x25f2a",
        "value": "0x0",
        "data": "0x2baf2acb00000000000000000000000035f8f5f92d4b51cc31e2e8b83e0c5393ef1be274000000000000000000000000000000000000000000000000000000000000003c0000000000000000000000000000000000000000000000000000000000000001",
        "nonce": "0x76",
        "accessList": []
      },
      "additionalContracts": [],
      "isFixedGasLimit": false
    },
    {
      "hash": "0x33accee7bbc3a431715e6ebdac918154085f77f78d8e1e051590da933f08b93a",
      "transactionType": "CALL",
      "contractName": null,
      "contractAddress": "0x8F071320A60E4Aac7dA5FBA5F201F9bcc66f86e9",
      "function": "ext_addTokenId(address,uint256,uint256)",
      "arguments": [
        "0x35F8f5f92D4B51cc31e2E8b83e0C5393Ef1be274",
        "60",
        "50"
      ],
      "transaction": {
        "type": "0x02",
        "from": "0xfc29edce481c4d7d2cda4c0ad6bf6c5fcf128704",
        "to": "0x8f071320a60e4aac7da5fba5f201f9bcc66f86e9",
        "gas": "0x1a003",
        "value": "0x0",
        "data": "0x6bced38a00000000000000000000000035f8f5f92d4b51cc31e2e8b83e0c5393ef1be274000000000000000000000000000000000000000000000000000000000000003c0000000000000000000000000000000000000000000000000000000000000032",
        "nonce": "0x77",
        "accessList": []
      },
      "additionalContracts": [],
      "isFixedGasLimit": false
    }
  ],
  "receipts": [],
  "libraries": [],
  "pending": [
    "0xc86843b05b6b3cf0a04ef1e923ecc60e21cb2d8c31fed4287171863e31cd6f7a",
    "0x0dfc3d098d6c924997c0d4547fd3d548446cee1f0b6af544a46975b7186a0df5",
    "0x770e33c18be307c4c4aefeb5107b092e4b34b428e2706324b3584d20b18a455b",
    "0x33accee7bbc3a431715e6ebdac918154085f77f78d8e1e051590da933f08b93a"
  ],
  "returns": {},
  "timestamp": 1708816761,
  "chain": 11155111,
  "multi": false,
  "commit": "6a94c07"
}