{
  "transactions": [
    {
      "hash": "0x24f07eb0d5ff8c2d74e0cf9ee20d8be395f1d2a1acf2462c795f684aaf7f500c",
      "transactionType": "CALL",
      "contractName": null,
      "contractAddress": "0x8F071320A60E4Aac7dA5FBA5F201F9bcc66f86e9",
      "function": "mintTo(address,uint256,uint256)",
      "arguments": [
        "0x35F8f5f92D4B51cc31e2E8b83e0C5393Ef1be274",
        "40",
        "1"
      ],
      "transaction": {
        "type": "0x02",
        "from": "0xfc29edce481c4d7d2cda4c0ad6bf6c5fcf128704",
        "to": "0x8f071320a60e4aac7da5fba5f201f9bcc66f86e9",
        "gas": "0x25f2a",
        "value": "0x0",
        "data": "0x2baf2acb00000000000000000000000035f8f5f92d4b51cc31e2e8b83e0c5393ef1be27400000000000000000000000000000000000000000000000000000000000000280000000000000000000000000000000000000000000000000000000000000001",
        "nonce": "0x72",
        "accessList": []
      },
      "additionalContracts": [],
      "isFixedGasLimit": false
    },
    {
      "hash": "0x3919b4dc232b42df2693af408de25db4d9fb5778fe09fc95ef033f297857eb36",
      "transactionType": "CALL",
      "contractName": null,
      "contractAddress": "0x8F071320A60E4Aac7dA5FBA5F201F9bcc66f86e9",
      "function": "ext_addTokenId(address,uint256,uint256)",
      "arguments": [
        "0x35F8f5f92D4B51cc31e2E8b83e0C5393Ef1be274",
        "40",
        "1"
      ],
      "transaction": {
        "type": "0x02",
        "from": "0xfc29edce481c4d7d2cda4c0ad6bf6c5fcf128704",
        "to": "0x8f071320a60e4aac7da5fba5f201f9bcc66f86e9",
        "gas": "0x1840b",
        "value": "0x0",
        "data": "0x6bced38a00000000000000000000000035f8f5f92d4b51cc31e2e8b83e0c5393ef1be27400000000000000000000000000000000000000000000000000000000000000280000000000000000000000000000000000000000000000000000000000000001",
        "nonce": "0x73",
        "accessList": []
      },
      "additionalContracts": [],
      "isFixedGasLimit": false
    }
  ],
  "receipts": [],
  "libraries": [],
  "pending": [
    "0x24f07eb0d5ff8c2d74e0cf9ee20d8be395f1d2a1acf2462c795f684aaf7f500c",
    "0x3919b4dc232b42df2693af408de25db4d9fb5778fe09fc95ef033f297857eb36"
  ],
  "returns": {},
  "timestamp": 1708816184,
  "chain": 11155111,
  "multi": false,
  "commit": "6a94c07"
}