{
  "transactions": [
    {
      "hash": "0x6b5605b6b7188d8963e1e895dd8a4f06888bec5eb72ea7ed3c11e6b0a98036e5",
      "transactionType": "CALL",
      "contractName": null,
      "contractAddress": "0x8F071320A60E4Aac7dA5FBA5F201F9bcc66f86e9",
      "function": "ext_removeTokenId(address,uint256)",
      "arguments": [
        "0x35F8f5f92D4B51cc31e2E8b83e0C5393Ef1be274",
        "60"
      ],
      "transaction": {
        "type": "0x02",
        "from": "0xfc29edce481c4d7d2cda4c0ad6bf6c5fcf128704",
        "to": "0x8f071320a60e4aac7da5fba5f201f9bcc66f86e9",
        "gas": "0x12b80",
        "value": "0x0",
        "data": "0x251faf1800000000000000000000000035f8f5f92d4b51cc31e2e8b83e0c5393ef1be274000000000000000000000000000000000000000000000000000000000000003c",
        "nonce": "0x78",
        "accessList": []
      },
      "additionalContracts": [],
      "isFixedGasLimit": false
    }
  ],
  "receipts": [],
  "libraries": [],
  "pending": [
    "0x6b5605b6b7188d8963e1e895dd8a4f06888bec5eb72ea7ed3c11e6b0a98036e5"
  ],
  "returns": {},
  "timestamp": 1708818012,
  "chain": 11155111,
  "multi": false,
  "commit": "6a94c07"
}