{
  "transactions": [
    {
      "hash": "0xe78839070939d5caa1f25ec65b0d38c952c534f579249badb311f5012d14e907",
      "transactionType": "CALL",
      "contractName": null,
      "contractAddress": "0x8F071320A60E4Aac7dA5FBA5F201F9bcc66f86e9",
      "function": "mintTo(address,uint256,uint256)",
      "arguments": [
        "0x35F8f5f92D4B51cc31e2E8b83e0C5393Ef1be274",
        "1",
        "1"
      ],
      "transaction": {
        "type": "0x02",
        "from": "0xfc29edce481c4d7d2cda4c0ad6bf6c5fcf128704",
        "to": "0x8f071320a60e4aac7da5fba5f201f9bcc66f86e9",
        "gas": "0x202e6",
        "value": "0x0",
        "data": "0x2baf2acb00000000000000000000000035f8f5f92d4b51cc31e2e8b83e0c5393ef1be27400000000000000000000000000000000000000000000000000000000000000010000000000000000000000000000000000000000000000000000000000000001",
        "nonce": "0x70",
        "accessList": []
      },
      "additionalContracts": [],
      "isFixedGasLimit": false
    },
    {
      "hash": "0x4a11ce93c11e717e281eff5898362f1c4fc2d53e1f0547c023d1af787c8ea1b1",
      "transactionType": "CALL",
      "contractName": null,
      "contractAddress": "0x8F071320A60E4Aac7dA5FBA5F201F9bcc66f86e9",
      "function": "ext_addTokenId(address,uint256,uint256)",
      "arguments": [
        "0x35F8f5f92D4B51cc31e2E8b83e0C5393Ef1be274",
        "1",
        "0"
      ],
      "transaction": {
        "type": "0x02",
        "from": "0xfc29edce481c4d7d2cda4c0ad6bf6c5fcf128704",
        "to": "0x8f071320a60e4aac7da5fba5f201f9bcc66f86e9",
        "gas": "0x1d573",
        "value": "0x0",
        "data": "0x6bced38a00000000000000000000000035f8f5f92d4b51cc31e2e8b83e0c5393ef1be27400000000000000000000000000000000000000000000000000000000000000010000000000000000000000000000000000000000000000000000000000000000",
        "nonce": "0x71",
        "accessList": []
      },
      "additionalContracts": [],
      "isFixedGasLimit": false
    }
  ],
  "receipts": [],
  "libraries": [],
  "pending": [
    "0xe78839070939d5caa1f25ec65b0d38c952c534f579249badb311f5012d14e907",
    "0x4a11ce93c11e717e281eff5898362f1c4fc2d53e1f0547c023d1af787c8ea1b1"
  ],
  "returns": {},
  "timestamp": 1708815894,
  "chain": 11155111,
  "multi": false,
  "commit": "6a94c07"
}