{
  "transactions": [
    {
      "hash": "0xe78839070939d5caa1f25ec65b0d38c952c534f579249badb311f5012d14e907",
      "transactionType": "CALL",
      "contractName": null,
      "contractAddress": "0x8F071320A60E4Aac7dA5FBA5F201F9bcc66f86e9",
      "function": "mintTo(address,uint256,uint256)",
      "arguments": [
        "0x35F8f5f92D4B51cc31e2E8b83e0C5393Ef1be274",
        "1",
        "1"
      ],
      "transaction": {
        "type": "0x02",
        "from": "0xfc29edce481c4d7d2cda4c0ad6bf6c5fcf128704",
        "to": "0x8f071320a60e4aac7da5fba5f201f9bcc66f86e9",
        "gas": "0x202e6",
        "value": "0x0",
        "data": "0x2baf2acb00000000000000000000000035f8f5f92d4b51cc31e2e8b83e0c5393ef1be27400000000000000000000000000000000000000000000000000000000000000010000000000000000000000000000000000000000000000000000000000000001",
        "nonce": "0x70",
        "accessList": []
      },
      "additionalContracts": [],
      "isFixedGasLimit": false
    },
    {
      "hash": "0x4a11ce93c11e717e281eff5898362f1c4fc2d53e1f0547c023d1af787c8ea1b1",
      "transactionType": "CALL",
      "contractName": null,
      "contractAddress": "0x8F071320A60E4Aac7dA5FBA5F201F9bcc66f86e9",
      "function": "ext_addTokenId(address,uint256,uint256)",
      "arguments": [
        "0x35F8f5f92D4B51cc31e2E8b83e0C5393Ef1be274",
        "1",
        "0"
      ],
      "transaction": {
        "type": "0x02",
        "from": "0xfc29edce481c4d7d2cda4c0ad6bf6c5fcf128704",
        "to": "0x8f071320a60e4aac7da5fba5f201f9bcc66f86e9",
        "gas": "0x1d573",
        "value": "0x0",
        "data": "0x6bced38a00000000000000000000000035f8f5f92d4b51cc31e2e8b83e0c5393ef1be27400000000000000000000000000000000000000000000000000000000000000010000000000000000000000000000000000000000000000000000000000000000",
        "nonce": "0x71",
        "accessList": []
      },
      "additionalContracts": [],
      "isFixedGasLimit": false
    }
  ],
  "receipts": [
    {
      "transactionHash": "0xe78839070939d5caa1f25ec65b0d38c952c534f579249badb311f5012d14e907",
      "transactionIndex": "0x1f",
      "blockHash": "0x3e9549808267325225891be9816b2ac96673b8b016e2b8d18d4867bdabf65740",
      "blockNumber": "0x51bc06",
      "from": "0xfC29eDCe481c4D7D2CDa4c0Ad6bF6C5Fcf128704",
      "to": "0x8F071320A60E4Aac7dA5FBA5F201F9bcc66f86e9",
      "cumulativeGasUsed": "0x46a0b2",
      "gasUsed": "0x174c8",
      "contractAddress": null,
      "logs": [
        {
          "address": "0x8F071320A60E4Aac7dA5FBA5F201F9bcc66f86e9",
          "topics": [
            "0xc3d58168c5ae7397731d063d5bbf3d657854427343f4c083240f7aacaa2d0f62",
            "0x000000000000000000000000fc29edce481c4d7d2cda4c0ad6bf6c5fcf128704",
            "0x0000000000000000000000000000000000000000000000000000000000000000",
            "0x00000000000000000000000035f8f5f92d4b51cc31e2e8b83e0c5393ef1be274"
          ],
          "data": "0x00000000000000000000000000000000000000000000000000000000000000010000000000000000000000000000000000000000000000000000000000000001",
          "blockHash": "0x3e9549808267325225891be9816b2ac96673b8b016e2b8d18d4867bdabf65740",
          "blockNumber": "0x51bc06",
          "transactionHash": "0xe78839070939d5caa1f25ec65b0d38c952c534f579249badb311f5012d14e907",
          "transactionIndex": "0x1f",
          "logIndex": "0x54",
          "removed": false
        }
      ],
      "status": "0x1",
      "logsBloom": "0x00800000000000000000000000000000000000000000000001000000000000000000000000000000000000000000000000000000000000000000000000002000000000000000000000000010000000000000000000000000000000000000000000000000020000000000000000008800000000000000000000000000000000000000010000000000000000000000000000000000000000000000000000000000000020000000000000000000000000000000000000000000000000000000000000000000000000000000000000000000000000000008000000000000000020000000000000000000000040000000000001000000000000000000080000010000",
      "type": "0x2",
      "effectiveGasPrice": "0xc3784434"
    },
    {
      "transactionHash": "0x4a11ce93c11e717e281eff5898362f1c4fc2d53e1f0547c023d1af787c8ea1b1",
      "transactionIndex": "0x20",
      "blockHash": "0x3e9549808267325225891be9816b2ac96673b8b016e2b8d18d4867bdabf65740",
      "blockNumber": "0x51bc06",
      "from": "0xfC29eDCe481c4D7D2CDa4c0Ad6bF6C5Fcf128704",
      "to": "0x8F071320A60E4Aac7dA5FBA5F201F9bcc66f86e9",
      "cumulativeGasUsed": "0x47f492",
      "gasUsed": "0x153e0",
      "contractAddress": null,
      "logs": [
        {
          "address": "0x8F071320A60E4Aac7dA5FBA5F201F9bcc66f86e9",
          "topics": [
            "0xd565921af4ea4648b96c85448b010e40abca4e34c2fd5534bdaa5b1f53109219",
            "0x0000000000000000000000000000000000000000000000000000000000000001",
            "0x00000000000000000000000035f8f5f92d4b51cc31e2e8b83e0c5393ef1be274"
          ],
          "data": "0x",
          "blockHash": "0x3e9549808267325225891be9816b2ac96673b8b016e2b8d18d4867bdabf65740",
          "blockNumber": "0x51bc06",
          "transactionHash": "0x4a11ce93c11e717e281eff5898362f1c4fc2d53e1f0547c023d1af787c8ea1b1",
          "transactionIndex": "0x20",
          "logIndex": "0x55",
          "removed": false
        }
      ],
      "status": "0x1",
      "logsBloom": "0x00000000000000000000000000000000000000000000000000000000000000010000000000000000000000000000000000000000000000000000000000040000000000000000000000000010000000000000000000040000000000000000000000000000000000000000040000008000000000000000000000000000000000000000010000000000000000000000000000000000000000001000000000000000000020000000000000000000000000000000000000000000000000000000000000000000000000000000000000000000000000000000000000000000000040000000000000000000000000000000000001000000000000000000000000010000",
      "type": "0x2",
      "effectiveGasPrice": "0xc3784434"
    }
  ],
  "libraries": [],
  "pending": [],
  "returns": {},
  "timestamp": 1708815906,
  "chain": 11155111,
  "multi": false,
  "commit": "6a94c07"
}