{
  "transactions": [
    {
      "hash": "0x24f07eb0d5ff8c2d74e0cf9ee20d8be395f1d2a1acf2462c795f684aaf7f500c",
      "transactionType": "CALL",
      "contractName": null,
      "contractAddress": "0x8F071320A60E4Aac7dA5FBA5F201F9bcc66f86e9",
      "function": "mintTo(address,uint256,uint256)",
      "arguments": [
        "0x35F8f5f92D4B51cc31e2E8b83e0C5393Ef1be274",
        "40",
        "1"
      ],
      "transaction": {
        "type": "0x02",
        "from": "0xfc29edce481c4d7d2cda4c0ad6bf6c5fcf128704",
        "to": "0x8f071320a60e4aac7da5fba5f201f9bcc66f86e9",
        "gas": "0x25f2a",
        "value": "0x0",
        "data": "0x2baf2acb00000000000000000000000035f8f5f92d4b51cc31e2e8b83e0c5393ef1be27400000000000000000000000000000000000000000000000000000000000000280000000000000000000000000000000000000000000000000000000000000001",
        "nonce": "0x72",
        "accessList": []
      },
      "additionalContracts": [],
      "isFixedGasLimit": false
    },
    {
      "hash": "0x3919b4dc232b42df2693af408de25db4d9fb5778fe09fc95ef033f297857eb36",
      "transactionType": "CALL",
      "contractName": null,
      "contractAddress": "0x8F071320A60E4Aac7dA5FBA5F201F9bcc66f86e9",
      "function": "ext_addTokenId(address,uint256,uint256)",
      "arguments": [
        "0x35F8f5f92D4B51cc31e2E8b83e0C5393Ef1be274",
        "40",
        "1"
      ],
      "transaction": {
        "type": "0x02",
        "from": "0xfc29edce481c4d7d2cda4c0ad6bf6c5fcf128704",
        "to": "0x8f071320a60e4aac7da5fba5f201f9bcc66f86e9",
        "gas": "0x1840b",
        "value": "0x0",
        "data": "0x6bced38a00000000000000000000000035f8f5f92d4b51cc31e2e8b83e0c5393ef1be27400000000000000000000000000000000000000000000000000000000000000280000000000000000000000000000000000000000000000000000000000000001",
        "nonce": "0x73",
        "accessList": []
      },
      "additionalContracts": [],
      "isFixedGasLimit": false
    }
  ],
  "receipts": [
    {
      "transactionHash": "0x24f07eb0d5ff8c2d74e0cf9ee20d8be395f1d2a1acf2462c795f684aaf7f500c",
      "transactionIndex": "0x24",
      "blockHash": "0xa7ce93aae952fbd92b777bcef04e1d934da0e85b21ebd456059bd94e26b0a972",
      "blockNumber": "0x51bc1e",
      "from": "0xfC29eDCe481c4D7D2CDa4c0Ad6bF6C5Fcf128704",
      "to": "0x8F071320A60E4Aac7dA5FBA5F201F9bcc66f86e9",
      "cumulativeGasUsed": "0x42da9c",
      "gasUsed": "0x1b794",
      "contractAddress": null,
      "logs": [
        {
          "address": "0x8F071320A60E4Aac7dA5FBA5F201F9bcc66f86e9",
          "topics": [
            "0xc3d58168c5ae7397731d063d5bbf3d657854427343f4c083240f7aacaa2d0f62",
            "0x000000000000000000000000fc29edce481c4d7d2cda4c0ad6bf6c5fcf128704",
            "0x0000000000000000000000000000000000000000000000000000000000000000",
            "0x00000000000000000000000035f8f5f92d4b51cc31e2e8b83e0c5393ef1be274"
          ],
          "data": "0x00000000000000000000000000000000000000000000000000000000000000280000000000000000000000000000000000000000000000000000000000000001",
          "blockHash": "0xa7ce93aae952fbd92b777bcef04e1d934da0e85b21ebd456059bd94e26b0a972",
          "blockNumber": "0x51bc1e",
          "transactionHash": "0x24f07eb0d5ff8c2d74e0cf9ee20d8be395f1d2a1acf2462c795f684aaf7f500c",
          "transactionIndex": "0x24",
          "logIndex": "0x53",
          "removed": false
        }
      ],
      "status": "0x1",
      "logsBloom": "0x00800000000000000000000000000000000000000000000001000000000000000000000000000000000000000000000000000000000000000000000000002000000000000000000000000010000000000000000000000000000000000000000000000000020000000000000000008800000000000000000000000000000000000000010000000000000000000000000000000000000000000000000000000000000020000000000000000000000000000000000000000000000000000000000000000000000000000000000000000000000000000008000000000000000020000000000000000000000040000000000001000000000000000000080000010000",
      "type": "0x2",
      "effectiveGasPrice": "0xc2937e03"
    },
    {
      "transactionHash": "0x3919b4dc232b42df2693af408de25db4d9fb5778fe09fc95ef033f297857eb36",
      "transactionIndex": "0x2a",
      "blockHash": "0xa7ce93aae952fbd92b777bcef04e1d934da0e85b21ebd456059bd94e26b0a972",
      "blockNumber": "0x51bc1e",
      "from": "0xfC29eDCe481c4D7D2CDa4c0Ad6bF6C5Fcf128704",
      "to": "0x8F071320A60E4Aac7dA5FBA5F201F9bcc66f86e9",
      "cumulativeGasUsed": "0x468f7a",
      "gasUsed": "0x118f0",
      "contractAddress": null,
      "logs": [
        {
          "address": "0x8F071320A60E4Aac7dA5FBA5F201F9bcc66f86e9",
          "topics": [
            "0xd565921af4ea4648b96c85448b010e40abca4e34c2fd5534bdaa5b1f53109219",
            "0x0000000000000000000000000000000000000000000000000000000000000028",
            "0x00000000000000000000000035f8f5f92d4b51cc31e2e8b83e0c5393ef1be274"
          ],
          "data": "0x",
          "blockHash": "0xa7ce93aae952fbd92b777bcef04e1d934da0e85b21ebd456059bd94e26b0a972",
          "blockNumber": "0x51bc1e",
          "transactionHash": "0x3919b4dc232b42df2693af408de25db4d9fb5778fe09fc95ef033f297857eb36",
          "transactionIndex": "0x2a",
          "logIndex": "0x59",
          "removed": false
        }
      ],
      "status": "0x1",
      "logsBloom": "0x00000000000000000000000000000000000000000000000000000000000000010000000000000000000000000000000000000000000000000000000000000000000000000000000000000010000000000000000000000000000000000000000000000000000000000000040000008000000000000000000000000000000000000000010000000000000000000000000000000000000000001000000000000000000020000100000000000000000000000000000000000000000000000000000000000000000000000000000000000000000020000000000000000008000000000000000000000000000000000000000001000000000000000000000000010000",
      "type": "0x2",
      "effectiveGasPrice": "0xc2937e03"
    }
  ],
  "libraries": [],
  "pending": [],
  "returns": {},
  "timestamp": 1708816191,
  "chain": 11155111,
  "multi": false,
  "commit": "6a94c07"
}