{
  "transactions": [
    {
      "hash": "0xc86843b05b6b3cf0a04ef1e923ecc60e21cb2d8c31fed4287171863e31cd6f7a",
      "transactionType": "CALL",
      "contractName": null,
      "contractAddress": "0x8F071320A60E4Aac7dA5FBA5F201F9bcc66f86e9",
      "function": "mintTo(address,uint256,uint256)",
      "arguments": [
        "0x35F8f5f92D4B51cc31e2E8b83e0C5393Ef1be274",
        "50",
        "1"
      ],
      "transaction": {
        "type": "0x02",
        "from": "0xfc29edce481c4d7d2cda4c0ad6bf6c5fcf128704",
        "to": "0x8f071320a60e4aac7da5fba5f201f9bcc66f86e9",
        "gas": "0x25f2a",
        "value": "0x0",
        "data": "0x2baf2acb00000000000000000000000035f8f5f92d4b51cc31e2e8b83e0c5393ef1be27400000000000000000000000000000000000000000000000000000000000000320000000000000000000000000000000000000000000000000000000000000001",
        "nonce": "0x74",
        "accessList": []
      },
      "additionalContracts": [],
      "isFixedGasLimit": false
    },
    {
      "hash": "0x0dfc3d098d6c924997c0d4547fd3d548446cee1f0b6af544a46975b7186a0df5",
      "transactionType": "CALL",
      "contractName": null,
      "contractAddress": "0x8F071320A60E4Aac7dA5FBA5F201F9bcc66f86e9",
      "function": "ext_addTokenId(address,uint256,uint256)",
      "arguments": [
        "0x35F8f5f92D4B51cc31e2E8b83e0C5393Ef1be274",
        "50",
        "40"
      ],
      "transaction": {
        "type": "0x02",
        "from": "0xfc29edce481c4d7d2cda4c0ad6bf6c5fcf128704",
        "to": "0x8f071320a60e4aac7da5fba5f201f9bcc66f86e9",
        "gas": "0x19207",
        "value": "0x0",
        "data": "0x6bced38a00000000000000000000000035f8f5f92d4b51cc31e2e8b83e0c5393ef1be27400000000000000000000000000000000000000000000000000000000000000320000000000000000000000000000000000000000000000000000000000000028",
        "nonce": "0x75",
        "accessList": []
      },
      "additionalContracts": [],
      "isFixedGasLimit": false
    },
    {
      "hash": "0x770e33c18be307c4c4aefeb5107b092e4b34b428e2706324b3584d20b18a455b",
      "transactionType": "CALL",
      "contractName": null,
      "contractAddress": "0x8F071320A60E4Aac7dA5FBA5F201F9bcc66f86e9",
      "function": "mintTo(address,uint256,uint256)",
      "arguments": [
        "0x35F8f5f92D4B51cc31e2E8b83e0C5393Ef1be274",
        "60",
        "1"
      ],
      "transaction": {
        "type": "0x02",
        "from": "0xfc29edce481c4d7d2cda4c0ad6bf6c5fcf128704",
        "to": "0x8f071320a60e4aac7da5fba5f201f9bcc66f86e9",
        "gas": "0x25f2a",
        "value": "0x0",
        "data": "0x2baf2acb00000000000000000000000035f8f5f92d4b51cc31e2e8b83e0c5393ef1be274000000000000000000000000000000000000000000000000000000000000003c0000000000000000000000000000000000000000000000000000000000000001",
        "nonce": "0x76",
        "accessList": []
      },
      "additionalContracts": [],
      "isFixedGasLimit": false
    },
    {
      "hash": "0x33accee7bbc3a431715e6ebdac918154085f77f78d8e1e051590da933f08b93a",
      "transactionType": "CALL",
      "contractName": null,
      "contractAddress": "0x8F071320A60E4Aac7dA5FBA5F201F9bcc66f86e9",
      "function": "ext_addTokenId(address,uint256,uint256)",
      "arguments": [
        "0x35F8f5f92D4B51cc31e2E8b83e0C5393Ef1be274",
        "60",
        "50"
      ],
      "transaction": {
        "type": "0x02",
        "from": "0xfc29edce481c4d7d2cda4c0ad6bf6c5fcf128704",
        "to": "0x8f071320a60e4aac7da5fba5f201f9bcc66f86e9",
        "gas": "0x1a003",
        "value": "0x0",
        "data": "0x6bced38a00000000000000000000000035f8f5f92d4b51cc31e2e8b83e0c5393ef1be274000000000000000000000000000000000000000000000000000000000000003c0000000000000000000000000000000000000000000000000000000000000032",
        "nonce": "0x77",
        "accessList": []
      },
      "additionalContracts": [],
      "isFixedGasLimit": false
    }
  ],
  "receipts": [
    {
      "transactionHash": "0xc86843b05b6b3cf0a04ef1e923ecc60e21cb2d8c31fed4287171863e31cd6f7a",
      "transactionIndex": "0x1d",
      "blockHash": "0x48476abe2826c8e38aa9de4903ebed7eb734bc0154f761b7e9e0b414ce54585e",
      "blockNumber": "0x51bc47",
      "from": "0xfC29eDCe481c4D7D2CDa4c0Ad6bF6C5Fcf128704",
      "to": "0x8F071320A60E4Aac7dA5FBA5F201F9bcc66f86e9",
      "cumulativeGasUsed": "0x2eeb85",
      "gasUsed": "0x1b794",
      "contractAddress": null,
      "logs": [
        {
          "address": "0x8F071320A60E4Aac7dA5FBA5F201F9bcc66f86e9",
          "topics": [
            "0xc3d58168c5ae7397731d063d5bbf3d657854427343f4c083240f7aacaa2d0f62",
            "0x000000000000000000000000fc29edce481c4d7d2cda4c0ad6bf6c5fcf128704",
            "0x0000000000000000000000000000000000000000000000000000000000000000",
            "0x00000000000000000000000035f8f5f92d4b51cc31e2e8b83e0c5393ef1be274"
          ],
          "data": "0x00000000000000000000000000000000000000000000000000000000000000320000000000000000000000000000000000000000000000000000000000000001",
          "blockHash": "0x48476abe2826c8e38aa9de4903ebed7eb734bc0154f761b7e9e0b414ce54585e",
          "blockNumber": "0x51bc47",
          "transactionHash": "0xc86843b05b6b3cf0a04ef1e923ecc60e21cb2d8c31fed4287171863e31cd6f7a",
          "transactionIndex": "0x1d",
          "logIndex": "0x30",
          "removed": false
        }
      ],
      "status": "0x1",
      "logsBloom": "0x00800000000000000000000000000000000000000000000001000000000000000000000000000000000000000000000000000000000000000000000000002000000000000000000000000010000000000000000000000000000000000000000000000000020000000000000000008800000000000000000000000000000000000000010000000000000000000000000000000000000000000000000000000000000020000000000000000000000000000000000000000000000000000000000000000000000000000000000000000000000000000008000000000000000020000000000000000000000040000000000001000000000000000000080000010000",
      "type": "0x2",
      "effectiveGasPrice": "0xc589b353"
    },
    {
      "transactionHash": "0x0dfc3d098d6c924997c0d4547fd3d548446cee1f0b6af544a46975b7186a0df5",
      "transactionIndex": "0x1e",
      "blockHash": "0x48476abe2826c8e38aa9de4903ebed7eb734bc0154f761b7e9e0b414ce54585e",
      "blockNumber": "0x51bc47",
      "from": "0xfC29eDCe481c4D7D2CDa4c0Ad6bF6C5Fcf128704",
      "to": "0x8F071320A60E4Aac7dA5FBA5F201F9bcc66f86e9",
      "cumulativeGasUsed": "0x300e95",
      "gasUsed": "0x12310",
      "contractAddress": null,
      "logs": [
        {
          "address": "0x8F071320A60E4Aac7dA5FBA5F201F9bcc66f86e9",
          "topics": [
            "0xd565921af4ea4648b96c85448b010e40abca4e34c2fd5534bdaa5b1f53109219",
            "0x0000000000000000000000000000000000000000000000000000000000000032",
            "0x00000000000000000000000035f8f5f92d4b51cc31e2e8b83e0c5393ef1be274"
          ],
          "data": "0x",
          "blockHash": "0x48476abe2826c8e38aa9de4903ebed7eb734bc0154f761b7e9e0b414ce54585e",
          "blockNumber": "0x51bc47",
          "transactionHash": "0x0dfc3d098d6c924997c0d4547fd3d548446cee1f0b6af544a46975b7186a0df5",
          "transactionIndex": "0x1e",
          "logIndex": "0x31",
          "removed": false
        }
      ],
      "status": "0x1",
      "logsBloom": "0x00000000000000000000000000000000000000000000000000000000000000010002000000000000000000000000000000000000000000000000000000000000000000000000000000000010000000000000000000000000000000000000000000000000000000000000040000008000000000000000000000000000000000000000010000000000000000000000000000000000000000001000000000000000000020000000000000000000000000000000000000000000000000000000000000000000800000000000000000000000000000000000000000000000000800000000000000000000000000000000000001000000000000000000000000010000",
      "type": "0x2",
      "effectiveGasPrice": "0xc589b353"
    },
    {
      "transactionHash": "0x770e33c18be307c4c4aefeb5107b092e4b34b428e2706324b3584d20b18a455b",
      "transactionIndex": "0x1f",
      "blockHash": "0x48476abe2826c8e38aa9de4903ebed7eb734bc0154f761b7e9e0b414ce54585e",
      "blockNumber": "0x51bc47",
      "from": "0xfC29eDCe481c4D7D2CDa4c0Ad6bF6C5Fcf128704",
      "to": "0x8F071320A60E4Aac7dA5FBA5F201F9bcc66f86e9",
      "cumulativeGasUsed": "0x31c629",
      "gasUsed": "0x1b794",
      "contractAddress": null,
      "logs": [
        {
          "address": "0x8F071320A60E4Aac7dA5FBA5F201F9bcc66f86e9",
          "topics": [
            "0xc3d58168c5ae7397731d063d5bbf3d657854427343f4c083240f7aacaa2d0f62",
            "0x000000000000000000000000fc29edce481c4d7d2cda4c0ad6bf6c5fcf128704",
            "0x0000000000000000000000000000000000000000000000000000000000000000",
            "0x00000000000000000000000035f8f5f92d4b51cc31e2e8b83e0c5393ef1be274"
          ],
          "data": "0x000000000000000000000000000000000000000000000000000000000000003c0000000000000000000000000000000000000000000000000000000000000001",
          "blockHash": "0x48476abe2826c8e38aa9de4903ebed7eb734bc0154f761b7e9e0b414ce54585e",
          "blockNumber": "0x51bc47",
          "transactionHash": "0x770e33c18be307c4c4aefeb5107b092e4b34b428e2706324b3584d20b18a455b",
          "transactionIndex": "0x1f",
          "logIndex": "0x32",
          "removed": false
        }
      ],
      "status": "0x1",
      "logsBloom": "0x00800000000000000000000000000000000000000000000001000000000000000000000000000000000000000000000000000000000000000000000000002000000000000000000000000010000000000000000000000000000000000000000000000000020000000000000000008800000000000000000000000000000000000000010000000000000000000000000000000000000000000000000000000000000020000000000000000000000000000000000000000000000000000000000000000000000000000000000000000000000000000008000000000000000020000000000000000000000040000000000001000000000000000000080000010000",
      "type": "0x2",
      "effectiveGasPrice": "0xc589b353"
    },
    {
      "transactionHash": "0x33accee7bbc3a431715e6ebdac918154085f77f78d8e1e051590da933f08b93a",
      "transactionIndex": "0x20",
      "blockHash": "0x48476abe2826c8e38aa9de4903ebed7eb734bc0154f761b7e9e0b414ce54585e",
      "blockNumber": "0x51bc47",
      "from": "0xfC29eDCe481c4D7D2CDa4c0Ad6bF6C5Fcf128704",
      "to": "0x8F071320A60E4Aac7dA5FBA5F201F9bcc66f86e9",
      "cumulativeGasUsed": "0x32f359",
      "gasUsed": "0x12d30",
      "contractAddress": null,
      "logs": [
        {
          "address": "0x8F071320A60E4Aac7dA5FBA5F201F9bcc66f86e9",
          "topics": [
            "0xd565921af4ea4648b96c85448b010e40abca4e34c2fd5534bdaa5b1f53109219",
            "0x000000000000000000000000000000000000000000000000000000000000003c",
            "0x00000000000000000000000035f8f5f92d4b51cc31e2e8b83e0c5393ef1be274"
          ],
          "data": "0x",
          "blockHash": "0x48476abe2826c8e38aa9de4903ebed7eb734bc0154f761b7e9e0b414ce54585e",
          "blockNumber": "0x51bc47",
          "transactionHash": "0x33accee7bbc3a431715e6ebdac918154085f77f78d8e1e051590da933f08b93a",
          "transactionIndex": "0x20",
          "logIndex": "0x33",
          "removed": false
        }
      ],
      "status": "0x1",
      "logsBloom": "0x00000000000000000000000000040000000000000000000000000000000000010000000000000800080000000000000000000000000000000000000000000000000000000000000000000010000000000000000000000000000000000000000000000000000000000000040000008000000000000000000000000000000000000000010000000000000000000000000000000000000000001000000000000000000020000000000000000000000000000000000000000000000000000000000000000000000000000000000000000000000000000000000000000000000000000000000000000000000000000000000001000000000000000000000000010000",
      "type": "0x2",
      "effectiveGasPrice": "0xc589b353"
    }
  ],
  "libraries": [],
  "pending": [],
  "returns": {},
  "timestamp": 1708816768,
  "chain": 11155111,
  "multi": false,
  "commit": "6a94c07"
}