{
  "transactions": [
    {
      "hash": "0xc12e40a113fec534e73eec0e1b598f42f26ca370124c73aa241bff0f800f429b",
      "transactionType": "CALL",
      "contractName": null,
      "contractAddress": "0xb185d82B82257994c4f252Cc094385657370083b",
      "function": "ext_registerTrait(bytes,string)",
      "arguments": [
        "0x0015171f090e020e020e020e02020201000b02020201000b02020201000b02020201000b02020201000b02020201000b02020201000b02",
        "\"body-bege-bsod\""
      ],
      "transaction": {
        "type": "0x02",
        "from": "0xfc29edce481c4d7d2cda4c0ad6bf6c5fcf128704",
        "to": "0xb185d82b82257994c4f252cc094385657370083b",
        "gas": "0x360b5",
        "value": "0x0",
        "data": "0x87c7a30f000000000000000000000000000000000000000000000000000000000000004000000000000000000000000000000000000000000000000000000000000000a000000000000000000000000000000000000000000000000000000000000000370015171f090e020e020e020e02020201000b02020201000b02020201000b02020201000b02020201000b02020201000b02020201000b02000000000000000000000000000000000000000000000000000000000000000000000000000000000e626f64792d626567652d62736f64000000000000000000000000000000000000",
        "nonce": "0x1b",
        "accessList": []
      },
      "additionalContracts": [],
      "isFixedGasLimit": false
    },
    {
      "hash": "0x8357102c8e2cc3f5f673d49ec9f7963d8bb197ba1bf45489f5d3bd1a2e86f62d",
      "transactionType": "CALL",
      "contractName": null,
      "contractAddress": "0xb185d82B82257994c4f252Cc094385657370083b",
      "function": "ext_registerTrait(bytes,string)",
      "arguments": [
        "0x0015171f090e030e030e030e03020301000b03020301000b03020301000b03020301000b03020301000b03020301000b03020301000b03",
        "\"body-bege-crt\""
      ],
      "transaction": {
        "type": "0x02",
        "from": "0xfc29edce481c4d7d2cda4c0ad6bf6c5fcf128704",
        "to": "0xb185d82b82257994c4f252cc094385657370083b",
        "gas": "0x2fef3",
        "value": "0x0",
        "data": "0x87c7a30f000000000000000000000000000000000000000000000000000000000000004000000000000000000000000000000000000000000000000000000000000000a000000000000000000000000000000000000000000000000000000000000000370015171f090e030e030e030e03020301000b03020301000b03020301000b03020301000b03020301000b03020301000b03020301000b03000000000000000000000000000000000000000000000000000000000000000000000000000000000d626f64792d626567652d63727400000000000000000000000000000000000000",
        "nonce": "0x1c",
        "accessList": []
      },
      "additionalContracts": [],
      "isFixedGasLimit": false
    },
    {
      "hash": "0x2c59d57b1c5a4eb118aed0da57f0599c391ce95b93711923f719ac44df8d332c",
      "transactionType": "CALL",
      "contractName": null,
      "contractAddress": "0xb185d82B82257994c4f252Cc094385657370083b",
      "function": "ext_registerTrait(bytes,string)",
      "arguments": [
        "0x0015171f090e040e040e040e04020401000b04020401000b04020401000b04020401000b04020401000b04020401000b04020401000b04",
        "\"body-blue-sky\""
      ],
      "transaction": {
        "type": "0x02",
        "from": "0xfc29edce481c4d7d2cda4c0ad6bf6c5fcf128704",
        "to": "0xb185d82b82257994c4f252cc094385657370083b",
        "gas": "0x2fef3",
        "value": "0x0",
        "data": "0x87c7a30f000000000000000000000000000000000000000000000000000000000000004000000000000000000000000000000000000000000000000000000000000000a000000000000000000000000000000000000000000000000000000000000000370015171f090e040e040e040e04020401000b04020401000b04020401000b04020401000b04020401000b04020401000b04020401000b04000000000000000000000000000000000000000000000000000000000000000000000000000000000d626f64792d626c75652d736b7900000000000000000000000000000000000000",
        "nonce": "0x1d",
        "accessList": []
      },
      "additionalContracts": [],
      "isFixedGasLimit": false
    },
    {
      "hash": "0xbabaede93006b1a09a94115018fd69309d2e0c75333c223ce4c0c7a58751a1d4",
      "transactionType": "CALL",
      "contractName": null,
      "contractAddress": "0xb185d82B82257994c4f252Cc094385657370083b",
      "function": "ext_registerTrait(bytes,string)",
      "arguments": [
        "0x0015171f090e050e050e050e05020501000b05020501000b05020501000b05020501000b05020501000b05020501000b05020501000b05",
        "\"body-bluegrey\""
      ],
      "transaction": {
        "type": "0x02",
        "from": "0xfc29edce481c4d7d2cda4c0ad6bf6c5fcf128704",
        "to": "0xb185d82b82257994c4f252cc094385657370083b",
        "gas": "0x2fef3",
        "value": "0x0",
        "data": "0x87c7a30f000000000000000000000000000000000000000000000000000000000000004000000000000000000000000000000000000000000000000000000000000000a000000000000000000000000000000000000000000000000000000000000000370015171f090e050e050e050e05020501000b05020501000b05020501000b05020501000b05020501000b05020501000b05020501000b05000000000000000000000000000000000000000000000000000000000000000000000000000000000d626f64792d626c75656772657900000000000000000000000000000000000000",
        "nonce": "0x1e",
        "accessList": []
      },
      "additionalContracts": [],
      "isFixedGasLimit": false
    },
    {
      "hash": "0xf8b97c7da12669ed04bd706cd4d57f76332b7a00cf8c35b3f9719113454a8c86",
      "transactionType": "CALL",
      "contractName": null,
      "contractAddress": "0xb185d82B82257994c4f252Cc094385657370083b",
      "function": "ext_registerTrait(bytes,string)",
      "arguments": [
        "0x0015171f090e060e060e060e06020601000b06020601000b06020601000b06020601000b06020601000b06020601000b06020601000b06",
        "\"body-cold\""
      ],
      "transaction": {
        "type": "0x02",
        "from": "0xfc29edce481c4d7d2cda4c0ad6bf6c5fcf128704",
        "to": "0xb185d82b82257994c4f252cc094385657370083b",
        "gas": "0x2feac",
        "value": "0x0",
        "data": "0x87c7a30f000000000000000000000000000000000000000000000000000000000000004000000000000000000000000000000000000000000000000000000000000000a000000000000000000000000000000000000000000000000000000000000000370015171f090e060e060e060e06020601000b06020601000b06020601000b06020601000b06020601000b06020601000b06020601000b060000000000000000000000000000000000000000000000000000000000000000000000000000000009626f64792d636f6c640000000000000000000000000000000000000000000000",
        "nonce": "0x1f",
        "accessList": []
      },
      "additionalContracts": [],
      "isFixedGasLimit": false
    },
    {
      "hash": "0xd0eba4c7b759a5ab6b224540a76003257bb0377c55bbae0bee1a8250b256c24c",
      "transactionType": "CALL",
      "contractName": null,
      "contractAddress": "0xb185d82B82257994c4f252Cc094385657370083b",
      "function": "ext_registerTrait(bytes,string)",
      "arguments": [
        "0x0015171f090e070e070e070e07020701000b07020701000b07020701000b07020701000b07020701000b07020701000b07020701000b07",
        "\"body-computerblue\""
      ],
      "transaction": {
        "type": "0x02",
        "from": "0xfc29edce481c4d7d2cda4c0ad6bf6c5fcf128704",
        "to": "0xb185d82b82257994c4f252cc094385657370083b",
        "gas": "0x2ff39",
        "value": "0x0",
        "data": "0x87c7a30f000000000000000000000000000000000000000000000000000000000000004000000000000000000000000000000000000000000000000000000000000000a000000000000000000000000000000000000000000000000000000000000000370015171f090e070e070e070e07020701000b07020701000b07020701000b07020701000b07020701000b07020701000b07020701000b070000000000000000000000000000000000000000000000000000000000000000000000000000000011626f64792d636f6d7075746572626c7565000000000000000000000000000000",
        "nonce": "0x20",
        "accessList": []
      },
      "additionalContracts": [],
      "isFixedGasLimit": false
    },
    {
      "hash": "0xb2086e92efbb6fd0dc94597896f16e1627ad539fa75e675bb48add722fd5491a",
      "transactionType": "CALL",
      "contractName": null,
      "contractAddress": "0xb185d82B82257994c4f252Cc094385657370083b",
      "function": "ext_registerTrait(bytes,string)",
      "arguments": [
        "0x0015171f090e080e080e080e08020801000b08020801000b08020801000b08020801000b08020801000b08020801000b08020801000b08",
        "\"body-darkbrown\""
      ],
      "transaction": {
        "type": "0x02",
        "from": "0xfc29edce481c4d7d2cda4c0ad6bf6c5fcf128704",
        "to": "0xb185d82b82257994c4f252cc094385657370083b",
        "gas": "0x2d467",
        "value": "0x0",
        "data": "0x87c7a30f000000000000000000000000000000000000000000000000000000000000004000000000000000000000000000000000000000000000000000000000000000a000000000000000000000000000000000000000000000000000000000000000370015171f090e080e080e080e08020801000b08020801000b08020801000b08020801000b08020801000b08020801000b08020801000b08000000000000000000000000000000000000000000000000000000000000000000000000000000000e626f64792d6461726b62726f776e000000000000000000000000000000000000",
        "nonce": "0x21",
        "accessList": []
      },
      "additionalContracts": [],
      "isFixedGasLimit": false
    },
    {
      "hash": "0xb64ae00764aedf839c060ccfae616da3dd97a005c721dd3ebcb0e2882937cb83",
      "transactionType": "CALL",
      "contractName": null,
      "contractAddress": "0xb185d82B82257994c4f252Cc094385657370083b",
      "function": "ext_registerTrait(bytes,string)",
      "arguments": [
        "0x0015171f090e090e090e090e09020901000b09020901000b09020901000b09020901000b09020901000b09020901000b09020901000b09",
        "\"body-darkpink\""
      ],
      "transaction": {
        "type": "0x02",
        "from": "0xfc29edce481c4d7d2cda4c0ad6bf6c5fcf128704",
        "to": "0xb185d82b82257994c4f252cc094385657370083b",
        "gas": "0x2fef3",
        "value": "0x0",
        "data": "0x87c7a30f000000000000000000000000000000000000000000000000000000000000004000000000000000000000000000000000000000000000000000000000000000a000000000000000000000000000000000000000000000000000000000000000370015171f090e090e090e090e09020901000b09020901000b09020901000b09020901000b09020901000b09020901000b09020901000b09000000000000000000000000000000000000000000000000000000000000000000000000000000000d626f64792d6461726b70696e6b00000000000000000000000000000000000000",
        "nonce": "0x22",
        "accessList": []
      },
      "additionalContracts": [],
      "isFixedGasLimit": false
    },
    {
      "hash": "0xd9ccfbf9cc652d03ec7ae0aa15e2fdcde9ec64071c9df5215d6c520ff3966115",
      "transactionType": "CALL",
      "contractName": null,
      "contractAddress": "0xb185d82B82257994c4f252Cc094385657370083b",
      "function": "ext_registerTrait(bytes,string)",
      "arguments": [
        "0x0015171f090e030e030e030e03020301000b03020301000b03020301000b03020301000b03020301000b03020301000b03020301000b03",
        "\"body-foggrey\""
      ],
      "transaction": {
        "type": "0x02",
        "from": "0xfc29edce481c4d7d2cda4c0ad6bf6c5fcf128704",
        "to": "0xb185d82b82257994c4f252cc094385657370083b",
        "gas": "0x2d445",
        "value": "0x0",
        "data": "0x87c7a30f000000000000000000000000000000000000000000000000000000000000004000000000000000000000000000000000000000000000000000000000000000a000000000000000000000000000000000000000000000000000000000000000370015171f090e030e030e030e03020301000b03020301000b03020301000b03020301000b03020301000b03020301000b03020301000b03000000000000000000000000000000000000000000000000000000000000000000000000000000000c626f64792d666f67677265790000000000000000000000000000000000000000",
        "nonce": "0x23",
        "accessList": []
      },
      "additionalContracts": [],
      "isFixedGasLimit": false
    },
    {
      "hash": "0x0b044c27e1c2f80ab0573f9939f25101f45600748f2296b90274e5c399b45603",
      "transactionType": "CALL",
      "contractName": null,
      "contractAddress": "0xb185d82B82257994c4f252Cc094385657370083b",
      "function": "ext_registerTrait(bytes,string)",
      "arguments": [
        "0x0015171f090e0a0e0a0e0a0e0a020a01000b0a020a01000b0a020a01000b0a020a01000b0a020a01000b0a020a01000b0a020a01000b0a",
        "\"body-gold\""
      ],
      "transaction": {
        "type": "0x02",
        "from": "0xfc29edce481c4d7d2cda4c0ad6bf6c5fcf128704",
        "to": "0xb185d82b82257994c4f252cc094385657370083b",
        "gas": "0x2feac",
        "value": "0x0",
        "data": "0x87c7a30f000000000000000000000000000000000000000000000000000000000000004000000000000000000000000000000000000000000000000000000000000000a000000000000000000000000000000000000000000000000000000000000000370015171f090e0a0e0a0e0a0e0a020a01000b0a020a01000b0a020a01000b0a020a01000b0a020a01000b0a020a01000b0a020a01000b0a0000000000000000000000000000000000000000000000000000000000000000000000000000000009626f64792d676f6c640000000000000000000000000000000000000000000000",
        "nonce": "0x24",
        "accessList": []
      },
      "additionalContracts": [],
      "isFixedGasLimit": false
    }
  ],
  "receipts": [
    {
      "transactionHash": "0xc12e40a113fec534e73eec0e1b598f42f26ca370124c73aa241bff0f800f429b",
      "transactionIndex": "0x1",
      "blockHash": "0xc4962370d27e5fbb1bdffe4dfdfab4225ae159b5cfb943b19ee74cbcc7971775",
      "blockNumber": "0xd202f9",
      "from": "0xfC29eDCe481c4D7D2CDa4c0Ad6bF6C5Fcf128704",
      "to": "0xb185d82B82257994c4f252Cc094385657370083b",
      "cumulativeGasUsed": "0x2fab0",
      "gasUsed": "0x24f41",
      "contractAddress": null,
      "logs": [
        {
          "address": "0xb185d82B82257994c4f252Cc094385657370083b",
          "topics": [
            "0x6d801405d0a92b94907b5fe1fe4295031541b6f549f7afecc30b600f579b68b0"
          ],
          "data": "0x0000000000000000000000000000000000000000000000000000000000000001000000000000000000000000000000000000000000000000000000000000006000000000000000000000000000000000000000000000000000000000000000c000000000000000000000000000000000000000000000000000000000000000370015171f090e020e020e020e02020201000b02020201000b02020201000b02020201000b02020201000b02020201000b02020201000b02000000000000000000000000000000000000000000000000000000000000000000000000000000000e626f64792d626567652d62736f64000000000000000000000000000000000000",
          "blockHash": "0xc4962370d27e5fbb1bdffe4dfdfab4225ae159b5cfb943b19ee74cbcc7971775",
          "blockNumber": "0xd202f9",
          "transactionHash": "0xc12e40a113fec534e73eec0e1b598f42f26ca370124c73aa241bff0f800f429b",
          "transactionIndex": "0x1",
          "logIndex": "0x0",
          "removed": false
        }
      ],
      "status": "0x1",
      "logsBloom": "0x00000000000000000000000000000000000000000000000000000000000000000000000000000000000000000000000000000000000000000000000000000000000020000000000000000000000000000000000000000000000000000000000000000000000000000000008000001000000000000000000000000000000000000000000000000000000000000000000200000000000000000000000100000000000000000000000000000000000000000000000000000000000000000000000000000000000000000002000000000000000000000000000000000000000000000000000000000000000000000000000000000000000000000000000000000000",
      "type": "0x2",
      "effectiveGasPrice": "0xb352a003"
    },
    {
      "transactionHash": "0x8357102c8e2cc3f5f673d49ec9f7963d8bb197ba1bf45489f5d3bd1a2e86f62d",
      "transactionIndex": "0x1",
      "blockHash": "0xfad66db96b77dd8c3a876ecc0ae23d89c58734c6ac43d64ad03061ae97f77a93",
      "blockNumber": "0xd202fc",
      "from": "0xfC29eDCe481c4D7D2CDa4c0Ad6bF6C5Fcf128704",
      "to": "0xb185d82B82257994c4f252Cc094385657370083b",
      "cumulativeGasUsed": "0x2b7d8",
      "gasUsed": "0x20c69",
      "contractAddress": null,
      "logs": [
        {
          "address": "0xb185d82B82257994c4f252Cc094385657370083b",
          "topics": [
            "0x6d801405d0a92b94907b5fe1fe4295031541b6f549f7afecc30b600f579b68b0"
          ],
          "data": "0x0000000000000000000000000000000000000000000000000000000000000002000000000000000000000000000000000000000000000000000000000000006000000000000000000000000000000000000000000000000000000000000000c000000000000000000000000000000000000000000000000000000000000000370015171f090e030e030e030e03020301000b03020301000b03020301000b03020301000b03020301000b03020301000b03020301000b03000000000000000000000000000000000000000000000000000000000000000000000000000000000d626f64792d626567652d63727400000000000000000000000000000000000000",
          "blockHash": "0xfad66db96b77dd8c3a876ecc0ae23d89c58734c6ac43d64ad03061ae97f77a93",
          "blockNumber": "0xd202fc",
          "transactionHash": "0x8357102c8e2cc3f5f673d49ec9f7963d8bb197ba1bf45489f5d3bd1a2e86f62d",
          "transactionIndex": "0x1",
          "logIndex": "0x0",
          "removed": false
        }
      ],
      "status": "0x1",
      "logsBloom": "0x00000000000000000000000000000000000000000000000000000000000000000000000000000000000000000000000000000000000000000000000000000000000020000000000000000000000000000000000000000000000000000000000000000000000000000000008000001000000000000000000000000000000000000000000000000000000000000000000200000000000000000000000100000000000000000000000000000000000000000000000000000000000000000000000000000000000000000002000000000000000000000000000000000000000000000000000000000000000000000000000000000000000000000000000000000000",
      "type": "0x2",
      "effectiveGasPrice": "0xb353e925"
    },
    {
      "transactionHash": "0x2c59d57b1c5a4eb118aed0da57f0599c391ce95b93711923f719ac44df8d332c",
      "transactionIndex": "0x2",
      "blockHash": "0xfad66db96b77dd8c3a876ecc0ae23d89c58734c6ac43d64ad03061ae97f77a93",
      "blockNumber": "0xd202fc",
      "from": "0xfC29eDCe481c4D7D2CDa4c0Ad6bF6C5Fcf128704",
      "to": "0xb185d82B82257994c4f252Cc094385657370083b",
      "cumulativeGasUsed": "0x4c441",
      "gasUsed": "0x20c69",
      "contractAddress": null,
      "logs": [
        {
          "address": "0xb185d82B82257994c4f252Cc094385657370083b",
          "topics": [
            "0x6d801405d0a92b94907b5fe1fe4295031541b6f549f7afecc30b600f579b68b0"
          ],
          "data": "0x0000000000000000000000000000000000000000000000000000000000000003000000000000000000000000000000000000000000000000000000000000006000000000000000000000000000000000000000000000000000000000000000c000000000000000000000000000000000000000000000000000000000000000370015171f090e040e040e040e04020401000b04020401000b04020401000b04020401000b04020401000b04020401000b04020401000b04000000000000000000000000000000000000000000000000000000000000000000000000000000000d626f64792d626c75652d736b7900000000000000000000000000000000000000",
          "blockHash": "0xfad66db96b77dd8c3a876ecc0ae23d89c58734c6ac43d64ad03061ae97f77a93",
          "blockNumber": "0xd202fc",
          "transactionHash": "0x2c59d57b1c5a4eb118aed0da57f0599c391ce95b93711923f719ac44df8d332c",
          "transactionIndex": "0x2",
          "logIndex": "0x1",
          "removed": false
        }
      ],
      "status": "0x1",
      "logsBloom": "0x00000000000000000000000000000000000000000000000000000000000000000000000000000000000000000000000000000000000000000000000000000000000020000000000000000000000000000000000000000000000000000000000000000000000000000000008000001000000000000000000000000000000000000000000000000000000000000000000200000000000000000000000100000000000000000000000000000000000000000000000000000000000000000000000000000000000000000002000000000000000000000000000000000000000000000000000000000000000000000000000000000000000000000000000000000000",
      "type": "0x2",
      "effectiveGasPrice": "0xb353e925"
    },
    {
      "transactionHash": "0xbabaede93006b1a09a94115018fd69309d2e0c75333c223ce4c0c7a58751a1d4",
      "transactionIndex": "0x3",
      "blockHash": "0xfad66db96b77dd8c3a876ecc0ae23d89c58734c6ac43d64ad03061ae97f77a93",
      "blockNumber": "0xd202fc",
      "from": "0xfC29eDCe481c4D7D2CDa4c0Ad6bF6C5Fcf128704",
      "to": "0xb185d82B82257994c4f252Cc094385657370083b",
      "cumulativeGasUsed": "0x6d0aa",
      "gasUsed": "0x20c69",
      "contractAddress": null,
      "logs": [
        {
          "address": "0xb185d82B82257994c4f252Cc094385657370083b",
          "topics": [
            "0x6d801405d0a92b94907b5fe1fe4295031541b6f549f7afecc30b600f579b68b0"
          ],
          "data": "0x0000000000000000000000000000000000000000000000000000000000000004000000000000000000000000000000000000000000000000000000000000006000000000000000000000000000000000000000000000000000000000000000c000000000000000000000000000000000000000000000000000000000000000370015171f090e050e050e050e05020501000b05020501000b05020501000b05020501000b05020501000b05020501000b05020501000b05000000000000000000000000000000000000000000000000000000000000000000000000000000000d626f64792d626c75656772657900000000000000000000000000000000000000",
          "blockHash": "0xfad66db96b77dd8c3a876ecc0ae23d89c58734c6ac43d64ad03061ae97f77a93",
          "blockNumber": "0xd202fc",
          "transactionHash": "0xbabaede93006b1a09a94115018fd69309d2e0c75333c223ce4c0c7a58751a1d4",
          "transactionIndex": "0x3",
          "logIndex": "0x2",
          "removed": false
        }
      ],
      "status": "0x1",
      "logsBloom": "0x00000000000000000000000000000000000000000000000000000000000000000000000000000000000000000000000000000000000000000000000000000000000020000000000000000000000000000000000000000000000000000000000000000000000000000000008000001000000000000000000000000000000000000000000000000000000000000000000200000000000000000000000100000000000000000000000000000000000000000000000000000000000000000000000000000000000000000002000000000000000000000000000000000000000000000000000000000000000000000000000000000000000000000000000000000000",
      "type": "0x2",
      "effectiveGasPrice": "0xb353e925"
    },
    {
      "transactionHash": "0xf8b97c7da12669ed04bd706cd4d57f76332b7a00cf8c35b3f9719113454a8c86",
      "transactionIndex": "0x4",
      "blockHash": "0xfad66db96b77dd8c3a876ecc0ae23d89c58734c6ac43d64ad03061ae97f77a93",
      "blockNumber": "0xd202fc",
      "from": "0xfC29eDCe481c4D7D2CDa4c0Ad6bF6C5Fcf128704",
      "to": "0xb185d82B82257994c4f252Cc094385657370083b",
      "cumulativeGasUsed": "0x8dce3",
      "gasUsed": "0x20c39",
      "contractAddress": null,
      "logs": [
        {
          "address": "0xb185d82B82257994c4f252Cc094385657370083b",
          "topics": [
            "0x6d801405d0a92b94907b5fe1fe4295031541b6f549f7afecc30b600f579b68b0"
          ],
          "data": "0x0000000000000000000000000000000000000000000000000000000000000005000000000000000000000000000000000000000000000000000000000000006000000000000000000000000000000000000000000000000000000000000000c000000000000000000000000000000000000000000000000000000000000000370015171f090e060e060e060e06020601000b06020601000b06020601000b06020601000b06020601000b06020601000b06020601000b060000000000000000000000000000000000000000000000000000000000000000000000000000000009626f64792d636f6c640000000000000000000000000000000000000000000000",
          "blockHash": "0xfad66db96b77dd8c3a876ecc0ae23d89c58734c6ac43d64ad03061ae97f77a93",
          "blockNumber": "0xd202fc",
          "transactionHash": "0xf8b97c7da12669ed04bd706cd4d57f76332b7a00cf8c35b3f9719113454a8c86",
          "transactionIndex": "0x4",
          "logIndex": "0x3",
          "removed": false
        }
      ],
      "status": "0x1",
      "logsBloom": "0x00000000000000000000000000000000000000000000000000000000000000000000000000000000000000000000000000000000000000000000000000000000000020000000000000000000000000000000000000000000000000000000000000000000000000000000008000001000000000000000000000000000000000000000000000000000000000000000000200000000000000000000000100000000000000000000000000000000000000000000000000000000000000000000000000000000000000000002000000000000000000000000000000000000000000000000000000000000000000000000000000000000000000000000000000000000",
      "type": "0x2",
      "effectiveGasPrice": "0xb353e925"
    },
    {
      "transactionHash": "0xd0eba4c7b759a5ab6b224540a76003257bb0377c55bbae0bee1a8250b256c24c",
      "transactionIndex": "0x5",
      "blockHash": "0xfad66db96b77dd8c3a876ecc0ae23d89c58734c6ac43d64ad03061ae97f77a93",
      "blockNumber": "0xd202fc",
      "from": "0xfC29eDCe481c4D7D2CDa4c0Ad6bF6C5Fcf128704",
      "to": "0xb185d82B82257994c4f252Cc094385657370083b",
      "cumulativeGasUsed": "0xae97c",
      "gasUsed": "0x20c99",
      "contractAddress": null,
      "logs": [
        {
          "address": "0xb185d82B82257994c4f252Cc094385657370083b",
          "topics": [
            "0x6d801405d0a92b94907b5fe1fe4295031541b6f549f7afecc30b600f579b68b0"
          ],
          "data": "0x0000000000000000000000000000000000000000000000000000000000000006000000000000000000000000000000000000000000000000000000000000006000000000000000000000000000000000000000000000000000000000000000c000000000000000000000000000000000000000000000000000000000000000370015171f090e070e070e070e07020701000b07020701000b07020701000b07020701000b07020701000b07020701000b07020701000b070000000000000000000000000000000000000000000000000000000000000000000000000000000011626f64792d636f6d7075746572626c7565000000000000000000000000000000",
          "blockHash": "0xfad66db96b77dd8c3a876ecc0ae23d89c58734c6ac43d64ad03061ae97f77a93",
          "blockNumber": "0xd202fc",
          "transactionHash": "0xd0eba4c7b759a5ab6b224540a76003257bb0377c55bbae0bee1a8250b256c24c",
          "transactionIndex": "0x5",
          "logIndex": "0x4",
          "removed": false
        }
      ],
      "status": "0x1",
      "logsBloom": "0x00000000000000000000000000000000000000000000000000000000000000000000000000000000000000000000000000000000000000000000000000000000000020000000000000000000000000000000000000000000000000000000000000000000000000000000008000001000000000000000000000000000000000000000000000000000000000000000000200000000000000000000000100000000000000000000000000000000000000000000000000000000000000000000000000000000000000000002000000000000000000000000000000000000000000000000000000000000000000000000000000000000000000000000000000000000",
      "type": "0x2",
      "effectiveGasPrice": "0xb353e925"
    },
    {
      "transactionHash": "0xb2086e92efbb6fd0dc94597896f16e1627ad539fa75e675bb48add722fd5491a",
      "transactionIndex": "0x6",
      "blockHash": "0xfad66db96b77dd8c3a876ecc0ae23d89c58734c6ac43d64ad03061ae97f77a93",
      "blockNumber": "0xd202fc",
      "from": "0xfC29eDCe481c4D7D2CDa4c0Ad6bF6C5Fcf128704",
      "to": "0xb185d82B82257994c4f252Cc094385657370083b",
      "cumulativeGasUsed": "0xcf5f1",
      "gasUsed": "0x20c75",
      "contractAddress": null,
      "logs": [
        {
          "address": "0xb185d82B82257994c4f252Cc094385657370083b",
          "topics": [
            "0x6d801405d0a92b94907b5fe1fe4295031541b6f549f7afecc30b600f579b68b0"
          ],
          "data": "0x0000000000000000000000000000000000000000000000000000000000000007000000000000000000000000000000000000000000000000000000000000006000000000000000000000000000000000000000000000000000000000000000c000000000000000000000000000000000000000000000000000000000000000370015171f090e080e080e080e08020801000b08020801000b08020801000b08020801000b08020801000b08020801000b08020801000b08000000000000000000000000000000000000000000000000000000000000000000000000000000000e626f64792d6461726b62726f776e000000000000000000000000000000000000",
          "blockHash": "0xfad66db96b77dd8c3a876ecc0ae23d89c58734c6ac43d64ad03061ae97f77a93",
          "blockNumber": "0xd202fc",
          "transactionHash": "0xb2086e92efbb6fd0dc94597896f16e1627ad539fa75e675bb48add722fd5491a",
          "transactionIndex": "0x6",
          "logIndex": "0x5",
          "removed": false
        }
      ],
      "status": "0x1",
      "logsBloom": "0x00000000000000000000000000000000000000000000000000000000000000000000000000000000000000000000000000000000000000000000000000000000000020000000000000000000000000000000000000000000000000000000000000000000000000000000008000001000000000000000000000000000000000000000000000000000000000000000000200000000000000000000000100000000000000000000000000000000000000000000000000000000000000000000000000000000000000000002000000000000000000000000000000000000000000000000000000000000000000000000000000000000000000000000000000000000",
      "type": "0x2",
      "effectiveGasPrice": "0xb353e925"
    },
    {
      "transactionHash": "0xb64ae00764aedf839c060ccfae616da3dd97a005c721dd3ebcb0e2882937cb83",
      "transactionIndex": "0x7",
      "blockHash": "0xfad66db96b77dd8c3a876ecc0ae23d89c58734c6ac43d64ad03061ae97f77a93",
      "blockNumber": "0xd202fc",
      "from": "0xfC29eDCe481c4D7D2CDa4c0Ad6bF6C5Fcf128704",
      "to": "0xb185d82B82257994c4f252Cc094385657370083b",
      "cumulativeGasUsed": "0xf025a",
      "gasUsed": "0x20c69",
      "contractAddress": null,
      "logs": [
        {
          "address": "0xb185d82B82257994c4f252Cc094385657370083b",
          "topics": [
            "0x6d801405d0a92b94907b5fe1fe4295031541b6f549f7afecc30b600f579b68b0"
          ],
          "data": "0x0000000000000000000000000000000000000000000000000000000000000008000000000000000000000000000000000000000000000000000000000000006000000000000000000000000000000000000000000000000000000000000000c000000000000000000000000000000000000000000000000000000000000000370015171f090e090e090e090e09020901000b09020901000b09020901000b09020901000b09020901000b09020901000b09020901000b09000000000000000000000000000000000000000000000000000000000000000000000000000000000d626f64792d6461726b70696e6b00000000000000000000000000000000000000",
          "blockHash": "0xfad66db96b77dd8c3a876ecc0ae23d89c58734c6ac43d64ad03061ae97f77a93",
          "blockNumber": "0xd202fc",
          "transactionHash": "0xb64ae00764aedf839c060ccfae616da3dd97a005c721dd3ebcb0e2882937cb83",
          "transactionIndex": "0x7",
          "logIndex": "0x6",
          "removed": false
        }
      ],
      "status": "0x1",
      "logsBloom": "0x00000000000000000000000000000000000000000000000000000000000000000000000000000000000000000000000000000000000000000000000000000000000020000000000000000000000000000000000000000000000000000000000000000000000000000000008000001000000000000000000000000000000000000000000000000000000000000000000200000000000000000000000100000000000000000000000000000000000000000000000000000000000000000000000000000000000000000002000000000000000000000000000000000000000000000000000000000000000000000000000000000000000000000000000000000000",
      "type": "0x2",
      "effectiveGasPrice": "0xb353e925"
    },
    {
      "transactionHash": "0xd9ccfbf9cc652d03ec7ae0aa15e2fdcde9ec64071c9df5215d6c520ff3966115",
      "transactionIndex": "0x8",
      "blockHash": "0xfad66db96b77dd8c3a876ecc0ae23d89c58734c6ac43d64ad03061ae97f77a93",
      "blockNumber": "0xd202fc",
      "from": "0xfC29eDCe481c4D7D2CDa4c0Ad6bF6C5Fcf128704",
      "to": "0xb185d82B82257994c4f252Cc094385657370083b",
      "cumulativeGasUsed": "0x110eb7",
      "gasUsed": "0x20c5d",
      "contractAddress": null,
      "logs": [
        {
          "address": "0xb185d82B82257994c4f252Cc094385657370083b",
          "topics": [
            "0x6d801405d0a92b94907b5fe1fe4295031541b6f549f7afecc30b600f579b68b0"
          ],
          "data": "0x0000000000000000000000000000000000000000000000000000000000000009000000000000000000000000000000000000000000000000000000000000006000000000000000000000000000000000000000000000000000000000000000c000000000000000000000000000000000000000000000000000000000000000370015171f090e030e030e030e03020301000b03020301000b03020301000b03020301000b03020301000b03020301000b03020301000b03000000000000000000000000000000000000000000000000000000000000000000000000000000000c626f64792d666f67677265790000000000000000000000000000000000000000",
          "blockHash": "0xfad66db96b77dd8c3a876ecc0ae23d89c58734c6ac43d64ad03061ae97f77a93",
          "blockNumber": "0xd202fc",
          "transactionHash": "0xd9ccfbf9cc652d03ec7ae0aa15e2fdcde9ec64071c9df5215d6c520ff3966115",
          "transactionIndex": "0x8",
          "logIndex": "0x7",
          "removed": false
        }
      ],
      "status": "0x1",
      "logsBloom": "0x00000000000000000000000000000000000000000000000000000000000000000000000000000000000000000000000000000000000000000000000000000000000020000000000000000000000000000000000000000000000000000000000000000000000000000000008000001000000000000000000000000000000000000000000000000000000000000000000200000000000000000000000100000000000000000000000000000000000000000000000000000000000000000000000000000000000000000002000000000000000000000000000000000000000000000000000000000000000000000000000000000000000000000000000000000000",
      "type": "0x2",
      "effectiveGasPrice": "0xb353e925"
    },
    {
      "transactionHash": "0x0b044c27e1c2f80ab0573f9939f25101f45600748f2296b90274e5c399b45603",
      "transactionIndex": "0x9",
      "blockHash": "0xfad66db96b77dd8c3a876ecc0ae23d89c58734c6ac43d64ad03061ae97f77a93",
      "blockNumber": "0xd202fc",
      "from": "0xfC29eDCe481c4D7D2CDa4c0Ad6bF6C5Fcf128704",
      "to": "0xb185d82B82257994c4f252Cc094385657370083b",
      "cumulativeGasUsed": "0x131af0",
      "gasUsed": "0x20c39",
      "contractAddress": null,
      "logs": [
        {
          "address": "0xb185d82B82257994c4f252Cc094385657370083b",
          "topics": [
            "0x6d801405d0a92b94907b5fe1fe4295031541b6f549f7afecc30b600f579b68b0"
          ],
          "data": "0x000000000000000000000000000000000000000000000000000000000000000a000000000000000000000000000000000000000000000000000000000000006000000000000000000000000000000000000000000000000000000000000000c000000000000000000000000000000000000000000000000000000000000000370015171f090e0a0e0a0e0a0e0a020a01000b0a020a01000b0a020a01000b0a020a01000b0a020a01000b0a020a01000b0a020a01000b0a0000000000000000000000000000000000000000000000000000000000000000000000000000000009626f64792d676f6c640000000000000000000000000000000000000000000000",
          "blockHash": "0xfad66db96b77dd8c3a876ecc0ae23d89c58734c6ac43d64ad03061ae97f77a93",
          "blockNumber": "0xd202fc",
          "transactionHash": "0x0b044c27e1c2f80ab0573f9939f25101f45600748f2296b90274e5c399b45603",
          "transactionIndex": "0x9",
          "logIndex": "0x8",
          "removed": false
        }
      ],
      "status": "0x1",
      "logsBloom": "0x00000000000000000000000000000000000000000000000000000000000000000000000000000000000000000000000000000000000000000000000000000000000020000000000000000000000000000000000000000000000000000000000000000000000000000000008000001000000000000000000000000000000000000000000000000000000000000000000200000000000000000000000100000000000000000000000000000000000000000000000000000000000000000000000000000000000000000002000000000000000000000000000000000000000000000000000000000000000000000000000000000000000000000000000000000000",
      "type": "0x2",
      "effectiveGasPrice": "0xb353e925"
    }
  ],
  "libraries": [],
  "pending": [],
  "returns": {},
  "timestamp": 1723294938,
  "chain": 84532,
  "commit": "3bb51a9"
}