{
  "transactions": [
    {
      "hash": "0x11a89262f585e719161fb5b115732834ee78fcc6838757e83b4c06ba3d9d5cc3",
      "transactionType": "CALL",
      "contractName": "ERC6551Registry",
      "contractAddress": "0x000000006551c19487814612e58FE06813775758",
      "function": "createAccount(address,bytes32,uint256,address,uint256)",
      "arguments": [
        "0x41C8f39463A868d3A88af00cd0fe7102F30E44eC",
        "0x0000000000000000000000000000000000000000000000000000000000000000",
        "5",
        "0x30512C982e4461521E26812401C848b44d6cC36F",
        "1"
      ],
      "transaction": {
        "type": "0x02",
        "from": "0xe7affdb964178261df49b86bfdba78e9d768db6d",
        "to": "0x000000006551c19487814612e58fe06813775758",
        "gas": "0x2001f",
        "value": "0x0",
        "data": "0x8a54c52f00000000000000000000000041c8f39463a868d3a88af00cd0fe7102f30e44ec0000000000000000000000000000000000000000000000000000000000000000000000000000000000000000000000000000000000000000000000000000000500000000000000000000000030512c982e4461521e26812401c848b44d6cc36f0000000000000000000000000000000000000000000000000000000000000001",
        "nonce": "0x208",
        "accessList": []
      },
      "additionalContracts": [
        {
          "transactionType": "CREATE2",
          "address": "0xB55A435251992d8EDD70B6251b48dD3C1f03afC9",
          "initCode": "0x3d60ad80600a3d3981f3363d3d373d3d3d363d7341c8f39463a868d3a88af00cd0fe7102f30e44ec5af43d82803e903d91602b57fd5bf30000000000000000000000000000000000000000000000000000000000000000000000000000000000000000000000000000000000000000000000000000000500000000000000000000000030512c982e4461521e26812401c848b44d6cc36f0000000000000000000000000000000000000000000000000000000000000001"
        }
      ],
      "isFixedGasLimit": false
    }
  ],
  "receipts": [
    {
      "transactionHash": "0x11a89262f585e719161fb5b115732834ee78fcc6838757e83b4c06ba3d9d5cc3",
      "transactionIndex": "0x1",
      "blockHash": "0x3db24b3576a845a02ef5e6fd0fdaa47517c80c8d2a5aca3db8a06d2632e2c0da",
      "blockNumber": "0x9a723d",
      "from": "0xE7affDB964178261Df49B86BFdBA78E9d768Db6D",
      "to": "0x000000006551c19487814612e58FE06813775758",
      "cumulativeGasUsed": "0x2a6f6",
      "gasUsed": "0x172d1",
      "contractAddress": null,
      "logs": [
        {
          "address": "0x000000006551c19487814612e58FE06813775758",
          "topics": [
            "0x79f19b3655ee38b1ce526556b7731a20c8f218fbda4a3990b6cc4172fdf88722",
            "0x00000000000000000000000041c8f39463a868d3a88af00cd0fe7102f30e44ec",
            "0x00000000000000000000000030512c982e4461521e26812401c848b44d6cc36f",
            "0x0000000000000000000000000000000000000000000000000000000000000001"
          ],
          "data": "0x000000000000000000000000b55a435251992d8edd70b6251b48dd3c1f03afc900000000000000000000000000000000000000000000000000000000000000000000000000000000000000000000000000000000000000000000000000000005",
          "blockHash": "0x3db24b3576a845a02ef5e6fd0fdaa47517c80c8d2a5aca3db8a06d2632e2c0da",
          "blockNumber": "0x9a723d",
          "transactionHash": "0x11a89262f585e719161fb5b115732834ee78fcc6838757e83b4c06ba3d9d5cc3",
          "transactionIndex": "0x1",
          "logIndex": "0x3",
          "removed": false
        }
      ],
      "status": "0x1",
      "logsBloom": "0x00010000000000000000000000000004000000000000000000000004000000000000000000000200000000000000000000000000000000000000000000040000000000001000000000000000010000000000000000050000000000000000000000000000000000000000000000000000000000000000000000000000000000000000000000002000000000000000000000000000000000000004000000000000000000000000000000000000002000000000000000000000000000000000000000000000000000000000000000000000000000000000000000000000000040000000000000000000000000100000000000000000000000000000000000000100",
      "type": "0x2",
      "effectiveGasPrice": "0xb2d05e11"
    }
  ],
  "libraries": [],
  "pending": [],
  "returns": {},
  "timestamp": 1701176044,
  "chain": 5,
  "multi": false,
  "commit": "29c8de5"
}