{
  "transactions": [
    {
      "hash": "0x11a89262f585e719161fb5b115732834ee78fcc6838757e83b4c06ba3d9d5cc3",
      "transactionType": "CALL",
      "contractName": "ERC6551Registry",
      "contractAddress": "0x000000006551c19487814612e58FE06813775758",
      "function": "createAccount(address,bytes32,uint256,address,uint256)",
      "arguments": [
        "0x41C8f39463A868d3A88af00cd0fe7102F30E44eC",
        "0x0000000000000000000000000000000000000000000000000000000000000000",
        "5",
        "0x30512C982e4461521E26812401C848b44d6cC36F",
        "1"
      ],
      "transaction": {
        "type": "0x02",
        "from": "0xe7affdb964178261df49b86bfdba78e9d768db6d",
        "to": "0x000000006551c19487814612e58fe06813775758",
        "gas": "0x2001f",
        "value": "0x0",
        "data": "0x8a54c52f00000000000000000000000041c8f39463a868d3a88af00cd0fe7102f30e44ec0000000000000000000000000000000000000000000000000000000000000000000000000000000000000000000000000000000000000000000000000000000500000000000000000000000030512c982e4461521e26812401c848b44d6cc36f0000000000000000000000000000000000000000000000000000000000000001",
        "nonce": "0x208",
        "accessList": []
      },
      "additionalContracts": [
        {
          "transactionType": "CREATE2",
          "address": "0xB55A435251992d8EDD70B6251b48dD3C1f03afC9",
          "initCode": "0x3d60ad80600a3d3981f3363d3d373d3d3d363d7341c8f39463a868d3a88af00cd0fe7102f30e44ec5af43d82803e903d91602b57fd5bf30000000000000000000000000000000000000000000000000000000000000000000000000000000000000000000000000000000000000000000000000000000500000000000000000000000030512c982e4461521e26812401c848b44d6cc36f0000000000000000000000000000000000000000000000000000000000000001"
        }
      ],
      "isFixedGasLimit": false
    }
  ],
  "receipts": [],
  "libraries": [],
  "pending": [
    "0x11a89262f585e719161fb5b115732834ee78fcc6838757e83b4c06ba3d9d5cc3"
  ],
  "returns": {},
  "timestamp": 1701176038,
  "chain": 5,
  "multi": false,
  "commit": "29c8de5"
}