{
  "transactions": [
    {
      "hash": "0x3b9f48c93201f0fc998a721ba30d6618292178612fd135ee59d2bb4fcd72932a",
      "transactionType": "CALL",
      "contractName": null,
      "contractAddress": "0x2C333bd1316cE1aF9EBF017a595D6f8AB5f6BD1A",
      "function": "createERC721(address,bytes32,address,string,string,bytes)",
      "arguments": [
        "0xB5764bd3AD21A58f723DB04Aeb97a428c7bdDE2a",
        "0x0000000000000000000000000000000000000000000000000000000000000000",
        "0xE7affDB964178261Df49B86BFdBA78E9d768Db6D",
        "Noun Citizens",
        "NPC",
        "0xac9650d800000000000000000000000000000000000000000000000000000000000000200000000000000000000000000000000000000000000000000000000000000003000000000000000000000000000000000000000000000000000000000000006000000000000000000000000000000000000000000000000000000000000000e0000000000000000000000000000000000000000000000000000000000000016000000000000000000000000000000000000000000000000000000000000000440439a74a522cd59f000000000000000000000000000000000000000000000000000000000000000000000000000000003613ecbddf54710de21df9fd684b21f349e6adc90000000000000000000000000000000000000000000000000000000000000000000000000000000000000000000000000000000000000000000000440439a74a073bca34000000000000000000000000000000000000000000000000000000000000000000000000000000003613ecbddf54710de21df9fd684b21f349e6adc90000000000000000000000000000000000000000000000000000000000000000000000000000000000000000000000000000000000000000000000440439a74a8638c449000000000000000000000000000000000000000000000000000000000000000000000000000000003613ecbddf54710de21df9fd684b21f349e6adc900000000000000000000000000000000000000000000000000000000"
      ],
      "transaction": {
        "type": "0x02",
        "from": "0xe7affdb964178261df49b86bfdba78e9d768db6d",
        "to": "0x2c333bd1316ce1af9ebf017a595d6f8ab5f6bd1a",
        "gas": "0x909af",
        "value": "0x0",
        "data": "0xab18fd3a000000000000000000000000b5764bd3ad21a58f723db04aeb97a428c7bdde2a0000000000000000000000000000000000000000000000000000000000000000000000000000000000000000e7affdb964178261df49b86bfdba78e9d768db6d00000000000000000000000000000000000000000000000000000000000000c000000000000000000000000000000000000000000000000000000000000001000000000000000000000000000000000000000000000000000000000000000140000000000000000000000000000000000000000000000000000000000000000d4e6f756e20436974697a656e730000000000000000000000000000000000000000000000000000000000000000000000000000000000000000000000000000034e504300000000000000000000000000000000000000000000000000000000000000000000000000000000000000000000000000000000000000000000000224ac9650d800000000000000000000000000000000000000000000000000000000000000200000000000000000000000000000000000000000000000000000000000000003000000000000000000000000000000000000000000000000000000000000006000000000000000000000000000000000000000000000000000000000000000e0000000000000000000000000000000000000000000000000000000000000016000000000000000000000000000000000000000000000000000000000000000440439a74a522cd59f000000000000000000000000000000000000000000000000000000000000000000000000000000003613ecbddf54710de21df9fd684b21f349e6adc90000000000000000000000000000000000000000000000000000000000000000000000000000000000000000000000000000000000000000000000440439a74a073bca34000000000000000000000000000000000000000000000000000000000000000000000000000000003613ecbddf54710de21df9fd684b21f349e6adc90000000000000000000000000000000000000000000000000000000000000000000000000000000000000000000000000000000000000000000000440439a74a8638c449000000000000000000000000000000000000000000000000000000000000000000000000000000003613ecbddf54710de21df9fd684b21f349e6adc90000000000000000000000000000000000000000000000000000000000000000000000000000000000000000000000000000000000000000",
        "nonce": "0x246",
        "accessList": []
      },
      "additionalContracts": [
        {
          "transactionType": "CREATE2",
          "address": "0x4dD30A31962431da2e7359de2527eeD09902B65F",
          "initCode": "0x60806040526040516104e13803806104e1833981016040819052610022916102de565b61002e82826000610035565b50506103fb565b61003e83610061565b60008251118061004b5750805b1561005c5761005a83836100a1565b505b505050565b61006a816100cd565b6040516001600160a01b038216907fbc7cd75a20ee27fd9adebab32041f755214dbc6bffa90cc0225b39da2e5c2d3b90600090a250565b60606100c683836040518060600160405280602781526020016104ba60279139610180565b9392505050565b6001600160a01b0381163b61013f5760405162461bcd60e51b815260206004820152602d60248201527f455243313936373a206e657720696d706c656d656e746174696f6e206973206e60448201526c1bdd08184818dbdb9d1c9858dd609a1b60648201526084015b60405180910390fd5b7f360894a13ba1a3210667c828492db98dca3e2076cc3735a920a3ca505d382bbc80546001600160a01b0319166001600160a01b0392909216919091179055565b6060600080856001600160a01b03168560405161019d91906103ac565b600060405180830381855af49150503d80600081146101d8576040519150601f19603f3d011682016040523d82523d6000602084013e6101dd565b606091505b5090925090506101ef868383876101f9565b9695505050505050565b60608315610268578251600003610261576001600160a01b0385163b6102615760405162461bcd60e51b815260206004820152601d60248201527f416464726573733a2063616c6c20746f206e6f6e2d636f6e74726163740000006044820152606401610136565b5081610272565b610272838361027a565b949350505050565b81511561028a5781518083602001fd5b8060405162461bcd60e51b815260040161013691906103c8565b634e487b7160e01b600052604160045260246000fd5b60005b838110156102d55781810151838201526020016102bd565b50506000910152565b600080604083850312156102f157600080fd5b82516001600160a01b038116811461030857600080fd5b60208401519092506001600160401b038082111561032557600080fd5b818501915085601f83011261033957600080fd5b81518181111561034b5761034b6102a4565b604051601f8201601f19908116603f01168101908382118183101715610373576103736102a4565b8160405282815288602084870101111561038c57600080fd5b61039d8360208301602088016102ba565b80955050505050509250929050565b600082516103be8184602087016102ba565b9190910192915050565b60208152600082518060208401526103e78160408501602087016102ba565b601f01601f19169190910160400192915050565b60b1806104096000396000f3fe608060405236601057600e6013565b005b600e5b601f601b6021565b6058565b565b600060537f360894a13ba1a3210667c828492db98dca3e2076cc3735a920a3ca505d382bbc546001600160a01b031690565b905090565b3660008037600080366000845af43d6000803e8080156076573d6000f35b3d6000fdfea2646970667358221220ec84ce9443891f3a401aa6c956ca0ef59ce333eda614fa39e8d1f78f30de3ed264736f6c63430008130033416464726573733a206c6f772d6c6576656c2064656c65676174652063616c6c206661696c6564000000000000000000000000b5764bd3ad21a58f723db04aeb97a428c7bdde2a00000000000000000000000000000000000000000000000000000000000000400000000000000000000000000000000000000000000000000000000000000000"
        }
      ],
      "isFixedGasLimit": false
    },
    {
      "hash": "0x6a17248ce8755ca9eda132d4fb15434b8f869b6c1917ae6e1678d50ad0805ac7",
      "transactionType": "CALL",
      "contractName": null,
      "contractAddress": "0x2C333bd1316cE1aF9EBF017a595D6f8AB5f6BD1A",
      "function": "createERC1155(address,bytes32,address,string,string,bytes)",
      "arguments": [
        "0x053809DFdd2443616d324c93e1DFC6a2076F976B",
        "0x0000000000000000000000000000000000000000000000000000000000000000",
        "0xE7affDB964178261Df49B86BFdBA78E9d768Db6D",
        "NPC Trait",
        "NPCT",
        "0xac9650d8000000000000000000000000000000000000000000000000000000000000002000000000000000000000000000000000000000000000000000000000000000080000000000000000000000000000000000000000000000000000000000000100000000000000000000000000000000000000000000000000000000000000018000000000000000000000000000000000000000000000000000000000000002000000000000000000000000000000000000000000000000000000000000000280000000000000000000000000000000000000000000000000000000000000030000000000000000000000000000000000000000000000000000000000000003800000000000000000000000000000000000000000000000000000000000000400000000000000000000000000000000000000000000000000000000000000048000000000000000000000000000000000000000000000000000000000000000440439a74a6bced38a0000000000000000000000000000000000000000000000000000000000000000000000000000000046ae0962537593ab92f5ec98d0d99bce8f137de20000000000000000000000000000000000000000000000000000000000000000000000000000000000000000000000000000000000000000000000440439a74a251faf180000000000000000000000000000000000000000000000000000000000000000000000000000000046ae0962537593ab92f5ec98d0d99bce8f137de20000000000000000000000000000000000000000000000000000000000000000000000000000000000000000000000000000000000000000000000440439a74a0d29e4c00000000000000000000000000000000000000000000000000000000000000000000000000000000046ae0962537593ab92f5ec98d0d99bce8f137de20000000000000000000000000000000000000000000000000000000000000000000000000000000000000000000000000000000000000000000000440439a74a5aee048e0000000000000000000000000000000000000000000000000000000000000000000000000000000046ae0962537593ab92f5ec98d0d99bce8f137de20000000000000000000000000000000000000000000000000000000000000000000000000000000000000000000000000000000000000000000000440439a74a87c7a30f0000000000000000000000000000000000000000000000000000000000000000000000000000000026431f48c445a04bb526fe403247deafb00062060000000000000000000000000000000000000000000000000000000000000000000000000000000000000000000000000000000000000000000000440439a74a1b5bba6a0000000000000000000000000000000000000000000000000000000000000000000000000000000026431f48c445a04bb526fe403247deafb00062060000000000000000000000000000000000000000000000000000000000000000000000000000000000000000000000000000000000000000000000440439a74ae0c95a8400000000000000000000000000000000000000000000000000000000000000000000000000000000d3a8bb5a181993e869ac89bf6e66f68aeabdb7ff0000000000000000000000000000000000000000000000000000000000000000000000000000000000000000000000000000000000000000000000440439a74a073bca3400000000000000000000000000000000000000000000000000000000000000000000000000000000d3a8bb5a181993e869ac89bf6e66f68aeabdb7ff00000000000000000000000000000000000000000000000000000000"
      ],
      "transaction": {
        "type": "0x02",
        "from": "0xe7affdb964178261df49b86bfdba78e9d768db6d",
        "to": "0x2c333bd1316ce1af9ebf017a595d6f8ab5f6bd1a",
        "gas": "0xb6249",
        "value": "0x0",
        "data": "0x40c06536000000000000000000000000053809dfdd2443616d324c93e1dfc6a2076f976b0000000000000000000000000000000000000000000000000000000000000000000000000000000000000000e7affdb964178261df49b86bfdba78e9d768db6d00000000000000000000000000000000000000000000000000000000000000c00000000000000000000000000000000000000000000000000000000000000100000000000000000000000000000000000000000000000000000000000000014000000000000000000000000000000000000000000000000000000000000000094e5043205472616974000000000000000000000000000000000000000000000000000000000000000000000000000000000000000000000000000000000000044e504354000000000000000000000000000000000000000000000000000000000000000000000000000000000000000000000000000000000000000000000544ac9650d8000000000000000000000000000000000000000000000000000000000000002000000000000000000000000000000000000000000000000000000000000000080000000000000000000000000000000000000000000000000000000000000100000000000000000000000000000000000000000000000000000000000000018000000000000000000000000000000000000000000000000000000000000002000000000000000000000000000000000000000000000000000000000000000280000000000000000000000000000000000000000000000000000000000000030000000000000000000000000000000000000000000000000000000000000003800000000000000000000000000000000000000000000000000000000000000400000000000000000000000000000000000000000000000000000000000000048000000000000000000000000000000000000000000000000000000000000000440439a74a6bced38a0000000000000000000000000000000000000000000000000000000000000000000000000000000046ae0962537593ab92f5ec98d0d99bce8f137de20000000000000000000000000000000000000000000000000000000000000000000000000000000000000000000000000000000000000000000000440439a74a251faf180000000000000000000000000000000000000000000000000000000000000000000000000000000046ae0962537593ab92f5ec98d0d99bce8f137de20000000000000000000000000000000000000000000000000000000000000000000000000000000000000000000000000000000000000000000000440439a74a0d29e4c00000000000000000000000000000000000000000000000000000000000000000000000000000000046ae0962537593ab92f5ec98d0d99bce8f137de20000000000000000000000000000000000000000000000000000000000000000000000000000000000000000000000000000000000000000000000440439a74a5aee048e0000000000000000000000000000000000000000000000000000000000000000000000000000000046ae0962537593ab92f5ec98d0d99bce8f137de20000000000000000000000000000000000000000000000000000000000000000000000000000000000000000000000000000000000000000000000440439a74a87c7a30f0000000000000000000000000000000000000000000000000000000000000000000000000000000026431f48c445a04bb526fe403247deafb00062060000000000000000000000000000000000000000000000000000000000000000000000000000000000000000000000000000000000000000000000440439a74a1b5bba6a0000000000000000000000000000000000000000000000000000000000000000000000000000000026431f48c445a04bb526fe403247deafb00062060000000000000000000000000000000000000000000000000000000000000000000000000000000000000000000000000000000000000000000000440439a74ae0c95a8400000000000000000000000000000000000000000000000000000000000000000000000000000000d3a8bb5a181993e869ac89bf6e66f68aeabdb7ff0000000000000000000000000000000000000000000000000000000000000000000000000000000000000000000000000000000000000000000000440439a74a073bca3400000000000000000000000000000000000000000000000000000000000000000000000000000000d3a8bb5a181993e869ac89bf6e66f68aeabdb7ff0000000000000000000000000000000000000000000000000000000000000000000000000000000000000000000000000000000000000000",
        "nonce": "0x247",
        "accessList": []
      },
      "additionalContracts": [
        {
          "transactionType": "CREATE2",
          "address": "0x34914c7c6Bd75c1C69e14F50CE5285c2F5335e5c",
          "initCode": "0x60806040526040516104e13803806104e1833981016040819052610022916102de565b61002e82826000610035565b50506103fb565b61003e83610061565b60008251118061004b5750805b1561005c5761005a83836100a1565b505b505050565b61006a816100cd565b6040516001600160a01b038216907fbc7cd75a20ee27fd9adebab32041f755214dbc6bffa90cc0225b39da2e5c2d3b90600090a250565b60606100c683836040518060600160405280602781526020016104ba60279139610180565b9392505050565b6001600160a01b0381163b61013f5760405162461bcd60e51b815260206004820152602d60248201527f455243313936373a206e657720696d706c656d656e746174696f6e206973206e60448201526c1bdd08184818dbdb9d1c9858dd609a1b60648201526084015b60405180910390fd5b7f360894a13ba1a3210667c828492db98dca3e2076cc3735a920a3ca505d382bbc80546001600160a01b0319166001600160a01b0392909216919091179055565b6060600080856001600160a01b03168560405161019d91906103ac565b600060405180830381855af49150503d80600081146101d8576040519150601f19603f3d011682016040523d82523d6000602084013e6101dd565b606091505b5090925090506101ef868383876101f9565b9695505050505050565b60608315610268578251600003610261576001600160a01b0385163b6102615760405162461bcd60e51b815260206004820152601d60248201527f416464726573733a2063616c6c20746f206e6f6e2d636f6e74726163740000006044820152606401610136565b5081610272565b610272838361027a565b949350505050565b81511561028a5781518083602001fd5b8060405162461bcd60e51b815260040161013691906103c8565b634e487b7160e01b600052604160045260246000fd5b60005b838110156102d55781810151838201526020016102bd565b50506000910152565b600080604083850312156102f157600080fd5b82516001600160a01b038116811461030857600080fd5b60208401519092506001600160401b038082111561032557600080fd5b818501915085601f83011261033957600080fd5b81518181111561034b5761034b6102a4565b604051601f8201601f19908116603f01168101908382118183101715610373576103736102a4565b8160405282815288602084870101111561038c57600080fd5b61039d8360208301602088016102ba565b80955050505050509250929050565b600082516103be8184602087016102ba565b9190910192915050565b60208152600082518060208401526103e78160408501602087016102ba565b601f01601f19169190910160400192915050565b60b1806104096000396000f3fe608060405236601057600e6013565b005b600e5b601f601b6021565b6058565b565b600060537f360894a13ba1a3210667c828492db98dca3e2076cc3735a920a3ca505d382bbc546001600160a01b031690565b905090565b3660008037600080366000845af43d6000803e8080156076573d6000f35b3d6000fdfea2646970667358221220ec84ce9443891f3a401aa6c956ca0ef59ce333eda614fa39e8d1f78f30de3ed264736f6c63430008130033416464726573733a206c6f772d6c6576656c2064656c65676174652063616c6c206661696c6564000000000000000000000000053809dfdd2443616d324c93e1dfc6a2076f976b00000000000000000000000000000000000000000000000000000000000000400000000000000000000000000000000000000000000000000000000000000000"
        }
      ],
      "isFixedGasLimit": false
    }
  ],
  "receipts": [
    {
      "transactionHash": "0x3b9f48c93201f0fc998a721ba30d6618292178612fd135ee59d2bb4fcd72932a",
      "transactionIndex": "0x7",
      "blockHash": "0x57df37f9ec0b393794d29cce015eb28638962ab25415aa15139d0dae1d9b11fe",
      "blockNumber": "0x9ae4cd",
      "from": "0xE7affDB964178261Df49B86BFdBA78E9d768Db6D",
      "to": "0x2C333bd1316cE1aF9EBF017a595D6f8AB5f6BD1A",
      "cumulativeGasUsed": "0x4127a1",
      "gasUsed": "0x62e58",
      "contractAddress": null,
      "logs": [
        {
          "address": "0x4dD30A31962431da2e7359de2527eeD09902B65F",
          "topics": [
            "0xbc7cd75a20ee27fd9adebab32041f755214dbc6bffa90cc0225b39da2e5c2d3b",
            "0x000000000000000000000000b5764bd3ad21a58f723db04aeb97a428c7bdde2a"
          ],
          "data": "0x",
          "blockHash": "0x57df37f9ec0b393794d29cce015eb28638962ab25415aa15139d0dae1d9b11fe",
          "blockNumber": "0x9ae4cd",
          "transactionHash": "0x3b9f48c93201f0fc998a721ba30d6618292178612fd135ee59d2bb4fcd72932a",
          "transactionIndex": "0x7",
          "logIndex": "0x2c",
          "removed": false
        },
        {
          "address": "0x2C333bd1316cE1aF9EBF017a595D6f8AB5f6BD1A",
          "topics": [
            "0x25b1a846e96937f571b6f2a73a73cd1925e5c62f86fa04e12d4e67022e09edec",
            "0x0000000000000000000000004dd30a31962431da2e7359de2527eed09902b65f"
          ],
          "data": "0x",
          "blockHash": "0x57df37f9ec0b393794d29cce015eb28638962ab25415aa15139d0dae1d9b11fe",
          "blockNumber": "0x9ae4cd",
          "transactionHash": "0x3b9f48c93201f0fc998a721ba30d6618292178612fd135ee59d2bb4fcd72932a",
          "transactionIndex": "0x7",
          "logIndex": "0x2d",
          "removed": false
        },
        {
          "address": "0x4dD30A31962431da2e7359de2527eeD09902B65F",
          "topics": [
            "0x9f7688a97f1ac51fe03bac18af18d6810f9f11f0db08c59b1938a9ac825ef744"
          ],
          "data": "0x0000000000000000000000000000000000000000000000000000000000000020000000000000000000000000000000000000000000000000000000000000000d4e6f756e20436974697a656e7300000000000000000000000000000000000000",
          "blockHash": "0x57df37f9ec0b393794d29cce015eb28638962ab25415aa15139d0dae1d9b11fe",
          "blockNumber": "0x9ae4cd",
          "transactionHash": "0x3b9f48c93201f0fc998a721ba30d6618292178612fd135ee59d2bb4fcd72932a",
          "transactionIndex": "0x7",
          "logIndex": "0x2e",
          "removed": false
        },
        {
          "address": "0x4dD30A31962431da2e7359de2527eeD09902B65F",
          "topics": [
            "0xee007fd2e1891a2f6c8408b57ade5b0550dea71a5a06cc4df7ded4646a4584a5"
          ],
          "data": "0x000000000000000000000000000000000000000000000000000000000000002000000000000000000000000000000000000000000000000000000000000000034e50430000000000000000000000000000000000000000000000000000000000",
          "blockHash": "0x57df37f9ec0b393794d29cce015eb28638962ab25415aa15139d0dae1d9b11fe",
          "blockNumber": "0x9ae4cd",
          "transactionHash": "0x3b9f48c93201f0fc998a721ba30d6618292178612fd135ee59d2bb4fcd72932a",
          "transactionIndex": "0x7",
          "logIndex": "0x2f",
          "removed": false
        },
        {
          "address": "0x4dD30A31962431da2e7359de2527eeD09902B65F",
          "topics": [
            "0x8be0079c531659141344cd1fd0a4f28419497f9722a3daafe3b4186f6b6457e0",
            "0x0000000000000000000000000000000000000000000000000000000000000000",
            "0x0000000000000000000000002c333bd1316ce1af9ebf017a595d6f8ab5f6bd1a"
          ],
          "data": "0x",
          "blockHash": "0x57df37f9ec0b393794d29cce015eb28638962ab25415aa15139d0dae1d9b11fe",
          "blockNumber": "0x9ae4cd",
          "transactionHash": "0x3b9f48c93201f0fc998a721ba30d6618292178612fd135ee59d2bb4fcd72932a",
          "transactionIndex": "0x7",
          "logIndex": "0x30",
          "removed": false
        },
        {
          "address": "0x4dD30A31962431da2e7359de2527eeD09902B65F",
          "topics": [
            "0xf1a5d3e66660bd9e7b8ebd2a61970410ac63e9e1a874ebb0e0396cd4b41ac125",
            "0x522cd59f00000000000000000000000000000000000000000000000000000000",
            "0x0000000000000000000000000000000000000000000000000000000000000000",
            "0x0000000000000000000000003613ecbddf54710de21df9fd684b21f349e6adc9"
          ],
          "data": "0x",
          "blockHash": "0x57df37f9ec0b393794d29cce015eb28638962ab25415aa15139d0dae1d9b11fe",
          "blockNumber": "0x9ae4cd",
          "transactionHash": "0x3b9f48c93201f0fc998a721ba30d6618292178612fd135ee59d2bb4fcd72932a",
          "transactionIndex": "0x7",
          "logIndex": "0x31",
          "removed": false
        },
        {
          "address": "0x4dD30A31962431da2e7359de2527eeD09902B65F",
          "topics": [
            "0xf1a5d3e66660bd9e7b8ebd2a61970410ac63e9e1a874ebb0e0396cd4b41ac125",
            "0x073bca3400000000000000000000000000000000000000000000000000000000",
            "0x0000000000000000000000000000000000000000000000000000000000000000",
            "0x0000000000000000000000003613ecbddf54710de21df9fd684b21f349e6adc9"
          ],
          "data": "0x",
          "blockHash": "0x57df37f9ec0b393794d29cce015eb28638962ab25415aa15139d0dae1d9b11fe",
          "blockNumber": "0x9ae4cd",
          "transactionHash": "0x3b9f48c93201f0fc998a721ba30d6618292178612fd135ee59d2bb4fcd72932a",
          "transactionIndex": "0x7",
          "logIndex": "0x32",
          "removed": false
        },
        {
          "address": "0x4dD30A31962431da2e7359de2527eeD09902B65F",
          "topics": [
            "0xf1a5d3e66660bd9e7b8ebd2a61970410ac63e9e1a874ebb0e0396cd4b41ac125",
            "0x8638c44900000000000000000000000000000000000000000000000000000000",
            "0x0000000000000000000000000000000000000000000000000000000000000000",
            "0x0000000000000000000000003613ecbddf54710de21df9fd684b21f349e6adc9"
          ],
          "data": "0x",
          "blockHash": "0x57df37f9ec0b393794d29cce015eb28638962ab25415aa15139d0dae1d9b11fe",
          "blockNumber": "0x9ae4cd",
          "transactionHash": "0x3b9f48c93201f0fc998a721ba30d6618292178612fd135ee59d2bb4fcd72932a",
          "transactionIndex": "0x7",
          "logIndex": "0x33",
          "removed": false
        },
        {
          "address": "0x4dD30A31962431da2e7359de2527eeD09902B65F",
          "topics": [
            "0x8be0079c531659141344cd1fd0a4f28419497f9722a3daafe3b4186f6b6457e0",
            "0x0000000000000000000000002c333bd1316ce1af9ebf017a595d6f8ab5f6bd1a",
            "0x000000000000000000000000e7affdb964178261df49b86bfdba78e9d768db6d"
          ],
          "data": "0x",
          "blockHash": "0x57df37f9ec0b393794d29cce015eb28638962ab25415aa15139d0dae1d9b11fe",
          "blockNumber": "0x9ae4cd",
          "transactionHash": "0x3b9f48c93201f0fc998a721ba30d6618292178612fd135ee59d2bb4fcd72932a",
          "transactionIndex": "0x7",
          "logIndex": "0x34",
          "removed": false
        },
        {
          "address": "0x4dD30A31962431da2e7359de2527eeD09902B65F",
          "topics": [
            "0x5daa87a0e9463431830481fd4b6e3403442dfb9a12b9c07597e9f61d50b633c8"
          ],
          "data": "0x",
          "blockHash": "0x57df37f9ec0b393794d29cce015eb28638962ab25415aa15139d0dae1d9b11fe",
          "blockNumber": "0x9ae4cd",
          "transactionHash": "0x3b9f48c93201f0fc998a721ba30d6618292178612fd135ee59d2bb4fcd72932a",
          "transactionIndex": "0x7",
          "logIndex": "0x35",
          "removed": false
        }
      ],
      "status": "0x1",
      "logsBloom": "0x0000000000000000800000000000000040000000000088000080000000000000000000000080000000100000000000000100040000004000000000200000011000001000000000000000000000002200000100000000000000100c00008000000004000002000040000000000000080000000000000000008008000000000040000000000000000800000000000000000000000000000000000008800010000000000000000800000400004000000000000000c000000100000000000004001080008020000000000000000000040008010004080000000000000000001021000000000000000000000000000000000001000040000000000000000000002000",
      "type": "0x2",
      "effectiveGasPrice": "0xb2d05e70"
    },
    {
      "transactionHash": "0x6a17248ce8755ca9eda132d4fb15434b8f869b6c1917ae6e1678d50ad0805ac7",
      "transactionIndex": "0x8",
      "blockHash": "0x57df37f9ec0b393794d29cce015eb28638962ab25415aa15139d0dae1d9b11fe",
      "blockNumber": "0x9ae4cd",
      "from": "0xE7affDB964178261Df49B86BFdBA78E9d768Db6D",
      "to": "0x2C333bd1316cE1aF9EBF017a595D6f8AB5f6BD1A",
      "cumulativeGasUsed": "0x4965db",
      "gasUsed": "0x83e3a",
      "contractAddress": null,
      "logs": [
        {
          "address": "0x34914c7c6Bd75c1C69e14F50CE5285c2F5335e5c",
          "topics": [
            "0xbc7cd75a20ee27fd9adebab32041f755214dbc6bffa90cc0225b39da2e5c2d3b",
            "0x000000000000000000000000053809dfdd2443616d324c93e1dfc6a2076f976b"
          ],
          "data": "0x",
          "blockHash": "0x57df37f9ec0b393794d29cce015eb28638962ab25415aa15139d0dae1d9b11fe",
          "blockNumber": "0x9ae4cd",
          "transactionHash": "0x6a17248ce8755ca9eda132d4fb15434b8f869b6c1917ae6e1678d50ad0805ac7",
          "transactionIndex": "0x8",
          "logIndex": "0x36",
          "removed": false
        },
        {
          "address": "0x2C333bd1316cE1aF9EBF017a595D6f8AB5f6BD1A",
          "topics": [
            "0x219423f6178d1126524af73954b790c814a8b0dabcd8a687e2a5bec02aed62c1",
            "0x00000000000000000000000034914c7c6bd75c1c69e14f50ce5285c2f5335e5c"
          ],
          "data": "0x",
          "blockHash": "0x57df37f9ec0b393794d29cce015eb28638962ab25415aa15139d0dae1d9b11fe",
          "blockNumber": "0x9ae4cd",
          "transactionHash": "0x6a17248ce8755ca9eda132d4fb15434b8f869b6c1917ae6e1678d50ad0805ac7",
          "transactionIndex": "0x8",
          "logIndex": "0x37",
          "removed": false
        },
        {
          "address": "0x34914c7c6Bd75c1C69e14F50CE5285c2F5335e5c",
          "topics": [
            "0x9f7688a97f1ac51fe03bac18af18d6810f9f11f0db08c59b1938a9ac825ef744"
          ],
          "data": "0x000000000000000000000000000000000000000000000000000000000000002000000000000000000000000000000000000000000000000000000000000000094e50432054726169740000000000000000000000000000000000000000000000",
          "blockHash": "0x57df37f9ec0b393794d29cce015eb28638962ab25415aa15139d0dae1d9b11fe",
          "blockNumber": "0x9ae4cd",
          "transactionHash": "0x6a17248ce8755ca9eda132d4fb15434b8f869b6c1917ae6e1678d50ad0805ac7",
          "transactionIndex": "0x8",
          "logIndex": "0x38",
          "removed": false
        },
        {
          "address": "0x34914c7c6Bd75c1C69e14F50CE5285c2F5335e5c",
          "topics": [
            "0xee007fd2e1891a2f6c8408b57ade5b0550dea71a5a06cc4df7ded4646a4584a5"
          ],
          "data": "0x000000000000000000000000000000000000000000000000000000000000002000000000000000000000000000000000000000000000000000000000000000044e50435400000000000000000000000000000000000000000000000000000000",
          "blockHash": "0x57df37f9ec0b393794d29cce015eb28638962ab25415aa15139d0dae1d9b11fe",
          "blockNumber": "0x9ae4cd",
          "transactionHash": "0x6a17248ce8755ca9eda132d4fb15434b8f869b6c1917ae6e1678d50ad0805ac7",
          "transactionIndex": "0x8",
          "logIndex": "0x39",
          "removed": false
        },
        {
          "address": "0x34914c7c6Bd75c1C69e14F50CE5285c2F5335e5c",
          "topics": [
            "0x8be0079c531659141344cd1fd0a4f28419497f9722a3daafe3b4186f6b6457e0",
            "0x0000000000000000000000000000000000000000000000000000000000000000",
            "0x0000000000000000000000002c333bd1316ce1af9ebf017a595d6f8ab5f6bd1a"
          ],
          "data": "0x",
          "blockHash": "0x57df37f9ec0b393794d29cce015eb28638962ab25415aa15139d0dae1d9b11fe",
          "blockNumber": "0x9ae4cd",
          "transactionHash": "0x6a17248ce8755ca9eda132d4fb15434b8f869b6c1917ae6e1678d50ad0805ac7",
          "transactionIndex": "0x8",
          "logIndex": "0x3a",
          "removed": false
        },
        {
          "address": "0x34914c7c6Bd75c1C69e14F50CE5285c2F5335e5c",
          "topics": [
            "0xf1a5d3e66660bd9e7b8ebd2a61970410ac63e9e1a874ebb0e0396cd4b41ac125",
            "0x6bced38a00000000000000000000000000000000000000000000000000000000",
            "0x0000000000000000000000000000000000000000000000000000000000000000",
            "0x00000000000000000000000046ae0962537593ab92f5ec98d0d99bce8f137de2"
          ],
          "data": "0x",
          "blockHash": "0x57df37f9ec0b393794d29cce015eb28638962ab25415aa15139d0dae1d9b11fe",
          "blockNumber": "0x9ae4cd",
          "transactionHash": "0x6a17248ce8755ca9eda132d4fb15434b8f869b6c1917ae6e1678d50ad0805ac7",
          "transactionIndex": "0x8",
          "logIndex": "0x3b",
          "removed": false
        },
        {
          "address": "0x34914c7c6Bd75c1C69e14F50CE5285c2F5335e5c",
          "topics": [
            "0xf1a5d3e66660bd9e7b8ebd2a61970410ac63e9e1a874ebb0e0396cd4b41ac125",
            "0x251faf1800000000000000000000000000000000000000000000000000000000",
            "0x0000000000000000000000000000000000000000000000000000000000000000",
            "0x00000000000000000000000046ae0962537593ab92f5ec98d0d99bce8f137de2"
          ],
          "data": "0x",
          "blockHash": "0x57df37f9ec0b393794d29cce015eb28638962ab25415aa15139d0dae1d9b11fe",
          "blockNumber": "0x9ae4cd",
          "transactionHash": "0x6a17248ce8755ca9eda132d4fb15434b8f869b6c1917ae6e1678d50ad0805ac7",
          "transactionIndex": "0x8",
          "logIndex": "0x3c",
          "removed": false
        },
        {
          "address": "0x34914c7c6Bd75c1C69e14F50CE5285c2F5335e5c",
          "topics": [
            "0xf1a5d3e66660bd9e7b8ebd2a61970410ac63e9e1a874ebb0e0396cd4b41ac125",
            "0x0d29e4c000000000000000000000000000000000000000000000000000000000",
            "0x0000000000000000000000000000000000000000000000000000000000000000",
            "0x00000000000000000000000046ae0962537593ab92f5ec98d0d99bce8f137de2"
          ],
          "data": "0x",
          "blockHash": "0x57df37f9ec0b393794d29cce015eb28638962ab25415aa15139d0dae1d9b11fe",
          "blockNumber": "0x9ae4cd",
          "transactionHash": "0x6a17248ce8755ca9eda132d4fb15434b8f869b6c1917ae6e1678d50ad0805ac7",
          "transactionIndex": "0x8",
          "logIndex": "0x3d",
          "removed": false
        },
        {
          "address": "0x34914c7c6Bd75c1C69e14F50CE5285c2F5335e5c",
          "topics": [
            "0xf1a5d3e66660bd9e7b8ebd2a61970410ac63e9e1a874ebb0e0396cd4b41ac125",
            "0x5aee048e00000000000000000000000000000000000000000000000000000000",
            "0x0000000000000000000000000000000000000000000000000000000000000000",
            "0x00000000000000000000000046ae0962537593ab92f5ec98d0d99bce8f137de2"
          ],
          "data": "0x",
          "blockHash": "0x57df37f9ec0b393794d29cce015eb28638962ab25415aa15139d0dae1d9b11fe",
          "blockNumber": "0x9ae4cd",
          "transactionHash": "0x6a17248ce8755ca9eda132d4fb15434b8f869b6c1917ae6e1678d50ad0805ac7",
          "transactionIndex": "0x8",
          "logIndex": "0x3e",
          "removed": false
        },
        {
          "address": "0x34914c7c6Bd75c1C69e14F50CE5285c2F5335e5c",
          "topics": [
            "0xf1a5d3e66660bd9e7b8ebd2a61970410ac63e9e1a874ebb0e0396cd4b41ac125",
            "0x87c7a30f00000000000000000000000000000000000000000000000000000000",
            "0x0000000000000000000000000000000000000000000000000000000000000000",
            "0x00000000000000000000000026431f48c445a04bb526fe403247deafb0006206"
          ],
          "data": "0x",
          "blockHash": "0x57df37f9ec0b393794d29cce015eb28638962ab25415aa15139d0dae1d9b11fe",
          "blockNumber": "0x9ae4cd",
          "transactionHash": "0x6a17248ce8755ca9eda132d4fb15434b8f869b6c1917ae6e1678d50ad0805ac7",
          "transactionIndex": "0x8",
          "logIndex": "0x3f",
          "removed": false
        },
        {
          "address": "0x34914c7c6Bd75c1C69e14F50CE5285c2F5335e5c",
          "topics": [
            "0xf1a5d3e66660bd9e7b8ebd2a61970410ac63e9e1a874ebb0e0396cd4b41ac125",
            "0x1b5bba6a00000000000000000000000000000000000000000000000000000000",
            "0x0000000000000000000000000000000000000000000000000000000000000000",
            "0x00000000000000000000000026431f48c445a04bb526fe403247deafb0006206"
          ],
          "data": "0x",
          "blockHash": "0x57df37f9ec0b393794d29cce015eb28638962ab25415aa15139d0dae1d9b11fe",
          "blockNumber": "0x9ae4cd",
          "transactionHash": "0x6a17248ce8755ca9eda132d4fb15434b8f869b6c1917ae6e1678d50ad0805ac7",
          "transactionIndex": "0x8",
          "logIndex": "0x40",
          "removed": false
        },
        {
          "address": "0x34914c7c6Bd75c1C69e14F50CE5285c2F5335e5c",
          "topics": [
            "0xf1a5d3e66660bd9e7b8ebd2a61970410ac63e9e1a874ebb0e0396cd4b41ac125",
            "0xe0c95a8400000000000000000000000000000000000000000000000000000000",
            "0x0000000000000000000000000000000000000000000000000000000000000000",
            "0x000000000000000000000000d3a8bb5a181993e869ac89bf6e66f68aeabdb7ff"
          ],
          "data": "0x",
          "blockHash": "0x57df37f9ec0b393794d29cce015eb28638962ab25415aa15139d0dae1d9b11fe",
          "blockNumber": "0x9ae4cd",
          "transactionHash": "0x6a17248ce8755ca9eda132d4fb15434b8f869b6c1917ae6e1678d50ad0805ac7",
          "transactionIndex": "0x8",
          "logIndex": "0x41",
          "removed": false
        },
        {
          "address": "0x34914c7c6Bd75c1C69e14F50CE5285c2F5335e5c",
          "topics": [
            "0xf1a5d3e66660bd9e7b8ebd2a61970410ac63e9e1a874ebb0e0396cd4b41ac125",
            "0x073bca3400000000000000000000000000000000000000000000000000000000",
            "0x0000000000000000000000000000000000000000000000000000000000000000",
            "0x000000000000000000000000d3a8bb5a181993e869ac89bf6e66f68aeabdb7ff"
          ],
          "data": "0x",
          "blockHash": "0x57df37f9ec0b393794d29cce015eb28638962ab25415aa15139d0dae1d9b11fe",
          "blockNumber": "0x9ae4cd",
          "transactionHash": "0x6a17248ce8755ca9eda132d4fb15434b8f869b6c1917ae6e1678d50ad0805ac7",
          "transactionIndex": "0x8",
          "logIndex": "0x42",
          "removed": false
        },
        {
          "address": "0x34914c7c6Bd75c1C69e14F50CE5285c2F5335e5c",
          "topics": [
            "0x8be0079c531659141344cd1fd0a4f28419497f9722a3daafe3b4186f6b6457e0",
            "0x0000000000000000000000002c333bd1316ce1af9ebf017a595d6f8ab5f6bd1a",
            "0x000000000000000000000000e7affdb964178261df49b86bfdba78e9d768db6d"
          ],
          "data": "0x",
          "blockHash": "0x57df37f9ec0b393794d29cce015eb28638962ab25415aa15139d0dae1d9b11fe",
          "blockNumber": "0x9ae4cd",
          "transactionHash": "0x6a17248ce8755ca9eda132d4fb15434b8f869b6c1917ae6e1678d50ad0805ac7",
          "transactionIndex": "0x8",
          "logIndex": "0x43",
          "removed": false
        },
        {
          "address": "0x34914c7c6Bd75c1C69e14F50CE5285c2F5335e5c",
          "topics": [
            "0x5daa87a0e9463431830481fd4b6e3403442dfb9a12b9c07597e9f61d50b633c8"
          ],
          "data": "0x",
          "blockHash": "0x57df37f9ec0b393794d29cce015eb28638962ab25415aa15139d0dae1d9b11fe",
          "blockNumber": "0x9ae4cd",
          "transactionHash": "0x6a17248ce8755ca9eda132d4fb15434b8f869b6c1917ae6e1678d50ad0805ac7",
          "transactionIndex": "0x8",
          "logIndex": "0x44",
          "removed": false
        }
      ],
      "status": "0x1",
      "logsBloom": "0x00200000000000000000000008000000400000000000800020800000000000000000000040800200001000080000000001000400000001000000002000100100000010000000000000200020100042200001000040000000001004000000000000040000020080400000000000000800000000000000000800000000201000400000000000004000000000000000010000000000000040000080000000100000000010000020000004000040000000000000000000000104000000000004020000000020200000000000000000840000010014040000000000000000204021000000010100020000000000000000000001000060004002140000000000002000",
      "type": "0x2",
      "effectiveGasPrice": "0xb2d05e70"
    }
  ],
  "libraries": [],
  "pending": [],
  "returns": {},
  "timestamp": 1701618362,
  "chain": 5,
  "multi": false,
  "commit": "7f365ab"
}