{
  "transactions": [
    {
      "hash": "0x169e3e37a366f6280020fce46ce81806aa7b50c665eb28adf27570ecb8a49d77",
      "transactionType": "CALL",
      "contractName": "ERC6551Registry",
      "contractAddress": "0x000000006551c19487814612e58FE06813775758",
      "function": "createAccount(address,bytes32,uint256,address,uint256)",
      "arguments": [
        "0x41C8f39463A868d3A88af00cd0fe7102F30E44eC",
        "0x0000000000000000000000000000000000000000000000000000000000000000",
        "5",
        "0x4dD30A31962431da2e7359de2527eeD09902B65F",
        "1"
      ],
      "transaction": {
        "type": "0x02",
        "from": "0xe7affdb964178261df49b86bfdba78e9d768db6d",
        "to": "0x000000006551c19487814612e58fe06813775758",
        "gas": "0x2001f",
        "value": "0x0",
        "data": "0x8a54c52f00000000000000000000000041c8f39463a868d3a88af00cd0fe7102f30e44ec000000000000000000000000000000000000000000000000000000000000000000000000000000000000000000000000000000000000000000000000000000050000000000000000000000004dd30a31962431da2e7359de2527eed09902b65f0000000000000000000000000000000000000000000000000000000000000001",
        "nonce": "0x269",
        "accessList": []
      },
      "additionalContracts": [
        {
          "transactionType": "CREATE2",
          "address": "0x77F19999120B87b2254b4C31D4d2A12833dCA390",
          "initCode": "0x3d60ad80600a3d3981f3363d3d373d3d3d363d7341c8f39463a868d3a88af00cd0fe7102f30e44ec5af43d82803e903d91602b57fd5bf3000000000000000000000000000000000000000000000000000000000000000000000000000000000000000000000000000000000000000000000000000000050000000000000000000000004dd30a31962431da2e7359de2527eed09902b65f0000000000000000000000000000000000000000000000000000000000000001"
        }
      ],
      "isFixedGasLimit": false
    }
  ],
  "receipts": [],
  "libraries": [],
  "pending": [
    "0x169e3e37a366f6280020fce46ce81806aa7b50c665eb28adf27570ecb8a49d77"
  ],
  "returns": {},
  "timestamp": 1701618666,
  "chain": 5,
  "multi": false,
  "commit": "7f365ab"
}