{
  "transactions": [
    {
      "hash": "0xe8cf6232cdc341af83bfc400a8abfcb77a8188076286d83d8418103b5124196c",
      "transactionType": "CALL",
      "contractName": "ERC6551Registry",
      "contractAddress": "0x000000006551c19487814612e58FE06813775758",
      "function": "createAccount(address,bytes32,uint256,address,uint256)",
      "arguments": [
        "0x41C8f39463A868d3A88af00cd0fe7102F30E44eC",
        "0x0000000000000000000000000000000000000000000000000000000000000000",
        "5",
        "0x28aAF781E430E5Ab48DDb44aEF0D621c0d0f0342",
        "1"
      ],
      "transaction": {
        "type": "0x02",
        "from": "0xe7affdb964178261df49b86bfdba78e9d768db6d",
        "to": "0x000000006551c19487814612e58fe06813775758",
        "gas": "0x2001f",
        "value": "0x0",
        "data": "0x8a54c52f00000000000000000000000041c8f39463a868d3a88af00cd0fe7102f30e44ec0000000000000000000000000000000000000000000000000000000000000000000000000000000000000000000000000000000000000000000000000000000500000000000000000000000028aaf781e430e5ab48ddb44aef0d621c0d0f03420000000000000000000000000000000000000000000000000000000000000001",
        "nonce": "0x23e",
        "accessList": []
      },
      "additionalContracts": [
        {
          "transactionType": "CREATE2",
          "address": "0x1dcdbd35c21eB88172F154cad0100896e8B4327d",
          "initCode": "0x3d60ad80600a3d3981f3363d3d373d3d3d363d7341c8f39463a868d3a88af00cd0fe7102f30e44ec5af43d82803e903d91602b57fd5bf30000000000000000000000000000000000000000000000000000000000000000000000000000000000000000000000000000000000000000000000000000000500000000000000000000000028aaf781e430e5ab48ddb44aef0d621c0d0f03420000000000000000000000000000000000000000000000000000000000000001"
        }
      ],
      "isFixedGasLimit": false
    }
  ],
  "receipts": [],
  "libraries": [],
  "pending": [
    "0xe8cf6232cdc341af83bfc400a8abfcb77a8188076286d83d8418103b5124196c"
  ],
  "returns": {},
  "timestamp": 1701580197,
  "chain": 5,
  "multi": false,
  "commit": "09fbcfd"
}