{
  "transactions": [
    {
      "hash": "0x169e3e37a366f6280020fce46ce81806aa7b50c665eb28adf27570ecb8a49d77",
      "transactionType": "CALL",
      "contractName": "ERC6551Registry",
      "contractAddress": "0x000000006551c19487814612e58FE06813775758",
      "function": "createAccount(address,bytes32,uint256,address,uint256)",
      "arguments": [
        "0x41C8f39463A868d3A88af00cd0fe7102F30E44eC",
        "0x0000000000000000000000000000000000000000000000000000000000000000",
        "5",
        "0x4dD30A31962431da2e7359de2527eeD09902B65F",
        "1"
      ],
      "transaction": {
        "type": "0x02",
        "from": "0xe7affdb964178261df49b86bfdba78e9d768db6d",
        "to": "0x000000006551c19487814612e58fe06813775758",
        "gas": "0x2001f",
        "value": "0x0",
        "data": "0x8a54c52f00000000000000000000000041c8f39463a868d3a88af00cd0fe7102f30e44ec000000000000000000000000000000000000000000000000000000000000000000000000000000000000000000000000000000000000000000000000000000050000000000000000000000004dd30a31962431da2e7359de2527eed09902b65f0000000000000000000000000000000000000000000000000000000000000001",
        "nonce": "0x269",
        "accessList": []
      },
      "additionalContracts": [
        {
          "transactionType": "CREATE2",
          "address": "0x77F19999120B87b2254b4C31D4d2A12833dCA390",
          "initCode": "0x3d60ad80600a3d3981f3363d3d373d3d3d363d7341c8f39463a868d3a88af00cd0fe7102f30e44ec5af43d82803e903d91602b57fd5bf3000000000000000000000000000000000000000000000000000000000000000000000000000000000000000000000000000000000000000000000000000000050000000000000000000000004dd30a31962431da2e7359de2527eed09902b65f0000000000000000000000000000000000000000000000000000000000000001"
        }
      ],
      "isFixedGasLimit": false
    }
  ],
  "receipts": [
    {
      "transactionHash": "0x169e3e37a366f6280020fce46ce81806aa7b50c665eb28adf27570ecb8a49d77",
      "transactionIndex": "0xb",
      "blockHash": "0xf596f531f05af54abe3175a03ff82aeada7b5ce82cbd3917c5ea18f03481b2c1",
      "blockNumber": "0x9ae4e3",
      "from": "0xE7affDB964178261Df49B86BFdBA78E9d768Db6D",
      "to": "0x000000006551c19487814612e58FE06813775758",
      "cumulativeGasUsed": "0x9171e",
      "gasUsed": "0x172d1",
      "contractAddress": null,
      "logs": [
        {
          "address": "0x000000006551c19487814612e58FE06813775758",
          "topics": [
            "0x79f19b3655ee38b1ce526556b7731a20c8f218fbda4a3990b6cc4172fdf88722",
            "0x00000000000000000000000041c8f39463a868d3a88af00cd0fe7102f30e44ec",
            "0x0000000000000000000000004dd30a31962431da2e7359de2527eed09902b65f",
            "0x0000000000000000000000000000000000000000000000000000000000000001"
          ],
          "data": "0x00000000000000000000000077f19999120b87b2254b4c31d4d2a12833dca39000000000000000000000000000000000000000000000000000000000000000000000000000000000000000000000000000000000000000000000000000000005",
          "blockHash": "0xf596f531f05af54abe3175a03ff82aeada7b5ce82cbd3917c5ea18f03481b2c1",
          "blockNumber": "0x9ae4e3",
          "transactionHash": "0x169e3e37a366f6280020fce46ce81806aa7b50c665eb28adf27570ecb8a49d77",
          "transactionIndex": "0xb",
          "logIndex": "0x3",
          "removed": false
        }
      ],
      "status": "0x1",
      "logsBloom": "0x00010000000000000000000000000004000000000000080000000004000000000000000000000000000000000000000000000000000000000000000000040000000000001000000000000000000000000000000000040000000000000080000000000000000000000000000000000000000000000000000000000000000000000000000000002000000000000000000000000000000000000004080000000000000000000000000000000000002000000000000000000000000000000000000000000000000000000000000000000000000000000000000000000000000040000000000000000000000000100000000000000000000000000000000000000100",
      "type": "0x2",
      "effectiveGasPrice": "0xb2d05e8f"
    }
  ],
  "libraries": [],
  "pending": [],
  "returns": {},
  "timestamp": 1701618685,
  "chain": 5,
  "multi": false,
  "commit": "7f365ab"
}