{
  "transactions": [
    {
      "hash": "0xe8cf6232cdc341af83bfc400a8abfcb77a8188076286d83d8418103b5124196c",
      "transactionType": "CALL",
      "contractName": "ERC6551Registry",
      "contractAddress": "0x000000006551c19487814612e58FE06813775758",
      "function": "createAccount(address,bytes32,uint256,address,uint256)",
      "arguments": [
        "0x41C8f39463A868d3A88af00cd0fe7102F30E44eC",
        "0x0000000000000000000000000000000000000000000000000000000000000000",
        "5",
        "0x28aAF781E430E5Ab48DDb44aEF0D621c0d0f0342",
        "1"
      ],
      "transaction": {
        "type": "0x02",
        "from": "0xe7affdb964178261df49b86bfdba78e9d768db6d",
        "to": "0x000000006551c19487814612e58fe06813775758",
        "gas": "0x2001f",
        "value": "0x0",
        "data": "0x8a54c52f00000000000000000000000041c8f39463a868d3a88af00cd0fe7102f30e44ec0000000000000000000000000000000000000000000000000000000000000000000000000000000000000000000000000000000000000000000000000000000500000000000000000000000028aaf781e430e5ab48ddb44aef0d621c0d0f03420000000000000000000000000000000000000000000000000000000000000001",
        "nonce": "0x23e",
        "accessList": []
      },
      "additionalContracts": [
        {
          "transactionType": "CREATE2",
          "address": "0x1dcdbd35c21eB88172F154cad0100896e8B4327d",
          "initCode": "0x3d60ad80600a3d3981f3363d3d373d3d3d363d7341c8f39463a868d3a88af00cd0fe7102f30e44ec5af43d82803e903d91602b57fd5bf30000000000000000000000000000000000000000000000000000000000000000000000000000000000000000000000000000000000000000000000000000000500000000000000000000000028aaf781e430e5ab48ddb44aef0d621c0d0f03420000000000000000000000000000000000000000000000000000000000000001"
        }
      ],
      "isFixedGasLimit": false
    }
  ],
  "receipts": [
    {
      "transactionHash": "0xe8cf6232cdc341af83bfc400a8abfcb77a8188076286d83d8418103b5124196c",
      "transactionIndex": "0x8",
      "blockHash": "0x71b94c2787aae7d91f692fe0cd15c82466bfdeb0088416a49a26913e06340473",
      "blockNumber": "0x9adaf3",
      "from": "0xE7affDB964178261Df49B86BFdBA78E9d768Db6D",
      "to": "0x000000006551c19487814612e58FE06813775758",
      "cumulativeGasUsed": "0x75109",
      "gasUsed": "0x172d1",
      "contractAddress": null,
      "logs": [
        {
          "address": "0x000000006551c19487814612e58FE06813775758",
          "topics": [
            "0x79f19b3655ee38b1ce526556b7731a20c8f218fbda4a3990b6cc4172fdf88722",
            "0x00000000000000000000000041c8f39463a868d3a88af00cd0fe7102f30e44ec",
            "0x00000000000000000000000028aaf781e430e5ab48ddb44aef0d621c0d0f0342",
            "0x0000000000000000000000000000000000000000000000000000000000000001"
          ],
          "data": "0x0000000000000000000000001dcdbd35c21eb88172f154cad0100896e8b4327d00000000000000000000000000000000000000000000000000000000000000000000000000000000000000000000000000000000000000000000000000000005",
          "blockHash": "0x71b94c2787aae7d91f692fe0cd15c82466bfdeb0088416a49a26913e06340473",
          "blockNumber": "0x9adaf3",
          "transactionHash": "0xe8cf6232cdc341af83bfc400a8abfcb77a8188076286d83d8418103b5124196c",
          "transactionIndex": "0x8",
          "logIndex": "0x3",
          "removed": false
        }
      ],
      "status": "0x1",
      "logsBloom": "0x00010000000000000000000000000004000000000000000000000004000000000000000000000000000000000000000001000000000000000000000000040000000000001000000000800000000000000000000000040000400000000000000000000000000000000000000000000000000000000000000000000000000000000000000000002000000000000000000000000000000000000004000000000000000000000000000000000000002000000000000000000000000000000000000000000000000000000000000000000000000000000000000000000000000040000000000000000000000000100000000000000000000000000000000000000100",
      "type": "0x2",
      "effectiveGasPrice": "0xb2d05e0a"
    }
  ],
  "libraries": [],
  "pending": [],
  "returns": {},
  "timestamp": 1701580215,
  "chain": 5,
  "multi": false,
  "commit": "09fbcfd"
}